:020000040800F2
:10000000280D0020AD0100087F33000825310008CD
:100010007D33000849160008B540000800000000C4
:10002000000000000000000000000000073B000886
:10003000111A000800000000053B0008313B0008D1
:10004000C7010008C7010008C7010008C701000870
:10005000C7010008C7010008C7010008C701000860
:10006000C7010008C7010008C7010008C701000850
:10007000C7010008C7010008C7010008C701000840
:10008000C7010008C7010008C7010008C701000830
:10009000C7010008C7010008C7010008C701000820
:1000A000C7010008C7010008C7010008C701000810
:1000B000C7010008C7010008C7010008C701000800
:1000C000C7010008C7010008C7010008C7010008F0
:1000D000C70100089D400008A9400008C7010008AA
:1000E000C7010008C7010008C701000800F002F8B6
:1000F00000F04DF80AA090E8000C82448344AAF175
:100100000107DA4501D100F042F8AFF2090EBAE872
:100110000F0013F0010F18BFFB1A43F0010318473B
:10012000486A0000686A0000103A24BF78C878C1A5
:10013000FAD8520724BF30C830C144BF04680C60ED
:10014000704700000023002400250026103A28BF35
:1001500078C1FBD8520728BF30C148BF0B60704739
:10016000662904F0A183642900F07E80732900F0E1
:100170001E84002070471FB500F01EFC0400002004
:10018000002104F02FF8E0601FBD10B510BD00F095
:1001900013FD1146FFF7EFFF03F0FAFF00F031FD0A
:1001A00003B4FFF7F2FF03BC00F074FD0948804779
:1001B00009480047FEE7FEE7FEE7FEE7FEE7FEE749
:1001C000FEE7FEE7FEE7FEE704480549054A064B61
:1001D00070470000213C0008ED00000828070020BF
:1001E000280D002028090020280900200FB41CB584
:1001F000074B06AA7B4469460090059800F0ADFBCA
:100200000020694600F0BCFB1CBC5DF814FB00003C
:100210008907000070B50C460546012A05D02878EC
:10022000800600D5EA69002302E0012305E05B1C9B
:10023000934202D2E05C0028F9D1A869E618C01AFE
:10024000A861286A184428622846AFF3008004E0B9
:10025000D5E9012114F8010B9047B442F8D32846A0
:10026000AFF3008070BD00002DE9F0410646002488
:1002700010687529314616A510D0AFF3008000280C
:1002800002DA404213A507E031688A0701D512A5BA
:1002900002E0490704D511A5012401E0AFF3008075
:1002A00000210A2206F1240709E0B0FBF2FCB0FBB2
:1002B000F2F302FB1C00303078541846491C002829
:1002C000F3D123462A463046BDE8F04100F0D8B8C5
:1002D000000000002D0000002B00000020000000A6
:1002E0002DE9F0474FF0000A89460446C0F820A0E7
:1002F0002046E1688847002876D0252806D0D4E932
:1003000001219047206A401C2062F1E7E168204605
:1003100000258847C4F81CA006460027C4F818A08A
:100320002A2E09D0304603F0EAFE38B304EB8708E2
:10033000303EC8F8186019E059F8041B204604EB59
:1003400087029161E1688847012F064618D1E0696C
:10035000002820DA25F020051DE0D8F8180000EB71
:10036000800006EB40003038C8F818002046E168ED
:100370008847064603F0C3FE0028EED1012F0AD0BD
:100380002E2E08D12046E16888477F1C0646022FA2
:1003900045F02005C4DBA069002803DA404245F09F
:1003A0000105A061E80701D025F01005B6B1A6F15E
:1003B0004100192802D8203645F400654A463146E6
:1003C000204625604D46FFF7CBFE58B1012806D0E8
:1003D000ED1D25F0070000F1080989E704E005F1AB
:1003E000040985E730468AE7206ABDE8F08710B542
:1003F000431C02E010F8011B71B18107FAD14FF0E4
:10040000013202C88C1A8C4314EAC211F9D0C01A06
:100410000A0603D0C01E10BDC01A10BD0A0401D0C8
:10042000801E10BD0902FCD0401E10BD4FF000021E
:1004300000B5134694469646203922BFA0E80C50DA
:10044000A0E80C50B1F12001BFF4F7AF090728BFB5
:10045000A0E80C5048BF0CC05DF804EB890028BF31
:1004600040F8042B08BF704748BF20F8022B11F05A
:10047000804F18BF00F8012B7047704770477047D6
:100480002DE9F0470D4699469246044600F12408AE
:100490000168880604D5E06921F01001216000E0C0
:1004A0000120A84201DD471B00E00027A1697A195D
:1004B00002EB0900081AA0612078C00602D4204689
:1004C000AFF30080002608E0D4E901211AF8060005
:1004D0009047206A401C761C20624E45F4DB207851
:1004E000C0060AD52046AFF3008006E0D4E901211A
:1004F00030209047206A401C2062381EA7F1010777
:10050000F4DC07E0D4E9012118F805009047206ADF
:10051000401C2062281EA5F10105F3DC2046AFF344
:1005200000802078000602D50220BDE8F087012077
:10053000FBE770472DE9FF4F0C461E464FF0FF3793
:100540008BB0D2E90001DDF860800A908A46C1F3E1
:100550000A5505B93D46002108464FF00000BAF1A2
:10056000000F00F4400005DA00EB80004FF440017A
:1005700001EA50004FEA9059B9F1010F00DDB94688
:100580000A9850EA4A000ED044F61050A5F2FF3502
:1005900045432F14B8F1000F1ED07542291E1EDDF1
:1005A000C9F100021CE0B8F1010F4FF0000001D0CA
:1005B000302103E0F24305E02154401CB042FBDB54
:1005C00030460022002121540B99C1F80880C1E96E
:1005D00000200FB0BDE8F08FBD1B6D1CDEE74A4662
:1005E00000DA694206A800F071FA06AB93E807004A
:1005F00003AB83E8070050460A9900F052FB8DE8F0
:100600000700A0F500501F3800900398002D0ADD68
:1006100042F21F014A460844002303A9039068469A
:1006200000F0BBFD09E0A0F500504A461F3800234A
:1006300003A90390684600F0C5FD8DE8070000049B
:10064000000C03D04FF0FF30410800E01046B8F135
:10065000000F03D00022009215461EE0751E05D43F
:1006600000F0AEF9303262556D1EF9D5B346012265
:10067000084302D000227F1C04E02078302801D1FA
:1006800000227F1E002A099784D01DE0112D07DA71
:1006900000F096F9303262556D1C50EA0102F5D136
:1006A000084302D00098C8B10EE00021681E05E0A2
:1006B000235C625C63542254401E491C8142F7DB78
:1006C000AB46A81B401E0990002004F80B000B98B5
:1006D000099AC0F80880C0E9002B7AE711264FF08C
:1006E000000857E72DE9F04F88460446D21D22F056
:1006F000070191B0D1E90001CDE90A0103F0DBFC6B
:1007000002460B98C00F01D02D2007E0206881071A
:1007100001D52B2002E0202101EAC000032A099024
:1007200001D0072A05DB03464146204600F08EF93A
:100730000BE12078800601D5E06900E00620B8F1E1
:10074000650F814606D0B8F1660F18D0B8F1670F73
:1007500070D131E00020B9F1110F009001DB1123BD
:1007600001E009F101030AAA01A90CA8FFF7E2FEC2
:10077000DDE90C70002609F10105834647E0012000
:100780004B4600904FF000470AAA01A90CA8FFF7BA
:10079000D1FEDDE90DB00C995D46002610B909F1D6
:1007A00001000D18B9EB050003D4C0F1FF3609F1C3
:1007B0000105A5EB09002BE0B9F1010F01DA4FF0BB
:1007C00001090020B9F1110F0090484601DD112305
:1007D00000E003460AAA01A90CA8FFF7ABFEDDE979
:1007E0000C704D4600268346207800070AD4AB459E
:1007F00000DA5D4601A8012D04DD411911F8011C44
:10080000302907D04F4502DA17F1040F04DA01202E
:1008100082460FE06D1EEEE7002F02DCED1B3E442A
:1008200003E0781CA84200DD7D1CB81B00F1010A22
:100830004FF000472078000703D4AA4501DB4FF0B2
:10084000FF3A0021B7F1004F0DF143088DF8431036
:1008500024D002202B23002F01DA7F422D230A21EE
:10086000021EA0F1010000DC5FB197FBF1FC97FBD9
:10087000F1F201FB1C7C17460CF1300C08F801CD9D
:10088000EEE7A8F1010003702188090501D5452193
:1008900000E06521A0F1010800F8011C09980FA9EA
:1008A000A1EB0807FF1D00B10120411901EBEA701F
:1008B000A1693844081A401EA0612078C00602D4FD
:1008C0002046AFF30080099828B1D4E90121904770
:1008D000206A401C20622078C00622D52046AFF353
:1008E00000801EE0002E04DBB34502DD01A8805D20
:1008F00000E03020D4E901219047206A401C2062AA
:10090000761CAAF101005FEA000A0AD100F054F84F
:10091000C0680168405CD4E901219047206A401C0E
:100920002062281EA5F10105DCDC07E0D4E90121E5
:1009300018F8010B9047206A401C2062381EA7F16E
:100940000107F3DC2046AFF30080032011B041E63D
:1009500001694A1C02610878704700B58FB0CDE983
:1009600001310021059105497944CDE90310114673
:100970006846FFF7B5FC0FB000BD0000E5FFFFFFC4
:100980000A6802F8010B0A60704710B5436913B199
:10099000AFF3008001E0FFF73DFC012010BD1278AD
:1009A00000F124010A7000224A700122EDE711686B
:1009B0004FF0FF32E9E7000000487047E8060020EA
:1009C00030B5B0F10A024FEA900E71F100034EEA21
:1009D000817EB0EB0E0061EB91014FEA101E4EEAF2
:1009E000017E10EB0E0041EB11114FEA102E4EEA82
:1009F000016E10EB0E0041EB11214FEA104E4EEA52
:100A0000014E10EB0E0041EB1141401841F1000185
:100A10004FEAD00040EA41704FEAD10110EB800567
:100A20004FEA810444EA907444EB01046D1944EBED
:100A30000404521BA3414FF0000348BF0A3200D503
:100A400030BD401C41F1000130BD00002DE9F041F6
:100A50001F46044603260168072A01F4006004DBF0
:100A600008B116A505E016A503E008B115A500E03C
:100A700015A521F010002060A069C01EA0610FB173
:100A8000401EA0612046AFF300804FB1D4E90121A0
:100A900038469047206A401C2062C01C206206E055
:100AA000206AFAE7D4E9012115F8010B9047761E78
:100AB000F8D22046AFF30080BDE8F0814E414E00F1
:100AC0006E616E00494E4600696E66002DE9F04782
:100AD000814616468AB0354878440DC88DE80D0029
:100AE00032487844801C03AC0DC884E80D0041F600
:100AF0009B300844372190FBF1F290FBF1F5A5F112
:100B0000800501FB12041B3C02D56442012000E079
:100B10000020DFF898A080460027FA44AAF1BE0A18
:100B20000EE0E0070AD03246684607EB4701012392
:100B30000AEB810100F046FB8DE8070064107F1C82
:100B4000002CEED1194F7F44AE3F19E0E80715D0D5
:100B500007EB04100DF1180A90E80E008AE80E0069
:100B6000C068F04201D1981908903246012306A9C5
:100B700003A800F027FB03AB83E807006D10641C9B
:100B8000002DE3D14FF0010332466946B8F1000F62
:100B900003A802D000F001FB01E000F013FBC9E95B
:100BA0000001C9F808200AB0BDE8F08774600000B1
:100BB00000487047C80600207546FFF7F9FFAE46AB
:100BC00005006946534620F00700854618B020B559
:100BD000FFF7FAFABDE820404FF000064FF000079B
:100BE0004FF000084FF0000B21F00701AC46ACE8D5
:100BF000C009ACE8C009ACE8C009ACE8C0098D4642
:100C0000704710B50446AFF300802046BDE81040A1
:100C1000FFF7C6BA4FF0013C50F8042B51F8043BE3
:100C20009A4221D1A2EB0C03934313EACC1317D1C0
:100C300050F8042B51F8043B9A4215D1A2EB0C0357
:100C4000934313EACC130BD150F8042B51F8043B17
:100C50009A4209D1A2EB0C03934313EACC13DBD0E5
:100C60004FF00000704700BFD01A01BAB1FA81F10D
:100C700001F0180122FA01F0CB40C1F12001DBB2F2
:100C8000C0B2C01A2CFA01F3D11A914311EAC31170
:100C9000E6D1704701491820ABBEFEE726000200EE
:100CA00070475FEA400C08BF91F0000F4FEA8C23B9
:100CB0004FEAC12243EA51514FEA1C5018BF00F5D8
:100CC000F0404FEA300018BF41F000415FEA6C5C31
:100CD00000F02980BCF1FF3F08BF40F08040704722
:100CE000130C06BF12044FF0100C4FF0000C130E43
:100CF00004BF12020CF1080C130F04BF12010CF117
:100D0000040C930F04BF92000CF1020CD30F04BF2C
:100D100052000CF1010C11464FF00002A0F11F002F
:100D2000A0EB0C00704711F0004F08BF704731F086
:100D300000413FF4D5AF0B0C06BF09044FF0100C77
:100D40004FF0000C0B0E04BF09020CF1080C0B0F46
:100D500004BF09010CF1040C8B0F04BF89000CF1D6
:100D6000020CCB0F04BF49000CF1010CCCF12003A5
:100D7000A0EB0C0022FA03F302FA0CF241EA0301A1
:100D800000F10100704720F07F4C80EA030023F05F
:100D90007F47ACEB070303F57C5300F0004003F101
:100DA000FF032DE980494FEA154B09B44FEA14437C
:100DB00025EA0B4E24EA03480FF2042606EB13271C
:100DC00049083E785FEA320203FB0667C7F5000771
:100DD00007FB06F64FEA54374FEAD64606F10206FD
:100DE00007FB066CCCF1005C4FEA1C472CEA074C71
:100DF00007FB06F40CFB06F504EB15464FEA9616C6
:100E000034BF00204FF000404FEAD13706FB07FC0B
:100E10004FEA1C4C0CFB0BF7D21B03FB0CF761EBEE
:100E200007010CFB0EF7B0EB074072EB17420CFB0F
:100E300008F734BFA2EB0742B2EB074261EB174160
:100E40004FEA0C444FEA910706FB07FC4FEA1C4CA3
:100E50000CFB0BF7B0EBC74072EB573203FB0CF700
:100E600034BFA2EBC742B2EBC74261EB57310CFB78
:100E70000EF7B0EBC70072EB57720CFB08F734BFEC
:100E8000A2EBC702B2EBC70261EB5771039F4FEAB7
:100E9000816141EA921104EBCC044FEAD1374FEA69
:100EA000826206FB07FC42EA90124FEA80604FEA3A
:100EB0001C4C0CFB0BF7D21B03FB0CF761EB07017F
:100EC0000CFB0EF7B0EB074072EB17420CFB08F778
:100ED00034BFA2EB0742B2EB074261EB17414FEA86
:100EE0008C554FEA910704EB9C2406FB07FC4FEA64
:100EF0001C4C0CFB0BF7B0EBC74072EB573203FBFB
:100F00000CF734BFA2EBC742B2EBC74261EB5731DB
:100F10000CFB0EF7B0EBC70072EB57720CFB08F737
:100F200034BFA2EBC702B2EBC70261EB577115EBFE
:100F30004C254FEA816141EA92114FEA82624FEA01
:100F4000D13742EA901206FB07FC44F100044FEA55
:100F500080604FEA1C4C0CFB0BF7D21B03FB0CF719
:100F600061EB07010CFB0EF7B0EB074072EB174289
:100F70000CFB08F734BFA2EB0742B2EB074261EB70
:100F8000174115EB1C154FEA813141EA92414FEAB6
:100F9000823242EA90424FEA80304FEA0C7644F1C6
:100FA000000448EA03434EEA0B484FF0000EB2EB50
:100FB000080C71EB030724BF624639464EEB0E0E58
:100FC0004FF0000B0018524149414BEB0B0BB2EBB9
:100FD000080C71EB03077BF1000B24BF6246394616
:100FE0004EEB0E0E4FF0000B0018524149414BEBF7
:100FF0000B0BB2EB080C71EB03077BF1000B24BF6A
:10100000624639464EEB0E0E51EA020718BF46F013
:10101000010616EB0E7655F1000254F1000103D5DE
:10102000BDE88901BDE80088BDE88901BDE8004848
:10103000B619524141EB0101A3F1010370478080D1
:101040007F7E7D7C7B7A7978777676757473727122
:1010500071706F6E6E6D6C6C6B6A6A6968686766DA
:1010600066656464636362616160605F5F5E5E5D6C
:101070005D5C5C5B5B5A5A595958585757565655E0
:1010800055555454535352525251515050504F4F42
:101090004F4E4E4D4D4D4C4C4C4B4B4B4A4A4A4992
:1010A00049494848484747474746464645454544D5
:1010B0004444444343434342424242414141002B62
:1010C0009C4630D477002BD01CB54FEA370703B4C9
:1010D0004FF010004FF01001BAF1000F06D0BCF134
:1010E000000FDCBF40F0080040F008014FF00000A6
:1010F0000FBCBDE810400BF1010BBBF1010F08BFA5
:101100005FEA170722BF12F1010211F101014FF04E
:10111000004143F1000300F0004043EA0000704743
:10112000F9D35708D0E746EA064613F1400F4FEAD5
:1011300016461FDD13F1200FDFBF16430A460021BC
:1011400020335B42BED0C3F1200746EA064602FACE
:1011500007F74FEA164646EA0706C3F1200722FAC8
:1011600003F201FA07F721FA03F14FF0000342EA14
:101170000702A7E746EA020646EA06464FEA16468F
:1011800046EA0106BCBF46EA0646360C4FF00003AD
:101190004FF000024FF0000194E72DE9804C9A4691
:1011A000934670B491E8380007C831EA400C48BF54
:1011B00034EA430C03D5FFF7E6FDFFF780FFF0BCF0
:1011C000BDE8008C2DE9804C9A46934670B491E8B6
:1011D000380007C810F0804F08BF13F0804F03D1CC
:1011E00000F005F8FFF76BFFF0BCBDE8008C20F0C5
:1011F0007F4780EA030023F07F4C07EB0C03A3F545
:101200007C5300F00040A3F1FE0392F0000F00F0C9
:10121000B38095F0000F00F077802DE901494FEA87
:1012200011404FEA144621EA004800FB06FC24EA7C
:10123000064708FB06F607FB08F800FB07F718EB64
:1012400006484CEB164C4FEA124B18EB07484FEA96
:1012500015464CEB174022EA0B4E0BFB06FC25EA29
:1012600006470EFB06F607FB0EFE0BFB07F71EEB11
:10127000064E4CEB164C4FF000061EEB074E4CEBA7
:10128000174B18EB0B0840F1000018EB0E0B58EB56
:10129000000840F100008F1A4FF000013CBFC94325
:1012A000661B14BFB5EB040C00213CBFC943F61B01
:1012B0004FEA17444EEA8E0E27EA04454FEA1C47D0
:1012C00004FB07622CEA074C05FB07F70CFB05F64D
:1012D00004FB0CFC16EB074642EB174216EB0C46E0
:1012E00042EB1C421BEB060658EB0202414146EA68
:1012F0009E0601D5BDE80189B619524141EB0101B5
:10130000A3F10103BDE801894FEA14454FEA1147F3
:1013100024EA054621EA074C05FB07F406FB07F71C
:101320000CFB06F105FB0CFC11EB074144EB1744E9
:101330004FEA124711EB0C4144EB1C4422EA074CE4
:1013400005FB07F206FB07F70CFB06F605FB0CFC9A
:1013500016EB074642EB174216EB0C4642EB1C45D8
:101360006A1854F1000148BF7047B619524141EB69
:101370000101A3F10103704795F0000F37D04FEA48
:1013800011424FEA144721EA024624EA074C02FBC5
:1013900007F106FB07F70CFB06F402FB0CFC14EB51
:1013A000074441EB17414FEA154714EB0C4441EB5E
:1013B0001C4125EA074C02FB07F506FB07F70CFB6F
:1013C00006F602FB0CFC16EB074645EB174516EB41
:1013D0000C4645EB1C42121951F1000148BF704701
:1013E000B619524141EB0101A3F1010370474FEAE5
:1013F00014454FEA114724EA054621EA074C05FB4C
:1014000007F106FB07F70CFB06F24FF0000605FBA1
:101410000CFC12EB074241EB174112EB0C4251EB73
:101420001C4148BF7047921841EB0101A3F1010331
:101430007047000070B5044600688168C943C90759
:101440001CD1816821F00101816000F013FF054685
:101450000FE000BF00F00EFF401B022809D9A06A70
:1014600040F01000A062E06A40F00100E06201205C
:1014700070BD20688068C043C007EBD0002070BDFD
:10148000F8B500260446009600688168C943C9077C
:1014900028D0816841F00101816013481349006838
:1014A000B0FBF1F000E0401E00900028FBD100F0FE
:1014B000E1FE054611E000BF00F0DCFE401B022803
:1014C0000BD9A06A40F01000A062E06A40F0010071
:1014D000E06284F824600120F8BD20688068C04381
:1014E000C007E9D10020F8BD2400002040420F00D1
:1014F0007FB52C4D6878002812D02B4A00242B4948
:101500001078302807D0312807D0322809D0097840
:10151000012936D037E00C7001E0012008706C70B2
:101520007FBD2348B0F9000003F0C6F8214903F05D
:10153000EFF802F0B1FFCDE902011F48007808B1D1
:101540001EA000E01FA02049097809B11BA100E0FE
:101550001CA1CDE900101D48007808B117A300E0D8
:1015600018A31B48007808B114A200E015A20E4889
:1015700018A16430FEF73AFE0B48643000F04EF8D4
:10158000CDE7332801D01470C9E75A211D4802F075
:10159000BBFA4FF4967000F061FD0021194802F08B
:1015A000B3FABCE728000020000600200900002054
:1015B0000A000020CDCCCC3D030000206775616E91
:1015C000000000006B61690002000020070000209D
:1015D0000800002063735F73623A25732C676C5FA9
:1015E00073623A25732C74735F64756F6A693A2568
:1015F000732C6A723A25732C74656D703A252E31FE
:1016000066000000C000002001220249024801F0EB
:10161000EFBC0000280000204001002010B5044667
:10162000084800680168C9430906FBD42046FEF754
:10163000DEFE214682B2BDE810404FF0FF33014884
:1016400001F012BD40010020FEE700002DE9F04747
:1016500002F05CFDFFF74CFF00F0F2F83B4C6081BC
:10166000607A002865D13A4F3A49DFF8EC90786803
:1016700001260025884203DD26702572002202E043
:101680002570267201220221484600F0EEFD6078A6
:1016900078B95A21314802F037FA4FF4967000F0C9
:1016A000DDFC00212D4802F02FFAA5810520607095
:1016B000A570B4F90A006179DFF8A480884206DADF
:1016C00001220221404600F0D0FDE67008E02179B9
:1016D000884205DB00220221404600F0C6FDE5708D
:1016E000386802F0CDFF0A280DDD01221146484678
:1016F00000F0BBFDE07920B901221021404600F046
:10170000B4FDE6710DE000220121484600F0ADFD78
:10171000E079012804D100221021404600F0A5FD07
:10172000E571A07938B100221021404600F09DFDFE
:10173000E571BDE8F08701221021404600F095FDDB
:10174000E5810A20A071E671F3E7000000000020A7
:10175000100000200AD7233D000C0140C0000020EB
:10176000000801402DE9F041002400F02DF84FF46D
:101770008066144D42F2107704E0641CA4B201208C
:1017800000F048F93146284600F06AFD08B1BC4235
:10179000F3D3C82C0DD2002404E0641CA4B20120B1
:1017A00000F038F93146284600F05AFD20B1F02CFF
:1017B00005D30120BDE8F081F02CEED3F9E700203D
:1017C000F8E70000000C014000B585B00020019052
:1017D00003900A48816941F0080181618069694686
:1017E00000F0080004904FF4806000900120029007
:1017F000034800F045FC05B000BD000000100240A9
:10180000000C014000B585B0002002900A488169B3
:1018100041F0080181618069694600F00800049088
:101820004FF4806000900120019003200390034852
:1018300000F026FC05B000BD00100240000C014085
:1018400070B500F087F800F031F8FFF78BFFCC207F
:1018500000F08EF8BE2000F08BF800F06BF8044624
:1018600000F068F8072805D9C043E143C0B2CCB204
:10187000002500E0012504EB002000B202F0F7FC97
:101880000022054B02F00AFD02F0C2FC00B2002D5E
:1018900001D1404200B270BD0000E43F10B500F03D
:1018A00005F8FFF75FFFC0B210BD000070B5FFF78D
:1018B000A9FF0B4D4FF4806400222146284600F01A
:1018C000D4FC4FF42F7000F0A5F8012221462846E1
:1018D00000F0CBFCBDE870403C2000F09BB800005D
:1018E000000C014070B5FFF78DFF114D4FF480647F
:1018F00000222146284600F0B8FC022000F08AF8B9
:1019000001222146284600F0B0FCFFF75DFF0C20C5
:1019100000F080F82146284600F0A2FC08B101241E
:1019200000E00024322000F075F8204670BD000071
:10193000000C014070B500255FF00104FFF7D2FFF5
:10194000C001641C40EA5500E4B2C5B2082CF5D9C8
:10195000284670BD10B5FFF7A9FFFFF703FFCC20A5
:1019600000F006F8BDE81040442000F001B8000087
:101970002DE9F0410546FFF745FF0124144FA6026B
:1019800015F0010F4FEA55054FF000023146384679
:101990000BD000F06AFC022000F03CF80122314636
:1019A000384600F062FC3C200AE000F05EFC3C207F
:1019B00000F030F801223146384600F056FC022093
:1019C00000F028F8641CE4B2082CD9D9BDE8F081F5
:1019D000000C01400B49087808B1012070470A4803
:1019E000026842F0807202600848026842F0010218
:1019F000026000224260406808B100207047012068
:101A00000870EAE72A000020FCED00E0001000E08A
:101A10007047000018B503460C48007810B9FFF76E
:101A2000D9FF68B10A4841680A4A0B4C1268B2FBF8
:101A3000F4F25A4343685B1A9342FBD318BD401C2F
:101A40000090B0EBC30FFAD318BD00002A000020AD
:101A5000001000E02400002040420F0072B6FEE7B4
:101A6000F8B500250446009590F82400012808D018
:101A7000012084F824002046FFF7DCFC060002D099
:101A80004BE00220F8BDA06A20F4885040F002002C
:101A9000A062022000F08CFC22490968B1FBF0F042
:101AA000400000E0401E00900028FBD12046FFF7D8
:101AB000E7FC2068816841F00801816000F0DAFBF2
:101AC000074604E000F0D6FBC01B0A2811D82068A6
:101AD00080680007F6D42068816841F004018160C5
:101AE00000F0C8FB07460EE000F0C4FBC01B0A284C
:101AF00009D9A06A20F0020040F01000A06284F82A
:101B000024500120F8BD206880684007ECD4A06A0A
:101B100020F0020040F00100A06284F8245030461A
:101B2000F8BD000024000020F8B50024009490F8CF
:101B300024202546012A12D0012280F824204A6858
:101B40001F23072A0DD20668776B521E02EB820212
:101B500093409F430B6893401F43776319E0022033
:101B6000F8BD06680D2A0AD2376BD21F02EB82023B
:101B700093409F430B6893401F43376309E0F76A24
:101B80000D3A02EB820293409F430B6893401F4340
:101B9000F7620A68072306680A2A0AD3F7680A3A2E
:101BA00002EB420293409F438B6893401F43F760D0
:101BB00008E0376902EB420293409F438B689340F1
:101BC0001F4337610A68102A01D0112A20D1124B15
:101BD00002689A4217D193681B0219D4936843F4A0
:101BE000000393600968102912D10C490C4A096856
:101BF000B1FBF2F101EB8101490000E0491E0091C7
:101C00000029FBD104E0816A41F0200181620124B6
:101C100080F824502046F8BD002401402400002014
:101C200040420F000068C06C704700002DE9F04191
:101C30004FF0000704003D467ED0A06A002628B978
:101C4000E66284F82460204600F07EF82046FFF724
:101C5000F1FBA16AC90600D420B1A06A40F01000CF
:101C6000A06269E0A16A21F4885141F00201A162F9
:101C70006268E169237B0A4347EA43010A43A1689A
:101C80004FF48077B94209D0012907D05FF00001F5
:101C900094F814C0BCF1010F02D00AE03946F7E70E
:101CA000F3B1A36A43F02003A362E36A43F00103A4
:101CB000E3622368D3F804C02CF4694C4CEA010CAD
:101CC000C3F804C021688B68DFF870C003EA0C0316
:101CD00013438B60A168B9420BD0012909D00CE0F5
:101CE000DFF85CC0A3690CEB43330B4343F40061A2
:101CF000DFE7218A0D05A5F580152168CB6A23F45D
:101D000070032B43CB62216889680E4B19409142C6
:101D100008D1E662A16A21F0020141F00101A1624D
:101D2000BDE8F081A06A20F0020040F01000A0623F
:101D3000E06A40F00100E0620120F1E7FDF7E1FF19
:101D400000E0FFFFFE0E1FFF00B585B000210091EF
:101D500001910291039100680E49884218D10E4802
:101D6000816941F400718161816901F4007104911C
:101D7000816941F0040181618069694600F00400D5
:101D800004908120009003200190044800F078F92D
:101D900005B000BD002401400010024000080140D1
:101DA0002DE9F84300260D460446009600F062FA3D
:101DB000804620688168C90508D5A06A40F02000E7
:101DC000A06284F824600120BDE8F8834168C90559
:101DD00003D4C06A10F4700F26D0022000F0E8FA95
:101DE00038490968B1FBF0F72068036936490B42AE
:101DF0004FEA61014FEAA1121BD1C3684FEA611C8F
:101E000013EA0C0F15D103690B4221D1C0681042AF
:101E10001ED114201FE0681C06D045B300F02AFA3A
:101E2000A0EB0800A84222D8206800688007F2D5FD
:101E30002AE003690B4202D1C168114206D002694F
:101E400022490A4206D1C068084203D1542002E068
:101E5000292000E0FC204743009813E0681C0ED0C6
:101E60002DB100F007FAA0EB0800A84207D9A06A3C
:101E700040F00400A06284F824600320A4E70098E6
:101E8000401C0090B842E9D321686FF0120008604E
:101E9000A06A40F40070A06220688068C0F34240ED
:101EA00007280CD1207B50B9A06A20F48070A06272
:101EB000A06AC00403D4A06A40F00100A062002020
:101EC00082E7000024000020244992244992240043
:101ED00070B5044690F8240001280DD0012084F844
:101EE00024002046FFF7CCFA02004FF0000005D096
:101EF00084F82400104670BD022070BDA16A40F233
:101F00000123994341F48071A1621F4D23681F4949
:101F1000AB4218D10E6816F4702F14D0A66A46F49E
:101F20008016A6620E68760505D5A66A26F40056C8
:101F300046F48056A662A66AF6040AD5E66A26F03A
:101F40000606E66206E0A66A26F48016A6625E68C9
:101F5000E9E7E06284F824006FF00200186020686E
:101F60008368C3F34243072B05D1A84208D109680F
:101F700011F4702F04D0816841F480118160B9E7B9
:101F8000816841F4A001F9E70028014004240140E0
:101F900010B5044690F82400012807D0012084F8E9
:101FA00024002046FFF746FA10B107E0022010BDDA
:101FB000A16A21F4885141F00101A162002184F855
:101FC000241010BD10B590F821100024022903D070
:101FD0000421816301243DE001680A6822F00E02B9
:101FE0000A6001680A6822F001020A601A4A016860
:101FF000914201D1012121E0174A1432914201D1CD
:1020000010211BE0144A2832914201D1891515E0B4
:10201000114A3C32914201D189140FE00E4A5032EC
:10202000914202D14FF4803108E00B4A6432914270
:1020300002D14FF4801101E04FF08071064A083A56
:102040005160012180F82110002180F82010416B9F
:1020500001B18847204610BD0800024070B5044613
:1020600000F008F90546601C02D0044800780444DA
:1020700000F000F9401BA042FAD370BD1800002008
:102080002DE9F84FDFF8B891002409F1040A0AF1AC
:10209000040B23460F270BF1040EC9E00125A540D0
:1020A0002A40AA427DD1674ED1F804C0ACEB0608A5
:1020B000B44532D014DCBCF1030F3AD009DCBCF1DA
:1020C000000F2AD0BCF1010F1CD0BCF1020F31D19E
:1020D0001DE0BCF1110F17D0BCF1120F2AD119E08D
:1020E000B8F5881F19D006DCB8F5803F15D0B8F5D3
:1020F000801F1FD111E0B8F5001F0ED0B8F5041FE6
:1021000018D10AE0CB6815E0CB681B1D12E0CB6844
:1021100008330FE0CB680C330CE08B682BB1012B3C
:102120004FF0080303D0456104E0042302E0056199
:1021300000E00023FF2A01D8064601E000F1040672
:102140004FEA840501D9A5F12005D6F8008007FAE9
:1021500005FC28EA0C0803FA05F548EA0508C6F864
:1021600000804D68ED0062D5374DAE6946F001063E
:10217000AE61AD6924F0030605F001050095334D0D
:1021800006EB050CDCF80850A607360F07FA06F830
:1021900025EA0805DFF8B880404503D14FF0000874
:1021A00017E044E0DFF8AC80404502D14FF0010871
:1021B0000FE0DFF8A480404502D14FF0020808E0AC
:1021C000DFF89880404502D14FF0030801E04FF05E
:1021D000040808FA06F848EA0508CCF808804D68B3
:1021E000D9F80060ED034D4601D5164300E0964353
:1021F0002E604D68DAF80060AD03554601D51643F0
:1022000000E096432E604D68DBF80060ED025D460D
:1022100001D5164300E096432E604D68DEF800605D
:10222000AD02754601D5164300E096432E60641C4E
:102230000D682A46E5407FF431AFBDE8F88F000015
:102240000004014000001110001002400000014095
:1022500000080140000C0140001001400014014042
:102260008068084000D0012070470AB101617047C2
:102270000904FBE70148806870470000180000204F
:10228000024881680278114481607047180000207C
:10229000074810B5016841F010010160032000F00B
:1022A00075F80F2000F006F800F024F8002010BDAB
:1022B0000020024070B50D4D04464FF47A71287825
:1022C000B1FBF0F00A490968B1FBF0F000F0C6FB81
:1022D00048B9102C07D200222146501E00F036F8D3
:1022E00000206C6070BD012070BD0000180000204F
:1022F000240000200C4808B5816941F0010181618A
:10230000816901F001010091C16941F08051C16111
:10231000C06900F0805000900448416821F0E061FD
:1023200041F00071416008BD001002400000014012
:10233000002809DB00F01F020121914040098000C4
:1023400000F1E020C0F8001170470000F0B40E4B1F
:102350001B680C46C3F30223C3F10705042D00D903
:102360000425191D072901D2002300E0DB1E0126E8
:1023700006FA05F1491E214099409E40761E1640FE
:102380003143F0BC01F0ABBE0CED00E0064900F0BB
:10239000070208684FF6FF03184040EA0220034A8C
:1023A00010430860704700000CED00E00000FA05E3
:1023B00010B529A401461DCC86B08DE81D002AA0C9
:1023C0002A4C006804900020012923D002293AD029
:1023D00010291DD161682268D20119D5C1F3834249
:1023E000C9031DF8020009D5616804AAC1F3404180
:1023F000515C1F4AB2FBF1F1484301E01D494843DB
:102400006168490204D440005FF00301B0FBF1F0C1
:1024100006B010BD226AC2F30121012903D192073F
:1024200001D5C803F4E7022905D1626A920702D5F3
:1024300049F64040ECE70329EAD121688903E7D552
:102440004FF22440E4E700F033F96168C1F38131D1
:10245000491C4900DAE700000203040506070809E1
:102460000A0B0C0D0E0F10100102000000100240AC
:1024700000127A0000093D002DE9F8430546007876
:10248000354CC00754D0E0690026C00008D4E0698C
:1024900040F08050E061E069012600F0805000903B
:1024A0002E480168C90512D40168804641F4807144
:1024B0000160FFF7DFFE074605E000BFFFF7DAFE29
:1024C000C01B642823D8D8F80000C005F6D5206AC0
:1024D00010F4407021D0A98801F4407181421CD0D1
:1024E000206A1F49012220F440700A6000220A601D
:1024F0002062C00711D0FFF7BDFE074641F28838C1
:1025000008E000BFFFF7B6FEC11B414502D903201A
:10251000BDE8F883206A8007F4D5206A696820F452
:102520004070084320621EB1E06920F08050E061F5
:102530002878800705D56068A96820F440400843E2
:1025400060602878C00605D56068E96820F48000DE
:10255000084360600020DBE700100240007000408C
:10256000400442422DE9F0470F46050061D0434E3A
:10257000306800F00700B84209D2306820F0070048
:1025800038433060306800F00700B84251D1286805
:102590003B4C810712D5400703D5606840F4E060EA
:1025A00060602878000703D5606840F46050606080
:1025B0006068A96820F0F000084360602878C007D0
:1025C00028D06868012810D02168022810D0890717
:1025D00000292EDA616821F0030101436160FFF7F1
:1025E00049FE804641F288390DE021688903EFE712
:1025F0008901EDE7FFF73EFEA0EB0801494502D94E
:102600000320BDE8F0876068696800F00C00B0EB5B
:10261000810FEFD1306800F00700B8420BD9306865
:1026200020F0070038433060306800F00700B842FF
:1026300001D00120E5E72878400705D56068E96802
:1026400020F4E060084360602878000706D56068E1
:10265000296920F4605040EAC100606000F038F859
:102660006168084AC1F30311515CC840064908601B
:1026700006480068FFF71EFE0020C2E70020024067
:10268000001002408C490008240000201C0000209B
:102690000448054900684968044AC1F30221515CB5
:1026A000C840704724000020001002409C490008E8
:1026B0000448054900684968044AC1F3C221515CD5
:1026C000C840704724000020001002409C490008C8
:1026D00012A185B00FC98DE80F0014A0144A00683C
:1026E00004905168134801F00C03042B10D0082B00
:1026F0000ED1C1F38343C9031DF803000AD5516805
:1027000004AAC1F34041515C0A4A5043B0FBF1F0C6
:1027100005B0704708494843FAE700000203040582
:10272000060708090A0B0C0D0E0F1010010200001D
:102730000010024000127A0000093D002DE9F84F18
:10274000040070D02078C04DC00749D06868C0F33D
:102750008100012807D06868C0F38100022809D1F0
:102760006868C00306D52868800339D560680028EA
:10277000E7D035E06068B0F5803F0BD010B1B0F520
:10278000A02F11D0286820F480302860286820F419
:10279000802002E0286840F480302860606890B1B2
:1027A000FFF768FD06460AE0286840F480202860AC
:1027B000F0E700BFFFF75EFD801B642873D8286830
:1027C0008003F7D50CE0FFF755FD064605E000BF96
:1027D000FFF750FD801B6428F0D828688003F7D4E9
:1027E00020789A4E80074FF001094FF0000839D544
:1027F000686810F00C0F07D06868C0F381000228E9
:1028000009D16868C00306D42868800714D52069F8
:10281000012808D110E02069B0B1C6F80090FFF798
:1028200029FD074605E00AE1FFF724FDC01B022849
:10283000C4D828688007F7D52868616920F0F800B7
:1028400040EAC10028600DE0C6F80080FFF712FDE5
:10285000074604E0FFF70EFDC01B022823D82868B6
:102860008007F7D4207800072CD57948A169D9B121
:10287000C0F80090FFF7FEFC074604E0FFF7FAFC03
:10288000C01B02280FD8686A8007F7D571484FF43B
:10289000FA510068B0FBF1F0009000BF0098411EB3
:1028A0000091FAD20EE080E0C0F80080FFF7E2FC71
:1028B000074604E0FFF7DEFCC01B022875D8686AF3
:1028C0008007F7D42078400760D5E8690027C0006A
:1028D00008D4E86940F08050E861E869012700F019
:1028E000805000905C480168C90513D40168834694
:1028F00041F480710160FFF7BDFC824606E000BF35
:10290000FFF7B8FCA0EB0A0064284ED8DBF8000003
:10291000C005F5D5E06801280AD008B1052813D014
:10292000286A20F001002862286A20F0040002E0F2
:10293000286A40F001002862E06841F2883B98B1C3
:10294000FFF798FC82460BE0286A40F004002862FA
:10295000EEE700BFFFF78EFCA0EB0A0159455AD8FD
:10296000286A8007F6D50CE0FFF784FC824605E074
:10297000FFF780FCA0EB0A0159454CD8286A800774
:10298000F6D41FB1E86920F08050E861E06988B3AF
:102990006968C1F38101022944D00228C6F8608029
:1029A00004D0FFF767FC044638E034E0FFF762FC30
:1029B000074604E0FFF75EFCC01B02282BD82868FE
:1029C0008001F7D4206AB0F5803F05D16868A1681E
:1029D00020F4003008436860D4E9080108436968BE
:1029E00021F4741108436860C6F86090FFF742FC58
:1029F000044606E025E000BFFFF73CFC001B022870
:102A000009D828688001F7D51BE000BFFFF732FC2A
:102A1000001B022802D90320BDE8F88F2868800136
:102A2000F4D40EE00128F7D06868226A00F48031FF
:102A3000914204D1616A00F47010884201D00120F3
:102A4000EAE70020E8E700000010024000004242F0
:102A500080044242240000200070004010B5401E57
:102A6000B0F1807F01D3012010BD4FF0E024606100
:102A70000F21601701F033FB0020A06107202061C7
:102A8000002010BD70B590F83C20012A19D0012417
:102A900000F83C4F0222427050F83C3C5A689D6856
:102AA00022F070060A684968324325F08005294300
:102AB0005A6050F83C2C9160447000210170084627
:102AC00070BD022070BD10B5040003D094F83D0025
:102AD00010B107E0012010BD002084F83C00204622
:102AE00000F00CF8022084F83D00211D206801F060
:102AF00099F8012084F83D00002010BD08B5006859
:102B00000649884208D10648C16941F00201C16105
:102B1000C06900F00200009008BD00000004004001
:102B20000010024070B5044690F83C00012817D010
:102B3000012584F83C50022084F83D00206882681A
:102B400022F0770222F47F4282600868502830D059
:102B50000DDC20284DD005DC98B310283BD148E08F
:102B6000022070BD302844D0402834D139E060289C
:102B700028D0702806D0B0F5805F2CD0B0F5005F6B
:102B800029D10AE0CB68D1E90121206801F08DF854
:102B90002068816841F0770109E0CB68D1E9012123
:102BA000206801F082F82068816841F480418160EA
:102BB00011E0CA684968206801F02CF950212068AA
:102BC00007E016E0CA684968206801F034F960211E
:102BD000206801F074F884F83D50002084F83C002F
:102BE00070BDCA684968206801F014F94021206866
:102BF000EFE7226801461046EBE7000000B585B01C
:102C00000021009101910291039100680B498842D3
:102C100012D10B48816941F00401816180696946E4
:102C200000F0040004904020009002200190032056
:102C300003900448FFF724FA05B000BD00040040EB
:102C4000001002400008014070B5044690F83C00B6
:102C50000D4601280DD0012684F83C60022084F83E
:102C60003D0042B1042A18D0082A2AD00C2A4DD19E
:102C700039E0022070BD206801F02AF820688169DF
:102C800041F0080181612068816921F004018161BE
:102C9000206881692A69114311E0206801F040F839
:102CA0002068816941F4006181612068816921F4B3
:102CB00080618161206881692A6941EA022181611C
:102CC00024E0206801F058F82068C16941F008014B
:102CD000C1612068C16921F00401C1612068C16936
:102CE0002A69114311E0206801F072F82068C16977
:102CF00041F40061C1612068C16921F48061C16152
:102D00002068C1692A6941EA0221C16184F83D60F5
:102D1000002084F83C0070BD10B5040003D094F886
:102D20003D0010B107E0012010BD002084F83C00F8
:102D3000204600F00CF8022084F83D00211D206898
:102D400000F070FF012084F83D00002010BD7047A6
:102D500010B504460068012200F09AFF0949206876
:102D6000884203D1416C41F400414164206881688C
:102D700001F00701062903D0016841F0010101605B
:102D8000002010BD002C01407047000070B50268A3
:102D900004461068D168536910F00F0F50D003F04B
:102DA000010501F4907635435DD0C20705D0CA0510
:102DB00003D5E26B42F00102E263420705D5DA0770
:102DC00003D0E26B42F00202E263820705D5DA0724
:102DD00003D0E26B42F00402E263020705D5DA0792
:102DE00003D0E26B42F00802E263E26B002A33D0C8
:102DF000800604D5880602D5204601F044F82068F4
:102E00004069E16BC0F38010090700D428B3204665
:102E100001F02BF82068416949061AD5416921F073
:102E200040014161606BA0B11B494163606BFFF7DA
:102E3000C9F8002810D0606B416BBDE870400847AE
:102E4000830610D58B060ED52046BDE8704001F0F4
:102E50001AB82046FFF798FF70BD2046FFF794FF91
:102E60000020E06370BD030606D50B0604D520469E
:102E7000BDE8704001F0AEB84006F3D54806F1D584
:102E8000D168204621F04001D160202184F839101A
:102E900000F047F970BD00005B3E000870B504000B
:102EA00004D094F83900002510B106E0012070BD6F
:102EB00084F83850204600F023F8242084F83900A4
:102EC0002068C16821F40051C160204601F026F855
:102ED0002068016921F4904101612068416921F075
:102EE0002A0141612068C16841F40051C160E56375
:102EF000202084F8390084F83A00002070BD0000DA
:102F000030B585B000240094019402940394324DAE
:102F10000368324802210322AB422ED1836943F475
:102F200080438361836903F480430493836943F09E
:102F30000803836180692A4D00F008000490402056
:102F4000CDE90001039269462846FFF799F88020F1
:102F5000CDE90004694628460294FFF791F821481C
:102F6000416841F0E06141F00401416000221146F6
:102F70002520FFF7EBF9252029E01B4DAB4228D196
:102F8000C36943F40033C361C36903F4003304939A
:102F9000836943F0040383618069144D00F00400E9
:102FA00004900420CDE90001039269462846FFF70A
:102FB00067F80820CDE90004694628460294FFF727
:102FC0005FF8002211462620FFF7C0F92620FFF700
:102FD000AFF905B030BD00000038014000100240DC
:102FE000000C014000000140004400400008014086
:102FF00090F83A30202B22D1F9B1F2B190F8383064
:10300000012B1CD081628285C2850021C1632222EE
:1030100080F83A2080F838100168CA6842F480725B
:10302000CA6001684A6942F001024A610068C168E9
:1030300041F02001C160002070470120704702204C
:10304000704700000549064B48780A781A54401C1E
:10305000487001220348FFF7CBBF00002800002082
:1030600000060020400100202DE9F843044690F8B6
:1030700039001F4616460D46202850D1A5B19EB1F5
:1030800094F8380001284AD0012084F838004FF025
:103090000008C4F83C80212084F83900FFF7EAF8E2
:1030A000A6848146E68426E00120BDE8F883E08C12
:1030B000401EE084A0684B46B0F5805F4FF00002F0
:1030C0004FF080012046009703D000F0B4FFE8B92C
:1030D0000DE000F0B0FFC8B928882168C0F30800EF
:1030E0004860206908B16D1C05E0AD1C03E0216853
:1030F00015F8010B4860E08C0028D8D14B4600221F
:1031000040212046009700F096FF08B10320CCE74D
:10311000202084F8390084F838800020C5E7022098
:10312000C3E77047FEE70320401EC0B2FCD27047E1
:10313000FEB50025174800950195154902950160D7
:1031400089158160057301240475022606614FF418
:1031500060214560C0E90641FEF768FD08B1FEF751
:103160007DFCCDE90054072469460A480294FEF725
:10317000DBFC08B1FEF772FCCDE900466946054864
:10318000FEF7D2FC002801D0FEF768FCFEBD00006F
:1031900000240140900000202DE9F04385B0002676
:1031A0002F480096019602960396816941F020010E
:1031B0008161816901F020010491816941F004017C
:1031C0008161816901F004010491816941F0080184
:1031D00081618069DFF88C8000F008000490012292
:1031E00002214046FFF741F8002210214046FFF738
:1031F0003CF8DFF87490002249F203014846FFF7DB
:1032000034F801240227CDE90074032569464046BD
:10321000CDE90245FEF734FF102003958DE89100BB
:1032200069464046FEF72CFF2020CDE9000669469E
:1032300040460296FEF724FFCDE90054CDE9027521
:1032400069464846FEF71CFF4FF4104003958DE891
:10325000510069464846FEF713FF05B0BDE8F0830C
:103260000010024000080140000C014010B58EB073
:1032700000240794089409940A940B941C2168462E
:103280000C94FDF7D3F820481E4901604721C0E99E
:10329000011444F61F61C0E9031480218161FFF726
:1032A00012FC08B1FEF7DAFB4FF48050079007A933
:1032B0001548FFF737FC08B1FEF7D0FB1248FFF7BF
:1032C0002BFD08B1FEF7CAFB0B940BA90E480C941A
:1032D000FFF7D8FB08B1FEF7C1FB602000904FF468
:1032E000DC70CDE901040022694607480494FFF729
:1032F000ABFC08B1FEF7B2FB0348FFF77FFC0EB052
:1033000010BD000000040040C00000200C4810B5B3
:103310000A4901604FF4E1314160002181600C22D3
:10332000C160C0E904128161C161FFF7B7FD0028E7
:1033300003D0BDE81040FEF791BB10BD003801403E
:10334000000100200C4810B50A4901604FF41651E5
:103350004160002181600C22C160C0E904128161DA
:10336000C161FFF79BFD002803D0BDE81040FEF7C8
:1033700075BB10BD0044004040010020FEE7FEE7A1
:1033800030B40021084B0A465FF0000003EBC00494
:10339000401CC0B262548028F8D3491CC9B2082925
:1033A000F2D330BC00F0F8B98001002030B5CC0871
:1033B00001F0070301259D40EBB2064D05EBC0056A
:1033C000C808285C0AB1184302E063EA0000C04361
:1033D000285530BD8001002070B501220E4DD40368
:1033E00021462846FEF741FF0122160331462846B2
:1033F000FEF73BFFFFF797FE002221462846FEF727
:1034000034FFFFF790FE002231462846FEF72DFFDD
:10341000BDE87040FFF787BE000C014070B50B4D52
:103420004FF40044002221462846FEF71EFF0122E9
:1034300011032846FEF719FFFFF775FE21462846BF
:10344000BDE870400122FEF710BF0000000C0140F3
:1034500070B50C4C0122D1032046FEF706FFFFF7A2
:1034600062FE0122150329462046FEF7FEFEFFF705
:103470005AFE002229462046FEF7F7FEBDE87040BE
:10348000FFF751BE000C014010B5C820FEF7E6FD65
:103490000021AE2000F01BFB0021084600F017FBC6
:1034A0000021102000F013FB0021402000F00FFB52
:1034B0000021812000F00BFB0021CF2000F007FB52
:1034C0000021A12000F003FB0021C82000F0FFFA3A
:1034D0000021A62000F0FBFA0021A82000F0F7FA56
:1034E00000213F2000F0F3FA0021D32000F0EFFA92
:1034F0000021084600F0EBFA0021D52000F0E7FAA1
:103500000021802000F0E3FA0021D92000F0DFFA4A
:103510000021F12000F0DBFA0021DA2000F0D7FAD8
:103520000021122000F0D3FA0021DB2000F0CFFAB6
:103530000021302000F0CBFA0021202000F0C7FA53
:103540000021022000F0C3FA00218D2000F0BFFA14
:103550000021142000F0BBFAFFF712FF0021BDE8A4
:103560001040AF2000F0B3BA7CB50124102307222D
:1035700000212020009400F0E3F91023082200210C
:103580003020009400F0DCF91023132200214020A9
:10359000009400F0D5F9102314220021502000944B
:1035A00000F0CEF9714D4FF01003687A00940028B6
:1035B0007ED006220021084600F0C2F91023052221
:1035C00000211846009400F0BBF9B5F90A0001F09B
:1035D00073F8674901F09CF800F05EFF02460B4665
:1035E00064A16648FCF702FE1023644A19460020D5
:1035F000009400F04CFA6248006801F041F802467D
:1036000060A15E48FCF7F2FD10235C4A19463020A9
:10361000009400F03CFA28784FF010030028009442
:103620007DD00F221021602000F08AF910231A4665
:1036300000941021702000F083F91023152220211E
:103640000020009400F07CF9102316222021184657
:10365000009400F075F9202110233A2208460094C6
:1036600000F0F8F8287A4FF010030028009466D094
:103670001A222021282000F063F91023172220218C
:103680004820009400F05CF91023182220215820D3
:10369000009400F055F910233A222021682000946C
:1036A00000F0D8F8E8794FF010030094C0B300E0C0
:1036B0003AE01A222021702000F042F91026CDE9CC
:1036C000006402236A783021002000F0A7F9CDE9D8
:1036D00000640223AA793021182000F09FF9A8780D
:1036E0003346009478B330211E22084600F028F9B2
:1036F00010231F2200943021402000F021F9E878A7
:103700004FF01003009440B322223021602000F0DB
:1037100017F91023232200943021702001E005E0E6
:103720000FE000F00DF97CBD042243E717221021C1
:10373000602000F005F910231C22009479E71B2279
:1037400097E71B22B6E7FFE730212022084600F06A
:10375000F7F8102321220094CDE7202230216020A9
:1037600000F0EEF8102321220094D5E7000000209D
:10377000CDCCCC3D252E3166000000002C00002071
:1037800010000020256400000246012000E05043A4
:10379000491EC9B2FBD2704770B5184E002400BF55
:1037A00004F1B000C0B2002100F091F900210846F8
:1037B00000F08DF90021102000F089F9FFF70CFED0
:1037C000782000F01DF8FFF743FE402000F018F8C5
:1037D000FFF73EFE5FF0000506EBC500005D00F060
:1037E0000FF8FFF735FE6D1CEDB2802DF4D3FFF717
:1037F00015FE641CE4B2082CD2D370BD80010020F9
:103800002DE9F041124F002405464FF40048BE1444
:10381000280601D5012200E0002241463846FEF785
:1038200024FDFFF780FC012231463846FEF71DFDDE
:10383000FFF779FC002231463846FEF716FD680690
:10384000641C050EE4B2082CE2D3BDE8F081000050
:10385000000C01402DE9FC5F1C460E4682468B465B
:103860000190082B0DD0600700D0012000EBD400A0
:1038700061084843C0B28146203AD0B2009000208F
:103880004BE00620F7E7082C13D00C2C18D0102C96
:103890001BD0182C4AD10098254900EBC00000BF6E
:1038A00001EB8001002711F80850E80712D00C9AAC
:1038B00013E000981F4900EB400001EB4001F1E7E5
:1038C00000981D4900EB4000EAE71C49009801EB15
:1038D0000011E7E70C9838B3002231465046FFF755
:1038E00065FD761C7F1C6D08FFB2F6B2082FDCD395
:1038F0000AF1010000F0FF0A082C0AD00199AAEB96
:103900000100B0EB540F04D10BF108008A4600F01F
:10391000FF0B08F101005E46C0B280464845B2D3B5
:10392000BDE8FC5FFFF738BF0122D6E7BDE8FC9F8A
:1039300030560008A4490008CC4B0008405000084D
:103940002DE9FF4F81B08146009098460E468B4688
:10395000580701D0012100E0002101EBD80000FB55
:1039600008FA002449E000BFB8F1100F12D0B8F1F6
:10397000180F14D0B8F1200F19D0B8F1400F45D16D
:103980002449039801EB40200027055DE80714D087
:103990000E9A15E02049039801EB4010F4E70398D4
:1039A0001C4900EBC000C83901EBC000ECE7194925
:1039B0000398803901EBC010E6E70E9820B300228F
:1039C00031464846FFF7F2FC761C7F1C6D08FFB2BB
:1039D000F6B2082FDAD309F10100009900F0FF09CF
:1039E000A9EB0101414505D10BF10800DDF800907C
:1039F00000F0FF0B641C5E46A4B25445B4D305B07E
:103A0000BDE8F04FFFF7C8BE0122D9E705B0BDE819
:103A1000F08F0000D46800088C6300082DE9F84F8F
:103A20000025DDE90A691F4692468B468046082E2E
:103A300000D1022500241CE0381B401EC1B20A2020
:103A4000FFF7A2FEBAFBF0F00A21B0FBF1F201FB96
:103A50001200CDF8009090B13030C2B205EB5601A3
:103A600001FB0480C0B233465946FFF7F3FE641CE5
:103A7000E4B2BC42E0D3BDE8F84FFFF78DBE05EBE2
:103A8000560101FB0480C0B233463022ECE72DE939
:103A9000F8431E46154688460446089F0BE0334609
:103AA000414620460097FFF7D5FE082E0CD004EBC8
:103AB0005600C4B26D1C2A78A2F120005E28EED90F
:103AC000BDE8F843FFF768BEA41DE4B2F2E770B5A5
:103AD0000C460546FFF780FC7820FFF791FEFFF7C4
:103AE000B7FC0CB1402000E00020FFF789FEFFF793
:103AF000AFFC2846FFF784FEFFF7AAFCBDE8704044
:103B0000FFF78CBC70477047B42900D9B4214FF43B
:103B1000FA625143B422B1FBF2F10068034A01F5A5
:103B2000FA7189B2904200D14163704700040040AD
:103B300070B5FEF7A5FB164C00214FF47A7520787E
:103B4000012278B9134803885B1C9BB20380AB4207
:103B500008D9114B01801878401E10F0FF00187032
:103B600000D122700D4B187800280FD10C48048822
:103B7000641CA4B20480AC4208D9018009490878C9
:103B8000401E10F0FF00087000D11A7070BD0000D8
:103B9000020000200C00002001000020070000208F
:103BA0000E0000200600002030B593B028216846A2
:103BB000FCF73CFC14210AA8FCF738FC0025012086
:103BC0000F9510951195010412958DE8230004902E
:103BD0004FF4E010CDE90810022407946846FEF780
:103BE000ADFD08B172B6FEE70AA90F2081E83100E9
:103BF0004FF48060CDE90D0502210AA8FEF7B2FC62
:103C000008B172B6FEE74FF4004011900F940FA870
:103C1000FEF732FC002801D072B6FEE713B030BDCB
:103C200070470000F0B50268164B174C174D4FF067
:103C30008047984205D0B84203D0A04201D0A842A4
:103C400003D122F070064A683243984205D0B84248
:103C500003D0A04201D0A84203D122F44074CA6824
:103C600022434C6922F08002224302608A68C262C9
:103C70000A688262984201D10969016301214161A8
:103C8000F0BD0000002C014000040040000800408E
:103C900010B501F01F030121046A99408C430462AE
:103CA000016A9A401143016210BD10B5846842EA6E
:103CB000032224F47F440A432243826010BD8268B9
:103CC00022F070020A4342F0070181607047000051
:103CD00030B5026A22F001020262026A4368846916
:103CE00024F073050C682C4322F002058A682A43ED
:103CF0000A4DA8420BD122F00805CA6823F440738C
:103D00002A434D6922F004021D438B692B43436013
:103D1000846149684163026230BD0000002C0140AB
:103D200030B5026A22F010020262026A43688469B6
:103D30000D6824F4E64444EA05248D6822F020024C
:103D400042EA05120B4DA8420ED1CD6822F0800246
:103D500042EA05124D6923F4406343EA85038D6905
:103D600022F0400243EA850343608461496881632D
:103D7000026230BD002C014030B5026A22F480722C
:103D80000262036A4268C46923F4007324F0730575
:103D90000C682C438D6843EA05230C4DA8420ED1D4
:103DA000CD6823F4006343EA05234D6922F44052B1
:103DB00042EA05128D6923F4806342EA05124260EB
:103DC000C4614968C163036230BD0000002C01403A
:103DD00030B5026A22F480520262046A4268C36902
:103DE0000D6823F4E64343EA05238D6824F4005468
:103DF00044EA0534064DA84204D14D6922F48042BC
:103E000042EA85124260C36149680164046230BDC0
:103E1000002C014010B5036A046A24F00104046216
:103E2000846924F0F00444EA021423F00A020A43ED
:103E30008461026210BD10B5036A23F010030362AF
:103E40008369046A23F4704343EA023224F0A00336
:103E500043EA01118261016210BD10B5406A002180
:103E6000C185C184FEF790FF10BD0168CA6822F4C5
:103E70009072CA6001684A6922F001024A612021F9
:103E800080F83A10704710B590F83A10222901D006
:103E9000022010BD8168B1F5805F11D00169002951
:103EA00001681FD0496801F07F03816A4A1C826261
:103EB0000B70C18D491E0904090CC18518D02BE077
:103EC0000269816A002A0268526805D0D2B20A806B
:103ED000816A491C8162ECE7C2F308020A80816AA8
:103EE000891CF7E74A68816A4B1C83620A70E0E725
:103EF0000168CA6822F02002CA600168CA6822F418
:103F00008072CA6001684A6922F001024A61202178
:103F100080F83A10FFF796F8002010BD2DE9F04127
:103F2000044600680169E26821F4405111430161CF
:103F30002169A0680843616908432168CA6841F2A1
:103F40000C639A430243CA6020684169A26921F464
:103F50004071114341611E49206864253226884220
:103F600002D1FEF7A5FB01E0FEF792FB00EBC001DA
:103F700001EB001160686FF018078000B1FBF0F2F0
:103F8000B2FBF5F2B1FBF0F37A4303EB8202B1FB33
:103F9000F0F306EB0212B2FBF5F2B3FBF5F302F01D
:103FA000F00202EB0312B1FBF0F3B1FBF0F0B0FB57
:103FB000F5F0784303EB800006EB0010B0FBF5F062
:103FC000216800F00F0010448860BDE8F081000017
:103FD0000038014090F83910212901D002207047A3
:103FE0008168B1F5805F016A0BD04A1C02620268E9
:103FF00009785160C18C491E0904090CC1840ED096
:1040000017E009880268C1F30801516001690029BD
:10401000016A02D0491C0162ECE7891CFBE70168D8
:10402000CA6822F08002CA600068C16841F040019D
:10403000C160002070472DE9F041984617460E46B2
:104040000446069D1DE0681C1BD02DB1FEF712F939
:10405000A0EB0800A84214D92068C16821F4D071EF
:10406000C1602068416921F001014161202084F88C
:10407000390084F83A00002084F838000320BDE8B5
:10408000F0812068006836EA000004D00020B842C1
:10409000D9D00020F3E70120F9E700000148FEF73E
:1040A00075BE0000000100200148FEF76FBE000051
:1040B00040010020FEE7490050EAC12018BF04205B
:1040C0004A0D18BF40F0010040F2FF72B2EB515FA1
:1040D00008BF40F00200012808BF0520704709070B
:1040E000090E002804DB00F1E02080F8001470477E
:1040F00000F00F0000F1E02080F8141D7047303808
:104100000A2801D201207047002070472DE9F041B4
:104110001B48FDF7A5FC1B4D00246FF00B0718484A
:10412000FDF7D6FE32211648FDF73AFE14B1012CF8
:1041300014D01CE01248FDF775FD00F0D5FA124EC0
:10414000314600F0E5FA394600F0E2FB314600F076
:10415000D5F90E4900F0DCFA286008E00848FDF7C0
:1041600061FD00F0C1FA394600F0D2FB6860641CC2
:10417000E4B2022CD3D3BDE8F0410148FDF708BFFB
:1041800090000020100000203333134000007A44D8
:10419000FEF77EF8FFF708FDFEF7FEFFFEF7C8FF0B
:1041A000FFF764F8FFF7B2F8FFF7CCF800210B48EF
:1041B000FEF7CEFDFFF768F9FDF726FAFDF76EFB77
:1041C000FFF7DEF8002202210548FEF74EF800BF97
:1041D000FDF73CFAFFF7C8F9FAE70000C00000203D
:1041E0000008014010B500290AD00878002807D03F
:1041F00005487844FCF70EFD002801D0002010BDD2
:104200000248784410BD0000962900008E29000065
:104210004FEA41034FEA5353A3F58063D3F11E03E2
:10422000C8BFD3F1210C0CDD4FF0004242EAC1229D
:1042300042EA505232FA03FC8CEAE17CACEBE170CA
:104240007047102BC4BF0020704703F5787CBCF189
:10425000FF3F04D06FF0004282EA2100704770B542
:1042600000F0C6F84992248000207047F2E710F071
:10427000004248BF4042B0FA80F310FA03F10AD07E
:10428000C3F11D0303F580634FEA415002EB035273
:1042900002EBD12170474FF000007047DFF848C1B2
:1042A00070B51CEA111E1EBF1CEA13159EEA0C0F06
:1042B00095EA0C0F00F06F8081EA030423EA4C13A7
:1042C0004EEAD47E21EA4C1141F4801143F480136C
:1042D000AE44A1FB024CA0FB0365AEF17F7E361914
:1042E00055EB0C05A1FB034C4CF10003A0FB021C99
:1042F00016EB0C06654153F10003094218BF46F066
:10430000010613F4007F0BD14FEA03314FEA053069
:10431000340341EA155140EA16506FF003020AE0F7
:104320004FEAC3214FEAC520F40241EA555140EA61
:1043300056506FF0020202EB2E4201EB025585EA65
:10434000CE710AD05FEA440C18BF24F0004450F14B
:10435000000041F1000120EAD47040F2FE7C624589
:1043600000D270BDA84214BF4FF080444FF04044CB
:10437000002E08BF0024BEF1806FA8BFA1F1C0418C
:10438000BDE8704080F282804FF0000001F1C04132
:1043900001F0004170479EEA0C0F0CEA131518BF9C
:1043A00095EA0C0F06D04FF0000081EA030E0EF0E4
:1043B000004170BD00F01CF88900013E00F007B814
:1043C00000F009B84FEA430C5FEA5C5C08D081EA70
:1043D000030100F05BB84FEA410C5FEA5C5CF6D188
:1043E0004FF00000014970470000FF070000F87F10
:1043F0000EF1020E2EF0030E5EF8046B364205D469
:10440000012A43EB030515F5001F12D8012841EBE3
:10441000010C1CF5001F0CD80ED14FEAD17C15F50C
:10442000001F0CEB4C0C0CF1020C08BF4CEBD37CC6
:1044300004E04FF0080C01E04FEAD37C0CEB4C0594
:1044400026FA05F606F00706B6F1040C06D20EEBC6
:10445000860CBDE870404CF0010C6047DFE80CF0C2
:10446000090B02024FF000414FF00000A1F50021BE
:1044700070BD19461046012851EB010418BFD4F550
:10448000001484BF002001F0004170BD0808A0F5B1
:1044900000114FEA3101704743004FEAD30C4FEA55
:1044A0003C0C43401FBF40070CF1605113F0FE4F1E
:1044B00070471CF0006F03D100200CF000417047E2
:1044C0000CF0004343EA507010B540EACC0000F015
:1044D000A0F900BF000000924FEA0001FFF7D6BF2D
:1044E0004FF000414FF00000A1F50021704700009F
:1044F000014800F0DBB900BF0000C07F4FF47F0C23
:104500001CEAD0121EBF1CEAD11392EA0C0F93EAE8
:104510000C0F00F0858090EA010F48BF42F48072D2
:1045200040F4000C41F400002CF07F4120F07F406B
:1045300000B58142A2EB03020FF2081CACEB504E17
:10454000C0F100009EF800E04FEA4E0E00FB0EFCAA
:1045500038BF49004FEA2C1C02F5FA020CFB0EF39F
:104560004FEACE1E4FEA112C4FEAC1210EEB635EDB
:1045700042EB22420EFB0CFC4FEA1C5300FB0311E2
:104580004FEA112C4FEA01310EFB0CFC4FEADC4CD8
:1045900000FB0C11C14228BF09184CEB03335DF836
:1045A00004EB10EB410143EBC250B2F57C0F38BF76
:1045B000704729D512F0F00F1CBF00F1C04000F089
:1045C00000407047008182838485868788898B8C30
:1045D0008D8E8F919293959697999A9C9D9FA0A26C
:1045E000A3A5A7A8AAACAEB0B2B3B5B7B9BCBEC0BC
:1045F000C2C5C7C9CCCED1D4D7D9DCDFE2E6E9EC5D
:10460000F0F3F7FAFE0000004FEA400C0CF1807C5A
:10461000BCF17E4F28BF7047B0F1C04000F03FB9F9
:1046200090EA010F0CEAD11348BF42F48072624550
:1046300038BF634507D213F47F0F16D080EA01001C
:1046400000F00040704710B500F0E3F8097EFC3E32
:1046500000F005B880EA010000F00040704780EAF1
:10466000010000F0004000F01AB912F47F0F04BFFF
:104670000248704780EA010000F011B90000C07FD5
:1046800041000B0ED3F19E0208D950F400034FEA0B
:10469000032323FA02F048BF4042704710B500F0F0
:1046A000B8F800BF49922480002070476FF00042A4
:1046B00082EA20007047000010F0004148BF4042ED
:1046C000B0FA80F310FA03F2C3F19D030BD051EA64
:1046D000C35101EB1220530638BF704700F10100AF
:1046E00008BF20F001007047B0FA80F310FA03F21F
:1046F000C3F19D030AD0D90501EB1220530638BF40
:10470000704700F1010008BF20F001007047000071
:104710004FF47F0C1CEAD0121EBF1CEAD11392EAA0
:104720000C0F93EA0C0F00F0478090EA010F48BF8E
:1047300042F480724FF0004C4CEA00204CEA012118
:1047400002EB0302A0FB0113A2F50002002918BF2F
:1047500043F001035B0028BF4FEA330342EB2242E0
:104760005FEA132C4CEBC2502EBFBCEB436FB2F58B
:104770007C0F70474FEA036CBCF1004F08BF20F07C
:104780000100B2F57C0F38BF70470BD582F0FF02F5
:1047900012F5803FC8BF704700F1C040D8BF00F09D
:1047A0000040704700F5000C5FEA4C0C48BF7047B2
:1047B000B0F1C04000F073B890EA010F0CEAD113D9
:1047C00048BF42F48072624538BF634504D280EA34
:1047D000010000F00040704710B500F01AF800BF6B
:1047E0008900013E00F007B800F009B85FEA410C0B
:1047F0005FEA1C6C08D080EA010000F050B85FEA64
:10480000400C5FEA1C6CF6D14FF00040A0F5800030
:1048100070470EF1020E2EF0030E5EF8044B244298
:1048200004D44FEA4102B2F17F4F11D84FEA40035E
:10483000B3F17F4F0CD80ED14FEAD07CB2F17F4F4D
:104840000CEB4C0C0CF1020C08BF4CEBD17C04E0DF
:104850004FF0080C01E04FEAD17C0CEB4C0324FA3A
:1048600003F404F00704B4F1040C06D20EEB840C3C
:10487000BDE810404CF0010C6047DFE80CF0070881
:1048800002024FF00040A0F5800010BD0846420033
:1048900018BFD2F1807288BF00F0004010BDFF2128
:1048A00041EAD050C0057047FBF71CBF0CF00F0366
:1048B000092B08BF082000F051800A2B0BD0082BD1
:1048C00018BF704708BF1CF0400F0AD04FF000001F
:1048D0004FF0000170471CF0400F18BF4FF0004030
:1048E00070471CF0100F08D020F0704300F07F429A
:1048F00042EAD3014FEA4370704700F0604021F074
:104900007F4242EA000201F07F4040EA7270704745
:104910004FF0FF0212EAD0521CBF92F0FF038B420D
:10492000C2BFD14200EBC1507047002A0AD0002B11
:104930000BD0002900F00040A4BF40F0FE4040F43E
:104940000000704700F00040704743024FF00B0C2E
:1049500018BF4CF0806C7FF4CBAD70471CF4801F07
:1049600011D01CF4E02F03D06FEACC31490070471E
:104970004FF04050EFF3008222F0704242EA000212
:1049800082F3008870474FF000007047000000007D
:1049900000000000010203040607080900000000EF
:1049A000010203040000000000000000002F0000CE
:1049B00000000700070000147F147F1400242A7FE2
:1049C0002A12006264081323003649552250000061
:1049D0000503000000001C224100000041221C00D1
:1049E0000014083E08140008083E0808000000A053
:1049F000600000080808080800006060000000204F
:104A000010080402003E5149453E0000427F40002C
:104A1000004261514946002141454B3100181412B2
:104A20007F10002745454539003C4A49493000017F
:104A30007109050300364949493600064949291ECE
:104A40000000363600000000563600000008142230
:104A50004100001414141414000041221408000230
:104A60000151090600324959513E007C1211127C55
:104A7000007F49494936003E41414122007F414182
:104A8000221C007F49494941007F09090901003E74
:104A90004149497A007F0808087F0000417F4100B2
:104AA000002040413F01007F08142241007F404028
:104AB0004040007F020C027F007F0408107F003E10
:104AC0004141413E007F09090906003E4151215EF6
:104AD000007F091929460046494949310001017FF3
:104AE0000101003F4040403F001F2040201F003F89
:104AF0004038403F0063140814630007087008073B
:104B000000615149454300007F41410000552A554D
:104B10002A55000041417F000004020102040040C8
:104B200040404040000001020400002054545478EA
:104B3000007F48444438003844444420003844440A
:104B4000487F00385454541800087E0901020018A8
:104B5000A4A4A47C007F080404780000447D4000E5
:104B6000004080847D00007F102844000000417FC9
:104B70004000007C04180478007C080404780038A5
:104B80004444443800FC242424180018242418FC2D
:104B9000007C0804040800485454542000043F4496
:104BA0004020003C4040207C001C2040201C003C59
:104BB0004030403C004428102844001CA0A0A07CA9
:104BC000004464544C4414141414141400000000E1
:104BD00000000000000000000000FC0000000000D9
:104BE00002000000000C020C0200000000000000A7
:104BF00090D0BCD0BC900003000300001824FE44F9
:104C00008C000302070201001824D8B04C80000376
:104C100000010201C038E438E00001020201020292
:104C2000080600000000000000000000000000F87E
:104C30000402000000010204000204F80000000465
:104C4000020100009060F860900000000100000088
:104C50002020FC20200000000100000000000000D7
:104C60000000080600000000202020202000000096
:104C70000000000000000000000000020000000032
:104C80000080601C0200040300000000F80404041B
:104C9000F8000102020201000008FC00000000020E
:104CA00003020000188444241800030202020200D8
:104CB00008042424D80001020202010040B088FC4C
:104CC00080000000000302003C242424C4000102F0
:104CD00002020100F824242CC0000102020201009B
:104CE0000C04E41C0400000003000000D824242469
:104CF000D80001020202010038444444F8000003D5
:104D0000020201000000100000000000020000008C
:104D10000000200000000000060000000020508875
:104D200004020000000001029090909090000000AA
:104D30000000000000020488502000020100000072
:104D40001804C4241800000002000000F804E494D1
:104D5000F80001020202020000E09CF08000020361
:104D60000000030204FC2424D80002030202010014
:104D7000F80404040C0001020202010004FC040413
:104D8000F80002030202010004FC24740C00020378
:104D90000202030004FC24740C0002030200000061
:104DA000F0080444CC4000010202010004FC202071
:104DB000FC040203000003020404FC0404000202D9
:104DC00003020200000404FC0404060404030000BF
:104DD00004FC24D00C0402030200030204FC0400BF
:104DE0000000020302020203FC3CC03CFC00030082
:104DF0000300030004FC30C4FC04020302000300AF
:104E0000F8040404F80001020202010004FC242456
:104E10001800020302000000F8848404F800010274
:104E20000207050004FC2464980002030200030248
:104E3000182424448C000302020201000C04FC0428
:104E40000C0000020302000004FC0000FC0400014E
:104E500002020100047C80E01C040000030000004A
:104E60001CE03CE01C00000300030000049C609C6C
:104E70000400020300030200041CE01C0400000202
:104E8000030200000C84641C0400020302020300FD
:104E90000000FE020200000007040400000E30C003
:104EA0000000000000010200000202FE00000004F9
:104EB00004070000000402040000000000000000DD
:104EC00000000000000008080808080800000200B0
:104ED00000000000000000000040A0A0C000000191
:104EE0000202030204FC2020C000000302020100B1
:104EF00000C02020600000010202020000C0202447
:104F0000FC0000010202030200C0A0A0C0000001DA
:104F1000020202000020F82424040002030202001E
:104F20000040A0A0602000070A0A0A0404FC202018
:104F3000C0000203020003020020E400000000029F
:104F400003020000000020E4000008080807000039
:104F500004FC80E020200203020003020404FC00A1
:104F60000000020203020200E020E020C000030073
:104F70000300030020E02020C0000203020003021F
:104F800000C02020C00000010202010020E020201B
:104F9000C000080F0A02010000C02020E00000014C
:104FA000020A0F0820E04020200002030200000057
:104FB0000060A0A020000002020203000020F820F0
:104FC000000000000102020020E00020E0000001DB
:104FD0000202030220E020806020000003010000A4
:104FE0006080E080600000030003000020608060BB
:104FF000200002030003020020E020806020080857
:10500000070100000020A06020000002030202004F
:10501000000020DE0200000000070400000000FF86
:1050200000000000000F00000002DE20000000046D
:10503000070000000201020404020000000000005A
:105040000000000000000000000000000000000060
:10505000000000F8000000000000003330000000F5
:1050600000100C06100C06000000000000000000FC
:1050700040C07840C0784000043F04043F0404006E
:10508000007088FC08300000001820FF211E00007E
:10509000F008F000E018000000211C031E211E0093
:1050A00000F00888700000001E2123241927211019
:1050B00010160E00000000000000000000000000BC
:1050C000000000E018040200000000071820400063
:1050D00000020418E0000000004020180700000053
:1050E000404080F0804040000202010F01020200B7
:1050F000000000F0000000000101011F010101009B
:10510000000000000000000080B0700000000000FF
:105110000000000000000000000101010101010188
:10512000000000000000000000303000000000001F
:1051300000000000806018040060180601000000F4
:1051400000E010080810E000000F102020100F00F1
:10515000001010F8000000000020203F2020000078
:1051600000700808088870000030282422213000D0
:1051700000300888884830000018202020110E00D8
:105180000000C02010F8000000070424243F240081
:1051900000F80888880808000019212020110E0056
:1051A00000E0108888180000000F112020110E0068
:1051B00000380808C83808000000003F0000000060
:1051C0000070880808887000001C222121221C0021
:1051D00000E010080810E0000000312222110F004A
:1051E000000000C0C00000000000003030000000DF
:1051F000000000800000000000008060000000004F
:105200000000804020100800000102040810200067
:1052100040404040404040000404040404040400B2
:105220000008102040800000002010080402010047
:10523000007048080808F000000000303601000047
:10524000C030C828E810E0000718272423140B00FA
:105250000000C038E0000000203C23020227382074
:1052600008F8888888700000203F202020110E0058
:10527000C03008080808380007182020201008004F
:1052800008F808080810E000203F202020100F0038
:1052900008F88888E8081000203F20202320180004
:1052A00008F88888E8081000203F2000030000006C
:1052B000C03008080838000007182020221E02000D
:1052C00008F808000008F808203F210101213F20CC
:1052D000000808F8080800000020203F20200000F7
:1052E00000000808F8080800C08080807F000000E7
:1052F00008F888C028180800203F20012638200020
:1053000008F8080000000000203F20202020300086
:1053100008F8F800F8F80800203F003F003F2000A0
:1053200008F830C00008F808203F200007183F00A8
:10533000E01008080810E0000F10202020100F00D7
:1053400008F808080808F000203F210101010000CA
:10535000E01008080810E0000F18242438504F000F
:1053600008F8888888887000203F2000030C3020CF
:1053700000708808080838000038202121221C000D
:10538000180808F8080818000000203F2000000056
:1053900008F808000008F808001F202020201F003F
:1053A0000878880000C83808000007380E0100009F
:1053B000F80800F80008F800033C0700073C030069
:1053C000081868808068180820302C03032C3020CF
:1053D0000838C800C83808000000203F200000003E
:1053E00010080808C8380800203826212020180096
:1053F000000000FE020202000000007F404040006A
:10540000000C30C000000000000000010638C000A1
:1054100000020202FE000000004040407F00000049
:10542000000004020202040000000000000000006E
:10543000000000000000000080808080808080806C
:105440000002020400000000000000000000000054
:1054500000008080808000000019242222223F204A
:1054600008F8008080000000003F112020110E008D
:105470000000008080800000000E1120202011001C
:10548000000000808088F800000E112020103F20CE
:105490000000808080800000001F22222222130052
:1054A000008080F0888888180020203F202000009D
:1054B0000000808080808000006B94949493600052
:1054C00008F8008080800000203F210000203F205D
:1054D00000809898000000000020203F202000005D
:1054E000000000809898000000C08080807F00004D
:1054F00008F8000080808000203F24022D3020002A
:10550000000808F8000000000020203F20200000D4
:105510008080808080808000203F20003F20003FEE
:105520008080008080800000203F210000203F20FC
:105530000000808080800000001F202020201F00AD
:10554000808000808000000080FFA12020110E00DC
:105550000000008080808000000E112020A0FF80CD
:10556000808080008080800020203F21200001007A
:1055700000008080808080000033242424241900CF
:10558000008080E0808000000000001F20200000DC
:105590008080000000808000001F202020103F201D
:1055A000808080000080808000010E3008060100AD
:1055B00080800080008080800F300C030C300F0052
:1055C00000808000808080000020312E0E3120007D
:1055D000808080000080808080818E7018060100AD
:1055E00000808080808080000021302C22213000CB
:1055F00000000000807C020200000000003F4040EC
:1056000000000000FF00000000000000FF0000009C
:105610000002027C800000000040403F00000000CB
:105620000006010102020404000000000000000066
:10563000000000000000000000000000000000006A
:10564000000000000000000000000000000000005A
:10565000000000000000000000F0F0F0000000007A
:105660000000000000017F010000000000000000B9
:10567000001C1C1C0000000000008060301C8C60BE
:10568000301C0C00000000000000000000000000C2
:10569000000000000000000000000000000000E02A
:1056A0000000000000E000000086E69F86868686F7
:1056B000E69F860000011F01010101011F01010099
:1056C000000080C06020F820E0C000000000030758
:1056D0000C18FF70E18100000000070F10107F1010
:1056E0000F0700008060206080000000E0200000C4
:1056F0000F3020309F70DC371030C0000000100EDB
:1057000003000718101807000000C02020E0C000A8
:105710000000000080E01F38E88703C43C0400005C
:10572000070F1810100B070D1010080000808C4C8C
:105730003800000000000000000000000000000031
:105740000000000000000000000000000000000059
:1057500000000000000080E03008040000000000AD
:1057600000FEFF0100000000000000000000030F29
:105770001820400000040830E08000000000000015
:105780000000000001FFFE000000000000402018A3
:105790000F03000000000000000000000000C00037
:1057A00000000000004266663C18FF183C66664236
:1057B00000000000000003000000000000000000E6
:1057C0000000800000000000001010101010FF10FA
:1057D0001010101000000000000003000000000086
:1057E00000000000000000000000000000000000B9
:1057F000000000000000000000808C4C3800000019
:105800000000000000000000000000000000000098
:1058100000101010101010101010100000000000E8
:105820000000000000000000000000000000000078
:105830000000000000000000000000000000000068
:1058400000001C1C1C000000000000000000000004
:1058500000000000E0380C000000000080701C0315
:10586000000000000060380E010000000000000091
:10587000000080C060202060C080000000FEFF01AA
:105880000000000001FFFE000001070E18101018B4
:105890000E0701000000808080C0E00000000000D2
:1058A0000000000000FFFF000000000000001010DA
:1058B000101F1F10101000000080402020202060CA
:1058C000C080000000030300804020381F07000054
:1058D000001C1A1918181818181F00000080C02082
:1058E000202060C080000000000303001010182F6B
:1058F000E780000000070F10101010180F070000BD
:10590000000000000000C0E0F000000000C0B0880F
:10591000868180FFFF808000000000000010101FC3
:105920001F1010000000E0606060606060600000B8
:1059300000003F1008080818F0E0000000070B10F6
:105940001010101C0F030000000080C04020202019
:10595000E0C0000000FCFF211008080818F0E0007B
:105960000001070C18101010080F03000000C0E021
:105970006060606060E06000000003000000E0180C
:105980000700000000000000001F1F0000000000D2
:105990000080C0602020202060C080000087EF2CA5
:1059A0001818303068CF830000070F08101010104F
:1059B000180F07000000C0C020202020C080000079
:1059C000001F3F604040402010FFFE0000000C1C04
:1059D000101010080F03000000000000000000007D
:1059E0000000000000000000000E0E0E000000008D
:1059F00000000000001C1C1C000000000000000053
:105A0000000000000000000000000000000C0C007E
:105A100000000000000000000058380000000000F6
:105A2000000000000000008040201000000010284E
:105A3000448201000000000000000000000001029C
:105A4000040810000000000000000000000000003A
:105A5000008484848484848484848400000000001E
:105A60000000000000000000000010204080000046
:105A70000000000000000000000001824428100027
:105A800000001008040201000000000000C02020F7
:105A90001010101030E0C0000003030000F01008E8
:105AA0000C070300000000001C1C1C00000000008C
:105AB000000000C0406020202040C00000FCFF012A
:105AC000F00E03C1FE03807F0001070E08111110C4
:105AD000110904020000000080E0E0000000000066
