:1026C9002020202020202020002D2573004E614E3F
:1026D90000496E66002D496E6600252E326500257B
:1026E9006400252E3666007200312F78002B005EBB
:1026F900002D002A002F00250025732573003000C6
:10270900005072657373203D004469762062792018
:1027190030004D6F642062792030005351525420AB
:102729006E6567004F766572666C6F770000000012
:102739000000000000000000000000000000000090
:0D2749000000000000000000000000000083
:10250300410089004100AE0041009100410090006C
:102513004100AD0041006F0049009200000000003F
:102523000000000049009B000000000000000000C4
:102533004900A400000000000000000050007800E3
:102543000000000000000000000000000000004147
:1025530000BA004900B00000000000000000004481
:102563000070000000004400740000000044008A72
:10257300000000004100AF00410088004100B900A5
:1025830041008F0041008E0044006A0000000041BA
:03259300006E00D7
:1023A90090000112080D00000000E4F593F5945324
:1023B90095E55396E553953F53963F53B30F53B461
:1023C9000F53C9F353CAF3122ED0122B4B12221DED
:1023D90012160C900000EFF060F67F147E00122EAA
:1023E9009412160C900000E0FEB507E4EEB40E114D
:1023F90090006E7401F0122F3590006A1208018066
:1024090008900000E0FF121F4212160CEF70FA90BC
:10241900006EE060BBE4F0122F3590006AE0F8A38B
:10242900E0F9A3E0FAA3E0FBC3EF9BFFEE9AFEED10
:1024390099FDEC98FC900001120801900001E0FC64
:0E244900A3E0FDA3E0FEA3E0FF122DF88082C9
:102DF800900005120801E47FF47E01FDFC900005B7
:102E0800E0F8A3E0F9A3E0FAA3E0FBC31207B84097
:0B2E1800047F0E80027FAA121F4222DE
:10221D00E49000BAF090007012080D0000000090DC
:10222D00007412080D0000000090008A12080D00C5
:10223D00000000E49000AFF0900088F09000B9F03D
:10224D0090008FF090008EF0900089F0122F237E79
:10225D00007F107D007B017A00797812096D7E0078
:10226D007F097D007B017A00799212096D7E007FD6
:10227D00097D007B017A00799B12096D7E007F0933
:10228D007D007B017A0079A412096D7E007F097DA6
:10229D00007B017A0079B012096DE4FF1228699074
:1022AD00003674FFF0A37426F0A374C9F07B08E424
:1022BD00FD7F01122C3C90003674FFF0A37426F0C4
:1022CD00A374C9F07B08E4FD7F02122C3C9000360C
:1022DD0074FFF0A37426F0A374C9F07B08E4FD7FAE
:0422ED0003022C3C80
:102F2300E49000AEF0900091F0900090F09000AD2E
:022F3300F0228A
:102BED009000BAE07005FFFEFDFC22900088E060C9
:102BFD002590003D74FFF0A37426F0A374D2F0A3CA
:102C0D007401F0A37400F0A37478F07B017A00795D
:102C1D000C1209FE800F780C7C007D017B017A007F
:0E2C2D0079781209507B017A00790C122C8AFA
:012C3B002276
:100E1C009000701208019000707A007992E0FCA3A7
:100E2C00E0FDA3E0FEA3E0FF7B019000137409F04A
:100E3C0090000C120801900010EBF0A3EAF0A3E96B
:010E4C00F0B5
:100E4D00E412074A90000CE0FCA3E0FDA3E0FEA332
:100E5D00E0FFA804A905AA06FB1202AC60109000E1
:100E6D003D74FFF0A37426F0A374D6021105E4FFC0
:100E7D00FE7D807C7F90000CE0F8A3E0F9A3E0FA02
:100E8D00A3E0FB1202AC6002501AE4FFFE7D807CF1
:100E9D00FF90000CE0F8A3E0F9A3E0FAA3E0FB1249
:100EAD0002AC5052E4FFFEFDFC90000CE0F8A3E014
:100EBD00F9A3E0FAA3E0FB1202AC90003D600E40F6
:100ECD000C74FFF0A37426F0A374DA800A74FFF09B
:100EDD00A37426F0A374DEF0900013E0FF900040A1
:100EED00E4F0A3EFF0900010E0FBA3E0FAA3E0F92B
:100EFD001229D50211217F207EBC7DBE7C4C900035
:100F0D000CE0F8A3E0F9A3E0FAA3E0FB1202AC6059
:100F1D000250507F177EB77DD17C3890000CE0F8E1
:100F2D00A3E0F9A3E0FAA3E0FB1202AC50597F5FF6
:100F3D007E707D897C3090000CE0F8A3E0F9A3E091
:100F4D00FAA3E0FB1202AC603E403CE4FFFEFDFC68
:100F5D0090000CE0F8A3E0F9A3E0FAA3E0FB120285
:100F6D00AC602490003D74FFF0A37426F0A374E3ED
:100F7D00F090000CE0FCA3E0FDA3E0FEA3E0FF90E9
:100F8D000040120801806B90000CE0FCA3E0FDA373
:100F9D00E0FEA3E0FF120363AD07AC06EC12032ADB
:100FAD00A804A905AA06AB0790000CE0FCA3E0FD80
:100FBD00A3E0FEA3E0FF120011122F447B5F7A70B5
:100FCD00798978301202AC6035403390003D74FF62
:100FDD00F0A37426F0A374E8F090000CE0FCA3E0FD
:100FED00FDA3E0FEA3E0FF120363900040EEF0A32B
:100FFD00EFF07B017A0079141209FE0210F89000CF
:10100D003D74FFF0A37426F0A374EBF090000CE098
:10101D00FCA3E0FDA3E0FEA3E0FF90004012080159
:10102D007B017A0079141209FE7B017A0079147D17
:10103D002E122EB4900034EBF0A3EAF0A3E9F09059
:10104D000034E0FBA3E0FAA3E04A4B70030210F872
:10105D007B017A007914122EE674132FF974003E79
:10106D00FA9000377401F0A3EAF0A3E9F090003490
:10107D00E0FBA3E0FAA3E0F9C003C002C001A3A303
:10108D00E0FAA3E0F9D3D082D083D0E0E99582EAEB
:10109D009583401B900037E0FB120704B43010E439
:1010AD0012074A90003874FFF5F012077E80BE904B
:1010BD000034E0FBA3E0FAA3E0F9C003C002C001D5
:1010CD00A3E0FBA3E0FAA3E0F9D082D083D0E06BDC
:1010DD007008E965827003EA6583700F900037E050
:1010ED00FBA3E0FAA3E0F9E412074A90003D740176
:1010FD00F0A37400F0A37414F0900013E0FF9000BF
:10110D0040E4F0A3EFF0900010E0FBA3E0FAA3E0C1
:10111D00F91229D5900013E024FFFFE434FFFE906F
:10112D000010E0FBA3E0FAA3E0F98F828E83E412B6
:02113D00075C4D
:01113F00228D
:102963009000BAE0FEC3940F5067EF642E7023907B
:1029730000B9E0705CEE7011A3E004F074782EF5FA
:1029830082E43400F5837430F09000B97401F0A34D
:102993008020EFC39430402AEFD394395024900021
:1029A300B9E0600B90008FE004F0E09406502290B1
:1029B30000BAE0FE04F074782EF582E43400F58367
:1029C300EFF09000BAE02478F582E43400F583E474
:0229D300F022F0
:1028E8009000BAE0FFD39400406874772FF582E433
:1028F8003400F583E0B42E05E49000B9F09000BAF6
:10290800E014F0E02478F582E43400F583E4F090F4
:0529180000B9E060457C
:10291D007B017A0079787D2E122EB490000AEBF0AF
:10292D00A3EAF0A3E9F04A4B601990000AE0FBA37B
:10293D00E0FAA3E02401F9E43AFA122EE690008FB2
:0C294D00EFF022E49000B9F090008FF051
:0A29590022900088E06002E4F02202
:1027E20090000A12080190000AE0FCA3E0FDA3E0B9
:1027F200FEA3E0FF90000AE0F8A3E0F9A3E0FAA349
:10280200E0FB1202AC60037F0122E4FFFE7D807CCC
:102812007F90000AE0F8A3E0F9A3E0FAA3E0FB123C
:1028220002AC6002501AE4FFFE7D807CFF90000A39
:10283200E0F8A3E0F9A3E0FAA3E0FB1202AC500334
:102842007F012290000AE0FCA3E0FDA3E0FEA3E0EA
:10285200FF122F447BA97A5F796378581202AC5039
:07286200037F01227F002229
:102D5600EFB40A0890000A7430F08007EF24309030
:102D6600000AF0900089E0FF6403600DEFB40402EE
:102D76008007900089E0B4010812221DE4900089C2
:092D8600F090000AE0FF0229634D
:102AF80090000BEFF0122BED120E1C90000BE0244F
:102B0800F3601F0470369000917401F0789B7C008C
:102B1800FD7BFF7A2679F01209509000AF7413F00C
:102B2800801A9000907401F0789B7C00FD7BFF7AFE
:102B38002679F21209509000AF7414F0900089744D
:032B480001F02277
:1020470090000BEFF0122BED120E1C90000BE0240A
:10205700F4604614605C24FD60712405600302216E
:10206700179000AEE070047F0180027F009000AE01
:10207700EFF070047F0B80027F119000AFEFF090BC
:1020870000AEE07BFF70067A2679F680047A26791F
:10209700F8C003C002C0018068E4900091F090008E
:1020A700AF740CF0789B7C007D017BFF7A2679FA70
:1020B700805BE4900090F09000AF740DF0789B7C0B
:1020C700007D017BFF7A2679FC80429000ADE070AD
:1020D700047F0180027F009000ADEFF070047F1055
:1020E70080027F129000AFEFF09000ADE07BFF70B1
:1020F700067A2679FE80047A277900C003C002C0D9
:1021070001789B7C007D01D001D002D003120950D9
:102117009000897402F0E49000BAF0900088F09083
:1021270000B9F0FE7F10FD7B017A00797802096D16
:1019B30090000AEFF0900089E070489000BAE0FFD1
:1019C300D39400403E90000AE0FEB40C0CEF700983
:1019D300900088E0700304F022EEB40C08900091AC
:1019E300E06401600E90000AE0B40D0F900090E0F7
:1019F300B4010890000AE0FF022AF890000AE0FF11
:101A0300022047900089E0FF64016008EF640260F0
:101A130003021B5090000AE024F4604D147003028B
:101A23001AA424FD7003021AE424056003021B2F89
:101A33009000AEE070047F0180027F009000AEEF63
:101A4300F070047F0B80027F119000AFEFF09000E5
:101A5300AEE07BFF70067A2679F680047A2679F861
:101A6300C003C002C001021B1A900091E070047F02
:101A73000180027F00900091EFF0789B7C007D0154
:101A83007BFFBF010E7A2679F01209509000AF74E4
:101A93001380367A2679FA1209509000AF740C80BD
:101AA3003D900090E070047F0180027F00900090E1
:101AB300EFF0789B7C007D017BFFBF01157A2679CF
:101AC300F21209509000AF7414F09000897401F081
:101AD300805A7A2679FC1209509000AF740DF08079
:101AE300459000ADE070047F0180027F009000AD5F
:101AF300EFF070047F1080027F129000AFEFF09040
:101B030000ADE07BFF70067A2679FE80047A2779A0
:101B130000C003C002C001789B7C007D01D001D0CE
:101B230002D0031209509000897402F0900089E0FA
:101B3300B4021AE49000BAF0900088F09000B9F073
:0E1B4300FE7F10FD7B017A00797812096D2279
:10114000780A7C007D017BFF7A2779367E007F104C
:101150001206DE781A7C007D017BFF7A2779467EB5
:10116000007F101206DE90003674FFF0A37426F0A4
:10117000A374C9F07B08E4FD7F01122C3C9000367B
:1011800074FFF0A37426F0A374C9F07B08E4FD7F1C
:1011900002122C3C90003674FFF0A37426F0A37466
:1011A000C9F07B08E4FD7F03122C3C7B017A0079B7
:1011B00092122EE6D3EF9400EE94005003021249EF
:1011C0007B017A00799B122EE6D3EF9400EE940017
:1011D000403190003D74FFF0A37427F0A37402F037
:1011E000A37401F0A37400F0A37492F0A37401F04F
:1011F000A37400F0A3749BF07B017A00790A1209B2
:10120000FE800F780A7C007D017B017A00799212C2
:1012100009507B017A00790A122EE6D3EF9408EE8A
:1012200094004005E4900012F07B017A00790A12E4
:101230002EE6AB079000367401F0A37400F0A3749F
:101240000AF0E4FD7F01122C3C900089E0FF60076A
:10125000640260030212E89000BAE0D394004039BF
:10126000900088E0602590003D74FFF0A37426F0A4
:10127000A374D2F0A37401F0A37400F0A37478F007
:101280007B017A00791A1209FE802A781A7C007D87
:10129000017B017A0079788019900089E0781A7CC6
:1012A000007D017BFFB402067A27790780047A2744
:1012B00079091209507B017A00791A122EE6D3EFD0
:1012C0009408EE94004005E4900022F07B017A003F
:1012D000791A122EE6AB079000367401F0A3740061
:1012E000F0A3741AF00213C3900089E0B4011390C4
:1012F000003674FFF0A37427F0A3740AF07B080291
:1013000013C3900089E0FF64036008EF6404600386
:101310000213CA7B017A0079B0122EE6D3EF940053
:10132000EE940040617B017A0079B0122EE6D3EF93
:071330009408EE9400403424
:1013370090003D7401F0A37400F0A374B0F0A3E42F
:10134700F0A37408F07B017A00792A1229D5E4907A
:101357000032F090003604F0A37400F0A3742AF072
:021367007B0801
:1013690080197B017A0079B0122EE6AB079000361E
:101379007401F0A37400F0A374B0F0803D7B017A8E
:1013890000799B122EE6D3EF9400EE9400401B7B6C
:10139900017A00799B122EE6AB079000367401F0B2
:1013A900A37400F0A3749BF0801090003674FFF0D2
:1013B900A37426F0A374C9F07B08E4FD7F02122C04
:1013C9003C900089E0FF64036004EFB4041B7B01D7
:1013D9007A0079A4122EE6AB079000367401F0A3C7
:1013E9007400F0A374A4F0801090003674FFF0A389
:1013F9007426F0A374C9F07B08E4FD7F03122C3C2A
:0114090022C0
:101F4200900009EFF090008EE0600B900009E064D1
:101F52000F6003022046900009E0FF2456604E24E1
:101F6200A9B410004003022043901F7975F003A426
:101F7200C58325F0C58373021FA9021FA9021FA9E9
:101F8200021FA9021FA9021FA9021FA9021FA9025B
:101F92001FA9021FA9021FB5021FB5021FB5021F0A
:101FA200C0022040021FB5122D560220431228E81B
:101FB200022043900009E0FF1219B302204390006F
:101FC20089E0FF64026005EF64017075EF640270DE
:101FD20059122BED9000741208019000BAE0D394CC
:101FE200004039900088E0602590003D74FFF0A326
:101FF2007426F0A374D2F0A37401F0A37400F0A3CA
:102002007478F07B017A0079B01209FE802B78B0E7
:102012007C007D017B017A007978801A78B07C009F
:102022007D017BFF7A277907800C78B07C007D01E7
:102032007B017A00799B12095012140A8003122242
:052042001D12114022F7
:102CD30090000AEBF0A3EAF0A3E9F090008E7401F0
:102CE300F09000897404F090000AE0F9A3E0FAA3DD
:102CF300E090003DC9F0A3EAF0A3E9F0A3E4F0A358
:102D03007408F07B017A0079A41229D5E49000AC11
:022D1300F022AC
:10140A009000AFE024F5B40A0040030215E09014FE
:10141A002675F003A4C58325F0C58373021444021C
:10142A0014660214880215E00215E00214AA0214D6
:10143A00EF02151702156702159A900074E0FCA3D3
:10144A00E0FDA3E0FEA3E0FF900070E0F8A3E0F95E
:10145A00A3E0FAA3E0FB1200150215DA900074E08B
:10146A00F8A3E0F9A3E0FAA3E0FB900070E0FCA384
:10147A00E0FDA3E0FEA3E0FF1200110215DA9000DE
:10148A0074E0FCA3E0FDA3E0FEA3E0FF900070E09F
:10149A00F8A3E0F9A3E0FAA3E0FB1201060215DAC9
:1014AA00900074E0FCA3E0FDA3E0FEA3E0FF122F8E
:1014BA00447B5F7A70798978301202AC6005400308
:1014CA000215BA900074E0F8A3E0F9A3E0FAA3E0E9
:1014DA00FB900070E0FCA3E0FDA3E0FEA3E0FF1296
:1014EA00020F0215DA900074E0FCA3E0FDA3E0FE0F
:1014FA00A3E0FF90000E120801900070E0FCA3E048
:10150A00FDA3E0FEA3E0FF121B510215DA9000745E
:10151A00E0FCA3E0FDA3E0FEA3E0FF122F447B5F03
:10152A007A70798978301202AC600B40097BFF7AB5
:10153A0027791B0215FA900074E0FCA3E0FDA3E0F2
:10154A00FEA3E0FF90000E120801900070E0FCA3D9
:10155A00E0FDA3E0FEA3E0FF1222F18073E4FFFEA8
:10156A00FDFC900070E0F8A3E0F9A3E0FAA3E0FB29
:10157A001202AC50087BFF7A27792480739000709E
:10158A00E0FCA3E0FDA3E0FEA3E0FF12245B8040A1
:10159A00900070E0FCA3E0FDA3E0FEA3E0FF122FA1
:1015AA00447B5F7A70798978301202AC600A40080D
:1015BA007BFF7A2779128038900070E0F8A3E0F96F
:1015CA00A3E0FAA3E0FBE4FFFE7D807C3F12020F5A
:1015DA0090008A12080190008AE0FCA3E0FDA3E0D3
:1015EA00FEA3E0FF1227E2EF60097BFF7A27792D3D
:1015FA00022CD39000897403F0A37A0079A4120E06
:02160A00292293
:102E9400E4FDFCC3ED9FEC9E5015E4FBFA0BBB0074
:0F2EA400010ABA04F8BB4CF50DBD00010C80E427
:012EB30022FC
:040003007F03DFFE9A
:0100070022D6
:102EFB00AD07AC06ED1DAE0470011C4E6005120053
:042F0B000380F1222C
:102E7200D2A3C2A4D2A1E4F593F59490003BE580DD
:102E8200F07F647E00122EFBC2A190003BE020E79F
:012E9200DF60
:012E9300221C
:102E23007580FF122E72D2A3D2A4D2A19000E9E53D
:102E330080F07F0A7E00122EFBC2A17F0A7E001261
:072E43002EFB9000E9E0FF07
:012E4A002265
:072DC7009000D1E02480FF21
:102DCE0090003AEFF0122E72C2A3C2A4E4F59375EE
:102DDE0094FF90003AE0F580D2A17F0A7E00122E79
:0A2DEE00FBC2A17F0A7E00022EFB4B
:102D8F009000D6E0FBA3E475F001120794A9F0FAC6
:042D9F00120704FF14
:102DA30090003AEFF0122E72C2A3D2A4E4F5937509
:102DB30094FF90003AE0F580D2A17F1E7E00122E90
:042DC300FBC2A1228C
:072D15009000E7EBF0AE07B0
:102D1C00EEB40105ED2480A3F0EEB40207ED24908F
:102D2C009000E8F0EEB40307ED24889000E8F0EE94
:102D3C00B40407ED24989000E8F09000E8E0FF124E
:0A2D4C002DCE9000E7E0FF022DA35A
:072C3C00900035EBF0AE073C
:102C4300EEB40107ED2480900039F0EEB40207EDF5
:102C53002490900039F0EEB40307ED2488900039F6
:102C6300F0EEB40407ED2498900039F0900039E0B9
:102C7300FF122DCE900035E0600CA3122D92900030
:062C830035E014F080EEC4
:012C89002228
:0528690090000BEFF0F0
:10286E0090000F7480F0A3F0E490000CF0E4900060
:10287E000DF0E490000EF07F34122DCE90000DE09E
:10288E00FF900010E02FFF122DCE90000EE0FFA360
:10289E00E02FFF122DCE90000BE0FF122DA3900023
:1028AE000BE0FF122DA390000EE004F0E0C394089D
:1028BE0040C590000DE004F0E0C3942040B49000B9
:1028CE000F7488F090000CE004F0E0C39402409D79
:0A28DE007F36122DCE7F30022DCE82
:031CB700FDE0FB52
:0B1CBA009000CEEFF0A3EDF0A3EBF0E4
:101CC500E49000D4F0A3F07F34122DCE7F36122D90
:101CD500CE9000CEE0FFC4540FFEEF540F9000D31A
:101CE500F09000CFE0FFC39420500C9000D2EEF0AE
:101CF5009000D1EFF0800F9000CFE024E09000D16C
:101D0500F0EE2408A3F0122DC79000D2122DCA12AE
:101D15002E23122E239000D4EFF0122E239000D5FF
:101D2500EFF0122DC79000D2122DCA9000D3E0FF1C
:101D3500C3940850659000D0E014602214603B24E1
:101D4500026003021E049000D4E0FEC374079FFFE7
:101D5500F87401088002C333D8FCF45E8036900025
:101D6500D4E0FF9000D3E0FEC374079EFEF8740133
:101D7500088002C333D8FC4F801A9000D4E0FF904E
:101D850000D3E0FEC374079EFEF87401088002C309
:101D950033D8FC6F9000D4F080659000D0E01460DB
:101DA5002414603D240270579000D5E0FF9000D3C5
:101DB500E0FEC3740F9EFEF87401088002C333D899
:101DC500FCF45F80369000D5E0FF9000D3E0FEC3C1
:101DD500740F9EFEF87401088002C333D8FC4F804F
:101DE5001A9000D5E0FF9000D3E0FEC3740F9EFE6D
:101DF500F87401088002C333D8FC6F9000D5F090C9
:101E050000D4E0FF122DA39000D5E0FF122DA37F93
:041E150030022DCE9C
:0D2A3D009000DCEDF0A3EBF09000DBEFF07B
:102A4A00D3947F500DA3E0FE947F5006A3E0943FF9
:102A5A0040037F01229000DEE0D3940240037F010D
:102A6A00229000DBE0FFD39E4009A3E09000DBF058
:102A7A00A3EFF09000DBE0FF9000DDE0A3121CB7AB
:102A8A009000DBE004F0E0FFA3E0C39F50E57F0085
:012A9A002219
:0D2A9B009000E0EDF0A3EBF09000DFEFF015
:102AA800D3947F500EA3E0FE943F5007A3E0FD941B
:102AB8003F40037F01229000E2E0D3940240037F6D
:102AC8000122EED39D400B9000E0E0FEA3F09000C1
:102AD800E0F09000DFE0FFA3E09000E2121CB79066
:0F2AE80000E0E004F0E0FFA3E0C39F50E57F00B3
:012AF70022BC
:0817F7009000BBEFF0A3EDF040
:1017FF00E49000C4F0A3F0A3F0A3F0EBC39FFEE4CA
:10180F009400A3F0A3CEF0EDFF9000BEE0FBC39FCA
:10181F00FEE494009000CAF0A3CEF09000C8E0FE62
:10182F00A3E0FFD39400EE940040089000CC740125
:10183F00F08020EF4E70169000BBE0FFA3E0FD900C
:10184F0000BFE09000E2F0122A9B7F00229000CCB4
:10185F0074FFF09000CAE0FEA3E0FFD39400EE9473
:10186F000040089000CD7401F08023EF4E70199066
:10187F0000BBE0FFA3E0FD9000BEE0FBA3E0900003
:10188F00DEF0122A3D7F00229000CD74FFF0900011
:10189F00C8E0FEA3E0FF122F519000C8EEF0A3EFB7
:1018AF00F0A3E0FEA3E0FF122F519000CAEEF0A3C9
:1018BF00EFF09000C8E0FCA3E0FDD39FEC9E400A40
:1018CF009000C2ECF0A3EDF0800F9000CAE0FFA3F0
:1018DF00E09000C2CFF0A3EFF0E49000C0F0A3F0CF
:1018EF009000C3E02401FF9000C2E03400FED390CB
:1018FF0000C1E09F9000C0E09E40030219B090002D
:10190F00BBE0FFA3E0FD9000BFE0FB121CBA90000C
:10191F00C8E0FEA3E0FF9000C5E02FF09000C4E008
:10192F003EF09000CAE0FEA3E0FF9000C7E02FF06A
:10193F009000C6E03EF09000C2E0FEA3E0FFA3E0FF
:10194F00FCA3E0FDD39FEC9E40199000C2A3ED9F36
:10195F00FFEC9EA3F0A3EFF09000CCE0FF9000BB54
:10196F00E02FF09000C2E0FEA3E0FF9000C6E0FC85
:10197F00A3E0FDD39FEC9E4017ED9FFFEC9E9000E0
:10198F00C6F0A3EFF09000CDE0FF9000BCE02FF089
:10199F009000C1E004F070069000C0E004F002185F
:0319AF00EF7F00C7
:0119B2002212
:0B2638009000D6EBF0A3EAF0A3E9F05D
:102643007F34122DCEE49000D9F09000D9E0FFC37F
:102653009420502FEF2480FF122DCE7F80122DCE99
:10266300E49000DAF0122D8F9000DAE004F0E0C37A
:10267300941040F17F1E7E00122EFB9000D9E004DF
:10268300F080C7E49000D9F09000D9E0FFC3942014
:10269300502FEF2480FF122DCE7F88122DCEE49091
:1026A30000DAF0122D8F9000DAE004F0E0C394100A
:1026B30040F17F1E7E00122EFB9000D9E004F080D3
:0626C300C77F36022DCE98
:102B4B00C2A17F017E00122E947F30122DCE7F0109
:102B5B007E00122E947F02122DCE7F017E00122E4C
:102B6B00947F0C122DCE7F017E00122E947F0612C5
:102B7B002DCE7F017E00122E947F80122DCE7F01F1
:102B8B007E00122E947F01122DCE7F0A7E00022E24
:012B9B0094A5
:10160C0090000574F0F0A3740FF0E4A3F053953F31
:10161C004396C053B30F43B4F053C9F343CA0CD22F
:10162C00C7D2C6D2C5D2C4C2A7C2A6C2CBC2CA7FB9
:10163C000AFE122E9453B30F53B40F7F0A7E00127E
:10164C002E9420C7117F0A7E00122E9420C707907B
:10165C000006E0540EF020C6117F0A7E00122E9474
:10166C0020C607900006E0540DF020C5117F0A7EBD
:10167C0000122E9420C507900006E0540BF020C4F5
:10168C00117F0A7E00122E9420C407900006E054AD
:10169C0007F053953F4396C053B30F43B4F053C96F
:1016AC00F343CA0CC2C7C2C6C2C5C2C4D2A7D2A613
:1016BC00D2CBD2CA7F0A7E00122E9453953F5396FA
:1016CC003F53C9F353CAF37F0A7E00122E9420A70E
:1016DC00117F0A7E00122E9420A707900005E0547B
:1016EC00E0F020A6117F0A7E00122E9420A607900F
:1016FC000005E054D0F020CB117F0A7E00122E940E
:10170C0020CB07900005E054B0F020CA117F0A7E70
:10171C0000122E9420CA07900005E05470F090003F
:10172C0006E0FF900005E04FF412085E176C1117ED
:10173C008C1217AC1417CC1817742117942217B4E9
:10174C002417D428177C41179C4217BC4417DC483B
:10175C0017848117A48217C48417E488000017EC3F
:10176C009000077401F0807D9000077402F0807582
:10177C009000077403F0806D9000077404F080658E
:10178C009000077405F0805D9000077406F080559A
:10179C009000077407F0804D9000077408F08045A6
:1017AC009000077409F0803D900007740AF08035B2
:1017BC00900007740BF0802D900007740CF08025BE
:1017CC00900007740DF0801D900007740EF08015CA
:1017DC00900007740FF0800D9000077410F08005D6
:0A17EC00E4900007F0900007E0FF12
:0117F60022D0
:072596004400E30000000017
:102ED000538E7F5389F0438901758CFC758A66D2C5
:062EE000A9D2AFD28C2242
:03000B00022B9C29
:102B9C00C0E0C0F0C083C082C0D075D000C000C0FF
:102BAC0004C005C006C007758CFC758A669000E3EE
:102BBC00E0FCA3E0FDA3E0FEA3E02401FFE43EFE65
:102BCC00E43DFDE43CFC9000E3120801D007D00684
:102BDC00D005D004D000D0D0D082D083D0F0D0E0BB
:012BEC0032B6
:0F2F35009000E3E0FCA3E0FDA3E0FEA3E0FF2299
:10000E000203CFE86480F8E933E83360110460F04E
:10001E00ED33EC337009E8FCE9FDEAFEEBFF220458
:10002E0060DED3EB9FEA9EE99DE8C2E78CF0C2F753
:10003E0095F0400CE8CCF8E9CDF9EACEFAEBCFFB1F
:10004E0012039A85D0F05804700320D5B3E80470DB
:10005E00075002B2D50203D992D5EC0460F7E4CC76
:10006E00C0E0C398F8603B94186008400DD0E0FBE8
:10007E000203B1E4FBFAC9FC8028E830E406E4C9C7
:10008E00FBE4CAFCE830E305E4C9CACBFCE854073C
:10009E006010F8C3E913F9EA13FAEB13FBEC13FC47
:1000AE00D8F130F52FC3E49CFCEF9BFFEE9AFEEDEA
:1000BE0099FDD0E0FBEF4E4D4C701222DB03020394
:1000CE00D6EC2CFCEF33FFEE33FEED33FDED30E7D7
:1000DE00EB0203B1EF2BFFEE3AFEED39FDD0E0FB64
:1000EE0050130BBB00030203D9ED13FDEE13FEEF0D
:0800FE0013FFEC13FC0203B137
:10010600EC4D6011E8497017ED33EC3304600DE4F3
:10011600FCFFFEFD22E933E8330470F80203CF1238
:10012600039A58046009E4CC248150062850090239
:1001360003D92840030203D6C0E0EB4A7044B980D5
:1001460006D0E0FB0203C5EF4E701CBD8008EBFF36
:10015600EAFEE9FD80EBE98DF0A4FEE5F00201EF91
:10016600E9CDF9EAFEEBFFEF89F0A4FCE5F0CE89D4
:10017600F0A42EFFE435F0CD89F0A42DFEE435F091
:100186008067EF4E7005BD80D780C3EF8BF0A4ACBF
:10019600F0EE8BF0A42CFCE435F0F8EF8AF0A42CFA
:1001A600E5F038FCE433CB8DF0A42CFCE5F03BF80D
:1001B600EE8AF0A42CFCE5F038F8E433CF89F0A4FD
:1001C6002CFCE5F038CF3400CE89F0A42FFFE5F003
:1001D6003EFEE433C98DF0A42EFEE5F039CD8AF05B
:1001E600A42FFFE5F03EFEE43DFD33D0E0FB5007D3
:1001F6000BBB000F0203D9EC2CFCEF33FFEE33FEF2
:06020600ED33FD0203B11F
:10020C000203D9EC5D046005E8590470030203CFC6
:10021C0012039A580460F6EC4860F2EC7004FDFE90
:10022C00FF22C860DB2481C85009C39860025006C5
:10023C000203D69850CAF582E9294B4A7005AB8265
:10024C000203C575F0007C1A7880C3EF9BEE9AED23
:10025C0099400DC3EF9BFFEE9AFEED99FDE842F03D
:10026C00DC23ACF0D0E0FFD0E0FED0E0FDAB822090
:10027C00E7101BEB60BAEC2CFCEF33FFEE33FEED1A
:10028C0033FD0203B1E803F830E705C0F075F00068
:10029C00EF2FFFEE33FEED33FD40B830E7C280AAFE
:1002AC0074F8CC6480CCC86480C8F58204604FC3F9
:1002BC00EB9FF5F0EA9E42F0E99D42F0E89C45F098
:1002CC00603C501DE5825FFFE582D313CB5BCBF422
:1002DC002B5582FB50280ABA002409B9002008804B
:1002EC001DE5825BFBE582D313CF5FCFF4C3132FE5
:1002FC005582FF50090EBE00050DBD00010CC3EB6D
:10030C009FF5F0EA9E42F0E99D42F0E89C45F060D2
:09031C0007CC4820E701B3EC22F4
:1003250075F020800E75F010800575F0087D007E53
:10033500007F003392D530D5031207AAEC33401065
:10034500EF33FFEE33FEED33FDEC33FCD5F0ED225C
:0E035500E5F0247EA2D513CC92E7CDCEFF2298
:10036300EDD2E7CD33EC3392D524814006E4FFFE92
:10037300FDFC22FCE4CFCECDCC24E0501174FF80F1
:10038300EDC3CC13CCCD13CDCE13CECF13CF04708E
:07039300F030D5DE0207AADD
:10099900E508243DF582E43400F583E0050822905A
:1009A900003A30070390003DE475F00112083E0259
:1009B90007042000E97F2ED2008018EF540F2490FD
:1009C900D43440D4FF30040BEF24BFB41A005003D1
:1009D9002461FFE50960021509050CE50C700205A3
:1009E9000B30070E90003AE475F00112083EEF0251
:1009F900074A022E4B7403D2078003E4C207F508A5
:100A090090003A120855E4F509F50BF50CE5096073
:100A1900077F201209DC80F5750AFFC201C200C2F6
:100A290002C203C205C206C2081209A8FF700D302E
:100A390007057F001209EDAF0CAE0B22B4255FC28A
:100A4900D5C2041209A8FF24D0B40A00501A75F0BF
:100A59000A780930D50508B6FF0106C6A426F6208E
:100A6900D5047002D20380D924CFB41A00EF500400
:100A7900C2E5D204020CDFD20180C6D20080C0D206
:100A89000280BCD2D580BAD20580B47F201209DC9D
:100A99002002077401B5090040F1120999FF1209F2
:100AA900DC020A16D208D2068095120999FB1209AE
:100AB90099FA120999F94A4B700679DD7A0D7BFF8B
:100AC90020022EE509602A7E008E827583001207B6
:100AD9001D60060EEE650A70F0C2D5EBC0E0EAC0F3
:100AE900E0E9C0E0EE120D40D0E0F9D0E0FAD0E044
:100AF900FB120704FF60AAEBC0E0EAC0E0E9C0E02E
:100B09001209DCD0E02401F9D0E03400FAD0E0FB8E
:100B1900E50A0460DCD50AD98087D20280A2120DC9
:100B29002260F7E50A70010412040FA90A600DE5B5
:100B39000A600914F50A120DCAEF60F3EA30E702F8
:100B4900F404C3995079EAF4250A0430E701E4046E
:100B5900F50A800D120D2260C1EA050A250A120460
:100B69000FEA900069F030E701E4250A04D50A0488
:100B790020050114120D40E4C0E0120DCA9000696D
:100B8900E0601320E70714F01209C4802204F0D0B2
:100B9900E014C0E07F001209C4E50A60071209BB2E
:100BA900150A800B3005031209BBD0E0020A16D0E2
:100BB900E00480C4120D22609EE50A0412040F901D
:100BC9000069EAF0E50A2005026001042404120D17
:010BD90040DB
:100BDA0074FF04C0E0120DCA1209C4E50A20050216
:100BEA0060031209BBD0E0B50AE87F451209CE902E
:100BFA000069E07F2B30E7047F2DF404C0E012097E
:100C0A00DCD0E075F00A84C0F01209C5D0E0120900
:100C1A00C5020A16791080027908C206C20880083D
:100C2A00D2D5790A8004790AC2D5E50A047002F598
:100C3A000AE4FAFDFEFF120999FC7B08200113124F
:100C4A000999FD7B1030000A120999FE120999FFD1
:100C5A007B20EC3382D592D55013C3E43000069F33
:100C6A00FFE49EFEE42001039DFDE49CFCE4CBF836
:100C7A00C201EC700CCFCECDCCE824F8F870F3802A
:100C8A0017C3EF33FFEE33FEED33FDEC33FCEB33EA
:100C9A00FB994002FB0FD8E9EB300105F8D0E0C41C
:100CAA0048B201C0E00AEC4D4E4F78207B0070C27A
:100CBA00EAB50A0040BCC0E0120D42D0F0D0E020F4
:100CCA000104C4C0E0C4B201C0F01209C5D0F0D515
:100CDA00F0EB020A1612085E0AB3530C1E580A8475
:100CEA004C0A80420C224F0C2A440C2A490A994386
:100CFA000C30550B5D460BBD450B27470DFD500AC1
:100D0A00882D0A8C2E0AAF2B0A90230AAD200DE6F5
:100D1A002A0A484800000AA7E50AB4FF03750A062A
:100D2A00120999FC120999FD120999FE120999FFF3
:100D3A0090006202044C790AA2D5200314300509F6
:100D4A00B910020404B9080104A2D5200602500110
:100D5A00042002689202B509005034C0E07F2030B6
:100D6A0003197F30A20272067205500F120D99C242
:100D7A0002C206C205C2087F30800F300503E9C0EF
:100D8A00E01209DC300503D0E0F9D0E0B509CC3037
:100D9A0005177F30B9100C1209DC7F583004077F21
:100DAA00788003B908031209DC3002057F2D020995
:100DBA00DC7F202008F87F2B2006F322920280CFC6
:100DCA007F00B40700500B2462F582E43400F583F7
:100DDA00E0FF22286E756C6C2900D2011209993045
:100DEA0001F8C201780930D50108F6020A482D50E7
:100DFA004349581209992403B405004001E4900DAF
:100E0A00F8931209CD743A1209CDD2037509040276
:020E1A000C1EAC
:0D2F4400ED33EC3360065004EC6480FC2299
:102C8A00D20090001C120855122CC6C0E0FF122F69
:102C9A000FD0E040F312214A400122ECC0E0EDC01F
:102CAA00E0EEC0E0EFC0E0122CC6D0F0AFF0D0F0FA
:102CBA00AEF0D0F0ADF0D0F0ACF080D9E475F00110
:092CCA0090001C12083E020704F0
:102457000203CF22EDA2E7D2E7F9EC3340F260F3B3
:10246700B4FF08ED547F70E80203D9F82481C2E075
:10247700C0E0F40428FAC313FCED92E7FD90000ACC
:10248700120801EEA2E7E9BA7F02C31334009400F1
:10249700FA75F091A4E5F013F494FE8AF0A433E5FD
:1024A700F033248CD313FDE492E7FE7F007C3F7565
:1024B7008302ECC0E0F8EDC0E0F9EEC0E0FAEFC04F
:1024C700E0FB8583F090000A1207C985F0831202AA
:1024D7000FD0E0FBD0E0FAD0E0F9D0E0F812001519
:1024E700ED6480FD30E7011CD583C7ED33CC33F8AD
:0C24F700D0E0A2E71328C313CC13FD2291
:1022F10090000A120801E4FFFEFDFC90000EE0F8D8
:10230100A3E0F9A3E0FAA3E0FB1202AC7005FFFE23
:10231100FDFC2290000EE0F8A3E0F9A3E0FAA3E0AF
:10232100FB90000AE0FCA3E0FDA3E0FEA3E0FF12A6
:10233100020F12036390001212080190000AE0FCE0
:10234100A3E0FDA3E0FEA3E0FFECC0E0EDC0E0EE02
:10235100C0E0EFC0E0900012E0FCA3E0FDA3E0FECE
:10236100A3E0FFEC12032590000EE0F8A3E0F9A32F
:10237100E0FAA3E0FB120106C8ECC8C9EDC9CAEE38
:10238100CACBEFCBD0E0FFD0E0FED0E0FDD0E0FC47
:1023910012001190000A12080190000AE0FCA3E06B
:0823A100FDA3E0FEA3E0FF2212
:101B510090000A120801E4FFFE7D807C3F90000A9C
:101B6100E0F8A3E0F9A3E0FAA3E0FB1202AC7006EF
:101B710090000A021CAB90000AE0FCA3E0FDA3E088
:101B8100FEA3E0FF1203E4FBA3E0FCA3E0FDA3E05E
:101B9100FEA3E0FF1203E4FFB40108E4FFFE7D8031
:101BA1007C3F22EF64046029EB64046024EBB40100
:101BB10030E4FFFEFDFC90000EE0F8A3E0F9A3E0A5
:101BC100FAA3E0FB1202AC60084006E4FFFEFDFC54
:101BD1002290000E12080DFFFFFFFF90000E021C65
:101BE100ABE4900012F0A3F0FFFEFDFC90000AE0D0
:101BF100F8A3E0F9A3E0FAA3E0FB1202AC505F9076
:101C0100000EE0FCA3E0FDA3E0FEA3E0FF120363EE
:101C1100900012EEF0A3EFF0FDCCEECCEC12032A13
:101C2100C8ECC8C9EDC9CAEECACBEFCB90000EE033
:101C3100FCA3E0FDA3E0FEA3E0FF120011E4FBFA28
:101C4100F9F81202AC708A90000AE0FCA3E0FDA34F
:101C5100E0FEA3E0FF1203FE90000A1208019000CB
:101C61000AE0FCA3E0FDA3E0FEA3E0FF121E4D90FD
:101C7100000EE0F8A3E0F9A3E0FAA3E0FB120106ED
:101C81001225D690000E120801900013E030E017E3
:101C910090000EE0FCA3E0FDA3E0FEA3E0FF120331
:101CA100FE90000E12080190000EE0FCA3E0FDA3DF
:061CB100E0FEA3E0FF22AB
:10039A00E9D2E7C933E833F892D5EDD2E7CD33ECA9
:0703AA0033FC5002B2D52222
:1003B100EC30E7100FBF000C0EBE00080DBD0004AD
:1003C1000BEB6014A2D5EB13FCED92E7FD2274FF59
:1003D100FCFDFEFF22E480F8A2D574FF13FC7D80B2
:0303E100E480EFC6
:1003E400ED33EC33601004700FED547F700574022C
:0A03F40092E0227404220422E422A5
:1003FE00ED33EC33600A047003BD8004ECB2E7FC0D
:01040E0022CB
:10040F00F920E73624F950037907E4F42402FBE5D9
:10041F0082158270021583DBF6E024FB501BE96026
:10042F0014E4F0E582158270021583E004F0B40A3B
:0D043F0008E4F0D9EE7401F00A22C2D522C3
:10044C00ED33EC3392D5FA602AB4FF33EDC2E77B7F
:10045C00FF60067A047971E4227A04797A20D50453
:10046C007A047975224E614E002B494E46002D4977
:10047C004E4600E47A08F0A3DAFC7B00740722C035
:10048C0083C082ECC0E0EDC0E0EEC0E0EFC0E0EA7B
:10049C0075F010A4CAABF075F04DA42BFBE435F04D
:1004AC00FCEA2410FAEB34C5FBEC34D9FCEDC2E7C2
:1004BC00FF75F056A4F42411C5F0F434C58FF0A4E4
:1004CC002AE5F03BE43CF020E714120581D0E0FF74
:1004DC00D0E0FED0E0FDD0E0FC12020F8014F4045A
:1004EC00120581D0E0FFD0E0FED0E0FDD0E0FC12A0
:1004FC000106D082D083E0FAEDD2E7CD33EC332481
:10050C0082FBE4C3CF33CFCE33CECD33CD33DBF34D
:10051C007B0775F00A846004F0A31B0AE5F0F0A3D6
:10052C008FF0740AA4FFACF08EF0740AA42CFEAC0D
:10053C00F050010C8DF0740AA42CFDE435F0F0A3FE
:05054C00DBDE74072254
:10213700C201C202C203C204F9E4F508F509FCFDB5
:10214700FEFFE91000EA20030CB42D04D203D322CA
:10215700B42B02D32224D0504794095041240A308B
:102167000415F88509F0740AA42872E74051C5F0F0
:10217700704D85F009D322D202C0E0E4FBFA792042
:102187007841120106ECF8EDF9EEFAEFFBD0E0FC2E
:10219700E412032F1200153001B41508D322240AC4
:1021A700200420B4FE0720011AD201D32224EB60B9
:1021B7000424E0700EA2039201D204C203D322C307
:1021C7000203CFE430040BE509300302F404A20153
:1021D70092033002EA250820D2E5A2E792045002D2
:1021E700F404B4260050D8CCC0E0EDC0E0EEC0E067
:1021F700EFC0E0EC120581D0E0FFD0E0FED0E0FDBB
:10220700D0E0FC200405120106800312020F300300
:06221700031203FEC322C6
:10259E0033DA929E35B16011377FE5FE3921848999
:1025AE003AAEC3FF3C1D955B3D6358473E75FDF04B
:1025BE003F3172183F800000C2D50203D90203CF0B
:1025CE00BD80FA50F30203D6ED33EC330460F17B99
:1025DE003B7AAA79B8783F120106ED33EC3392D5E7
:1025EE00247B5011A2D570DB500BED448024045097
:1025FE0004A2D580CEEFFBEEFAEDF9ECF8120363F0
:10260E00EFF582F404FC12032F120015C082902500
:10261E009E74091205D0ED33CC33D0F092D525F04F
:0A262E00A2D57001C313CC13FD22E6
:101E19003E9248DA3ECCCCCD3F2AAAAB4000000026
:101E29003F8000003F9837F03FB504F33FD744FCAB
:101E39003E3172173EB172173F0515913EDE5BD9EF
:101E4900D2008002C200EDD2E7F8CD33EC33047042
:101E59000BBD800592D50203D90203CF40FBD314F1
:101E690060F2F5F07C3FEE7A00C39496C8948B40FB
:101E7900230AC89469C8941A401A0AC89468C8946D
:101E89001F40110AC8945AC89425400805F07A00E1
:101E9900CDC2E7CDC0F0900014120801EA2323C097
:101EA900E02429F582E4341EF5831207F1120015A6
:101EB900ECC0E0EDC0E0EEC0E0EFC0E01207D59065
:101EC90000141207E5120011D0E0FBD0E0FAD0E0CF
:101ED900F9D0E0B2E7F812020F900014120801904D
:101EE9001E1974031205C19000141207E5120106A8
:101EF900D0E0600F2435F582E4341EF5831207F132
:101F0900120015900014120801D0E0C3947FFDE47B
:101F19009400FC12032A7B187A727931783F1201F6
:101F2900069000141207E512001530000B7BD97AD0
:091F39005B79DE783E12010622FC
:100551003F8000004120000042C80000447A0000B2
:10056100461C400047C35000497424004B18968034
:100571004CBEBC205A0E1BCA6753C21C749DC5AE2B
:10058100FB60065407601C23231205AFEB5438604F
:100591000912059B1205AA120106ECF8EDF9EEFA13
:1005A100EFCB22EB1205AA80F1543803241C9005ED
:1005B10051FE93FC0EEE93FD0EEE930ECE93FF22B1
:1005C100C0E0EFFBEEFAEDF9ECF8120106D0E0F530
:1005D100F0EFFBEEFAEDF9ECF81207D5A3A3A3A314
:1005E100E8C0E0E9C0E0EAC0E0EBC0E0C0F0120121
:1005F100061207F1A3A3A3A3120015D0F0D0E0FBCC
:0D060100D0E0FAD0E0F9D0E0F8D5F0D42236
:030000000227567E
:0C275600787FE4F6D8FD75812102279DF4
:10060E00E709F608DFFA8046E709F208DFFA803ECE
:10061E0088828C83E709F0A3DFFA8032E309F608BB
:10062E00DFFA8078E309F208DFFA807088828C8323
:10063E00E309F0A3DFFA806489828A83E0A3F608D7
:10064E00DFFA805889828A83E0A3F208DFFA804CB1
:10065E0080D280FA80C680D4806980F28033801088
:10066E0080A680EA809A80A880DA80E280CA8033F1
:10067E0089828A83ECFAE493A3C8C582C8CCC58369
:10068E00CCF0A3C8C582C8CCC583CCDFE9DEE78039
:10069E000D89828A83E493A3F608DFF9ECFAA9F0B8
:1006AE00EDFB2289828A83ECFAE0A3C8C582C8CC0E
:1006BE00C583CCF0A3C8C582C8CCC583CCDFEADE27
:1006CE00E880DB89828A83E493A3F208DFF980CC89
:1006DE0088F0EF60010E4E60C388F0ED2402B40482
:1006EE000050B9F582EB2402B4040050AF23234529
:0606FE00822390065E73EA
:10070400BB010689828A83E0225002E722BBFE02F3
:09071400E32289828A83E4932226
:10071D00BB010CE58229F582E5833AF583E0225091
:10072D0006E92582F8E622BBFE06E92582F8E222DB
:0D073D00E58229F582E5833AF583E49322F5
:10074A00BB010689828A83F0225002F722BBFE018E
:02075A00F32288
:10075C00F8BB010DE58229F582E5833AF583E8F0D3
:10076C00225006E92582C8F622BBFE05E92582C87F
:02077C00F22267
:10077E00C5F0F8A3E028F0C5F0F8E5821582700206
:06078E001583E038F022A3
:10079400A3F8E0C5F025F0F0E58215827002158318
:0607A400E0C838F0E82275
:0E07AA00C3E49FFFE49EFEE49DFDE49CFC2260
:1007B800EB9FF5F0EA9E42F0E99D42F0E89C45F097
:0107C800220E
:0C07C900E0FCA3E0FDA3E0FEA3E0FF22A3
:1007D500E493FC740193FD740293FE740393FF226A
:0C07E500E0F8A3E0F9A3E0FAA3E0FB2297
:1007F100E493F8740193F9740293FA740393FB225E
:0C080100ECF0A3EDF0A3EEF0A3EFF0226A
:10080D00A8828583F0D083D0821208241208241286
:10081D000824120824E473E493A3C583C5F0C583AB
:10082D00C8C582C8F0A3C583C5F0C583C8C582C835
:01083D002298
:10083E00F8E0FBA3A3E0F925F0F0E5821582700243
:07084E001583E0FA38F022E7
:09085500EBF0A3EAF0A3E9F022A4
:10085E00D083D082F8E4937012740193700DA3A329
:10086E0093F8740193F5828883E47374029368603D
:06087E00EFA3A3A380DF3D
:102E4B00EFB40A07740D122E56740A309811A89914
:102E5B00B8130CC2983098FDA899C298B811F630E7
:072E6B0099FDC299F59922BF
:102F0F00EFC394094005EF940E4004EFB42003D3B0
:042F1F008001C32248
:0C2F5100EE30E707C3E49FFFE49EFE2281
:10088400E709F60870FA8046E709F20870FA803E34
:1008940088828C83E709F0A370FA807EE309F60866
:1008A40070FA8076E309F20870FA806E88828C838D
:1008B400E309F0A370FA806289828A83E0A3F608D0
:1008C40070FA805689828A83E0A3F20870FA804A1B
:1008D40080D280FA80C680D4806580F28031801016
:1008E40080A680EA809A80A880DA80E280CA80317B
:1008F40089828A83ECFAE493A3C8C582C8CCC583F1
:10090400CCF0A3C8C582C8CCC583CC70E9800D895E
:10091400828A83E493A3F60870F9ECFAA9F0EDFB5C
:100924002289828A83ECFAE0A3C8C582C8CCC58335
:10093400CCF0A3C8C582C8CCC583CC70EA80DD895D
:10094400828A83E493A3F20870F980CE88F0ED24C0
:1009540002B4040050C4F582EB2402B4040050BA7B
:0909640023234582239008D4737B
:1029D50090003AEBF0A3EAF0A3E9F0E4900042F0AE
:1029E500A3F090004074FFF5F012079445F0603CA9
:1029F50090003DE0FBA3E0FAA3E0F9120704FF9085
:102A0500003AE0FBA3E0FAA3E0F9900042E475F098
:102A15000112079485F082F583EF12075CEF60C21F
:102A250090003EE475F00112077E80B690003AE012
:082A3500FBA3E0FAA3E0F92283
:102EE600E4FFFE120704600C0FEF70010E09E97093
:052EF600F20A80EF224A
:102EB400E94A4B700122120704FF6D700122EF7082
:0C2EC40004FBFAF92209E970ED0A80EA2B
:10096D00EF4E6012EF60010EEDBB010B89828A83A1
:10097D00F0A3DFFCDEFA2289F05007F709DFFCA9AE
:0C098D00F022BBFEFCF309DFFCA9F02205
:102762000223A9E493A3F8E493A34003F68001F2C1
:1027720008DFF48029E493A3F85407240CC8C33378
:10278200C4540F4420C8834004F456800146F6DF47
:10279200E4800B0102040810204080902503E47EAF
:1027A200019360BCA3FF543F30E509541FFEE4933C
:1027B200A360010ECF54C025E060A840B8E493A303
:1027C200FAE493A3F8E493A3C8C582C8CAC583CA2E
:1027D200F0A3C8C582C8CAC583CADFE9DEE780BEE6
:01259D00003D
:00000001FF
