:020000040800F2
:10000000880B002089010008EB1B00082D1A00084E
:10001000E91B00084D0300085325000800000000FC
:100020000000000000000000000000003B2200086B
:100030005D07000800000000392200083D2200088A
:10004000A3010008A3010008A3010008A301000800
:10005000A3010008A3010008A3010008A3010008F0
:10006000A3010008A3010008A3010008A3010008E0
:10007000A3010008A3010008A3010008A3010008D0
:10008000A3010008A3010008A3010008A3010008C0
:10009000A3010008A3010008A3010008A3010008B0
:1000A000A3010008A3010008A3010008A3010008A0
:1000B000A3010008A3010008A3010008A301000890
:1000C000A3010008A3010008A3010008A301000880
:1000D000A3010008A3010008A3010008A301000870
:1000E000A3010008A3010008A301000800F002F822
:1000F00000F03AF80AA090E8000C82448344AAF188
:100100000107DA4501D100F02FF8AFF2090EBAE885
:100110000F0013F0010F18BFFB1A43F0010318473B
:10012000044A0000244A0000103A24BF78C878C16D
:10013000FAD8520724BF30C830C144BF04680C60ED
:10014000704700000023002400250026103A28BF35
:1001500078C1FBD8520728BF30C148BF0B60704739
:100160001FB51FBD10B510BD00F058F81146FFF7C0
:10017000F7FF02F037FA00F076F803B4FFF7F2FF6A
:1001800003BC00F07DF8000009488047094800479B
:10019000FEE7FEE7FEE7FEE7FEE7FEE7FEE7FEE737
:1001A000FEE7FEE704480549054A064B7047000094
:1001B000D5220008ED00000888050020880B0020EB
:1001C00088070020880700204FF0000200B5134682
:1001D00094469646203922BFA0E80C50A0E80C5067
:1001E000B1F12001BFF4F7AF090728BFA0E80C5018
:1001F00048BF0CC05DF804EB890028BF40F8042B11
:1002000008BF704748BF20F8022B11F0804F18BF7D
:1002100000F8012B7047704770477047754600F033
:100220002BF8AE4605006946534620F00700854688
:1002300018B020B5FFF7B6FFBDE820404FF000062C
:100240004FF000074FF000084FF0000B21F00701BE
:10025000AC46ACE8C009ACE8C009ACE8C009ACE801
:10026000C0098D46704710B50446AFF300802046A4
:10027000BDE81040FFF781BF00487047240500200B
:1002800001491820ABBEFEE72600020070470000BF
:1002900070B5044600688168C943C9071CD18168EC
:1002A00021F00101816000F001FE05460FE000BF72
:1002B00000F0FCFD401B022809D9A06A40F01000A4
:1002C000A062E06A40F00100E062012070BD206899
:1002D0008068C043C007EBD0002070BDF8B5002691
:1002E0000446009600688168C943C90728D0816820
:1002F00041F001018160134813490068B0FBF1F03F
:1003000000E0401E00900028FBD100F0CFFD054624
:1003100011E000BF00F0CAFD401B02280BD9A06A03
:1003200040F01000A062E06A40F00100E06284F852
:1003300024600120F8BD20688068C043C007E9D16F
:100340000020F8BD1C00002040420F00FEE7000026
:100350002DE9F05F642000F09DFC00F045F902F00B
:1003600009F9DFF8B0A1DFF8B0B15946DAF80000BA
:1003700002F098F902F062F980B20125DFF89C9151
:100380000026674C4FF400684FF49677B42801D9E3
:10039000217829B1A02820D2207801281CD01CE087
:1003A000A68008215F4801F0FBFA01224146484639
:1003B00000F077FD384600F06DFC0821594801F047
:1003C0000BFB00224146484600F06BFD384600F02A
:1003D00061FCE570257000E026705946DAF80400EB
:1003E00002F060F902F02AF980B2C82801D96178D8
:1003F00029B1B42835D26078012831D031E0A68007
:100400000821484801F0CCFA01224146484600F054
:1004100048FD384600F03EFC0821424801F0DCFA75
:1004200000224146484600F03CFD384600F032FCD0
:1004300008213C4801F0B4FA01224146484600F048
:1004400030FD384600F026FC0821364801F0C4FA99
:1004500000224146484600F024FDE570657000E04A
:100460006670314880681C284ED9A078002849D190
:10047000A6804FF008012B4801F092FA0122414674
:100480004E46484600F00DFD384600F003FC0821BA
:10049000244801F0A1FA00224146304600F001FD57
:1004A000384600F0F7FB08211E4801F079FA0122D6
:1004B0004146304600F0F5FC384600F0EBFB0821E1
:1004C000184801F089FA00224146304600F0E9FC64
:1004D000384600F0DFFB0821124801F061FA0122E2
:1004E0004146304600F0DDFC384600F0D3FB0821E1
:1004F0000C4801F071FA00224146304600F0D1FC70
:10050000E570A570BDE8F09FFCD2A0780128F9D174
:10051000A670F7E7080000200000C842000801406C
:1005200000000020540000209400002000B585B099
:1005300000200190029003900848816941F0040175
:1005400081618069694600F0040004904FF40070F6
:100550000090034800F0B0FB05B000BD0010024061
:100560000008014000B585B0002002900A4881696A
:1005700041F0040181618069694600F00400049043
:100580004FF4007000900120019003200390034875
:1005900000F092FB05B000BD0010024000080140D1
:1005A00018B503460C48007810B900F0B9F868B1E6
:1005B0000A4841680A4A0B4C1268B2FBF4F25A43EB
:1005C00043685B1A9342FBD318BD401C0090B0EB0C
:1005D000C30FFAD318BD000020000020001000E077
:1005E0001C00002040420F002DE9F84F00F074F885
:1005F0000122234C55022946204600F052FC294690
:10060000204600F049FC98BB2946204600F044FCF7
:100610000028F9D04FF40071194800F03DFC012882
:10062000F8D000F031F8074600F02EF8064600F04A
:100630002BF8054600F028F8044600F025F8009055
:1006400000224FF400710E4800F02BFC3720FFF71A
:10065000A7FF012251020A4800F023FCB8192844E0
:1006600001190098814203D1BB46B246A946A04673
:100670000448C0E90298C0E900BABDE8F88F00005C
:1006800000080140940000202DE9F041114E0024A3
:100690004FF400773946304600F0FEFB0028F9D0D1
:1006A0001E20FFF77DFF6806050E3946304600F034
:1006B000F3FB012801D145F001053946304600F031
:1006C000EBFB0128F9D0641CE4B2082CE2D32846E5
:1006D000BDE8F0810008014070B5FFF743FF01223B
:1006E0000E4D54022146284600F0DBFB1E20FFF78A
:1006F00057FF00222146284600F0D3FB142000F0CB
:10070000C9FA01222146284600F0CBFB1E20FFF744
:1007100047FFBDE87040FFF709BF00000008014037
:100720000B49087808B1012070470A48026842F076
:10073000807202600848026842F0010202600022F2
:100740004260406808B10020704701200870EAE765
:1007500020000020FCED00E0001000E0704772B6C1
:10076000FEE70000F8B500250446009590F8240047
:10077000012808D0012084F824002046FFF788FDD6
:10078000060002D04BE00220F8BDA06A20F4885099
:1007900040F00200A062022000F018FC2249096823
:1007A000B1FBF0F0400000E0401E00900028FBD1BB
:1007B0002046FFF793FD2068816841F008018160C1
:1007C00000F074FB074604E000F070FBC01B0A2831
:1007D00011D8206880680007F6D42068816841F04D
:1007E0000401816000F062FB07460EE000F05EFB52
:1007F000C01B0A2809D9A06A20F0020040F01000AE
:10080000A06284F824500120F8BD20688068400769
:10081000ECD4A06A20F0020040F00100A06284F84D
:1008200024503046F8BD00001C000020F8B500241C
:10083000009490F824202546012A12D0012280F845
:1008400024204A681F23072A0DD20668776B521EA0
:1008500002EB820293409F430B6893401F437763F0
:1008600019E00220F8BD06680D2A0AD2376BD21FA4
:1008700002EB820293409F430B6893401F43376310
:1008800009E0F76A0D3A02EB820293409F430B683E
:1008900093401F43F7620A68072306680A2A0AD3AF
:1008A000F7680A3A02EB420293409F438B689340F9
:1008B0001F43F76008E0376902EB420293409F4311
:1008C0008B6893401F4337610A68102A01D0112AB0
:1008D00020D1124B02689A4217D193681B0219D497
:1008E000936843F4000393600968102912D10C49FE
:1008F0000C4A0968B1FBF2F101EB8101490000E00B
:10090000491E00910029FBD104E0816A41F02001D9
:100910008162012480F824502046F8BD0024014063
:100920001C00002040420F000068C06C70470000AF
:100930002DE9F0414FF0000704003D467ED0A06A4B
:10094000002628B9E66284F82460204600F07EF88C
:100950002046FFF79DFCA16AC90600D420B1A06A19
:1009600040F01000A06269E0A16A21F4885141F0D2
:100970000201A1626268E169237B0A4347EA4301FD
:100980000A43A1684FF48077B94209D0012907D002
:100990005FF0000194F814C0BCF1010F02D00AE02E
:1009A0003946F7E7F3B1A36A43F02003A362E36A91
:1009B00043F00103E3622368D3F804C02CF4694CCC
:1009C0004CEA010CC3F804C021688B68DFF870C0E2
:1009D00003EA0C0313438B60A168B9420BD00129D1
:1009E00009D00CE0DFF85CC0A3690CEB43330B4388
:1009F00043F40061DFE7218A0D05A5F58015216824
:100A0000CB6A23F470032B43CB62216889680E4BB9
:100A10001940914208D1E662A16A21F0020141F039
:100A20000101A162BDE8F081A06A20F0020040F05F
:100A30001000A062E06A40F00100E0620120F1E7EE
:100A4000FDF7E1FF00E0FFFFFE0E1FFF00B585B0E0
:100A50000021009101910291039100680E498842A2
:100A600018D10E48816941F400718161816901F4F6
:100A700000710491816941F00401816180696946D6
:100A800000F004000490C02000900320019004486E
:100A900000F012F905B000BD002401400010024032
:100AA000000801402DE9F84300260D460446009653
:100AB00000F0FCF9804620688168C90508D5A06A65
:100AC00040F02000A06284F824600120BDE8F88393
:100AD0004168C90503D4C06A10F4700F26D0022003
:100AE00000F074FA38490968B1FBF0F7206803692F
:100AF00036490B424FEA61014FEAA1121BD1C3688C
:100B00004FEA611C13EA0C0F15D103690B4221D186
:100B1000C06810421ED114201FE0681C06D045B3E7
:100B200000F0C4F9A0EB0800A84222D820680068B1
:100B30008007F2D52AE003690B4202D1C168114255
:100B400006D0026922490A4206D1C068084203D190
:100B5000542002E0292000E0FC204743009813E0E5
:100B6000681C0ED02DB100F0A1F9A0EB0800A8423E
:100B700007D9A06A40F00400A06284F82460032032
:100B8000A4E70098401C0090B842E9D321686FF0B8
:100B900012000860A06A40F40070A06220688068BB
:100BA000C0F3424007280CD1207B50B9A06A20F442
:100BB0008070A062A06AC00403D4A06A40F0010063
:100BC000A062002082E700001C000020244992243B
:100BD0004992240070B5044690F8240001280DD0F5
:100BE000012084F824002046FFF778FB02004FF034
:100BF000000005D084F82400104670BD022070BDAE
:100C0000A16A40F20123994341F48071A1621F4D12
:100C100023681F49AB4218D10E6816F4702F14D008
:100C2000A66A46F48016A6620E68760505D5A66A01
:100C300026F4005646F48056A662A66AF6040AD543
:100C4000E66A26F00606E66206E0A66A26F4801644
:100C5000A6625E68E9E7E06284F824006FF00200B3
:100C6000186020688368C3F34243072B05D1A8426C
:100C700008D1096811F4702F04D0816841F4801103
:100C80008160B9E7816841F4A001F9E700280140DB
:100C90000424014070B5044600F008F90546601CC4
:100CA00002D004480078044400F000F9401BA04240
:100CB000FAD370BD100000202DE9F84FDFF8B8918D
:100CC000002409F1040A0AF1040B23460F270BF153
:100CD000040EC9E00125A5402A40AA427DD1674EF5
:100CE000D1F804C0ACEB0608B44532D014DCBCF13A
:100CF000030F3AD009DCBCF1000F2AD0BCF1010F80
:100D00001CD0BCF1020F31D11DE0BCF1110F17D086
:100D1000BCF1120F2AD119E0B8F5881F19D006DCF2
:100D2000B8F5803F15D0B8F5801F1FD111E0B8F598
:100D3000001F0ED0B8F5041F18D10AE0CB6815E0EB
:100D4000CB681B1D12E0CB6808330FE0CB680C3377
:100D50000CE08B682BB1012B4FF0080303D04561E9
:100D600004E0042302E0056100E00023FF2A01D82B
:100D7000064601E000F104064FEA840501D9A5F119
:100D80002005D6F8008007FA05FC28EA0C0803FACB
:100D900005F548EA0508C6F800804D68ED0062D503
:100DA000374DAE6946F00106AE61AD6924F0030629
:100DB00005F001050095334D06EB050CDCF80850F5
:100DC000A607360F07FA06F825EA0805DFF8B88007
:100DD000404503D14FF0000817E044E0DFF8AC8055
:100DE000404502D14FF001080FE0DFF8A4804045F4
:100DF00002D14FF0020808E0DFF89880404502D1A8
:100E00004FF0030801E04FF0040808FA06F848EA3A
:100E10000508CCF808804D68D9F80060ED034D4610
:100E200001D5164300E096432E604D68DAF8006065
:100E3000AD03554601D5164300E096432E604D683C
:100E4000DBF80060ED025D4601D5164300E09643F5
:100E50002E604D68DEF80060AD02754601D5164380
:100E600000E096432E60641C0D682A46E5407FF43E
:100E700031AFBDE8F88F0000000401400000111000
:100E8000001002400000014000080140000C014039
:100E900000100140001401408068084000D001208B
:100EA00070470AB1016170470904FBE70148806897
:100EB0007047000010000020024881680278114449
:100EC0008160704710000020074810B5016841F0AC
:100ED00010010160032000F067F80F2000F006F811
:100EE00000F024F8002010BD0020024070B50D4D28
:100EF00004464FF47A712878B1FBF0F00A4909688A
:100F0000B1FBF0F000F0A8FB48B9102C07D200228A
:100F10002146501E00F028F800206C6070BD0120B2
:100F200070BD0000100000201C0000200C4808B517
:100F3000816941F001018161816901F00101009144
:100F4000C16941F08051C161C06900F080500090DA
:100F50000448416821F0E06141F00071416008BD42
:100F60000010024000000140F0B40E4B1B680C461C
:100F7000C3F30223C3F10705042D00D90425191D6D
:100F8000072901D2002300E0DB1E012606FA05F145
:100F9000491E214099409E40761E16403143F0BCC8
:100FA00001F0D8BA0CED00E0064900F0070208682D
:100FB0004FF6FF03184040EA0220034A104308603E
:100FC000704700000CED00E00000FA0510B529A400
:100FD00001461DCC86B08DE81D002AA02A4C006871
:100FE00004900020012923D002293AD010291DD1D4
:100FF00061682268D20119D5C1F38342C9031DF883
:10100000020009D5616804AAC1F34041515C1F4A3E
:10101000B2FBF1F1484301E01D49484361684902D0
:1010200004D440005FF00301B0FBF1F006B010BD46
:10103000226AC2F30121012903D1920701D5C80315
:10104000F4E7022905D1626A920702D549F64040C9
:10105000ECE70329EAD121688903E7D54FF2244060
:10106000E4E700F023F96168C1F38131491C4900CC
:10107000DAE7000002030405060708090A0B0C0D55
:101080000E0F1010010200000010024000127A0042
:1010900000093D002DE9F84305460078354CC007AE
:1010A00054D0E0690026C00008D4E06940F08050C8
:1010B000E061E069012600F0805000902E48016850
:1010C000C90512D40168804641F480710160FFF7C0
:1010D000EDFE074605E000BFFFF7E8FEC01B6428F1
:1010E00023D8D8F80000C005F6D5206A10F4407067
:1010F00021D0A98801F4407181421CD0206A1F4987
:10110000012220F440700A6000220A602062C007B9
:1011100011D0FFF7CBFE074641F2883808E000BF48
:10112000FFF7C4FEC11B414502D90320BDE8F88387
:10113000206A8007F4D5206A696820F4407008436B
:1011400020621EB1E06920F08050E06128788007BD
:1011500005D56068A96820F440400843606028789D
:10116000C00605D56068E96820F480000843606027
:101170000020DBE7001002400070004040044242C3
:101180002DE9F0470F46050061D0434E306800F06E
:101190000700B84209D2306820F0070038433060B9
:1011A000306800F00700B84251D128683B4C8107F5
:1011B00012D5400703D5606840F4E060606028788D
:1011C000000703D5606840F4605060606068A968FB
:1011D00020F0F000084360602878C00728D06868D5
:1011E000012810D02168022810D0890700292EDAA2
:1011F000616821F0030101436160FFF757FE8046FB
:1012000041F288390DE021688903EFE78901EDE7B4
:10121000FFF74CFEA0EB0801494502D90320BDE8C9
:10122000F0876068696800F00C00B0EB810FEFD1C7
:10123000306800F00700B8420BD9306820F0070092
:1012400038433060306800F00700B84201D0012018
:10125000E5E72878400705D56068E96820F4E06094
:10126000084360602878000706D56068296920F483
:10127000605040EAC100606000F028F86168084AE8
:10128000C1F30311515CC840064908600648006874
:10129000FFF72CFE0020C2E70020024000100240B1
:1012A0001C2900081C0000201400002004480549E7
:1012B00000684968044AC1F3C221515CC8407047C4
:1012C0001C000020001002402C29000812A185B04B
:1012D0000FC98DE80F0014A0144A006804905168EB
:1012E000134801F00C03042B10D0082B0ED1C1F3CE
:1012F0008343C9031DF803000AD5516804AAC1F34A
:101300004041515C0A4A5043B0FBF1F005B07047D0
:1013100008494843FAE700000203040506070809E4
:101320000A0B0C0D0E0F10100102000000100240FD
:1013300000127A0000093D002DE9F84F040070D03A
:101340002078C04DC00749D06868C0F381000128EB
:1013500007D06868C0F38100022809D16868C0031B
:1013600006D52868800339D560680028E7D035E0C5
:101370006068B0F5803F0BD010B1B0F5A02F11D050
:10138000286820F480302860286820F4802002E05B
:10139000286840F480302860606890B1FFF786FDCF
:1013A00006460AE0286840F480202860F0E700BF85
:1013B000FFF77CFD801B642873D828688003F7D56D
:1013C0000CE0FFF773FD064605E000BFFFF76EFD7A
:1013D000801B6428F0D828688003F7D420789A4EC0
:1013E00080074FF001094FF0000839D5686810F008
:1013F0000C0F07D06868C0F38100022809D1686823
:10140000C00306D42868800714D52069012808D1B4
:1014100010E02069B0B1C6F80090FFF747FD07461D
:1014200005E00AE1FFF742FDC01B0228C4D8286886
:101430008007F7D52868616920F0F80040EAC1000C
:1014400028600DE0C6F80080FFF730FD074604E095
:10145000FFF72CFDC01B022823D828688007F7D48B
:10146000207800072CD57948A169D9B1C0F800903F
:10147000FFF71CFD074604E0FFF718FDC01B02281C
:101480000FD8686A8007F7D571484FF4FA510068A1
:10149000B0FBF1F0009000BF0098411E0091FAD21D
:1014A0000EE080E0C0F80080FFF700FD074604E092
:1014B000FFF7FCFCC01B022875D8686A8007F7D4C8
:1014C0002078400760D5E8690027C00008D4E869A3
:1014D00040F08050E861E869012700F080500090FA
:1014E0005C480168C90513D40168834641F48071E2
:1014F0000160FFF7DBFC824606E000BFFFF7D6FC89
:10150000A0EB0A0064284ED8DBF80000C005F5D532
:10151000E06801280AD008B1052813D0286A20F015
:1015200001002862286A20F0040002E0286A40F0E6
:1015300001002862E06841F2883B98B1FFF7B6FCF1
:1015400082460BE0286A40F004002862EEE700BF04
:10155000FFF7ACFCA0EB0A0159455AD8286A80076E
:10156000F6D50CE0FFF7A2FC824605E0FFF79EFCF3
:10157000A0EB0A0159454CD8286A8007F6D41FB160
:10158000E86920F08050E861E06988B36968C1F3D8
:101590008101022944D00228C6F8608004D0FFF7F8
:1015A00085FC044638E034E0FFF780FC074604E0A1
:1015B000FFF77CFCC01B02282BD828688001F7D4D9
:1015C000206AB0F5803F05D16868A16820F400303A
:1015D00008436860D4E908010843696821F474117C
:1015E00008436860C6F86090FFF760FC044606E0B8
:1015F00025E000BFFFF75AFC001B022809D8286825
:101600008001F7D51BE000BFFFF750FC001B02284C
:1016100002D90320BDE8F88F28688001F4D40EE0D9
:101620000128F7D06868226A00F48031914204D121
:10163000616A00F47010884201D00120EAE70020BE
:10164000E8E70000001002400000424280044242ED
:101650001C0000200070004010B5401EB0F1807FDB
:1016600001D3012010BD4FF0E02460610F2160170D
:1016700000F070FF0020A06107202061002010BD55
:1016800010B590F83C20012A22D0012280F83C209D
:10169000CA688C6822F4407222434C6822F480624B
:1016A00022430C6822F4006222430C6922F4805227
:1016B00022434C6922F400522243C969002322F4D8
:1016C00080420A4301684A6480F83C30002010BD23
:1016D000022010BD70B590F83C20012A19D00124D9
:1016E00000F83C4F0222427050F83C3C5A689D681A
:1016F00022F070060A684968324325F080052943C4
:101700005A6050F83C2C91604470002101700846EA
:1017100070BD022070BD10B5040003D094F83D00E8
:1017200010B107E0012010BD002084F83C002046E5
:1017300000F00CF8022084F83D00211D206800F024
:10174000EDFD012084F83D00002010BD08B50068C3
:101750000649884208D10648816941F400618161E7
:10176000806900F40060009008BD0000002C01407A
:101770000010024070B5044690F83C00012817D0D4
:10178000012584F83C50022084F83D0020688268DE
:1017900022F0770222F47F4282600868502830D01D
:1017A0000DDC20284DD005DC98B310283BD148E053
:1017B000022070BD302844D0402834D139E0602860
:1017C00028D0702806D0B0F5805F2CD0B0F5005F2F
:1017D00029D10AE0CB68D1E90121206800F0E1FDC0
:1017E0002068816841F0770109E0CB68D1E90121E7
:1017F000206800F0D6FD2068816841F48041816056
:1018000011E0CA684968206800F080FE5021206815
:1018100007E016E0CA684968206800F088FE602189
:10182000206800F0C8FD84F83D50002084F83C009A
:1018300070BDCA684968206800F068FE40212068D1
:10184000EFE7226801461046EBE7000000B585B0DF
:101850000021009101910291039100680B49884297
:1018600012D10B48816941F00401816180696946A8
:1018700000F0040004904FF480600090022001907A
:1018800003900448FFF718FA05B000BD002C014092
:10189000001002400008014070B5044690F83C007A
:1018A0000D4601280DD0012684F83C60022084F802
:1018B0003D0042B1042A18D0082A2AD00C2A4DD162
:1018C00039E0022070BD206800F07EFD206881694B
:1018D00041F0080181612068816921F00401816182
:1018E000206881692A69114311E0206800F094FDA5
:1018F0002068816941F4006181612068816921F477
:1019000080618161206881692A6941EA02218161DF
:1019100024E0206800F0ACFD2068C16941F00801B6
:10192000C1612068C16921F00401C1612068C169F9
:101930002A69114311E0206800F0C6FD2068C169E2
:1019400041F40061C1612068C16921F48061C16115
:101950002068C1692A6941EA0221C16184F83D60B9
:10196000002084F83C0070BD10B5040003D094F84A
:101970003D0010B107E0012010BD002084F83C00BC
:10198000204600F00CF8022084F83D00211D20685C
:1019900000F0C4FC012084F83D00002010BD704719
:1019A00010B504460068012200F0EEFC09492068E9
:1019B000884203D1416C41F4004141642068816850
:1019C00001F00701062903D0016841F0010101601F
:1019D000002010BD002C014010B504460068002214
:1019E00000F0D2FC104B41F2111120688A1098428D
:1019F00009D1036A0B4206D1036A134203D1436C37
:101A000023F4004343642068036A0B4206D1016A51
:101A1000114203D1016821F001010160012084F825
:101A20003D00002010BD0000002C0140FEE7032017
:101A3000401EC0B2FCD270473EB50021184800914C
:101A40000191164A0291026092158260017301248D
:101A50000475022505614FF460224160C0E9064229
:101A6000FEF766FF08B1FEF77AFE0620CDE9000416
:101A7000072469460A480294FEF7D8FE08B1FEF72B
:101A80006EFE69460648CDE90045FEF7CFFE08B177
:101A9000FEF765FE0248FEF765FE3EBD00240140EC
:101AA0002400002070B586B000241A4800940194E8
:101AB00002940394816941F020018161816901F000
:101AC00020010491816941F0040181618069124E15
:101AD00000F004000490002240F603213046FFF796
:101AE000E0F940F2032000900125CDE901540324E0
:101AF000694630460394FFF7DFF8E802CDE90005B8
:101B00000220CDE9020469463046FFF7D5F806B059
:101B100070BD0000001002400008014010B596B0F2
:101B200000240F9410941194129413941C2108A86B
:101B30001494FEF749FB20216846FEF745FB29482F
:101B4000274901604721C0E9011440F2E731C0E9AB
:101B5000031444618461FFF7DEFD08B1FEF7FFFD69
:101B60004FF480500F900FA91E48FFF703FE08B1F5
:101B7000FEF7F5FD1B48FFF7F7FE08B1FEF7EFFD96
:101B8000139413A917481494FFF7A4FD08B1FEF7A6
:101B9000E6FD6020089040F2F310CDE909040B94B3
:101BA0000C940D94082208A90E480E94FFF774FEB9
:101BB00008B1FEF7D4FD00944FF40050CDE9044085
:101BC000029401940394694606480794FFF758FD70
:101BD00008B1FEF7C4FD0348FFF738FE16B010BD8C
:101BE000002C014054000020FEE7FEE730B4002145
:101BF000084B0A465FF0000003EBC004401CC0B273
:101C000062548028F8D3491CC9B20829F2D330BCE9
:101C100000F082B9A400002030B5CC0801F0070321
:101C200001259D40EBB2064D05EBC005C808285CB8
:101C30000AB1184302E063EA0000C043285530BDF2
:101C4000A400002010B50E4C012202212046FFF70F
:101C500028F9012211462046FFF723F9FFF7E7FE96
:101C6000002202212046FFF71CF9FFF7E0FE0022C8
:101C700001212046FFF715F9BDE81040FFF7D7BE58
:101C80000008014010B50A4C002202212046FFF74F
:101C900008F9012211462046FFF703F9FFF7C7FEB6
:101CA00020460122BDE810400221FFF7FAB80000EB
:101CB0000008014010B50C4C012202212046FFF71C
:101CC000F0F8FFF7B4FE012211462046FFF7E9F8CD
:101CD000FFF7ADFE002201212046FFF7E2F8BDE844
:101CE0001040FFF7A4BE00000008014010B5C82056
:101CF000FEF7D0FF0021AE2000F083FA0021084655
:101D000000F07FFA0021102000F07BFA0021402033
:101D100000F077FA0021812000F073FA0021CF2033
:101D200000F06FFA0021A12000F06BFA0021C8201A
:101D300000F067FA0021A62000F063FA0021A82035
:101D400000F05FFA00213F2000F05BFA0021D32071
:101D500000F057FA0021084600F053FA0021D52080
:101D600000F04FFA0021802000F04BFA0021D9202A
:101D700000F047FA0021F12000F043FA0021DA20B8
:101D800000F03FFA0021122000F03BFA0021DB2096
:101D900000F037FA0021302000F033FA0021202033
:101DA00000F02FFA0021022000F02BFA00218D20F4
:101DB00000F027FA0021142000F023FAFFF716FFA5
:101DC0000021BDE81040AF2000F01BBA7CB5012413
:101DD0000021102325220846009400F06BF91023FF
:101DE000262200211846009400F064F910233A22BC
:101DF00000212020009400F0E7F81020CDE9000435
:101E00003F48022300218268282000F0C1F93D4D9F
:101E10004FF01003A878009400285AD01122002116
:101E2000402000F047F91023122200940021502096
:101E300000F040F91023272219460020009400F0FA
:101E400039F91023282219461846009400F032F977
:101E500010233A2219462020009400F0B5F8287883
:101E6000B0B302283ED01023112219462820009436
:101E700000F020F91023122200941021382000F0E5
:101E800019F91023292220210020009400F012F9D2
:101E90001023182220211846009400F00BF920216D
:101EA00010233A220846009400F08EF868784FF02C
:101EB0001003009408B316222021282000F0FAF81D
:101EC0001023182220213820009400F0F3F87CBD64
:101ED00008E00F220021402000F0ECF810231A4601
:101EE0000094A3E710230F2219462820009400F045
:101EF000E1F810231A460094BFE71722DCE7000040
:101F000094000020000000200246012000E0504321
:101F1000491EC9B2FBD2704770B5184E002400BFED
:101F200004F1B000C0B2002100F06BF900210846B6
:101F300000F067F90021102000F063F9FFF782FE3E
:101F4000782000F01DF8FFF7B5FE402000F018F8EB
:101F5000FFF7B0FE5FF0000506EBC500005D00F086
:101F60000FF8FFF7A7FE6D1CEDB2802DF4D3FFF73D
:101F700089FE641CE4B2082CD2D370BDA4000020FA
:101F800070B5104E05460024280601D5012200E058
:101F9000002202213046FEF784FFFFF748FD0122B0
:101FA00011463046FEF77DFFFFF741FD002201217B
:101FB0003046FEF776FF6806641C050EE4B2082C76
:101FC000E2D370BD000801402DE9FC5F1C460E46BF
:101FD00082468B460190082B0DD0600700D001206F
:101FE00000EBD40061084843C0B28146203AD0B229
:101FF000009000204BE00620F7E7082C13D00C2CB3
:1020000018D0102C1BD0182C4AD10098254900EB71
:10201000C00000BF01EB8001002711F80850E8075D
:1020200012D00C9A13E000981F4900EB400001EB1E
:102030004001F1E700981D4900EB4000EAE71C4928
:10204000009801EB0011E7E70C9838B30022314605
:102050005046FFF7E1FD761C7F1C6D08FFB2F6B21B
:10206000082FDCD30AF1010000F0FF0A082C0AD087
:102070000199AAEB0100B0EB540F04D10BF1080059
:102080008A4600F0FF0B08F101005E46C0B28046B0
:102090004845B2D3BDE8FC5FFFF73EBF0122D6E75B
:1020A000BDE8FC9FC0350008342900085C2B0008FF
:1020B000D02F00082DE9FF4F81B08146009098464F
:1020C0000E468B46580701D0012100E0002101EBAC
:1020D000D80000FB08FA002449E000BFB8F1100F57
:1020E00012D0B8F1180F14D0B8F1200F19D0B8F1F0
:1020F000400F45D12449039801EB40200027055D9E
:10210000E80714D00E9A15E02049039801EB40101F
:10211000F4E703981C4900EBC000C83901EBC0008C
:10212000ECE719490398803901EBC010E6E70E98F7
:1021300020B3002231464846FFF76EFD761C7F1C17
:102140006D08FFB2F6B2082FDAD309F10100009949
:1021500000F0FF09A9EB0101414505D10BF1080091
:10216000DDF8009000F0FF0B641C5E46A4B25445FD
:10217000B4D305B0BDE8F04FFFF7CEBE0122D9E7DA
:1021800005B0BDE8F08F0000244900081C4300089A
:102190002DE9F84F0025DDE90A691F4692468B4676
:1021A0008046082E00D1022500241CE0381B401E6A
:1021B000C1B20A20FFF7A8FEBAFBF0F00A21B0FB7B
:1021C000F1F201FB1200CDF8009090B13030C2B2B4
:1021D00005EB560101FB0480C0B233465946FFF7B8
:1021E000F3FE641CE4B2BC42E0D3BDE8F84FFFF755
:1021F00093BE05EB560101FB0480C0B2334630228A
:10220000ECE770B50C460546FFF71CFD7820FFF79C
:10221000B7FEFFF74FFD0CB1402000E00020FFF7B4
:10222000AFFEFFF747FD2846FFF7AAFEFFF742FD86
:10223000BDE87040FFF726BD7047704710B5FEF748
:102240003BFE04490888401C088003490888401C5C
:10225000088010BD060000200400002030B593B0B7
:1022600028216846FDF7B0FF14210AA8FDF7ACFF4E
:10227000002501200F9510951195010412958DE808
:10228000230004904FF4E010CDE9081002240794D5
:102290006846FFF751F808B172B6FEE70AA90F20A9
:1022A00081E831004FF48060CDE90D0502210AA8D4
:1022B000FEF766FF08B172B6FEE74FF400401190DA
:1022C0000F940FA8FEF7E6FE002801D072B6FEE7D5
:1022D00013B030BD0D48016841F001010160416853
:1022E0000B4A1140416001680A4A114001600168CF
:1022F00021F480210160416821F4FE0141604FF426
:102300001F0181600449C00308607047001002404B
:102310000000FFF8FFFFF6FE08ED00E0F0B50268F0
:10232000164B174C174D4FF08047984205D0B842D6
:1023300003D0A04201D0A84203D122F070064A681F
:102340003243984205D0B84203D0A04201D0A842FF
:1023500003D122F44074CA6822434C6922F08002FF
:10236000224302608A68C2620A688262984201D18E
:102370000969016301214161F0BD0000002C0140A9
:10238000000400400008004010B501F01F030121C7
:10239000046A99408C430462016A9A4011430162C5
:1023A00010BD10B5846842EA032224F47F440A4336
:1023B0002243826010BD826822F070020A4342F01C
:1023C000070181607047000030B5026A22F0010207
:1023D0000262026A4368846924F073050C682C4326
:1023E00022F002058A682A430A4DA8420BD122F046
:1023F0000805CA6823F440732A434D6922F0040299
:102400001D438B692B4343608461496841630262C9
:1024100030BD0000002C014030B5026A22F01002ED
:102420000262026A436884690D6824F4E64444EA5F
:1024300005248D6822F0200242EA05120B4DA842C5
:102440000ED1CD6822F0800242EA05124D6923F4D4
:10245000406343EA85038D6922F0400243EA850325
:102460004360846149688163026230BD002C014091
:1024700030B5026A22F480720262036A4268C4695B
:1024800023F4007324F073050C682C438D6843EA31
:1024900005230C4DA8420ED1CD6823F4006343EA16
:1024A00005234D6922F4405242EA05128D6923F456
:1024B000806342EA05124260C4614968C1630362F5
:1024C00030BD0000002C014030B5026A22F4805279
:1024D0000262046A4268C3690D6823F4E64343EA72
:1024E00005238D6824F4005444EA0534064DA842BF
:1024F00004D14D6922F4804242EA85124260C361F0
:1025000049680164046230BD002C014010B5036AC3
:10251000046A24F001040462846924F0F00444EAAB
:10252000021423F00A020A438461026210BD10B54E
:10253000036A23F0100303628369046A23F470437F
:1025400043EA023224F0A00343EA011182610162EE
:1025500010BDFEE70907090E002804DB00F1E020AA
:1025600080F80014704700F00F0000F1E02080F8C0
:10257000141D704770B5184D00246FF00B061748F6
:10258000FEF728FB32211548FEF78CFA14B1012C16
:102590000DD018E01148FEF7C7F900F06FF80221DE
:1025A00000F07EF9314600F07BF928600BE00B4823
:1025B000FEF7BAF900F062F8094900F073F8314605
:1025C00000F06EF968600120FEF764FB641CE4B261
:1025D000022CD4D370BD000008000020240000208D
:1025E0003333534010B5FEF76FFCFFF737FEFFF7AC
:1025F00059FAFFF721FAFFF791FAFEF791F8FFF782
:1026000075FBFFF7F3FA40F6B830FEF743FBFDF732
:10261000EBFF064880683C2805D900BFFDF798FE0F
:10262000FFF7D4FBFAE7002010BD00009400002063
:10263000014800F003B900BF0000C07FC10DD1F117
:102640009E0206DB4FEA002343F0004323FA02F028
:102650007047004207D54FEA4001B1F1FE4F02D268
:102660004FF00000704710B500F09DF849922480AB
:10267000002070476FEA200070470000B0FA80F336
:1026800010FA03F2C3F19D030AD0D90501EB122021
:10269000530638BF704700F1010008BF20F0010069
:1026A000704700004FF47F0C1CEAD0121EBF1CEADA
:1026B000D11392EA0C0F93EA0C0F00F0478090EAD6
:1026C000010F48BF42F480724FF0004C4CEA0020EA
:1026D0004CEA012102EB0302A0FB0113A2F5000268
:1026E000002918BF43F001035B0028BF4FEA330302
:1026F00042EB22425FEA132C4CEBC2502EBFBCEBE4
:10270000436FB2F57C0F70474FEA036CBCF1004F8A
:1027100008BF20F00100B2F57C0F38BF70470BD521
:1027200082F0FF0212F5803FC8BF704700F1C04041
:10273000D8BF00F00040704700F5000C5FEA4C0C79
:1027400048BF7047B0F1C04000F073B890EA010F85
:102750000CEAD11348BF42F48072624538BF63452A
:1027600004D280EA010000F00040704710B500F08C
:102770001AF800BF8900013E00F007B800F009B860
:102780005FEA410C5FEA1C6C08D080EA010000F0AF
:1027900050B85FEA400C5FEA1C6CF6D14FF0004085
:1027A000A0F5800070470EF1020E2EF0030E5EF8C9
:1027B000044B244204D44FEA4102B2F17F4F11D8B6
:1027C0004FEA4003B3F17F4F0CD80ED14FEAD07CD3
:1027D000B2F17F4F0CEB4C0C0CF1020C08BF4CEB30
:1027E000D17C04E04FF0080C01E04FEAD17C0CEB07
:1027F0004C0324FA03F404F00704B4F1040C06D2E9
:102800000EEB840CBDE810404CF0010C6047DFE893
:102810000CF0070802024FF00040A0F5800010BD48
:102820000846420018BFD2F1807288BF00F0004015
:1028300010BDFF2141EAD050C00570470CF00F03D6
:10284000092B08BF082000F051800A2B0BD0082B61
:1028500018BF704708BF1CF0400F0AD04FF00000AF
:102860004FF0000170471CF0400F18BF4FF00040C0
:1028700070471CF0100F08D020F0704300F07F422A
:1028800042EAD3014FEA4370704700F0604021F004
:102890007F4242EA000201F07F4040EA72707047D6
:1028A0004FF0FF0212EAD0521CBF92F0FF038B429E
:1028B000C2BFD14200EBC1507047002A0AD0002BA2
:1028C0000BD0002900F00040A4BF40F0FE4040F4CF
:1028D0000000704700F00040704743024FF00B0CBF
:1028E00018BF4CF0806C7FF4A3AE70471CF4801FBF
:1028F00011D01CF4E02F03D06FEACC3149007047AF
:102900004FF04050EFF3008222F0704242EA0002A2
:1029100082F3008870474FF000007047000000000D
:10292000000000000102030406070809000000007F
:10293000010203040000000000000000002F00005E
:1029400000000700070000147F147F1400242A7F72
:102950002A120062640813230036495522500000F1
:102960000503000000001C224100000041221C0061
:102970000014083E08140008083E0808000000A0E3
:1029800060000008080808080000606000000020DF
:1029900010080402003E5149453E0000427F4000BD
:1029A000004261514946002141454B310018141243
:1029B0007F10002745454539003C4A494930000110
:1029C0007109050300364949493600064949291E5F
:1029D00000003636000000005636000000081422C1
:1029E00041000014141414140000412214080002C1
:1029F0000151090600324959513E007C1211127CE6
:102A0000007F49494936003E41414122007F414112
:102A1000221C007F49494941007F09090901003E04
:102A20004149497A007F0808087F0000417F410042
:102A3000002040413F01007F08142241007F4040B8
:102A40004040007F020C027F007F0408107F003EA0
:102A50004141413E007F09090906003E4151215E86
:102A6000007F091929460046494949310001017F83
:102A70000101003F4040403F001F2040201F003F19
:102A80004038403F006314081463000708700807CB
:102A900000615149454300007F41410000552A55DE
:102AA0002A55000041417F00000402010204004059
:102AB000404040400000010204000020545454787B
:102AC000007F48444438003844444420003844449B
:102AD000487F00385454541800087E090102001839
:102AE000A4A4A47C007F080404780000447D400076
:102AF000004080847D00007F102844000000417F5A
:102B00004000007C04180478007C08040478003835
:102B10004444443800FC242424180018242418FCBD
:102B2000007C0804040800485454542000043F4426
:102B30004020003C4040207C001C2040201C003CE9
:102B40004030403C004428102844001CA0A0A07C39
:102B5000004464544C441414141414140000000071
:102B600000000000000000000000FC000000000069
:102B700002000000000C020C020000000000000037
:102B800090D0BCD0BC900003000300001824FE4489
:102B90008C000302070201001824D8B04C80000307
:102BA00000010201C038E438E00001020201020223
:102BB000080600000000000000000000000000F80F
:102BC0000402000000010204000204F800000004F6
:102BD000020100009060F860900000000100000019
:102BE0002020FC2020000000010000000000000068
:102BF0000000080600000000202020202000000027
:102C000000000000000000000000000200000000C2
:102C10000080601C0200040300000000F8040404AB
:102C2000F8000102020201000008FC00000000029E
:102C30000302000018844424180003020202020068
:102C400008042424D80001020202010040B088FCDC
:102C500080000000000302003C242424C400010280
:102C600002020100F824242CC0000102020201002B
:102C70000C04E41C0400000003000000D8242424F9
:102C8000D80001020202010038444444F800000365
:102C9000020201000000100000000000020000001D
:102CA0000000200000000000060000000020508806
:102CB000040200000000010290909090900000003B
:102CC0000000000000020488502000020100000003
:102CD0001804C4241800000002000000F804E49462
:102CE000F80001020202020000E09CF080000203F2
:102CF0000000030204FC2424D800020302020100A5
:102D0000F80404040C0001020202010004FC0404A3
:102D1000F80002030202010004FC24740C00020308
:102D20000202030004FC24740C00020302000000F1
:102D3000F0080444CC4000010202010004FC202001
:102D4000FC040203000003020404FC040400020269
:102D500003020200000404FC04040604040300004F
:102D600004FC24D00C0402030200030204FC04004F
:102D70000000020302020203FC3CC03CFC00030012
:102D80000300030004FC30C4FC040203020003003F
:102D9000F8040404F80001020202010004FC2424E7
:102DA0001800020302000000F8848404F800010205
:102DB0000207050004FC24649800020302000302D9
:102DC000182424448C000302020201000C04FC04B9
:102DD0000C0000020302000004FC0000FC040001DF
:102DE00002020100047C80E01C04000003000000DB
:102DF0001CE03CE01C00000300030000049C609CFD
:102E00000400020300030200041CE01C0400000292
:102E1000030200000C84641C04000203020203008D
:102E20000000FE020200000007040400000E30C093
:102E30000000000000010200000202FE0000000489
:102E4000040700000004020400000000000000006D
:102E50000000000000000808080808080000020040
:102E600000000000000000000040A0A0C000000121
:102E70000202030204FC2020C00000030202010041
:102E800000C02020600000010202020000C02024D7
:102E9000FC0000010202030200C0A0A0C00000016B
:102EA000020202000020F8242404000203020200AF
:102EB0000040A0A0602000070A0A0A0404FC2020A9
:102EC000C0000203020003020020E4000000000230
:102ED00003020000000020E40000080808070000CA
:102EE00004FC80E020200203020003020404FC0032
:102EF0000000020203020200E020E020C000030004
:102F00000300030020E02020C000020302000302AF
:102F100000C02020C00000010202010020E02020AB
:102F2000C000080F0A02010000C02020E0000001DC
:102F3000020A0F0820E040202000020302000000E7
:102F40000060A0A020000002020203000020F82080
:102F5000000000000102020020E00020E00000016B
:102F60000202030220E02080602000000301000034
:102F70006080E0806000000300030000206080604B
:102F8000200002030003020020E0208060200808E7
:102F9000070100000020A0602000000203020200E0
:102FA000000020DE0200000000070400000000FF17
:102FB00000000000000F00000002DE2000000004FE
:102FC00007000000020102040402000000000000EB
:102FD00000000000000000000000000000000000F1
:102FE000000000F800000000000000333000000086
:102FF00000100C06100C060000000000000000008D
:1030000040C07840C0784000043F04043F040400FE
:10301000007088FC08300000001820FF211E00000E
:10302000F008F000E018000000211C031E211E0023
:1030300000F00888700000001E21232419272110A9
:1030400010160E000000000000000000000000004C
:10305000000000E0180402000000000718204000F3
:1030600000020418E00000000040201807000000E3
:10307000404080F0804040000202010F0102020047
:10308000000000F0000000000101011F010101002B
:10309000000000000000000080B070000000000090
:1030A0000000000000000000000101010101010119
:1030B00000000000000000000030300000000000B0
:1030C0000000000080601804006018060100000085
:1030D00000E010080810E000000F102020100F0082
:1030E000001010F8000000000020203F2020000009
:1030F0000070080808887000003028242221300061
:1031000000300888884830000018202020110E0068
:103110000000C02010F8000000070424243F240011
:1031200000F80888880808000019212020110E00E6
:1031300000E0108888180000000F112020110E00F8
:1031400000380808C83808000000003F00000000F0
:103150000070880808887000001C222121221C00B1
:1031600000E010080810E0000000312222110F00DA
:10317000000000C0C000000000000030300000006F
:1031800000000080000000000000806000000000DF
:1031900000008040201008000001020408102000F8
:1031A0004040404040404000040404040404040043
:1031B00000081020408000000020100804020100D8
:1031C000007048080808F0000000003036010000D8
:1031D000C030C828E810E0000718272423140B008B
:1031E0000000C038E0000000203C23020227382005
:1031F00008F8888888700000203F202020110E00E9
:10320000C0300808080838000718202020100800DF
:1032100008F808080810E000203F202020100F00C8
:1032200008F88888E8081000203F20202320180094
:1032300008F88888E8081000203F200003000000FC
:10324000C03008080838000007182020221E02009D
:1032500008F808000008F808203F210101213F205C
:10326000000808F8080800000020203F2020000087
:1032700000000808F8080800C08080807F00000077
:1032800008F888C028180800203F200126382000B0
:1032900008F8080000000000203F20202020300017
:1032A00008F8F800F8F80800203F003F003F200031
:1032B00008F830C00008F808203F200007183F0039
:1032C000E01008080810E0000F10202020100F0068
:1032D00008F808080808F000203F2101010100005B
:1032E000E01008080810E0000F18242438504F00A0
:1032F00008F8888888887000203F2000030C302060
:1033000000708808080838000038202121221C009D
:10331000180808F8080818000000203F20000000E6
:1033200008F808000008F808001F202020201F00CF
:103330000878880000C83808000007380E0100002F
:10334000F80800F80008F800033C0700073C0300F9
:10335000081868808068180820302C03032C30205F
:103360000838C800C83808000000203F20000000CE
:1033700010080808C8380800203826212020180026
:10338000000000FE020202000000007F40404000FA
:10339000000C30C000000000000000010638C00032
:1033A00000020202FE000000004040407F000000DA
:1033B00000000402020204000000000000000000FF
:1033C00000000000000000008080808080808080FD
:1033D00000020204000000000000000000000000E5
:1033E00000008080808000000019242222223F20DB
:1033F00008F8008080000000003F112020110E001E
:103400000000008080800000000E112020201100AC
:10341000000000808088F800000E112020103F205E
:103420000000808080800000001F222222221300E2
:10343000008080F0888888180020203F202000002D
:103440000000808080808000006B949494936000E2
:1034500008F8008080800000203F210000203F20ED
:1034600000809898000000000020203F20200000ED
:10347000000000809898000000C08080807F0000DD
:1034800008F8000080808000203F24022D302000BA
:10349000000808F8000000000020203F2020000065
:1034A0008080808080808000203F20003F20003F7F
:1034B0008080008080800000203F210000203F208D
:1034C0000000808080800000001F202020201F003E
:1034D000808000808000000080FFA12020110E006D
:1034E0000000008080808000000E112020A0FF805E
:1034F000808080008080800020203F21200001000B
:10350000000080808080800000332424242419005F
:10351000008080E0808000000000001F202000006C
:103520008080000000808000001F202020103F20AD
:10353000808080000080808000010E30080601003D
:1035400080800080008080800F300C030C300F00E2
:1035500000808000808080000020312E0E3120000D
:10356000808080000080808080818E70180601003D
:1035700000808080808080000021302C222130005B
:1035800000000000807C020200000000003F40407C
:1035900000000000FF00000000000000FF0000002D
:1035A0000002027C800000000040403F000000005C
:1035B00000060101020204040000000000000000F7
:1035C00000000000000000000000000000000000FB
:1035D00000000000000000000000000000000000EB
:1035E000000000000000000000F0F0F0000000000B
:1035F0000000000000017F0100000000000000004A
:10360000001C1C1C0000000000008060301C8C604E
:10361000301C0C0000000000000000000000000052
:10362000000000000000000000000000000000E0BA
:103630000000000000E000000086E69F8686868687
:10364000E69F860000011F01010101011F01010029
:10365000000080C06020F820E0C0000000000307E8
:103660000C18FF70E18100000000070F10107F10A0
:103670000F0700008060206080000000E020000054
:103680000F3020309F70DC371030C0000000100E6B
:1036900003000718101807000000C02020E0C00039
:1036A0000000000080E01F38E88703C43C040000ED
:1036B000070F1810100B070D1010080000808C4C1D
:1036C00038000000000000000000000000000000C2
:1036D00000000000000000000000000000000000EA
:1036E00000000000000080E030080400000000003E
:1036F00000FEFF0100000000000000000000030FBA
:103700001820400000040830E080000000000000A5
:103710000000000001FFFE00000000000040201833
:103720000F03000000000000000000000000C000C7
:1037300000000000004266663C18FF183C666642C6
:103740000000000000000300000000000000000076
:103750000000800000000000001010101010FF108A
:103760001010101000000000000003000000000016
:103770000000000000000000000000000000000049
:10378000000000000000000000808C4C38000000A9
:103790000000000000000000000000000000000029
:1037A0000010101010101010101010000000000079
:1037B0000000000000000000000000000000000009
:1037C00000000000000000000000000000000000F9
:1037D00000001C1C1C000000000000000000000095
:1037E00000000000E0380C000000000080701C03A6
:1037F000000000000060380E010000000000000022
:10380000000080C060202060C080000000FEFF013A
:103810000000000001FFFE000001070E1810101844
:103820000E0701000000808080C0E0000000000062
:103830000000000000FFFF0000000000000010106A
:10384000101F1F101010000000804020202020605A
:10385000C080000000030300804020381F070000E4
:10386000001C1A1918181818181F00000080C02012
:10387000202060C080000000000303001010182FFB
:10388000E780000000070F10101010180F0700004D
:10389000000000000000C0E0F000000000C0B088A0
:1038A000868180FFFF808000000000000010101F54
:1038B0001F1010000000E060606060606060000049
:1038C00000003F1008080818F0E0000000070B1087
:1038D0001010101C0F030000000080C040202020AA
:1038E000E0C0000000FCFF211008080818F0E0000C
:1038F0000001070C18101010080F03000000C0E0B2
:103900006060606060E06000000003000000E0189C
:103910000700000000000000001F1F000000000062
:103920000080C0602020202060C080000087EF2C35
:103930001818303068CF830000070F0810101010DF
:10394000180F07000000C0C020202020C080000009
:10395000001F3F604040402010FFFE0000000C1C94
:10396000101010080F03000000000000000000000D
:103970000000000000000000000E0E0E000000001D
:1039800000000000001C1C1C0000000000000000E3
:10399000000000000000000000000000000C0C000F
:1039A0000000000000000000005838000000000087
:1039B00000000000000000804020100000001028DF
:1039C000448201000000000000000000000001022D
:1039D00004081000000000000000000000000000CB
:1039E00000848484848484848484840000000000AF
:1039F00000000000000000000000102040800000D7
:103A000000000000000000000000018244281000B7
:103A100000001008040201000000000000C0202087
:103A20001010101030E0C0000003030000F0100878
:103A30000C070300000000001C1C1C00000000001C
:103A4000000000C0406020202040C00000FCFF01BA
:103A5000F00E03C1FE03807F0001070E0811111054
:103A6000110904020000000080E0E00000000000F6
:103A70000000807C4340477FF880000010181F1032
:103A800000000000131F1C1020E0E0202020206018
:103A9000C080000000FFFF10101010182FE78000FA
:103AA000101F1F1010101010180F0700000080C00A
:103AB000402020202060E00000FCFF01000000000A
:103AC000000001000001070E181010100804030088
:103AD00020E0E02020202040C080000000FFFF0008
:103AE0000000000001FFFE00101F1F10101018083A
:103AF0000E07010020E0E020202020202060800030
:103B000000FFFF101010107C00000000101F1F109D
:103B1000101010101018060020E0E02020202020B7
:103B20006060800000FFFF101010107C000001009A
:103B3000101F1F100000000000000000000080C0E7
:103B40006020202040E0000000FCFF010000404019
:103B5000C0C140400001070E181010100F0F0000E8
:103B600020E0E0200000000020E0E02000FFFF1047
:103B70001010101010FFFF00101F1F100000000099
:103B8000101F1F100000202020E0E0202020000057
:103B90000000000000FFFF00000000000000101007
:103BA000101F1F101010000000000000202020E057
:103BB000E020202000000000000000FFFF000000C7
:103BC0000060E0808080C07F3F00000020E0E020B7
:103BD000000020A06020200000FFFF30187CE3C020
:103BE00000000000101F1F10000001131F1C181000
:103BF00020E0E020000000000000000000FFFF00C7
:103C00000000000000000000101F1F101010101016
:103C10001018060020E0E0E000000000E0E0E020F6
:103C200000FF013FFEC0E01E01FFFF00101F10005B
:103C3000031F0300101F1F1020E0E0C00000000061
:103C40000020E02000FF0003071C78E08000FF0058
:103C5000101F100000000000030F1F00000080C0B4
:103C600060202060C080000000FEFF010000000016
:103C700000FFFE000001070E181010180C070100CD
:103C800020E0E0202020202060C0800000FFFF20F6
:103C900020202020301F0F00101F1F1000000000E8
:103CA00000000000000080C060202060C080000094
:103CB00000FEFF010000000000FFFE000001070EF3
:103CC0001111133C7C67210020E0E02020202020FF
:103CD00060C0800000FFFF101030F0D0080F070018
:103CE000101F1F10000000030F1C10100080C06088
:103CF000202020204040E00000070F0C1818303032
:103D000060E08100001F0C0810101010180F070051
:103D10008060202020E0E020202060800100000062
:103D200000FFFF000000000100000000101F1F1036
:103D30000000000020E0E020000000000020E02063
:103D400000FFFF00000000000000FF0000070F1848
:103D500010101010100807002060E0E020000000A4
:103D600020E060200000077FF88000807C030000D6
:103D700000000000071F1C070000000020E0E020FA
:103D800000E0E0200020E0200007FFF8E01FFFFC3B
:103D9000E01F00000000031F0300011F03000000DC
:103DA000002060E0A0000020E06020000000000390
:103DB0008F7CF8C6010000000010181E13000117C8
:103DC0001F1810002060E0E02000000020E06020CC
:103DD000000001073EF8E018070000000000001096
:103DE000101F1F101000000000806020202020A065
:103DF000E0E0200000000000C0F03E0F03000000E3
:103E000000101C1F171010101018060000000000F2
:103E100000FC0404040404000000000000FF000093
:103E20000000000000000000007F404040404000D3
:103E3000000010E000000000000000000000000092
:103E4000031C608000000000000000000000000370
:103E50000C70800000000404040404FC0000000056
:103E600000000000000000FF0000000000004040D3
:103E70004040407F0000000000000010080C040CCF
:103E8000081000000000000000000000000000001A
:103E90000000000000000000000000000000000022
:103EA0000000000000000000000000000000000012
:103EB0000000000080808080808080808080808002
:103EC00000000004040808000000000000000000DA
:103ED00000000000000000000000000000000000E2
:103EE00000000000000000000000000000000000D2
:103EF000000098D844642424FCF80000000F1F1828
:103F0000101010081F1F10180020E0F00000000023
:103F1000000000000000FFFF180804040CF8F00087
:103F200000001F0F18101010180F030000000000F1
:103F3000000000000000000000E0F8180404043C49
:103F40003800000000030F0C1010101008060000CD
:103F50000000000000000020E0F0000000E0F81C7D
:103F600004040408FFFF000000030F1810101008DD
:103F70001F0F08000000000000000000000000000B
:103F80000000E0F8484444444C7870000000030FFF
:103F90000C181010100804000000000080C0602001
:103FA00020E0C00000040404FFFF04040404000037
:103FB000000010101F1F1010100000000000000073
:103FC0000000000000000000000070F88C04048C69
:103FD000F874040C007076CF8D8D8D89C8787000D0
:103FE0000020E0F000000000000000000000FFFFE3
:103FF00008040404FCF8000000101F1F100000104B
:104000001F1F1000000000000060600000000000A2
:104010000000040404FCFC0000000000000010107C
:10402000101F1F10101000000000000000000060B2
:104030006000000000000000040404FCFC0000001C
:104040000000C0C08080C07F3F0000000020E0F082
:1040500000000000000000000000FFFF80C0F41C12
:104060000404000000101F1F1100031F1C1010008B
:104070000000202020E0F000000000000000000010
:1040800000FFFF000000000000001010101F1F10B4
:104090001010000000000000000000000000000000
:1040A00004FCFC0804FCFC0804FCFC00101F1F10AE
:1040B000001F1F10001F1F10000000000000000064
:1040C000000000000004FCFC08080404FCF80000E8
:1040D00000101F1F100000101F1F10000000000024
:1040E000000000000000000000E0F0180C04040CC8
:1040F00018F0E00000030F0C101010100C0F03005C
:104100000000000000000000000000000004FCFCB3
:10411000080404040CF8F0000080FFFF88901010E1
:104120001C0F030000000000000000000000000061
:1041300000E0F81C04040408F8FC000000030F1859
:1041400010109088FFFF80000000000000000000B9
:1041500000000000040404FCFC100804040C0C0023
:104160001010101F1F1010100000000000000000B1
:10417000000000000000000000003078CCC48484FF
:10418000840C1C0000001E1810101011190F0600DE
:104190000000000000C00000000000000004040453
:1041A000FFFF040404000000000000000F1F1010B7
:1041B000100C0000000000000000000000000000E3
:1041C0000004FCFE00000004FCFE000000000F1FC5
:1041D000181010081F0F0800000000000000000069
:1041E0000000000000040C3CFCC40000C43C0C04B3
:1041F00000000000010F1E0E010000000000000082
:104200000000000000000000043CFCC400E47CFC52
:1042100084807C040000071F070000071F070000C0
:104220000000000000000000000000000004041C6A
:104230007CE4C0341C0404000010101C1601131F81
:104240001C1810000000000000000000000000002A
:1042500000040C3CFCC400C43C0404000000C0800A
:10426000C1370E0100000000000000000000000047
:104270000000000000001C0404C4F47C1C040000C6
:104280000000101C1F17111010180E000000000075
:10429000000000F80C04000000000000001028EFEF
:1042A00000000000000000000000003F604000002F
:1042B000000000000000FF000000000000000000FF
:1042C0000000FF0000000000000000000000FF00F0
:1042D000000000000000040CF800000000000000D6
:1042E00000000000EF281000000000000000406007
:1042F0003F00000000000000001806020204081041
:104300002020300800000000000000000000000035
:1043100000000000000000000000000000FC848499
:1043200084FC001010101010FF101000003F10103F
:10433000103F0000010640807F00000000F80106E9
:1043400000F0121212F2020202FE000000FF000052
:10435000001F1111111F0040807F00001010D0FFBE
:104360009014E4AFA4A4A4AFE4040000040300FF8D
:1043700000894B2A1A0E1A2A4B8880001010909040
:104380009090901010FF1010111610000020602067
:104390003F10101000030C102040F800000000F83F
:1043A000888C8A89888888F800000000000000FF57
:1043B00044444444444444FF000000004044C44496
:1043C0004444401010FF101010F00000103C131077
:1043D00014B840300E014080403F0000000024240B
:1043E000242424FC222222232200000002020202B2
:1043F0000242827F02020202020202001094533241
:104400001E325210007E4242427E0000000000FF39
:1044100049494949494949FF0000000008CC4A4937
:10442000484ACC18007F88888482E00000FF12127E
:1044300052927F00007E88888482E000100CC45471
:104440004C64D54644444C54C4140C000000FF4056
:104450004462554955434040FF000000000000F809
:104460000808090E08080808F80000000080601F0E
:1044700001010101010101010300000000002232DD
:104480002AA6A26221110981010000000042221324
:104490000B42827E02020A12234600002030AC63E7
:1044A000300088C8A8998E88A8C888002267221280
:1044B000128040300F00003F40407100002010E8A3
:1044C0002427A4A4A4A4B4AC202000008040300F72
:1044D00000003F40404448474070000000FE225A20
:1044E000864020504C434C502040400000FF0408C0
:1044F00007404458414E605847404000000202C205
:10450000020202FE82828282820200004040407FDC
:104510004040407F4040404040404000201808EA72
:10452000ACA8A8AFA8A8ACEA0828180000003E0272
:10453000020202FF020212221E00000012EAAFAACB
:10454000EA0FFA02888C5724548C84000202EAAAEB
:10455000AAABAAABAAAAAAAAEA02020080A0908EDD
:10456000888888FF8888888888808000000000FC10
:1045700044444444444444FC00000000100C4424DF
:10458000140405C60404142444140C0000003F0164
:10459000010101FF010111211F00000000001011A5
:1045A000161010F01010141310000000818141410A
:1045B00021110D030D1121414181810080828282F0
:1045C000FE8282828282FE8282828000008040306F
:1045D0000F0000000000FF0000000000040404843D
:1045E000E43C2724242424E40404040004020100FD
:1045F000FF0909090949897F000000000040424283
:1046000042C27E42C24242424040000080402010EE
:104610000C0300003F4040404070000000000000DC
:104620000000C03FC00000000000000080402010DB
:104630000C03000000030C1020408000008060F894
:1046400007101010FF10F01116101000010000FFED
:104650000080601C03003F40404078000000FC24C4
:1046600024242526242424FC000000000000FF81CF
:1046700041210305091129454280800000FC848402
:10468000FC00445454547F5454544400003F1010D0
:104690003F0000FF15151555957F000000FC2425EF
:1046A0002624FC0000FE222222FE0000007F2111B1
:1046B0001509B140300F0242827F000002E222223F
:1046C000222222FE2222222222E2020000FF0000F9
:1046D0000912007F00091240807F0000002020A8FE
:1046E0006C2A3928A82A6CA8202000000282819018
:1046F000924A4945242210080102020090523410C7
:10470000FF10345280708F0808F80800829A5663B0
:1047100022528E008040330C33408000202020BE87
:10472000AAAAAAAAAAAAAABE20202000008080AF16
:10473000AAAAAAFFAAAAAAAF80800000100C44244B
:10474000140405060404142444140C0000404041E1
:104750004141417F414141414040000020104C47D0
:1047600054545454545454D4040400000000000021
:10477000000000000000000F3040F000003E22E288
:10478000223E00FE2222222222E20200203F201F9F
:104790001111007F4444444444474000040404F49D
:1047A00084D4A5A6A4D484F40404040000FE020268
:1047B000123A1613121A3242827E00001060028CE6
:1047C0000000FE9292929292FE00000004047E018C
:1047D000407E42427E427E42427E40000000FC24F7
:1047E0002424FC252624FC242424040040308F802B
:1047F000844C55252525554C80808000807000FF15
:104800001008FE424242FA424242FE00806018070F
:104810000810FF50484641424C40FF00100C05551F
:1048200055D5057F0555555505140C001010108AF7
:10483000A96B352525ABE90810101000001088C4BD
:10484000330040424242C24242424000020100FF65
:104850000000000040807F0000000000000000C059
:1048600080808080808080FC84808080808080C088
:10487000C0000000000000FF7F404040404040FF7B
:1048800040404040404040FF7F00000000000000EA
:10489000000000000000007F700000000000000029
:1048A0000000000000000000000000000000000008
:1048B000000000FCF8000000000000000000000004
:1048C0000000000000000000FFFE020202020202DF
:1048D000020202FFFF020202020202020202FF03C0
:1048E00000000000000000001F1F04040404040472
:1048F000040404FFFF0404040404040404041F006B
:1049000000000000000000000000000000000000A7
:104910000000007F3F0000000000000000000000D9
:104920000000000000000000000000000000000087
:104930000000000000000000000000000000000077
:1049400000F8F8F0F0702000000000000000000007
:104950000000000000000000000000000000000057
:1049600000000000000000000000000080000000C7
:104970000000000000000000000000000000000037
:1049800000FFFFFFFF00000000000000000000002B
:104990000000000000000000808000000000000017
:1049A00000000000000000000000000000FFFFFE0B
:1049B0000606060606060606060606060606060697
:1049C00006FFFFFFFF0606060606060606060606A3
:1049D00006060606060606FFFFFFFF0702000000A8
:1049E00000000000000000000000000000FFFFFFCA
:1049F00000000000000000000000000000000000B7
:104A000000FFFFFFFF0000000000000000000000AA
:104A100000000000000000FFFFFFFF00000000009A
:104A200000000000000000000000000000FFFFFF89
:104A300018181818181818181818181818181818F6
:104A400018FFFFFFFF18181818181818181818184A
:104A500018181818181818FFFFFFFF0000000000B2
:104A60000000000000000000000000000201010042
:104A70000000000000000000000000000000000036
:104A800000FFFFFFFF00000000000000000000002A
:104A90000000000000000001010000000000000014
:104AA0000000000000000000000000000000000006
:104AB00000000000000000000000000000000000F6
:104AC00000FFFFFFFF0000000000000000000000EA
:104AD00000000000000000000000000000000000D6
:104AE00000000000000000000000000000000000C6
:104AF00000000000000000000000000000000000B6
:104B0000001F1F0F0F000000000000000000000049
:104B10000000000000000000000000000000000095
:104B200000000000444B00080000002024000000AA
:104B300028010008684B000824000020640B0000D6
:104B40004401000800000000000000000000000018
:104B50000000000001000000100000000000000044
:084B60000024F4000000000035
:04000005080000ED02
:00000001FF
