:020000040800F2
:10000000400C0020890100083F1D00086D1B0008FE
:100010003D1D0008710500087D2700080000000054
:100020000000000000000000000000005B24000849
:10003000A507000800000000592400085D240008FE
:10004000A3010008A3010008A3010008A301000800
:10005000A3010008A3010008A3010008A3010008F0
:10006000A3010008A3010008A3010008A3010008E0
:10007000A3010008A3010008A3010008A3010008D0
:10008000A3010008A3010008A3010008A3010008C0
:10009000A3010008A3010008A3010008A3010008B0
:1000A000A3010008A3010008A3010008A3010008A0
:1000B000A3010008A3010008A3010008A301000890
:1000C000A3010008A3010008A3010008A301000880
:1000D000A30100086527000871270008A301000894
:1000E000A3010008A3010008A301000800F002F822
:1000F00000F03AF80AA090E8000C82448344AAF188
:100100000107DA4501D100F02FF8AFF2090EBAE885
:100110000F0013F0010F18BFFB1A43F0010318473B
:10012000804E0000A04E0000103A24BF78C878C16D
:10013000FAD8520724BF30C830C144BF04680C60ED
:10014000704700000023002400250026103A28BF35
:1001500078C1FBD8520728BF30C148BF0B60704739
:100160001FB51FBD10B510BD00F0B7F81146FFF761
:10017000F7FF02F0EFFD00F0D5F803B4FFF7F2FF50
:1001800003BC00F0DDF8000009488047094800473B
:10019000FEE7FEE7FEE7FEE7FEE7FEE7FEE7FEE737
:1001A000FEE7FEE704480549054A064B7047000094
:1001B000D9240008ED00000840060020400C002073
:1001C000400800204008002010B5431C02E010F851
:1001D000011B71B18107FAD14FF0013202C88C1AAC
:1001E0008C4314EAC211F9D0C01A0A0603D0C01E0B
:1001F00010BDC01A10BD0A0401D0801E10BD090236
:10020000FCD0401E10BD4FF0000200B513469446CE
:100210009646203922BFA0E80C50A0E80C50B1F15E
:100220002001BFF4F7AF090728BFA0E80C5048BF72
:100230000CC05DF804EB890028BF40F8042B08BF10
:10024000704748BF20F8022B11F0804F18BF00F80C
:10025000012B70474FF0013C50F8042B51F8043B40
:100260009A4221D1A2EB0C03934313EACC1317D18A
:1002700050F8042B51F8043B9A4215D1A2EB0C0321
:10028000934313EACC130BD150F8042B51F8043BE1
:100290009A4209D1A2EB0C03934313EACC13DBD0AF
:1002A0004FF00000704700BFD01A01BAB1FA81F1D7
:1002B00001F0180122FA01F0CB40C1F12001DBB2BC
:1002C000C0B2C01A2CFA01F3D11A914311EAC3113A
:1002D000E6D17047704770477047754600F02CF8BC
:1002E000AE4605006946534620F00700854618B023
:1002F00020B5FFF757FFBDE820404FF000064FF054
:1003000000074FF000084FF0000B21F00701AC464A
:10031000ACE8C009ACE8C009ACE8C009ACE8C00969
:100320008D46704710B50446AFF300802046BDE807
:100330001040FFF722BF000000487047DC05002096
:1003400001491820ABBEFEE72600020070470000FE
:1003500070B5044600688168C943C9071CD181682B
:1003600021F00101816000F02BFE05460FE000BF87
:1003700000F026FE401B022809D9A06A40F01000B8
:10038000A062E06A40F00100E062012070BD2068D8
:100390008068C043C007EBD0002070BDF8B50026D0
:1003A0000446009600688168C943C90728D081685F
:1003B00041F001018160134813490068B0FBF1F07E
:1003C00000E0401E00900028FBD100F0F9FD05463A
:1003D00011E000BF00F0F4FD401B02280BD9A06A19
:1003E00040F01000A062E06A40F00100E06284F892
:1003F00024600120F8BD20688068C043C007E9D1AF
:100400000020F8BD1800002040420F002DE9F04107
:10041000244C2078002842D1A07801260025224FC4
:100420004FF07E58012818D07868404509DD607883
:1004300098B9E6701DA000F085F802F0A1F9667089
:100440000BE0404509DA6078012806D1E57019A073
:1004500000F078F802F094F965703868404517DAD2
:10046000A07800281BD1A67014A000F06BF8144CE3
:1004700000220121204600F09EFD4FF4967000F00E
:1004800093FC2046BDE8F0410122114600F093BDE7
:10049000404504DDA078012801D1E570A570BDE8D4
:1004A000F08100000000002004000020636C5F6BFE
:1004B00000000000636C5F67000000006A670000D6
:1004C0000008014070B5144E7078002822D013A1A6
:1004D0001348FFF7BFFE134C002568B920780128A8
:1004E0000AD102F04DF910480178491CC9B20170D7
:1004F000012900D9057075700CA10948FFF7AAFE03
:10050000002807D12078401CC0B22070012800D9F3
:100510002570757070BD00001C00002042000000B6
:10052000E80000200000002003000020410000003F
:1005300001220249024801F07FBA00001C0000209D
:10054000A800002010B50446084800680168C943A7
:100550000906FBD42046FFF737FE214682B2BDE8EC
:1005600010404FF0FF33014801F0A2BAA80000206C
:10057000FEE710B502F0BEFA02F096F900F062F85C
:10058000BDE81040FFF79EBF00B585B00020019088
:10059000029003900848816941F0040181618069FB
:1005A000694600F00400049010200090034800F019
:1005B0000DFC05B000BD0000001002400008014025
:1005C00000B585B0002002900A48816941F004011D
:1005D00081618069694600F0040004901020009059
:1005E0000120019003200390034800F0EFFB05B0C9
:1005F00000BD0000001002400008014018B503468D
:100600000C48007810B902F087FB68B10A484168CD
:100610000A4A0B4C1268B2FBF4F25A4343685B1A65
:100620009342FBD318BD401C0090B0EBC30FFAD32C
:1006300018BD00001E000020001000E0180000207F
:1006400040420F002DE9F84F00F06CF8214C0122D8
:100650001021204600F0AFFC1021204600F0A6FC3F
:1006600088BB1021204600F0A1FC0028F9D0102101
:10067000184800F09BFC0128F9D000F02FF807463D
:1006800000F02CF8064600F029F8054600F026F8A0
:10069000044600F023F80090002210210D4800F0DD
:1006A0008AFC3720FFF7AAFF01221021094800F039
:1006B00082FCB819284401190098814203D1BB4635
:1006C000B246A946A0460448C0E90298C0E900BA6B
:1006D000BDE8F88F000801404C01002070B5104EB5
:1006E00000241021304600F061FC0028F9D01E20C3
:1006F000FFF784FF6806050E1021304600F056FC17
:10070000012801D145F001051021304600F04EFCD2
:100710000128F9D0641CE4B2082CE2D3284670BD4D
:100720000008014010B5FFF74BFF0E4C01221021CD
:10073000204600F040FC1E20FFF760FF0022102141
:10074000204600F038FC142000F02EFB012210217E
:10075000204600F030FC1E20FFF750FFBDE810409F
:10076000FFF712BF000801400B49087808B10120CB
:1007700070470A48026842F08072026008480268C6
:1007800042F00102026000224260406808B100208D
:10079000704701200870EAE720000020FCED00E02F
:1007A000001000E0704772B6FEE70000F8B50025C3
:1007B0000446009590F82400012808D0012084F810
:1007C00024002046FFF7C4FD060002D04BE00220C3
:1007D000F8BDA06A20F4885040F00200A062022018
:1007E00000F08CFC22490968B1FBF0F0400000E009
:1007F000401E00900028FBD12046FFF7CFFD206867
:10080000816841F00801816000F0DAFB074604E0EE
:1008100000F0D6FBC01B0A2811D8206880680007AA
:10082000F6D42068816841F00401816000F0C8FBC3
:1008300007460EE000F0C4FBC01B0A2809D9A06AD5
:1008400020F0020040F01000A06284F82450012043
:10085000F8BD206880684007ECD4A06A20F0020050
:1008600040F00100A06284F824503046F8BD00003A
:1008700018000020F8B50024009490F824202546A4
:10088000012A12D0012280F824204A681F23072A57
:100890000DD20668776B521E02EB820293409F4393
:1008A0000B6893401F43776319E00220F8BD066888
:1008B0000D2A0AD2376BD21F02EB820293409F436C
:1008C0000B6893401F43376309E0F76A0D3A02EB68
:1008D000820293409F430B6893401F43F7620A686C
:1008E000072306680A2A0AD3F7680A3A02EB42028B
:1008F00093409F438B6893401F43F76008E037693C
:1009000002EB420293409F438B6893401F43376141
:100910000A68102A01D0112A20D1124B02689A428B
:1009200017D193681B0219D4936843F400039360B2
:100930000968102912D10C490C4A0968B1FBF2F17F
:1009400001EB8101490000E0491E00910029FBD123
:1009500004E0816A41F020018162012480F8245082
:100960002046F8BD002401401800002040420F003E
:100970000068C06C704700002DE9F0414FF000079F
:1009800004003D467ED0A06A002628B9E66284F8BD
:100990002460204600F07EF82046FFF7D9FCA16ACB
:1009A000C90600D420B1A06A40F01000A06269E03E
:1009B000A16A21F4885141F00201A1626268E169F3
:1009C000237B0A4347EA43010A43A1684FF4807737
:1009D000B94209D0012907D05FF0000194F814C092
:1009E000BCF1010F02D00AE03946F7E7F3B1A36A80
:1009F00043F02003A362E36A43F00103E362236848
:100A0000D3F804C02CF4694C4CEA010CC3F804C0C0
:100A100021688B68DFF870C003EA0C0313438B6016
:100A2000A168B9420BD0012909D00CE0DFF85CC005
:100A3000A3690CEB43330B4343F40061DFE7218AE6
:100A40000D05A5F580152168CB6A23F470032B43AF
:100A5000CB62216889680E4B1940914208D1E66249
:100A6000A16A21F0020141F00101A162BDE8F0811B
:100A7000A06A20F0020040F01000A062E06A40F09E
:100A80000100E0620120F1E7FDF7E1FF00E0FFFF78
:100A9000FE0E1FFF00B585B000210091019102916B
:100AA000039100680E49884218D10E48816941F4CB
:100AB00000718161816901F400710491816941F0E3
:100AC000040181618069694600F004000490C0203F
:100AD000009003200190044800F078F905B000BDB3
:100AE0000024014000100240000801402DE9F843B5
:100AF00000260D460446009600F062FA8046206803
:100B00008168C90508D5A06A40F02000A06284F879
:100B100024600120BDE8F8834168C90503D4C06A98
:100B200010F4700F26D0022000F0E8FA3849096866
:100B3000B1FBF0F72068036936490B424FEA6101C7
:100B40004FEAA1121BD1C3684FEA611C13EA0C0FD4
:100B500015D103690B4221D1C06810421ED1142067
:100B60001FE0681C06D045B300F02AFAA0EB08008D
:100B7000A84222D8206800688007F2D52AE00369DD
:100B80000B4202D1C168114206D0026922490A42D1
:100B900006D1C068084203D1542002E0292000E0B9
:100BA000FC204743009813E0681C0ED02DB100F0E4
:100BB00007FAA0EB0800A84207D9A06A40F0040099
:100BC000A06284F824600320A4E70098401C0090F1
:100BD000B842E9D321686FF012000860A06A40F4BF
:100BE0000070A06220688068C0F3424007280CD1E2
:100BF000207B50B9A06A20F48070A062A06AC00473
:100C000003D4A06A40F00100A062002082E7000047
:100C100018000020244992244992240070B504460B
:100C200090F8240001280DD0012084F824002046EB
:100C3000FFF7B4FB02004FF0000005D084F8240059
:100C4000104670BD022070BDA16A40F20123994395
:100C500041F48071A1621F4D23681F49AB4218D136
:100C60000E6816F4702F14D0A66A46F48016A66299
:100C70000E68760505D5A66A26F4005646F4805619
:100C8000A662A66AF6040AD5E66A26F00606E662B9
:100C900006E0A66A26F48016A6625E68E9E7E062CE
:100CA00084F824006FF00200186020688368C3F3A2
:100CB0004243072B05D1A84208D1096811F4702FCF
:100CC00004D0816841F480118160B9E7816841F402
:100CD000A001F9E7002801400424014010B50446B2
:100CE00090F82400012807D0012084F82400204631
:100CF000FFF72EFB10B107E0022010BDA16A21F41E
:100D0000885141F00101A162002184F8241010BD36
:100D100010B590F821100024022903D0042181632A
:100D200001243DE001680A6822F00E020A600168B1
:100D30000A6822F001020A601A4A0168914201D150
:100D4000012121E0174A1432914201D110211BE008
:100D5000144A2832914201D1891515E0114A3C32DA
:100D6000914201D189140FE00E4A5032914202D1D2
:100D70004FF4803108E00B4A6432914202D14FF4C3
:100D8000801101E04FF08071064A083A516001215C
:100D900080F82110002180F82010416B01B18847B4
:100DA000204610BD0800024070B5044600F008F966
:100DB0000546601C02D004480078044400F000F9A5
:100DC000401BA042FAD370BD0C0000202DE9F84F63
:100DD000DFF8B891002409F1040A0AF1040B234654
:100DE0000F270BF1040EC9E00125A5402A40AA42B5
:100DF0007DD1674ED1F804C0ACEB0608B44532D0C3
:100E000014DCBCF1030F3AD009DCBCF1000F2AD08E
:100E1000BCF1010F1CD0BCF1020F31D11DE0BCF1BF
:100E2000110F17D0BCF1120F2AD119E0B8F5881FA5
:100E300019D006DCB8F5803F15D0B8F5801F1FD15A
:100E400011E0B8F5001F0ED0B8F5041F18D10AE064
:100E5000CB6815E0CB681B1D12E0CB6808330FE0B0
:100E6000CB680C330CE08B682BB1012B4FF00803DF
:100E700003D0456104E0042302E0056100E00023A3
:100E8000FF2A01D8064601E000F104064FEA840576
:100E900001D9A5F12005D6F8008007FA05FC28EA5B
:100EA0000C0803FA05F548EA0508C6F800804D6805
:100EB000ED0062D5374DAE6946F00106AE61AD6911
:100EC00024F0030605F001050095334D06EB050CF3
:100ED000DCF80850A607360F07FA06F825EA0805D9
:100EE000DFF8B880404503D14FF0000817E044E038
:100EF000DFF8AC80404502D14FF001080FE0DFF889
:100F0000A480404502D14FF0020808E0DFF8988045
:100F1000404502D14FF0030801E04FF0040808FA01
:100F200006F848EA0508CCF808804D68D9F8006052
:100F3000ED034D4601D5164300E096432E604D6803
:100F4000DAF80060AD03554601D5164300E096433C
:100F50002E604D68DBF80060ED025D4601D516435A
:100F600000E096432E604D68DEF80060AD027546E5
:100F700001D5164300E096432E60641C0D682A4696
:100F8000E5407FF431AFBDE8F88F00000004014078
:100F90000000111000100240000001400008014054
:100FA000000C01400010014000140140806808401E
:100FB00000D0012070470AB1016170470904FBE7C6
:100FC00001488068704700000C00002002488168DA
:100FD00002781144816070470C000020074810B56A
:100FE000016841F010010160032000F075F80F2046
:100FF00000F006F800F024F8002010BD00200240A8
:1010000070B50D4D04464FF47A712878B1FBF0F0BD
:101010000A490968B1FBF0F000F0C6FB48B9102C92
:1010200007D200222146501E00F036F800206C60E6
:1010300070BD012070BD00000C00002018000020D1
:101040000C4808B5816941F001018161816901F0B5
:1010500001010091C16941F08051C161C06900F096
:10106000805000900448416821F0E06141F0007137
:10107000416008BD0010024000000140002809DB6B
:1010800000F01F02012191404009800000F1E020A2
:10109000C0F8001170470000F0B40E4B1B680C46FE
:1010A000C3F30223C3F10705042D00D90425191D3C
:1010B000072901D2002300E0DB1E012606FA05F114
:1010C000491E214099409E40761E16403143F0BC97
:1010D00001F0DABB0CED00E0064900F007020868F9
:1010E0004FF6FF03184040EA0220034A104308600D
:1010F000704700000CED00E00000FA0510B529A4CF
:1011000001461DCC86B08DE81D002AA02A4C00683F
:1011100004900020012923D002293AD010291DD1A2
:1011200061682268D20119D5C1F38342C9031DF851
:10113000020009D5616804AAC1F34041515C1F4A0D
:10114000B2FBF1F1484301E01D494843616849029F
:1011500004D440005FF00301B0FBF1F006B010BD15
:10116000226AC2F30121012903D1920701D5C803E4
:10117000F4E7022905D1626A920702D549F6404098
:10118000ECE70329EAD121688903E7D54FF224402F
:10119000E4E700F033F96168C1F38131491C49008B
:1011A000DAE7000002030405060708090A0B0C0D24
:1011B0000E0F1010010200000010024000127A0011
:1011C00000093D002DE9F84305460078354CC0077D
:1011D00054D0E0690026C00008D4E06940F0805097
:1011E000E061E069012600F0805000902E4801681F
:1011F000C90512D40168804641F480710160FFF78F
:10120000DFFE074605E000BFFFF7DAFEC01B6428DB
:1012100023D8D8F80000C005F6D5206A10F4407035
:1012200021D0A98801F4407181421CD0206A1F4955
:10123000012220F440700A6000220A602062C00788
:1012400011D0FFF7BDFE074641F2883808E000BF25
:10125000FFF7B6FEC11B414502D90320BDE8F88364
:10126000206A8007F4D5206A696820F4407008433A
:1012700020621EB1E06920F08050E061287880078C
:1012800005D56068A96820F440400843606028786C
:10129000C00605D56068E96820F4800008436060F6
:1012A0000020DBE700100240007000404004424292
:1012B0002DE9F0470F46050061D0434E306800F03D
:1012C0000700B84209D2306820F007003843306088
:1012D000306800F00700B84251D128683B4C8107C4
:1012E00012D5400703D5606840F4E060606028785C
:1012F000000703D5606840F4605060606068A968CA
:1013000020F0F000084360602878C00728D06868A3
:10131000012810D02168022810D0890700292EDA70
:10132000616821F0030101436160FFF749FE8046D7
:1013300041F288390DE021688903EFE78901EDE783
:10134000FFF73EFEA0EB0801494502D90320BDE8A6
:10135000F0876068696800F00C00B0EB810FEFD196
:10136000306800F00700B8420BD9306820F0070061
:1013700038433060306800F00700B84201D00120E7
:10138000E5E72878400705D56068E96820F4E06063
:10139000084360602878000706D56068296920F452
:1013A000605040EAC100606000F038F86168084AA7
:1013B000C1F30311515CC840064908600648006843
:1013C000FFF71EFE0020C2E700200240001002408E
:1013D000383000081800002010000020044805499B
:1013E00000684968044AC1F30221515CC840704753
:1013F0001800002000100240483000080448054949
:1014000000684968044AC1F3C221515CC840704772
:1014100018000020001002404830000812A185B0DA
:101420000FC98DE80F0014A0144A00680490516899
:10143000134801F00C03042B10D0082B0ED1C1F37C
:101440008343C9031DF803000AD5516804AAC1F3F8
:101450004041515C0A4A5043B0FBF1F005B070477F
:1014600008494843FAE70000020304050607080993
:101470000A0B0C0D0E0F10100102000000100240AC
:1014800000127A0000093D002DE9F84F040070D0E9
:101490002078C04DC00749D06868C0F3810001289A
:1014A00007D06868C0F38100022809D16868C003CA
:1014B00006D52868800339D560680028E7D035E074
:1014C0006068B0F5803F0BD010B1B0F5A02F11D0FF
:1014D000286820F480302860286820F4802002E00A
:1014E000286840F480302860606890B1FFF768FD9C
:1014F00006460AE0286840F480202860F0E700BF34
:10150000FFF75EFD801B642873D828688003F7D539
:101510000CE0FFF755FD064605E000BFFFF750FD64
:10152000801B6428F0D828688003F7D420789A4E6E
:1015300080074FF001094FF0000839D5686810F0B6
:101540000C0F07D06868C0F38100022809D16868D1
:10155000C00306D42868800714D52069012808D163
:1015600010E02069B0B1C6F80090FFF729FD0746EA
:1015700005E00AE1FFF724FDC01B0228C4D8286853
:101580008007F7D52868616920F0F80040EAC100BB
:1015900028600DE0C6F80080FFF712FD074604E062
:1015A000FFF70EFDC01B022823D828688007F7D458
:1015B000207800072CD57948A169D9B1C0F80090EE
:1015C000FFF7FEFC074604E0FFF7FAFCC01B022809
:1015D0000FD8686A8007F7D571484FF4FA51006850
:1015E000B0FBF1F0009000BF0098411E0091FAD2CC
:1015F0000EE080E0C0F80080FFF7E2FC074604E060
:10160000FFF7DEFCC01B022875D8686A8007F7D494
:101610002078400760D5E8690027C00008D4E86951
:1016200040F08050E861E869012700F080500090A8
:101630005C480168C90513D40168834641F4807190
:101640000160FFF7BDFC824606E000BFFFF7B8FC73
:10165000A0EB0A0064284ED8DBF80000C005F5D5E1
:10166000E06801280AD008B1052813D0286A20F0C4
:1016700001002862286A20F0040002E0286A40F095
:1016800001002862E06841F2883B98B1FFF798FCBE
:1016900082460BE0286A40F004002862EEE700BFB3
:1016A000FFF78EFCA0EB0A0159455AD8286A80073B
:1016B000F6D50CE0FFF784FC824605E0FFF780FCDE
:1016C000A0EB0A0159454CD8286A8007F6D41FB10F
:1016D000E86920F08050E861E06988B36968C1F387
:1016E0008101022944D00228C6F8608004D0FFF7A7
:1016F00067FC044638E034E0FFF762FC074604E08C
:10170000FFF75EFCC01B02282BD828688001F7D4A5
:10171000206AB0F5803F05D16868A16820F40030E8
:1017200008436860D4E908010843696821F474112A
:1017300008436860C6F86090FFF742FC044606E084
:1017400025E000BFFFF73CFC001B022809D82868F1
:101750008001F7D51BE000BFFFF732FC001B022819
:1017600002D90320BDE8F88F28688001F4D40EE088
:101770000128F7D06868226A00F48031914204D1D0
:10178000616A00F47010884201D00120EAE700206D
:10179000E8E700000010024000004242800442429C
:1017A000180000200070004010B5401EB0F1807F8E
:1017B00001D3012010BD4FF0E02460610F216017BC
:1017C00001F062F80020A06107202061002010BD18
:1017D0007047000070B5026804461068D16853690C
:1017E00010F00F0F50D003F0010501F4907635434F
:1017F0005DD0C20705D0CA0503D5E26B42F00102F5
:10180000E263420705D5DA0703D0E26B42F0020239
:10181000E263820705D5DA0703D0E26B42F00402E7
:10182000E263020705D5DA0703D0E26B42F0080253
:10183000E263E26B002A33D0800604D5880602D525
:10184000204600F083FE20684069E16BC0F3801001
:10185000090700D428B3204600F06AFE20684169D9
:1018600049061AD5416921F040014161606BA0B180
:101870001B494163606BFFF74BFA002810D0606B87
:10188000416BBDE870400847830610D58B060ED526
:101890002046BDE8704000F059BE2046FFF798FF93
:1018A00070BD2046FFF794FF0020E06370BD030683
:1018B00006D50B0604D52046BDE8704000F0EEBE0C
:1018C0004006F3D54806F1D5D168204621F0400105
:1018D000D160202184F8391000F047F970BD000074
:1018E0002125000870B5040004D094F839000025C3
:1018F00010B106E0012070BD84F83850204600F099
:1019000023F8242084F839002068C16821F40051AC
:10191000C160204600F066FE2068016921F4904114
:1019200001612068416921F02A0141612068C16894
:1019300041F40051C160E563202084F8390084F847
:101940003A00002070BD000030B585B0002400943E
:10195000019402940394324D036832480221032219
:10196000AB422ED1836943F480438361836903F4DE
:1019700080430493836943F00803836180692A4D9F
:1019800000F0080004904020CDE900010392694670
:101990002846FFF71BFA8020CDE900046946284657
:1019A0000294FFF713FA2148416841F0E06141F0E9
:1019B00004014160002211462520FFF76DFB252020
:1019C00029E01B4DAB4228D1C36943F40033C36106
:1019D000C36903F400330493836943F00403836110
:1019E0008069144D00F0040004900420CDE900014A
:1019F000039269462846FFF7E9F90820CDE900047B
:101A0000694628460294FFF7E1F900221146262094
:101A1000FFF742FB2620FFF731FB05B030BD000089
:101A20000038014000100240000C0140000001405D
:101A3000004400400008014090F83A30202B22D1A9
:101A4000F9B1F2B190F83830012B1CD08162828557
:101A5000C2850021C163222280F83A2080F8381024
:101A60000168CA6842F48072CA6001684A6942F03B
:101A700001024A610068C16841F02001C160002094
:101A80007047012070470220704700000549064B4F
:101A900048780A781A54401C487001220348FFF71E
:101AA000CBBF00001C000020E8000020A8000020A0
:101AB0002DE9F843044690F839001F4616460D46B6
:101AC000202850D1A5B19EB194F8380001284AD001
:101AD000012084F838004FF00008C4F83C80212031
:101AE00084F83900FFF76CFAA6848146E68426E084
:101AF0000120BDE8F883E08C401EE084A0684B46DE
:101B0000B0F5805F4FF000024FF080012046009753
:101B100003D000F0F4FDE8B90DE000F0F0FDC8B925
:101B200028882168C0F308004860206908B16D1C4E
:101B300005E0AD1C03E0216815F8010B4860E08C5E
:101B40000028D8D14B46002240212046009700F0C3
:101B5000D6FD08B10320CCE7202084F8390084F8B2
:101B600038800020C5E70220C3E77047FEE7032066
:101B7000401EC0B2FCD270473EB50021174800910C
:101B80000191154A0291026092158260017301244D
:101B90000475022505614FF460224160C0E90642E8
:101BA000FEF7EAFE08B1FEF7FEFD0620CDE90004CF
:101BB0000724694609480294FEF75CFE08B1FEF767
:101BC000F2FD69460548CDE90045FEF753FE0028C1
:101BD00001D0FEF7E8FD3EBD0024014038000020A2
:101BE0002DE9F04786B0002634480096019602960B
:101BF0000396816941F010018161816901F0100152
:101C00000491816941F020018161816901F0200125
:101C10000491816941F004018161816901F004014D
:101C20000491816941F0080181618069DFF8908049
:101C300000F008004FF46044049000222146404622
:101C4000FFF7B9F9DFF87C90002240F611714846A1
:101C5000FFF7B1F9DFF870A049F2380700223946E2
:101C60005046FFF7A8F90094012403256946404631
:101C70000194CDE90245FFF7A9F80094694648466A
:101C80000194CDE90245FFF7A1F84FF47160039587
:101C90008DE8510069464846FFF798F8009703958C
:101CA000CDE9014669465046FFF790F801221146FA
:101CB0004846FFF780F906B0BDE8F0870010024003
:101CC0000010014000080140000C01400C4810B514
:101CD0000A4901604FF4E1314160002181600C222A
:101CE000C160C0E904128161C161FFF7FBFD0028FA
:101CF00003D0BDE81040FEF756BD10BD00380140CE
:101D0000680000200C4810B50A4901604FF41651D4
:101D10004160002181600C22C160C0E90412816130
:101D2000C161FFF7DFFD002803D0BDE81040FEF7DA
:101D30003ABD10BD00440040A8000020FEE7FEE7C9
:101D400030B40021084B0A465FF0000003EBC004EA
:101D5000401CC0B262548028F8D3491CC9B208297B
:101D6000F2D330BC00F0E2B95C01002030B5CC0801
:101D700001F0070301259D40EBB2064D05EBC005C0
:101D8000C808285C0AB1184302E063EA0000C043B7
:101D9000285530BD5C01002070B501220E4DD403E2
:101DA00021462846FFF707F9012216033146284647
:101DB000FFF701F9FFF7DBFE002221462846FFF777
:101DC000FAF8FFF7D4FE002231462846FFF7F3F871
:101DD000BDE87040FFF7CBBE000C014070B50B4D65
:101DE0004FF40044002221462846FFF7E4F8012280
:101DF00011032846FFF7DFF8FFF7B9FE2146284612
:101E0000BDE870400122FFF7D6B80000000C014089
:101E100070B50C4C0122D1032046FFF7CCF8FFF738
:101E2000A6FE0122150329462046FFF7C4F8FFF756
:101E30009EFE002229462046FFF7BDF8BDE870400F
:101E4000FFF795BE000C014010B5C820FEF7ACFFAF
:101E50000021AE2000F0E5FA0021084600F0E1FA8A
:101E60000021102000F0DDFA0021402000F0D9FA16
:101E70000021812000F0D5FA0021CF2000F0D1FA16
:101E80000021A12000F0CDFA0021C82000F0C9FAFD
:101E90000021A62000F0C5FA0021A82000F0C1FA18
:101EA00000213F2000F0BDFA0021D32000F0B9FA54
:101EB0000021084600F0B5FA0021D52000F0B1FA63
:101EC0000021802000F0ADFA0021D92000F0A9FA0D
:101ED0000021F12000F0A5FA0021DA2000F0A1FA9B
:101EE0000021122000F09DFA0021DB2000F099FA79
:101EF0000021302000F095FA0021202000F091FA16
:101F00000021022000F08DFA00218D2000F089FAD6
:101F10000021142000F085FAFFF712FF0021BDE830
:101F20001040AF2000F07DBA0246012000E050438F
:101F3000491EC9B2FBD270472DE9FC410124102390
:101F4000072200211846009400F0C4F9102308224B
:101F500000212020009400F0BDF910230922002167
:101F60003020009400F0B6F910230A22002140200E
:101F7000009400F0AFF910230B22002150200094B0
:101F800000F0A8F910230C2200216020009400F03A
:101F9000A1F91025624ECDE9005432880423294668
:101FA000182000F005FA10235F221946382000940B
:101FB00000F01AF9CDE90054B27802231021402034
:101FC00000F0F6F910235F2219465020009400F02B
:101FD0000BF9CDE90054F27802231021582000F0CB
:101FE000E7F9DFF840814FF0100398F80300009400
:101FF00000287DD013221021002000F06BF94A4FF9
:10200000CDE900540223202100203A6800F0D0F9E5
:1020100010232E2220211846009400F0E5F8CDE987
:1020200000540223202118207A6800F0C1F9CDE97C
:1020300000547279022320212D2000F0B9F91023D9
:102040003A2220213D20009400F0CEF8CDE9005442
:10205000B27902232021432000F0AAF9CDE90054EF
:10206000022320215920BA6800F0A2F910232E2261
:1020700020216920009400F0B7F8CDE90054022334
:1020800020217120FA6800F093F9102302223021F8
:102090000020009400F01EF910230322302118467E
:1020A000009400F017F910233A22302120200094E8
:1020B00000F09AF898F8000045464FF0100300949D
:1020C00010B306223021282000F004F91023052245
:1020D00030213820009400F0FDF8A8784FF010036C
:1020E000009498B111223021582000F0F3F800E05C
:1020F00008E01023122200943021682000F0EAF852
:10210000BDE8FC81142276E70422DBE70F223021B0
:10211000582000F0DFF810231A460094ECE7000086
:1021200030000020000000204C01002070B5184E47
:10213000002400BF04F1B000C0B2002100F071F92A
:102140000021084600F06DF90021102000F069F927
:10215000FFF722FE782000F01DF8FFF759FE40201F
:1021600000F018F8FFF754FE5FF0000506EBC5001D
:10217000005D00F00FF8FFF74BFE6D1CEDB2802DF7
:10218000F4D3FFF72BFE641CE4B2082CD2D370BD4D
:102190005C0100202DE9F041124F002405464FF468
:1021A0000048BE14280601D5012200E00022414665
:1021B0003846FEF700FFFFF7DAFC012231463846C9
:1021C000FEF7F9FEFFF7D3FC002231463846FEF752
:1021D000F2FE6806641C050EE4B2082CE2D3BDE8EA
:1021E000F0810000000C01402DE9FC5F1C460E460A
:1021F00082468B460190082B0DD0600700D001204D
:1022000000EBD40061084843C0B28146203AD0B206
:10221000009000204BE00620F7E7082C13D00C2C90
:1022200018D0102C1BD0182C4AD10098254900EB4F
:10223000C00000BF01EB8001002711F80850E8073B
:1022400012D00C9A13E000981F4900EB400001EBFC
:102250004001F1E700981D4900EB4000EAE71C4906
:10226000009801EB0011E7E70C9838B300223146E3
:102270005046FFF77BFD761C7F1C6D08FFB2F6B25F
:10228000082FDCD30AF1010000F0FF0A082C0AD065
:102290000199AAEB0100B0EB540F04D10BF1080037
:1022A0008A4600F0FF0B08F101005E46C0B280468E
:1022B0004845B2D3BDE8FC5FFFF738BF0122D6E73F
:1022C000BDE8FC9FDC3C0008503000087832000874
:1022D000EC3600082DE9FF4F81B08146009098460A
:1022E0000E468B46580701D0012100E0002101EB8A
:1022F000D80000FB08FA002449E000BFB8F1100F35
:1023000012D0B8F1180F14D0B8F1200F19D0B8F1CD
:10231000400F45D12449039801EB40200027055D7B
:10232000E80714D00E9A15E02049039801EB4010FD
:10233000F4E703981C4900EBC000C83901EBC0006A
:10234000ECE719490398803901EBC010E6E70E98D5
:1023500020B3002231464846FFF708FD761C7F1C5B
:102360006D08FFB2F6B2082FDAD309F10100009927
:1023700000F0FF09A9EB0101414505D10BF108006F
:10238000DDF8009000F0FF0B641C5E46A4B25445DB
:10239000B4D305B0BDE8F04FFFF7C8BE0122D9E7BE
:1023A00005B0BDE8F08F0000A04D0008384A0008D5
:1023B0002DE9F84F0025DDE90A691F4692468B4654
:1023C0008046082E00D1022500241CE0381B401E48
:1023D000C1B20A20FFF7A8FDBAFBF0F00A21B0FB5A
:1023E000F1F201FB1200CDF8009090B13030C2B292
:1023F00005EB560101FB0480C0B233465946FFF796
:10240000F3FE641CE4B2BC42E0D3BDE8F84FFFF732
:102410008DBE05EB560101FB0480C0B2334630226D
:10242000ECE770B50C460546FFF7B6FC7820FFF7E1
:10243000B1FEFFF7EDFC0CB1402000E00020FFF7FB
:10244000A9FEFFF7E5FC2846FFF7A4FEFFF7E0FC36
:10245000BDE87040FFF7C2BC70477047FEF7B6BDDD
:1024600030B593B028216846FDF7CDFE14210AA8A7
:10247000FDF7C9FE002501200F9510951195010467
:1024800012958DE8230004904FF4E010CDE9081078
:10249000022407946846FEF7F7FF08B172B6FEE71C
:1024A0000AA90F2081E831004FF48060CDE90D05C5
:1024B00002210AA8FEF7FCFE08B172B6FEE74FF44F
:1024C000004011900F940FA8FEF77CFE002801D069
:1024D00072B6FEE713B030BD0D48016841F001014E
:1024E000016041680B4A1140416001680A4A11408D
:1024F0000160016821F480210160416821F4FE013E
:1025000041604FF41F0181600449C00308607047B7
:10251000001002400000FFF8FFFFF6FE08ED00E0AB
:1025200010B5406A0021C185C184FFF751F910BD83
:102530000168CA6822F49072CA6001684A6922F090
:1025400001024A61202180F83A10704710B590F8D6
:102550003A10222901D0022010BD8168B1F5805FB8
:1025600011D00169002901681FD0496801F07F037B
:10257000816A4A1C82620B70C18D491E0904090CD4
:10258000C18518D02BE00269816A002A026852686E
:1025900005D0D2B20A80816A491C8162ECE7C2F39D
:1025A00008020A80816A891CF7E74A68816A4B1C25
:1025B00083620A70E0E70168CA6822F02002CA60FC
:1025C0000168CA6822F48072CA6001684A6922F010
:1025D00001024A61202180F83A10FFF757FA0020E3
:1025E00010BD00002DE9F041044600680169E26871
:1025F00021F44051114301612169A06808436169D8
:1026000008432168CA6841F20C639A430243CA60D6
:1026100020684169A26921F44071114341611E495A
:10262000206864253226884202D1FEF7E7FE01E0E9
:10263000FEF7D4FE00EBC00101EB001160686FF003
:1026400018078000B1FBF0F2B2FBF5F2B1FBF0F33A
:102650007A4303EB8202B1FBF0F306EB0212B2FB0A
:10266000F5F2B3FBF5F302F0F00202EB0312B1FB5B
:10267000F0F3B1FBF0F0B0FBF5F0784303EB800032
:1026800006EB0010B0FBF5F0216800F00F001044DD
:102690008860BDE8F08100000038014090F83910F2
:1026A000212901D0022070478168B1F5805F016A5D
:1026B0000BD04A1C0262026809785160C18C491E25
:1026C0000904090CC1840ED017E009880268C1F31F
:1026D0000801516001690029016A02D0491C0162A8
:1026E000ECE7891CFBE70168CA6822F08002CA6037
:1026F0000068C16841F04001C160002070472DE9C9
:10270000F041984617460E460446069D1DE0681C9B
:102710001BD02DB1FEF754FCA0EB0800A84214D941
:102720002068C16821F4D071C1602068416921F03E
:1027300001014161202084F8390084F83A0000202A
:1027400084F838000320BDE8F0812068006836EA8C
:10275000000004D00020B842D9D00020F3E70120C7
:10276000F9E700000148FFF735B8000068000020D5
:102770000148FFF72FB80000A8000020FEE7000086
:102780002DE9F0473F4D4FF4FA744FF480766F1502
:102790004FF480684FF400695BE00122314628461F
:1027A000FEF709FC002239462846FEF704FC002209
:1027B00041462846FEF7FFFB002249462846FEF721
:1027C000FAFB0220FEF7F0FA002231462846FEF717
:1027D000F2FB012239462846FEF7EDFB0022414676
:1027E0002846FEF7E8FB002249462846FEF7E3FBB1
:1027F0000220FEF7D9FA002231462846FEF7DBFB1D
:10280000002239462846FEF7D6FB012241462846DB
:10281000FEF7D1FB002249462846FEF7CCFB0220FA
:10282000FEF7C2FA002231462846FEF7C4FB00221A
:1028300039462846FEF7BFFB002241462846FEF7F0
:10284000BAFB012249462846FEF7B5FB0220FEF7F7
:10285000ABFA641EA1D2002231462846FEF7ABFB3C
:10286000002239462846FEF7A6FB002241462846AC
:10287000FEF7A1FB49462846BDE8F0470022FEF7D7
:102880009ABB0000000801400907090E002804DB7C
:1028900000F1E02080F80014704700F00F0000F114
:1028A000E02080F8141D70472DE9F0411248FDF733
:1028B0007DFF124E124D00246FF00B070E48FEF7FD
:1028C000ADF932210C48FEF711F90B48FEF750F82C
:1028D00000F062FA314600F073FA394600F06EFB00
:1028E00045F82400641CE4B2022CE7D3BDE8F041B3
:1028F0000148FEF7F3B9000038000020333353409D
:102900000400002018B503460C48007810B9FDF704
:102910002BFF68B10A4841680A4A0B4C1268B2FBA7
:10292000F4F25A4343685B1A9342FBD318BD401C30
:102930000090B0EBC30FFAD318BD000020000020B8
:10294000001000E01800002040420F0000B585B0E4
:1029500000200190029003900848816941F008012D
:1029600081618069694600F00800049010200090A1
:102970000348FEF72BFA05B000BD0000001002402E
:10298000000C014010B586B0002002900D4881690E
:1029900041F00801816180690B4C00F0080004904F
:1029A00010200090012001900320039069462046EA
:1029B000FEF70CFA002221152046FEF7FCFA06B0BD
:1029C00010BD000000100240000C014070B5002155
:1029D0008E2000F04BF9314D0A242878B0FBF4F139
:1029E00004FB1101B0FBF4F001EB0010C1B28C202C
:1029F00000F03CF96878B0FBF4F104FB1101B0FB86
:102A0000F4F001EB0010C1B2882000F02FF9A87893
:102A1000B0FBF4F104FB1101B0FBF4F001EB00108A
:102A2000C1B2862000F022F9E878B0FBF4F104FB93
:102A30001101B0FBF4F001EB0010C1B2842000F0F2
:102A400015F92879B0FBF4F104FB1101B0FBF4F0A7
:102A500001EB0010C1B2822000F008F96879B0FBE8
:102A6000F4F104FB1101B0FBF4F001EB0010C1B272
:102A7000802000F0FBF8A879B0FBF4F104FB110111
:102A8000B0FBF4F001EB0010C1B28A2000F0EEF8C8
:102A9000BDE8704080218E2000F0E8B821000020C1
:102AA00010B500218E2000F0E1F83721802000F0E1
:102AB000DDF85821822000F0D9F82321842000F08D
:102AC000D5F83021862000F0D1F80921882000F0C7
:102AD000CDF807218A2000F0C9F820218C2000F0D1
:102AE000C5F880218E2000F0C1F8BDE81040FFF746
:102AF0006DBF000010B500F097F81F48017801F095
:102B00000F02090901EB810102EB410200F108010A
:102B10008A71427802F00F03C2F3021202EB8202C2
:102B200003EB42024A71827802F00F03120902EBB2
:102B3000820203EB42020A71C27802F00F0312090B
:102B400002EB820203EB4202CA70027902F00F0329
:102B5000120902EB820203EB42028A704279CA71C7
:102B6000807900F00F02000900EB800002EB4000CA
:102B700000F5FA60088010BD280000202DE9F04122
:102B80000025284F06462C462A4620213846FEF7C7
:102B900012FA002208213846FEF70DFA0320FFF74B
:102BA000B1FE012220213846FEF705FA0320FFF787
:102BB000A9FE304600F08AF8FFF7C8FE0220FFF7B2
:102BC000A1FE3E460220FFF79DFE64080122082177
:102BD0003046FEF7F0F90420FFF794FE00220821AA
:102BE0003046FEF7E8F90E20FFF78CFE1021304644
:102BF000FEF7DCF908B144F080046D1CEDB2082D3D
:102C0000E0D30220FFF77EFE002220213046FEF7AF
:102C1000D2F9002210213046FEF7CDF92046BDE85A
:102C2000F0810000000C014010B58120FFF7A6FFE5
:102C30000D4C20708320FFF7A1FF60708520FFF707
:102C40009DFFA0708720FFF799FFE0708920FFF7B4
:102C500095FF20718B20FFF791FF60718D20FFF7AA
:102C60008DFFA07110BD00002800002070B5164E29
:102C700004460D46002220213046FEF79CF9002232
:102C800008213046FEF797F90120FFF73BFE0122AD
:102C900020213046FEF78FF90220FFF733FE204651
:102CA00000F014F8284600F011F8002220213046E8
:102CB000FEF781F9002208213046FEF77CF9BDE8D5
:102CC00070400220FFF71EBE000C014070B50546A3
:102CD000FFF758FE0F4E0024224608213046FEF72B
:102CE0006AF9002208213046FEF765F9E80701D0AD
:102CF000012200E0002210213046FEF75CF901229B
:102D000008213046FEF757F9641C6D08E4B2082C20
:102D1000E7D370BD000C01400B49087808B10120D1
:102D200070470A48026842F08072026008480268F0
:102D300042F00102026000224260406808B10020B7
:102D4000704701200870EAE71E000020FCED00E05B
:102D5000001000E0FEF742F9FFF782FBFEF740FFAC
:102D6000FEF70AFFFEF7B2FFFEF7CCFFFDF7E0FB30
:102D7000FFF796FEFFF768F8FEF7E2FFFDF7F9FBB5
:102D8000FFF7DAF8FDF742FBF8E70000014800F032
:102D9000E3B800BF0000C07FB0FA80F310FA03F27E
:102DA000C3F19D030AD0D90501EB1220530638BFA9
:102DB000704700F1010008BF20F0010070470000DB
:102DC0004FF47F0C1CEAD0121EBF1CEAD11392EA0A
:102DD0000C0F93EA0C0F00F0478090EA010F48BFF8
:102DE00042F480724FF0004C4CEA00204CEA012182
:102DF00002EB0302A0FB0113A2F50002002918BF99
:102E000043F001035B0028BF4FEA330342EB224249
:102E10005FEA132C4CEBC2502EBFBCEB436FB2F5F4
:102E20007C0F70474FEA036CBCF1004F08BF20F0E5
:102E30000100B2F57C0F38BF70470BD582F0FF025E
:102E400012F5803FC8BF704700F1C040D8BF00F006
:102E50000040704700F5000C5FEA4C0C48BF70471B
:102E6000B0F1C04000F073B890EA010F0CEAD11342
:102E700048BF42F48072624538BF634504D280EA9D
:102E8000010000F00040704710B500F01AF800BFD4
:102E90008900013E00F007B800F009B85FEA410C74
:102EA0005FEA1C6C08D080EA010000F050B85FEACD
:102EB000400C5FEA1C6CF6D14FF00040A0F580009A
:102EC00070470EF1020E2EF0030E5EF8044B244202
:102ED00004D44FEA4102B2F17F4F11D84FEA4003C8
:102EE000B3F17F4F0CD80ED14FEAD07CB2F17F4FB7
:102EF0000CEB4C0C0CF1020C08BF4CEBD17C04E049
:102F00004FF0080C01E04FEAD17C0CEB4C0324FAA3
:102F100003F404F00704B4F1040C06D20EEB840CA5
:102F2000BDE810404CF0010C6047DFE80CF00708EA
:102F300002024FF00040A0F5800010BD084642009C
:102F400018BFD2F1807288BF00F0004010BDFF2191
:102F500041EAD050C00570470CF00F03092B08BFA1
:102F6000082000F051800A2B0BD0082B18BF7047A7
:102F700008BF1CF0400F0AD04FF000004FF00001D6
:102F800070471CF0400F18BF4FF0004070471CF016
:102F9000100F08D020F0704300F07F4242EAD301C6
:102FA0004FEA4370704700F0604021F07F4242EAF0
:102FB000000201F07F4040EA727070474FF0FF025C
:102FC00012EAD0521CBF92F0FF038B42C2BFD14223
:102FD00000EBC1507047002A0AD0002B0BD000290B
:102FE00000F00040A4BF40F0FE4040F400007047F5
:102FF00000F00040704743024FF00B0C18BF4CF03C
:10300000806C7FF4C3AE70471CF4801F11D01CF499
:10301000E02F03D06FEACC31490070474FF04050A9
:10302000EFF3008222F0704242EA000282F300884D
:1030300070474FF0000070470000000000000000E3
:10304000010203040607080900000000010203044E
:103050000000000000000000002F0000000007003A
:10306000070000147F147F1400242A7F2A120062B4
:103070006408132300364955225000000503000060
:1030800000001C224100000041221C000014083EE8
:1030900008140008083E0808000000A060000008AE
:1030A0000808080800006060000000201008040202
:1030B000003E5149453E0000427F400000426151C0
:1030C0004946002141454B31001814127F1000275A
:1030D00045454539003C4A4949300001710905031D
:1030E00000364949493600064949291E000036364E
:1030F00000000000563600000008142241000014B1
:10310000141414140000412214080002015109068D
:1031100000324959513E007C1211127C007F49490E
:103120004936003E41414122007F4141221C007F3F
:1031300049494941007F09090901003E4149497A4D
:10314000007F0808087F0000417F410000204041C7
:103150003F01007F08142241007F40404040007F33
:10316000020C027F007F0408107F003E4141413E77
:10317000007F09090906003E4151215E007F0919BF
:1031800029460046494949310001017F0101003FBC
:103190004040403F001F2040201F003F4038403F3C
:1031A00000631408146300070870080700615149A0
:1031B000454300007F41410000552A552A55000033
:1031C00041417F00000402010204004040404040B1
:1031D000000001020400002054545478007F484449
:1031E000443800384444442000384444487F003880
:1031F0005454541800087E0901020018A4A4A47CA9
:10320000007F080404780000447D40000040808472
:103210007D00007F102844000000417F4000007CBA
:1032200004180478007C08040478003844444438C6
:1032300000FC242424180018242418FC007C080412
:10324000040800485454542000043F444020003CEB
:103250004040207C001C2040201C003C4030403C72
:10326000004428102844001CA0A0A07C0044645402
:103270004C44141414141414000000000000000046
:10328000000000000000FC00000000000200000040
:10329000000C020C020000000000000090D0BCD026
:1032A000BC900003000300001824FE448C000302BD
:1032B000070201001824D8B04C800003000102016D
:1032C000C038E438E00001020201020208060000F2
:1032D0000000000000000000000000F804020000F0
:1032E00000010204000204F80000000402010000D2
:1032F0009060F86090000000010000002020FC2099
:10330000200000000100000000000000000008068E
:10331000000000002020202020000000000000000D
:103320000000000000000002000000000080601C9F
:103330000200040300000000F8040404F800010285
:10334000020201000008FC0000000002030200006D
:1033500018844424180003020202020008042424F2
:10336000D80001020202010040B088FC8000000089
:10337000000302003C242424C400010202020100D4
:10338000F824242CC0000102020201000C04E41CF9
:103390000400000003000000D8242424D800010207
:1033A0000202010038444444F80000030202010014
:1033B00000001000000000000200000000002000DB
:1033C00000000000060000000020508804020000F9
:1033D000000001029090909090000000000000001A
:1033E0000002048850200002010000001804C424D8
:1033F0001800000002000000F804E494F800010244
:103400000202020000E09CF08000020300000302C0
:1034100004FC2424D800020302020100F80404047E
:103420000C0001020202010004FC0404F800020383
:103430000202010004FC24740C00020302020300D7
:1034400004FC24740C00020302000000F008044491
:10345000CC4000010202010004FC2020FC04020315
:10346000000003020404FC04040002020302020040
:10347000000404FC040406040403000004FC24D03B
:103480000C0402030200030204FC04000000020317
:1034900002020203FC3CC03CFC00030003000300EA
:1034A00004FC30C4FC04020302000300F80404041A
:1034B000F80001020202010004FC242418000203A7
:1034C00002000000F8848404F800010202070500ED
:1034D00004FC24649800020302000302182424441C
:1034E0008C000302020201000C04FC040C00000228
:1034F0000302000004FC0000FC04000102020100C1
:10350000047C80E01C040000030000001CE03CE0A0
:103510001C00000300030000049C609C04000203E4
:1035200000030200041CE01C04000002030200006F
:103530000C84641C04000203020203000000FE026B
:103540000200000007040400000E30C0000000006C
:1035500000010200000202FE000000040407000057
:103560000004020400000000000000000000000051
:103570000000080808080808000002000000000019
:10358000000000000040A0A0C000000102020302F1
:1035900004FC2020C00000030202010000C0202023
:1035A000600000010202020000C02024FC000001B3
:1035B0000202030200C0A0A0C0000001020202003B
:1035C0000020F82424040002030202000040A0A00E
:1035D000602000070A0A0A0404FC2020C00002033D
:1035E000020003020020E4000000000203020000C9
:1035F000000020E4000008080807000004FC80E048
:1036000020200203020003020404FC000000020266
:1036100003020200E020E020C000030003000300DA
:1036200020E02020C00002030200030200C020208E
:10363000C00000010202010020E02020C000080FAD
:103640000A02010000C02020E0000001020A0F0869
:1036500020E0402020000203020000000060A0A043
:1036600020000002020203000020F82000000000F9
:103670000102020020E00020E0000001020203023B
:1036800020E0208060200000030100006080E080D6
:10369000600000030003000020608060200002033F
:1036A0000003020020E020806020080807010000DD
:1036B0000020A0602000000203020200000020DEC3
:1036C0000200000000070400000000FF00000000EE
:1036D000000F00000002DE200000000407000000D0
:1036E00002010204040200000000000000000000CB
:1036F000000000000000000000000000000000F8D2
:1037000000000000000000333000000000100C0634
:10371000100C0600000000000000000040C07840CF
:10372000C0784000043F04043F040400007088FC9B
:1037300008300000001820FF211E0000F008F000F3
:10374000E018000000211C031E211E0000F0088864
:10375000700000001E2123241927211010160E00CE
:10376000000000000000000000000000000000E079
:10377000180402000000000718204000000204188E
:10378000E00000000040201807000000404080F0EA
:10379000804040000202010F01020200000000F020
:1037A000000000000101011F0101010000000000F4
:1037B0000000000080B07000000000000000000069
:1037C00000000000000101010101010100000000F2
:1037D0000000000000303000000000000000000089
:1037E00080601804006018060100000000E0100866
:1037F0000810E000000F102020100F00001010F83B
:10380000000000000020203F202000000070080879
:1038100008887000003028242221300000300888F9
:10382000884830000018202020110E000000C02021
:1038300010F8000000070424243F240000F8088842
:10384000880808000019212020110E0000E01088CF
:1038500088180000000F112020110E000038080801
:10386000C83808000000003F000000000070880811
:1038700008887000001C222121221C0000E0100892
:103880000810E0000000312222110F00000000C0EB
:10389000C000000000000030300000000000008088
:1038A0000000000000008060000000000000804078
:1038B0002010080000010204081020004040404091
:1038C00040404000040404040404040000081020E4
:1038D0004080000000201008040201000070480829
:1038E0000808F0000000003036010000C030C82891
:1038F000E810E0000718272423140B000000C0384C
:10390000E0000000203C23020227382008F88888C5
:1039100088700000203F202020110E00C0300808D1
:1039200008083800071820202010080008F80808A8
:103930000810E000203F202020100F0008F88888A1
:10394000E8081000203F20202320180008F888886D
:10395000E8081000203F200003000000C0300808E5
:103960000838000007182020221E020008F808006E
:103970000008F808203F210101213F20000808F835
:10398000080800000020203F202000000000080858
:10399000F8080800C08080807F00000008F888C018
:1039A00028180800203F20012638200008F80800C9
:1039B00000000000203F20202020300008F8F80000
:1039C000F8F80800203F003F003F200008F830C012
:1039D0000008F808203F200007183F00E010080802
:1039E0000810E0000F10202020100F0008F8080831
:1039F0000808F000203F210101010000E010080844
:103A00000810E0000F18242438504F0008F8888868
:103A100088887000203F2000030C30200070880848
:103A2000080838000038202121221C00180808F856
:103A3000080818000000203F2000000008F80800D7
:103A40000008F808001F202020201F0008788800A8
:103A500000C83808000007380E010000F80800F818
:103A60000008F800033C0700073C030008186880C2
:103A70008068180820302C03032C30200838C80038
:103A8000C83808000000203F200000001008080887
:103A9000C83808002038262120201800000000FE29
:103AA000020202000000007F40404000000C30C0D5
:103AB00000000000000000010638C0000002020201
:103AC000FE000000004040407F00000000000402B3
:103AD00002020400000000000000000000000000DE
:103AE00000000000808080808080808000020204CE
:103AF00000000000000000000000000000008080C6
:103B0000808000000019242222223F2008F8008033
:103B100080000000003F112020110E0000000080F6
:103B200080800000000E1120202011000000008085
:103B30008088F800000E112020103F2000008080B7
:103B400080800000001F222222221300008080F0CB
:103B5000888888180020203F2020000000008080F6
:103B600080808000006B94949493600008F800803B
:103B700080800000203F210000203F200080989896
:103B8000000000000020203F2020000000000080F6
:103B90009898000000C08080807F000008F8000036
:103BA00080808000203F24022D302000000808F88B
:103BB000000000000020203F202000008080808046
:103BC00080808000203F20003F20003F80800080D8
:103BD00080800000203F210000203F2000008080E6
:103BE00080800000001F202020201F008080008097
:103BF0008000000080FFA12020110E000000008046
:103C000080808000000E112020A0FF808080800036
:103C10008080800020203F21200001000000808063
:103C2000808080000033242424241900008080E058
:103C3000808000000000001F202000008080000025
:103C400000808000001F202020103F208080800006
:103C50000080808000010E30080601008080008016
:103C6000008080800F300C030C300F00008080003B
:103C7000808080000020312E0E3120008080800066
:103C80000080808080818E70180601000080808016
:103C9000808080000021302C2221300000000000B4
:103CA000807C020200000000003F40400000000055
:103CB000FF00000000000000FF0000000002027C86
:103CC000800000000040403F0000000000060101AD
:103CD00002020404000000000000000000000000D8
:103CE00000000000000000000000000000000000D4
:103CF00000000000000000000000000000000000C4
:103D00000000000000F0F0F00000000000000000E3
:103D100000017F010000000000000000001C1C1CCE
:103D20000000000000008060301C8C60301C0C0023
:103D30000000000000000000000000000000000083
:103D40000000000000000000000000E00000000093
:103D500000E000000086E69F86868686E69F860055
:103D600000011F01010101011F010100000080C0CD
:103D70006020F820E0C00000000003070C18FF706E
:103D8000E18100000000070F10107F100F070000F6
:103D90008060206080000000E02000000F302030B4
:103DA0009F70DC371030C0000000100E03000718B1
:103DB000101807000000C02020E0C0000000000034
:103DC00080E01F38E88703C43C040000070F181088
:103DD000100B070D1010080000808C4C38000000FC
:103DE00000000000000000000000000000000000D3
:103DF00000000000000000000000000000000000C3
:103E0000000080E0300804000000000000FEFF0118
:103E100000000000000000000000030F1820400018
:103E200000040830E08000000000000000000000F6
:103E300001FFFE0000000000004020180F030000FA
:103E400000000000000000000000C00000000000B2
:103E5000004266663C18FF183C666642000000009F
:103E600000000300000000000000000000008000CF
:103E700000000000001010101010FF1010101010A3
:103E8000000000000000030000000000000000002F
:103E90000000000000000000000000000000000022
:103EA0000000000000808C4C380000000000000082
:103EB00000000000000000000000000000101010D2
:103EC0001010101010101000000000000000000082
:103ED00000000000000000000000000000000000E2
:103EE00000000000000000000000000000001C1C9A
:103EF0001C000000000000000000000000000000A6
:103F0000E0380C000000000080701C03000000007E
:103F10000060380E0100000000000000000080C0BA
:103F200060202060C080000000FEFF010000000053
:103F300001FFFE000001070E181010180E07010007
:103F40000000808080C0E000000000000000000051
:103F500000FFFF000000000000001010101F1F10E5
:103F6000101000000080402020202060C080000051
:103F700000030300804020381F070000001C1A19AE
:103F800018181818181F00000080C020202060C0DA
:103F900080000000000303001010182FE7800000CD
:103FA00000070F10101010180F070000000000008D
:103FB0000000C0E0F000000000C0B088868180FFF3
:103FC000FF808000000000000010101F1F10100074
:103FD0000000E060606060606060000000003F1012
:103FE00008080818F0E0000000070B101010101C63
:103FF0000F030000000080C040202020E0C000002F
:1040000000FCFF211008080818F0E0000001070C70
:1040100018101010080F03000000C0E0606060601E
:1040200060E06000000003000000E01807000000EE
:1040300000000000001F1F00000000000080C060A2
:104040002020202060C080000087EF2C181830301E
:1040500068CF830000070F0810101010180F07001A
:104060000000C0C020202020C0800000001F3F6052
:104070004040402010FFFE0000000C1C10101008F3
:104080000F0300000000000000000000000000001E
:1040900000000000000E0E0E0000000000000000F6
:1040A000001C1C1C000000000000000000000000BC
:1040B0000000000000000000000C0C0000000000E8
:1040C0000000000000583800000000000000000060
:1040D00000000080402010000000102844820100F1
:1040E00000000000000000000000010204081000B1
:1040F0000000000000000000000000000084848434
:104100008484848484848400000000000000000013
:1041100000000000000010204080000000000000AF
:104120000000000000000182442810000000100878
:10413000040201000000000000C020201010101038
:1041400030E0C0000003030000F010080C0703007B
:10415000000000001C1C1C0000000000000000C04B
:10416000406020202040C00000FCFF01F00E03C191
:10417000FE03807F0001070E0811111011090402CF
:104180000000000080E0E000000000000000807CF3
:104190004340477FF880000010181F100000000007
:1041A000131F1C1020E0E02020202060C0800000B1
:1041B00000FFFF10101010182FE78000101F1F10B5
:1041C00010101010180F0700000080C040202020A1
:1041D0002060E00000FCFF01000000000000010082
:1041E0000001070E181010100804030020E0E02062
:1041F00020202040C080000000FFFF0000000000E1
:1042000001FFFE00101F1F10101018080E070100FC
:1042100020E0E020202020202060800000FFFF1010
:104220001010107C00000000101F1F101010101044
:104230001018060020E0E020202020206060800090
:1042400000FFFF101010107C00000100101F1F1055
:104250000000000000000000000080C0602020205E
:1042600040E0000000FCFF0100004040C0C14040B1
:104270000001070E181010100F0F000020E0E020C2
:104280000000000020E0E02000FFFF1010101010E0
:1042900010FFFF00101F1F1000000000101F1F1054
:1042A0000000202020E0E02020200000000000008E
:1042B00000FFFF000000000000001010101F1F1082
:1042C0001010000000000000202020E0E02020204E
:1042D00000000000000000FFFF0000000060E08020
:1042E0008080C07F3F00000020E0E020000020A090
:1042F0006020200000FFFF30187CE3C000000000B9
:10430000101F1F10000001131F1C181020E0E020D8
:10431000000000000000000000FFFF00000000009F
:1043200000000000101F1F101010101010180600C1
:1043300020E0E0E000000000E0E0E02000FF013FBE
:10434000FEC0E01E01FFFF00101F1000031F03004E
:10435000101F1F1020E0E0C0000000000020E0203F
:1043600000FF0003071C78E08000FF00101F100012
:1043700000000000030F1F00000080C060202060CC
:10438000C080000000FEFF010000000000FFFE00F2
:104390000001070E181010180C07010020E0E020A3
:1043A0002020202060C0800000FFFF20202020204F
:1043B000301F0F00101F1F10000000000000000041
:1043C000000080C060202060C080000000FEFF016F
:1043D0000000000000FFFE000001070E1111133C59
:1043E0007C67210020E0E0202020202060C08000A9
:1043F00000FFFF101030F0D0080F0700101F1F1033
:10440000000000030F1C10100080C060202020203E
:104410004040E00000070F0C1818303060E08100C9
:10442000001F0C0810101010180F070080602020CB
:1044300020E0E020202060800100000000FFFF005D
:104440000000000100000000101F1F10000000000D
:1044500020E0E020000000000020E02000FFFF003E
:10446000000000000000FF0000070F1810101010DF
:10447000100807002060E0E02000000020E060203D
:104480000000077FF88000807C030000000000002F
:10449000071F1C070000000020E0E02000E0E020F3
:1044A0000020E0200007FFF8E01FFFFCE01F0000F5
:1044B0000000031F0300011F03000000002060E054
:1044C000A0000020E0602000000000038F7CF8C600
:1044D000010000000010181E130001171F18100023
:1044E0002060E0E02000000020E0602000000107E4
:1044F0003EF8E0180700000000000010101F1F1019
:104500001000000000806020202020A0E0E02000BB
:1045100000000000C0F03E0F0300000000101C1F50
:1045200017101010101806000000000000FC040412
:10453000040404000000000000FF00000000000070
:1045400000000000007F404040404000000010E0BC
:10455000000000000000000000000000031C60805C
:104560000000000000000000000000030C7080004C
:1045700000000404040404FC00000000000000002B
:10458000000000FF00000000000040404040407F6D
:104590000000000000000010080C040C08100000CF
:1045A000000000000000000000000000000000000B
:1045B00000000000000000000000000000000000FB
:1045C00000000000000000000000000000000000EB
:1045D00080808080808080808080808000000004D7
:1045E00004080800000000000000000000000000B7
:1045F00000000000000000000000000000000000BB
:10460000000000000000000000000000000098D83A
:1046100044642424FCF80000000F1F181010100838
:104620001F1F10180020E0F0000000000000000034
:104630000000FFFF180804040CF8F00000001F0F32
:1046400018101010180F03000000000000000000F8
:104650000000000000E0F8180404043C38000000EA
:1046600000030F0C101010100806000000000000DE
:1046700000000020E0F0000000E0F81C0404040842
:10468000FFFF000000030F18101010081F0F080094
:104690000000000000000000000000000000E0F842
:1046A000484444444C7870000000030F0C1810106C
:1046B000100804000000000080C0602020E0C0005E
:1046C00000040404FFFF04040404000000001010B0
:1046D0001F1F10101000000000000000000000006C
:1046E00000000000000070F88C04048CF874040CC6
:1046F000007076CF8D8D8D89C87870000020E0F035
:1047000000000000000000000000FFFF0804040497
:10471000FCF8000000101F1F100000101F1F1000E9
:1047200000000000006060000000000000000404C1
:1047300004FCFC000000000000001010101F1F10FF
:104740001010000000000000000000606000000089
:1047500000000000040404FCFC0000000000C0C0D5
:104760008080C07F3F0000000020E0F000000000DB
:10477000000000000000FFFF80C0F41C04040000E3
:1047800000101F1F1100031F1C101000000020202C
:1047900020E0F000000000000000000000FFFF002B
:1047A0000000000000001010101F1F10101000006B
:1047B00000000000000000000000000004FCFC08F5
:1047C00004FCFC0804FCFC00101F1F10001F1F103D
:1047D000001F1F100000000000000000000000008B
:1047E0000004FCFC08080404FCF8000000101F1F73
:1047F000100000101F1F100000000000000000004B
:104800000000000000E0F0180C04040C18F0E000B8
:1048100000030F0C101010100C0F0300000000001C
:1048200000000000000000000004FCFC0804040478
:104830000CF8F0000080FFFF889010101C0F0300A0
:1048400000000000000000000000000000E0F81C74
:1048500004040408F8FC000000030F1810109088EE
:10486000FFFF8000000000000000000000000000CA
:10487000040404FCFC100804040C0C001010101FAD
:104880001F101010000000000000000000000000D9
:104890000000000000003078CCC48484840C1C002C
:1048A00000001E1810101011190F06000000000063
:1048B00000C000000000000000040404FFFF040426
:1048C00004000000000000000F1F1010100C00007A
:1048D0000000000000000000000000000004FCFEDA
:1048E00000000004FCFE000000000F1F181010085C
:1048F0001F0F080000000000000000000000000082
:1049000000040C3CFCC40000C43C0C04000000008B
:10491000010F1E0E0100000000000000000000005A
:1049200000000000043CFCC400E47CFC84807C04A7
:104930000000071F070000071F070000000000001D
:1049400000000000000000000004041C7CE4C034EF
:104950001C0404000010101C1601131F1C1810006A
:1049600000000000000000000000000000040C3CFB
:10497000FCC400C43C0404000000C080C1370E0128
:104980000000000000000000000000000000000027
:1049900000001C0404C4F47C1C0400000000101C73
:1049A0001F17111010180E0000000000000000F882
:1049B0000C04000000000000001028EF00000000C0
:1049C000000000000000003F604000000000000008
:1049D0000000FF0000000000000000000000FF00D9
:1049E00000000000000000000000FF0000000000C8
:1049F0000000040CF80000000000000000000000AF
:104A0000EF28100000000000000040603F000000A0
:104A100000000000001806020204081020203008E0
:104A20000000000000000000000000000000000086
:104A3000000000000000000000FC848484FC0010E2
:104A400010101010FF101000003F1010103F000059
:104A5000010640807F00000000F8010600F01212FD
:104A600012F2020202FE000000FF0000001F1111FE
:104A7000111F0040807F00001010D0FF9014E4AFA1
:104A8000A4A4A4AFE4040000040300FF00894B2A9F
:104A90001A0E1A2A4B888000101090909090901057
:104AA00010FF101011161000002060203F10101091
:104AB00000030C102040F800000000F8888C8A8960
:104AC000888888F800000000000000FF4444444447
:104AD000444444FF000000004044C44444444010A7
:104AE00010FF101010F00000103C131014B84030EC
:104AF0000E014080403F000000002424242424FCB8
:104B00002222222322000000020202020242827FAD
:104B10000202020202020200109453321E325210AC
:104B2000007E4242427E0000000000FF49494949A0
:104B3000494949FF0000000008CC4A49484ACC18BE
:104B4000007F88888482E00000FF121252927F006A
:104B5000007E88888482E000100CC4544C64D546E2
:104B600044444C54C4140C000000FF4044625549B6
:104B700055434040FF000000100C4424140405C6B7
:104B80000404142444140C0000003F01010101FF3F
:104B9000010111211F000000000022322AA6A2629A
:104BA0002111098101000000004222130B42827E84
:104BB00002020A12234600002030AC63300088C88D
:104BC000A8998E88A8C888002267221212804030D7
:104BD0000F00003F40407100002010E82427A4A4EB
:104BE000A4A4B4AC202000008040300F00003F405F
:104BF000404448474070000000FE225A8640205042
:104C00004C434C502040400000FF040807404458EB
:104C1000414E605847404000000202C2020202FEBC
:104C200082828282820200004040407F4040407F7A
:104C30004040404040404000201808EAACA8A8AFDF
:104C4000A8A8ACEA0828180000003E02020202FFF1
:104C5000020212221E00000012EAAFAAEA0FFA02B4
:104C6000888C5724548C84000202EAAAAAABAAAB0F
:104C7000AAAAAAAAEA02020080A0908E888888FFC9
:104C80008888888888808000000000FC4444444470
:104C9000444444FC0000000080828282FE828282C2
:104CA0008282FE8282828000008040300F000000FD
:104CB0000000FF000000000000001011161010F0AE
:104CC00010101413100000008181414121110D03C7
:104CD0000D11214141818100000000C08080808051
:104CE000808080FC84808080808080C0C000000044
:104CF000000000FF7F404040404040FF40404040B7
:104D0000404040FF7F000000000000000000000065
:104D10000000007F700000000000000000000000A4
:104D2000000000000000000000000000000000FC87
:104D3000F80000000000000000000000000000007B
:104D400000000000FFFE020202020202020202FF55
:104D5000FF020202020202020202FF030000000040
:104D6000000000001F1F040404040404040404FFE2
:104D7000FF0404040404040404041F0000000000F1
:104D80000000000000000000000000000000007FA4
:104D90003F000000000000000000000000000000D4
:104DA0000000000000000000000000000000000003
:104DB00000000000000000000000000000F8F8F013
:104DC000F070200000000000000000000000000063
:104DD00000000000000000000000000000000000D3
:104DE0000000000000000000800000000000000043
:104DF00000000000000000000000000000FFFFFFB6
:104E0000FF000000000000000000000000000000A3
:104E10000000000080800000000000000000000092
:104E2000000000000000000000FFFFFE060606066E
:104E300006060606060606060606060606FFFFFF27
:104E4000FF06060606060606060606060606060609
:104E5000060606FFFFFFFF0702000000000000003B
:104E6000000000000000000000FFFFFF0000000045
:104E700000000000000000000000000000FFFFFF35
:104E8000FF00000000000000000000000000000023
:104E9000000000FFFFFFFF00000000000000000016
:104EA000000000000000000000FFFFFF18181818A5
:104EB00018181818181818181818181818FFFFFFBD
:104EC000FF1818181818181818181818181818187B
:104ED000181818FFFFFFFF0000000000000000008E
:104EE00000000000000000000201010000000000BE
:104EF00000000000000000000000000000FFFFFFB5
:104F0000FF000000000000000000000000000000A2
:104F1000000000010100000000000000000000008F
:104F20000000000000000000000000000000000081
:104F300000000000000000000000000000FFFFFF74
:104F4000FF00000000000000000000000000000062
:104F50000000000000000000000000000000000051
:104F60000000000000000000000000000000000041
:104F7000000000000000000000000000001F1F0FE4
:104F80000F00000000000000000000000000000012
:104F90000000000000000000000000000000000011
:104FA000C04F000800000020380000002801000861
:104FB000F84F000838000020080C000044010008E9
:104FC00000000000000000000000000001000000E0
:104FD00010000000000000000024F40000000000A9
:104FE000001907170E34370300000000000000000E
:084FF0000000000000000000B9
:04000005080000ED02
:00000001FF
