:020000040800F2
:10000000A00D0020A9010008B53D000895380008A2
:10001000B13D00088D150008B15000080000000037
:10002000000000000000000000000000414900083E
:1000300089190008000000001749000879490008E4
:10004000C3010008C3010008C3010008C301000880
:10005000C3010008C3010008C3010008C301000870
:10006000C3010008C3010008C3010008C301000860
:10007000C3010008C3010008C3010008C301000850
:10008000C3010008C3010008C3010008C301000840
:10009000C3010008C3010008C3010008C301000830
:1000A000C3010008C3010008C3010008C301000820
:1000B000C3010008C3010008C3010008C301000810
:1000C000C3010008C3010008C3010008C301000800
:1000D000C3010008C3010008A1500008C3010008C3
:1000E000C3010008C3010008C301000800F002F8C2
:1000F00000F04AF80AA090E8000C82448344AAF178
:100100000107DA4501D100F03FF8AFF2090EBAE875
:100110000F0013F0010F18BFFB1A43F0010318473B
:100120005C7A00007C7A0000103A24BF78C878C15D
:10013000FAD8520724BF30C830C144BF04680C60ED
:10014000704700000023002400250026103A28BF35
:1001500078C1FBD8520728BF30C148BF0B60704739
:10016000662905F00684732900F089830020704712
:100170001FB500F089FB04000020002105F0C6F83F
:10018000E0601FBD10B510BD00F07EFC1146FFF70A
:10019000EFFF05F095F800F09CFC03B4FFF7F2FFC9
:1001A00003BC00F0DFFC0000094880470948004715
:1001B000FEE7FEE7FEE7FEE7FEE7FEE7FEE7FEE717
:1001C000FEE7FEE704480549054A064B7047000074
:1001D000A94A0008ED000008A0070020A00D00209B
:1001E000A0090020A00900200FB41CB5074B06AAE7
:1001F0007B4469460090059800F017FB0020694693
:1002000000F026FB1CBC5DF814FB00005D0600003E
:1002100070B50C460546012A05D02878800600D521
:10022000EA69002302E0012305E05B1C934202D24D
:10023000E05C0028F9D1A869E618C01AA861286A0C
:10024000184428622846AFF3008004E0D5E9012174
:1002500014F8010B9047B442F8D32846AFF300805E
:1002600070BD2DE9F0474FF0000A89460446C0F8FA
:1002700020A02046E1688847002876D0252806D0AF
:10028000D4E901219047206A401C2062F1E7E1682F
:10029000204600258847C4F81CA006460027C4F85D
:1002A00018A02A2E09D0304604F076FF38B304EBAC
:1002B0008708303EC8F8186019E059F8041B20463A
:1002C00004EB87029161E1688847012F064618D147
:1002D000E069002820DA25F020051DE0D8F8180094
:1002E00000EB800006EB40003038C8F818002046CC
:1002F000E1688847064604F04FFF0028EED1012F41
:100300000AD02E2E08D12046E16888477F1C064679
:10031000022F45F02005C4DBA069002803DA404223
:1003200045F00105A061E80701D025F01005B6B140
:10033000A6F14100192802D8203645F400654A4646
:100340003146204625604D46FFF70AFF58B1012887
:1003500006D0ED1D25F0070000F1080989E704E04B
:1003600005F1040985E730468AE7206ABDE8F08791
:1003700010B5431C02E010F8011B71B18107FAD1DE
:100380004FF0013202C88C1A8C4314EAC211F9D022
:10039000C01A0A0603D0C01E10BDC01A10BD0A0440
:1003A00001D0801E10BD0902FCD0401E10BD4FF0D0
:1003B000000200B5134694469646203922BFA0E8B5
:1003C0000C50A0E80C50B1F12001BFF4F7AF0907C1
:1003D00028BFA0E80C5048BF0CC05DF804EB8900B2
:1003E00028BF40F8042B08BF704748BF20F8022BF5
:1003F00011F0804F18BF00F8012B7047704770470D
:10040000704770472DE9FF4F0C461E464FF0FF37EF
:100410008BB0D2E90001DDF860800A908A46C1F312
:100420000A5505B93D46002108464FF00000BAF1D3
:10043000000F00F4400005DA00EB80004FF44001AB
:1004400001EA50004FEA9059B9F1010F00DDB946B9
:100450000A9850EA4A000ED044F61050A5F2FF3533
:1004600045432F14B8F1000F1ED07542291E1EDD22
:10047000C9F100021CE0B8F1010F4FF0000001D0FB
:10048000302103E0F24305E02154401CB042FBDB85
:1004900030460022002121540B99C1F80880C1E99F
:1004A00000200FB0BDE8F08FBD1B6D1CDEE74A4693
:1004B00000DA694206A800F071FA06AB93E807007B
:1004C00003AB83E8070050460A9900F052FB8DE821
:1004D0000700A0F500501F3800900398002D0ADD9A
:1004E00042F21F014A460844002303A903906846CC
:1004F00000F0BBFD09E0A0F500504A461F3800237C
:1005000003A90390684600F0C5FD8DE807000004CC
:10051000000C03D04FF0FF30410800E01046B8F166
:10052000000F03D00022009215461EE0751E05D470
:1005300000F0AEF9303262556D1EF9D5B346012296
:10054000084302D000227F1C04E02078302801D12B
:1005500000227F1E002A099784D01DE0112D07DAA2
:1005600000F096F9303262556D1C50EA0102F5D167
:10057000084302D00098C8B10EE00021681E05E0D3
:10058000235C625C63542254401E491C8142F7DBA9
:10059000AB46A81B401E0990002004F80B000B98E6
:1005A000099AC0F80880C0E9002B7AE711264FF0BD
:1005B000000857E72DE9F04F88460446D21D22F087
:1005C000070191B0D1E90001CDE90A0104F0B4FDC1
:1005D00002460B98C00F01D02D2007E0206881074C
:1005E00001D52B2002E0202101EAC000032A099056
:1005F00001D0072A05DB03464146204600F08EF96C
:100600000BE12078800601D5E06900E00620B8F112
:10061000650F814606D0B8F1660F18D0B8F1670FA4
:1006200070D131E00020B9F1110F009001DB1123EE
:1006300001E009F101030AAA01A90CA8FFF7E2FEF3
:10064000DDE90C70002609F10105834647E0012031
:100650004B4600904FF000470AAA01A90CA8FFF7EB
:10066000D1FEDDE90DB00C995D46002610B909F107
:1006700001000D18B9EB050003D4C0F1FF3609F1F4
:100680000105A5EB09002BE0B9F1010F01DA4FF0EC
:1006900001090020B9F1110F0090484601DD112336
:1006A00000E003460AAA01A90CA8FFF7ABFEDDE9AA
:1006B0000C704D4600268346207800070AD4AB45CF
:1006C00000DA5D4601A8012D04DD411911F8011C75
:1006D000302907D04F4502DA17F1040F04DA012060
:1006E00082460FE06D1EEEE7002F02DCED1B3E445C
:1006F00003E0781CA84200DD7D1CB81B00F1010A54
:100700004FF000472078000703D4AA4501DB4FF0E3
:10071000FF3A0021B7F1004F0DF143088DF8431067
:1007200024D002202B23002F01DA7F422D230A211F
:10073000021EA0F1010000DC5FB197FBF1FC97FB0A
:10074000F1F201FB1C7C17460CF1300C08F801CDCE
:10075000EEE7A8F1010003702188090501D54521C4
:1007600000E06521A0F1010800F8011C09980FA91B
:10077000A1EB0807FF1D00B10120411901EBEA7050
:10078000A1693844081A401EA0612078C00602D42E
:100790002046AFF30080099828B1D4E901219047A1
:1007A000206A401C20622078C00622D52046AFF384
:1007B00000801EE0002E04DBB34502DD01A8805D51
:1007C00000E03020D4E901219047206A401C2062DB
:1007D000761CAAF101005FEA000A0AD100F054F881
:1007E000C0680168405CD4E901219047206A401C40
:1007F0002062281EA5F10105DCDC07E0D4E9012117
:1008000018F8010B9047206A401C2062381EA7F19F
:100810000107F3DC2046AFF30080032011B041E66E
:1008200001694A1C02610878704700B58FB0CDE9B4
:1008300001310021059105497944CDE903101146A4
:100840006846FFF70EFD0FB000BD0000E5FFFFFF9B
:100850000A6802F8010B0A60704710B5436913B1CA
:10086000AFF3008001E0FFF7D3FC012010BD127848
:1008700000F124010A7000224A700122EDE711689C
:100880004FF0FF32E9E70000004870475C070020A6
:1008900030B5B0F10A024FEA900E71F100034EEA52
:1008A000817EB0EB0E0061EB91014FEA101E4EEA23
:1008B000017E10EB0E0041EB11114FEA102E4EEAB3
:1008C000016E10EB0E0041EB11214FEA104E4EEA83
:1008D000014E10EB0E0041EB1141401841F10001B7
:1008E0004FEAD00040EA41704FEAD10110EB800599
:1008F0004FEA810444EA907444EB01046D1944EB1F
:100900000404521BA3414FF0000348BF0A3200D534
:1009100030BD401C41F1000130BD00002DE9F04127
:100920001F46044603260168072A01F4006004DB21
:1009300008B116A505E016A503E008B115A500E06D
:1009400015A521F010002060A069C01EA0610FB1A4
:10095000401EA0612046AFF300804FB1D4E90121D1
:1009600038469047206A401C2062C01C206206E086
:10097000206AFAE7D4E9012115F8010B9047761EA9
:10098000F8D22046AFF30080BDE8F0814E414E0022
:100990006E616E00494E4600696E66002DE9F047B3
:1009A000814616468AB0354878440DC88DE80D005A
:1009B00032487844801C03AC0DC884E80D0041F631
:1009C0009B300844372190FBF1F290FBF1F5A5F143
:1009D000800501FB12041B3C02D56442012000E0AB
:1009E0000020DFF898A080460027FA44AAF1BE0A4A
:1009F0000EE0E0070AD03246684607EB47010123C4
:100A00000AEB810100F046FB8DE8070064107F1CB3
:100A1000002CEED1194F7F44AE3F19E0E80715D006
:100A200007EB04100DF1180A90E80E008AE80E009A
:100A3000C068F04201D1981908903246012306A9F6
:100A400003A800F027FB03AB83E807006D10641CCC
:100A5000002DE3D14FF0010332466946B8F1000F93
:100A600003A802D000F001FB01E000F013FBC9E98C
:100A70000001C9F808200AB0BDE8F087B87100008D
:100A8000004870473C0700207546FFF7F9FFAE4667
:100A900005006946534620F00700854618B020B58A
:100AA000FFF790FBBDE820404FF000064FF0000735
:100AB0004FF000084FF0000B21F00701AC46ACE806
:100AC000C009ACE8C009ACE8C009ACE8C0098D4673
:100AD000704710B50446AFF300802046BDE81040D3
:100AE000FFF75BBB4FF0013C50F8042B51F8043B7F
:100AF0009A4221D1A2EB0C03934313EACC1317D1F2
:100B000050F8042B51F8043B9A4215D1A2EB0C0388
:100B1000934313EACC130BD150F8042B51F8043B48
:100B20009A4209D1A2EB0C03934313EACC13DBD016
:100B30004FF00000704700BFD01A01BAB1FA81F13E
:100B400001F0180122FA01F0CB40C1F12001DBB223
:100B5000C0B2C01A2CFA01F3D11A914311EAC311A1
:100B6000E6D1704701491820ABBEFEE7260002001F
:100B700070475FEA400C08BF91F0000F4FEA8C23EA
:100B80004FEAC12243EA51514FEA1C5018BF00F509
:100B9000F0404FEA300018BF41F000415FEA6C5C62
:100BA00000F02980BCF1FF3F08BF40F08040704753
:100BB000130C06BF12044FF0100C4FF0000C130E74
:100BC00004BF12020CF1080C130F04BF12010CF148
:100BD000040C930F04BF92000CF1020CD30F04BF5E
:100BE00052000CF1010C11464FF00002A0F11F0061
:100BF000A0EB0C00704711F0004F08BF704731F0B8
:100C000000413FF4D5AF0B0C06BF09044FF0100CA8
:100C10004FF0000C0B0E04BF09020CF1080C0B0F77
:100C200004BF09010CF1040C8B0F04BF89000CF107
:100C3000020CCB0F04BF49000CF1010CCCF12003D6
:100C4000A0EB0C0022FA03F302FA0CF241EA0301D2
:100C500000F10100704720F07F4C80EA030023F090
:100C60007F47ACEB070303F57C5300F0004003F132
:100C7000FF032DE980494FEA154B09B44FEA1443AD
:100C800025EA0B4E24EA03480FF2042606EB13274D
:100C900049083E785FEA320203FB0667C7F50007A2
:100CA00007FB06F64FEA54374FEAD64606F102062E
:100CB00007FB066CCCF1005C4FEA1C472CEA074CA2
:100CC00007FB06F40CFB06F504EB15464FEA9616F7
:100CD00034BF00204FF000404FEAD13706FB07FC3D
:100CE0004FEA1C4C0CFB0BF7D21B03FB0CF761EB20
:100CF00007010CFB0EF7B0EB074072EB17420CFB41
:100D000008F734BFA2EB0742B2EB074261EB174191
:100D10004FEA0C444FEA910706FB07FC4FEA1C4CD4
:100D20000CFB0BF7B0EBC74072EB573203FB0CF731
:100D300034BFA2EBC742B2EBC74261EB57310CFBA9
:100D40000EF7B0EBC70072EB57720CFB08F734BF1D
:100D5000A2EBC702B2EBC70261EB5771039F4FEAE8
:100D6000816141EA921104EBCC044FEAD1374FEA9A
:100D7000826206FB07FC42EA90124FEA80604FEA6B
:100D80001C4C0CFB0BF7D21B03FB0CF761EB0701B0
:100D90000CFB0EF7B0EB074072EB17420CFB08F7A9
:100DA00034BFA2EB0742B2EB074261EB17414FEAB7
:100DB0008C554FEA910704EB9C2406FB07FC4FEA95
:100DC0001C4C0CFB0BF7B0EBC74072EB573203FB2C
:100DD0000CF734BFA2EBC742B2EBC74261EB57310D
:100DE0000CFB0EF7B0EBC70072EB57720CFB08F769
:100DF00034BFA2EBC702B2EBC70261EB577115EB30
:100E00004C254FEA816141EA92114FEA82624FEA32
:100E1000D13742EA901206FB07FC44F100044FEA86
:100E200080604FEA1C4C0CFB0BF7D21B03FB0CF74A
:100E300061EB07010CFB0EF7B0EB074072EB1742BA
:100E40000CFB08F734BFA2EB0742B2EB074261EBA1
:100E5000174115EB1C154FEA813141EA92414FEAE7
:100E6000823242EA90424FEA80304FEA0C7644F1F7
:100E7000000448EA03434EEA0B484FF0000EB2EB81
:100E8000080C71EB030724BF624639464EEB0E0E89
:100E90004FF0000B0018524149414BEB0B0BB2EBEA
:100EA000080C71EB03077BF1000B24BF6246394647
:100EB0004EEB0E0E4FF0000B0018524149414BEB28
:100EC0000B0BB2EB080C71EB03077BF1000B24BF9B
:100ED000624639464EEB0E0E51EA020718BF46F045
:100EE000010616EB0E7655F1000254F1000103D510
:100EF000BDE88901BDE80088BDE88901BDE800487A
:100F0000B619524141EB0101A3F101037047808002
:100F10007F7E7D7C7B7A7978777676757473727153
:100F200071706F6E6E6D6C6C6B6A6A69686867660B
:100F300066656464636362616160605F5F5E5E5D9D
:100F40005D5C5C5B5B5A5A59595858575756565511
:100F500055555454535352525251515050504F4F73
:100F60004F4E4E4D4D4D4C4C4C4B4B4B4A4A4A49C3
:100F70004949484848474747474646464545454406
:100F80004444444343434342424242414141002B93
:100F90009C4630D477002BD01CB54FEA370703B4FA
:100FA0004FF010004FF01001BAF1000F06D0BCF165
:100FB000000FDCBF40F0080040F008014FF00000D7
:100FC0000FBCBDE810400BF1010BBBF1010F08BFD6
:100FD0005FEA170722BF12F1010211F101014FF080
:100FE000004143F1000300F0004043EA0000704775
:100FF000F9D35708D0E746EA064613F1400F4FEA07
:1010000016461FDD13F1200FDFBF16430A460021ED
:1010100020335B42BED0C3F1200746EA064602FAFF
:1010200007F74FEA164646EA0706C3F1200722FAF9
:1010300003F201FA07F721FA03F14FF0000342EA45
:101040000702A7E746EA020646EA06464FEA1646C0
:1010500046EA0106BCBF46EA0646360C4FF00003DE
:101060004FF000024FF0000194E72DE9804C9A46C2
:10107000934670B491E8380007C831EA400C48BF85
:1010800034EA430C03D5FFF7E6FDFFF780FFF0BC21
:10109000BDE8008C2DE9804C9A46934670B491E8E7
:1010A000380007C810F0804F08BF13F0804F03D1FD
:1010B00000F005F8FFF76BFFF0BCBDE8008C20F0F6
:1010C0007F4780EA030023F07F4C07EB0C03A3F576
:1010D0007C5300F00040A3F1FE0392F0000F00F0FB
:1010E000B38095F0000F00F077802DE901494FEAB9
:1010F00011404FEA144621EA004800FB06FC24EAAE
:10110000064708FB06F607FB08F800FB07F718EB95
:1011100006484CEB164C4FEA124B18EB07484FEAC7
:1011200015464CEB174022EA0B4E0BFB06FC25EA5A
:1011300006470EFB06F607FB0EFE0BFB07F71EEB42
:10114000064E4CEB164C4FF000061EEB074E4CEBD8
:10115000174B18EB0B0840F1000018EB0E0B58EB87
:10116000000840F100008F1A4FF000013CBFC94356
:10117000661B14BFB5EB040C00213CBFC943F61B32
:101180004FEA17444EEA8E0E27EA04454FEA1C4701
:1011900004FB07622CEA074C05FB07F70CFB05F67E
:1011A00004FB0CFC16EB074642EB174216EB0C4611
:1011B00042EB1C421BEB060658EB0202414146EA99
:1011C0009E0601D5BDE80189B619524141EB0101E6
:1011D000A3F10103BDE801894FEA14454FEA114725
:1011E00024EA054621EA074C05FB07F406FB07F74E
:1011F0000CFB06F105FB0CFC11EB074144EB17441B
:101200004FEA124711EB0C4144EB1C4422EA074C15
:1012100005FB07F206FB07F70CFB06F605FB0CFCCB
:1012200016EB074642EB174216EB0C4642EB1C4509
:101230006A1854F1000148BF7047B619524141EB9A
:101240000101A3F10103704795F0000F37D04FEA79
:1012500011424FEA144721EA024624EA074C02FBF6
:1012600007F106FB07F70CFB06F402FB0CFC14EB82
:10127000074441EB17414FEA154714EB0C4441EB8F
:101280001C4125EA074C02FB07F506FB07F70CFBA0
:1012900006F602FB0CFC16EB074645EB174516EB72
:1012A0000C4645EB1C42121951F1000148BF704732
:1012B000B619524141EB0101A3F1010370474FEA16
:1012C00014454FEA114724EA054621EA074C05FB7D
:1012D00007F106FB07F70CFB06F24FF0000605FBD3
:1012E0000CFC12EB074241EB174112EB0C4251EBA5
:1012F0001C4148BF7047921841EB0101A3F1010363
:10130000704770B5044600252068806800F0010031
:10131000F0B12068806820F001002168886001F049
:10132000C1F805460EE001F0BDF8401B022809D9BE
:10133000A06A40F01000A062E06A40F00100E062A4
:10134000012070BD2068806800F001000028EAD10B
:101350000020F6E738B504460025002000902068FC
:10136000806800F0010080BB2068806840F00100C8
:1013700021688860164800681649B0FBF1F00090BB
:1013800002E00098401E009000980028F9D101F07A
:1013900089F8054613E001F085F8401B02280ED9B4
:1013A000A06A40F01000A062E06A40F00100E06234
:1013B00000BF002084F8240000BF012038BD206851
:1013C000806800F001000028E5D00020F6E700006A
:1013D0003C00002040420F0008B5404800783138FA
:1013E000072873D2DFE800F0040C152536424F00C1
:1013F00000203B490870394908703A4908706BE091
:1014000001203749087000203449087035490870B8
:1014100062E033480078012805D1334908705A2129
:10142000324803F08FFA00202C4908702D490870CB
:1014300052E02B480078012806D100202A49087084
:1014400000212A4803F07EFA00202449087025492B
:10145000087041E022480078012801D12449087031
:1014600000201E4908701F49087035E01C480078AC
:10147000012802D100201E49087000201749087079
:101480001849087028E01B48007808B11AA000E04D
:101490001BA000901C48007808B11CA000E01DA013
:1014A00003461F48007808B11EA000E01FA00246B6
:1014B00020A12348FEF798FE214800F04FF80020B5
:1014C000064908700749087006E0FFE70020034955
:1014D00008700449087000BF00BF08BDE401002087
:1014E00027000020410000201800002024010020D7
:1014F0001900002024000020796F7572656E0000CD
:10150000777572656E000000250000206A696E67BD
:10151000616F00007A68656E676368616E670000DE
:1015200026000020796F7579750000007775797550
:101530000000000025732C25732C2573000000008B
:101540004802002010B501220249034802F0E2F8E7
:1015500010BD000040000020A401002070B504462A
:1015600000BF094800680068C0F3C0100028F8D028
:101570002046FEF7FDFE85B24FF0FF332A46214696
:10158000014802F01BF970BDA401002000BFFEE776
:1015900010B503F009FEFFF71FFF00F035F94148D1
:1015A000007800282CD1404A1168404A106804F0A5
:1015B00039F812D201203E4908703E4908703E4871
:1015C0000078E8B901203C49087000213B4803F04D
:1015D000B9F93BA0FFF7C2FF12E0002034490870C0
:1015E0003449087034480078012809D10020324974
:1015F00008705A21314803F0A5F935A0FFF7AEFF76
:1016000028480078012802D1002035490860354873
:10161000007840B93448007870B901203249087028
:1016200003F048FD08E030480078012804D100208C
:101630002D49087003F03EFD1B4A51681B4A506853
:1016400004F0F0F806D201202849087028A0FFF71E
:1016500085FF02E0002025490870134A9168134A6B
:10166000906803F0DFFF0FD20120244908700122A7
:101670000103234800F010FF0821224801F078FE02
:1016800021A0FFF76BFF0CE000201C490870082127
:101690001C4801F093FE00224FF48051184800F0DE
:1016A000FBFE10BD270000200C000020A800002039
:1016B00018000020260000201B000020240100202C
:1016C000796F7579755F6775616E636875616E00B6
:1016D0006D656979755F6B6169636875616E00003E
:1016E0001C000020190000201A0000202500002006
:1016F0006B6F71695F6A696E62616F002400002020
:1017000000080140E4000020796F7572656E5F6B20
:10171000616F6A696E00000000B585B0002001901D
:1017200002900390049000BF0B48806940F00400D1
:10173000094988610846806900F00400009000BFF4
:1017400000BF1020019000200290039001A90348DF
:1017500000F00AFD05B000BD001002400008014085
:1017600000B585B00020019002900390049000BF66
:101770000D48806940F004000B4988610846806983
:1017800000F00400009000BF00BF10200190012075
:101790000290002003900320049001A9034800F068
:1017A000E3FC05B000BD000000100240000801404D
:1017B00018B502461048007868B900F0C3F850B96F
:1017C0000020009002E00098401C00900098B0EBD0
:1017D000C20FF8D318BD0948436809480068094991
:1017E000B0FBF1F000FB02F400BF04484068C01AEF
:1017F000A042FAD300BFEDE742000020001000E055
:101800003C00002040420F002DE9F84F00F07AF82C
:1018100001221021254800F03FFE1021234800F04E
:1018200033FE002837D100BF1021204800F02CFEE5
:101830000028F9D000BF10211C4800F025FE012827
:10184000F9D000F037F8044600F034F8054600F00F
:1018500031F8064600F02EF8074600F02BF800900D
:1018600000221021114800F017FE3720FFF7A0FFDB
:10187000012210210D4800F00FFE60193044C119FB
:101880000098814207D104F0FF0805F0FF0906F037
:10189000FF0A07F0FF0B0648C0F80080C0F804906C
:1018A000C0F808A0C0F80CB0BDE8F88F00080140EF
:1018B000AC02002070B5002500BF1CE000BF102165
:1018C0000F4800F0E1FD0028F9D01E20FFF770FF5F
:1018D0006006040E10210A4800F0D6FD012801D14F
:1018E00044F0010400BF1021054800F0CDFD01289F
:1018F000F9D0681CC5B2082DE0DB204670BD0000A1
:101900000008014010B5FFF72BFF012210210C4801
:1019100000F0C2FD1E20FFF74BFF002210210848F7
:1019200000F0BAFD142000F00BFC01221021044845
:1019300000F0B2FD1E20FFF73BFFFFF7EDFE10BDEC
:10194000000801400D48007808B1012070470C489C
:10195000006840F080700A4908600A48006840F05A
:10196000010008490860002048600846406818B92E
:10197000012002490870E9E70020E7E74200002063
:10198000FCED00E0001000E0704772B600BFFEE71B
:10199000F8B5044600260020009000BF94F824000B
:1019A000012801D10220F8BD012084F8240000BFE5
:1019B0002046FFF7A6FC0646002E62D1A06A20F45E
:1019C000885040F00200A062022000F043FE30493F
:1019D0000968B1FBF0F04000009002E00098401E62
:1019E000009000980028F9D12046FFF7B3FC20684A
:1019F000806840F008002168886000F053FD0546CB
:101A000011E000F04FFD401B0A280CD9A06A20F01D
:101A1000020040F01000A06200BF002084F8240003
:101A200000BF0120BFE72068806800F008000028A0
:101A3000E7D12068806840F004002168886000F0E9
:101A400031FD054611E000F02DFD401B0A280CD9A0
:101A5000A06A20F0020040F01000A06200BF002049
:101A600084F8240000BF01209DE72068806800F012
:101A700004000028E7D1A06A20F0020040F0010035
:101A8000A06200BF002084F8240000BF30468AE72F
:101A90003C00002038B5024600230020009000BF23
:101AA00092F82400012801D1022038BD012082F8DB
:101AB000240000BF4868072812D21068406B0C79D8
:101AC000641E04EB84051F24AC40A0430D796D1EF9
:101AD00005EB85050C68AC4020431468606327E083
:101AE00048680D2812D21068006B0C79E41F04EBD3
:101AF00084051F24AC40A0430D79ED1F05EB85053F
:101B00000C68AC4020431468206311E01068C06A80
:101B10000C790D3C04EB84051F24AC40A0430D79E7
:101B20000D3D05EB85050C68AC4020431468E06270
:101B300008680A2812D31068C0680C780A3C04EBC5
:101B400044050724AC40A0430D780A3D05EB45054C
:101B50008C68AC4020431468E0600FE010680069B6
:101B60000C7804EB44050724AC40A0430D7805EB4A
:101B700045058C68AC402043146820610868102833
:101B800002D00868112827D1174C1068A0421ED136
:101B90001068806800F40000F0B91068806840F4B4
:101BA00000001468A0600868102815D10F4800686C
:101BB0000F4CB0FBF4F000EB80004000009002E01E
:101BC0000098401E009000980028F9D104E0906A27
:101BD00040F020009062012300BF002082F8240022
:101BE00000BF184661E70000002401403C000020CF
:101BF00040420F0001460868C06C70472DE9F04173
:101C00000446002700250026A84614B90120BDE897
:101C1000F081A06810B1207D00B100BFA06A30B98A
:101C20000020E06284F82400204600F089F8204675
:101C3000FFF767FB0746A06A00F01000002873D189
:101C4000002F71D1A06A20F4885040F00200A062F9
:101C5000E16960680843217B40EA41000643A068CF
:101C6000B0F5807F02D0A068012802D14FF48070C7
:101C700000E000200543207D012811D1207B38B9E8
:101C8000A069401E4FF4006141EA4030054307E07F
:101C9000A06A40F02000A062E06A40F00100E0622B
:101CA0002068406820F46940284321684860206823
:101CB000806821490840304321688860A068B0F5F9
:101CC000807F02D0A068012802D14FF4807000E02C
:101CD0000020B0F5807F03D1208A401E4FEA0058D3
:101CE0002068C06A20F4700040EA08002168C862D9
:101CF0002068806811490840B04208D10020E062A5
:101D0000A06A20F0020040F00100A06211E0A06A89
:101D100020F0020040F01000A062E06A40F00100F4
:101D2000E062012705E0FFE7A06A40F01000A06232
:101D3000012738466BE70000FDF7E1FFFE0E1FFFAD
:101D400010B586B0044600200290039004900590E0
:101D500014492068884222D100BF1348806940F4AA
:101D60000070114988610846806900F40070019094
:101D700000BF00BF00BF0846806940F004008861D2
:101D80000846806900F00400019000BF00BFC22037
:101D900002900320039002A9044800F0E5F906B080
:101DA00010BD000000240140001002400008014066
:101DB000F8B504460D46002600200090002700F0EC
:101DC00071FB06462068806800F4807050B1A06AFC
:101DD00040F02000A06200BF002084F8240000BF73
:101DE0000120F8BD2068406800F48070F8B92068D0
:101DF000C06A00F47000D0B912E0681C80B125B14F
:101E000000F050FB801BA8420AD9A06A40F00400F1
:101E1000A06200BF002084F8240000BF0320E0E798
:101E20002068006800F002000028E6D050E00220A0
:101E300000F010FC36490968B1FBF0F0216809692F
:101E4000344A114091B92168C9689211114069B9A9
:101E500021680969304A114031B92168C968921175
:101E6000114009B9142117E0292115E021680969F9
:101E7000294A114021B92168C9689211114041B124
:101E800021680969254A114029B92168C9681140AA
:101E900009B9542100E0FC2100FB01F715E0681CA2
:101EA00080B125B100F0FEFA801BA8420AD9A06AD1
:101EB00040F00400A06200BF002084F8240000BFAE
:101EC00003208EE70098401C00900098B842E6D3AB
:101ED0006FF0120021680860A06A40F40070A062F0
:101EE0002068806800F46020B0F5602F0DD1207B61
:101EF00058B9A06A20F48070A062A06A00F48050F3
:101F000018B9A06A40F00100A062002069E7000053
:101F10003C00002024499224922449124992240032
:101F200070B50446002500BF94F82400012801D1B3
:101F3000022070BD012084F8240000BF2046FFF776
:101F400009FA0546002D77D1A06A40F201218843A5
:101F500040F48070A0623C492068884208D13B4828
:101F6000006800F4702008B9012002E0002000E0C1
:101F7000012078B1A06A20F48010A0622068406837
:101F800000F4806000B3A06A20F4005040F4805058
:101F9000A06219E0A06A40F48010A0622B49091FDA
:101FA0002068884203D028492068884204D1274805
:101FB000006800F4806000E0002028B1A06A20F4EE
:101FC000005040F48050A062A06A00F4805020B11C
:101FD000E06A20F00600E06201E00020E06200BF5D
:101FE000002084F8240000BFC01E2168086020681B
:101FF000806800F46020B0F5602F16D11249206887
:10200000884208D11148006800F4702008B9012006
:1020100002E0002000E0012038B12068806840F430
:10202000A000216888600CE006E02068806840F429
:1020300080102168886004E000BF002084F824003C
:1020400000BF284675E70000002801400424014035
:1020500070B50446002500BF94F82400012801D182
:10206000022070BD012084F8240000BF2046FFF745
:1020700048F905462DB9A06A20F4885040F00100C7
:10208000A06200BF002084F8240000BF2846E8E7D3
:1020900070B50446002594F82100022803D00420DE
:1020A000A063012548E02068006820F00E00216848
:1020B00008602068006820F00100216808601F495E
:1020C0002068884201D1012026E01C491431206893
:1020D000884201D110201FE0184928312068884229
:1020E00001D1801518E015493C312068884201D1A2
:1020F000801411E0114950312068884202D14FF418
:10210000803009E00D4964312068884202D14FF4E3
:10211000801001E04FF080700849083948600120C4
:1021200084F8210000BF002084F8200000BF606B0D
:1021300010B12046616B8847284670BD08000240F8
:1021400070B5044600F0AEF906462546681C10B18D
:1021500004480078054400BF00F0A4F9801BA842A1
:10216000FAD370BD380000202DE9F847034600225D
:1021700094466EE14FF0010808FA02F4D1F80080AD
:1021800008EA0400A0427DD1DFF8DCA2D1F8048087
:10219000A8EB0A09D0453AD014DCB8F1030F50D0AF
:1021A00009DCB8F1000F31D0B8F1010F1CD0B8F143
:1021B000020F49D120E0B8F1110F18D0B8F1120F79
:1021C00042D11EE0B9F5881F25D006DCB9F5803F65
:1021D00020D0B9F5801F37D11AE0B9F5001F18D00B
:1021E000B9F5041F30D117E0D1F80CC02DE0D1F8BB
:1021F0000C8008F1040C28E0D1F80C8008F1080CE0
:1022000023E0D1F80C8008F10C0C1EE000BF00BFE9
:1022100000BF00BF00BF00BFD1F80880B8F1000FB9
:1022200002D14FF0040C0BE0D1F80880B8F1010F97
:1022300003D14FF0080C1C6102E04FF0080C5C6108
:1022400003E04FF0000C00E000BF00BFFF2801D802
:10225000984601E003F104084646FF2802D84FEAF9
:10226000820803E0A2F108084FEA88084746D6F83A
:1022700000804FF00F0909FA07F928EA09080CFA5B
:1022800007F900E088E048EA0908C6F80080D1F8BC
:10229000048008F08058B8F1805F7DD100BFDFF87E
:1022A000CC81D8F8188048F00108DFF8C091C9F84F
:1022B0001880C846D8F8188008F00108CDF80080CA
:1022C00000BF00BF4FEAB9384FEA920958F82950C9
:1022D0004FEA82784FEA18794FF00F0808FA09F8A8
:1022E00025EA0805DFF88881434502D14FF0000850
:1022F00016E0DFF88081434502D14FF001080FE07E
:10230000DFF87481434502D14FF0020808E0DFF89E
:102310006C81434502D14FF0030801E04FF00408FF
:102320004FEA82794FEA197908FA09F848EA05056F
:10233000DFF84C814FEA920948F82950D1F804801F
:1023400008F48038B8F5803F0AD1DFF83881D8F832
:10235000008048EA0008DFF82C91C9F8008009E005
:10236000DFF82081D8F8008028EA0008DFF814910F
:10237000C9F80080D1F8048008F40038B8F5003FAF
:1023800010D1DFF8008108F10408D8F8008048EA8D
:102390000008DFF8F09000E05AE009F10409C9F8FC
:1023A00000800DE0DFF8DC8008F10408D8F8008038
:1023B00028EA0008DFF8CC9009F10409C9F8008088
:1023C000D1F8048008F48018B8F5801F0ED1DFF82A
:1023D000B48008F10808D8F8008048EA0008DFF85F
:1023E000A49009F10809C9F800800DE0DFF8948095
:1023F00008F10808D8F8008028EA0008DFF884907F
:1024000009F10809C9F80080D1F8048008F400181F
:10241000B8F5001F0ED1DFF86C8008F10C08D8F871
:10242000008048EA0008DFF85C9009F10C09C9F85F
:1024300000800DE0DFF84C8008F10C08D8F800802F
:1024400028EA0008DFF83C9009F10C09C9F800807F
:10245000521CD1F8008028FA02F8B8F1000F7FF47E
:1024600089AEBDE8F887000000001110001002409E
:1024700000080140000C0140001001400014014020
:102480000800014000040140024693680B400BB174
:10249000012000E0002070470AB1016101E00B0457
:1024A0000361704701480068704700003000002059
:1024B00003480068034909780844014908607047E7
:1024C000300000203800002010B50848006840F0B7
:1024D000100006490860032000F0A8F80F2000F063
:1024E00007F800F02BF8002010BD0000002002408B
:1024F00070B504460E4800784FF47A71B1FBF0F0E5
:102500000C490968B1FBF0F5284600F02FFD08B131
:10251000012070BD102C07D200222146501E00F071
:1025200047F80548046001E00120F2E70020F0E7E9
:10253000380000203C0000203400002008B500BF17
:102540001148806940F001000F49886108468069A0
:1025500000F00100009000BF00BF00BF0846C06946
:1025600040F08050C8610846C06900F0805000907B
:1025700000BF00BF00BF0549486820F0E06040F0A0
:102580000070486000BF08BD00100240000001401C
:1025900001460846002809DB00F01F0301229A408B
:1025A00043099B0003F1E023C3F8002100BF7047FB
:1025B0002DE9F05F80460D461646002702F0D0FD5B
:1025C000074639462A46334601F00700C0F1070A9C
:1025D000BAF1040F02D94FF0040A01E0C0F1070A72
:1025E000D14600F1040ABAF1070F02D24FF0000AF7
:1025F00001E0A0F1030AD4464FF0010A0AFA09FAF1
:10260000AAF1010A0AEA020A0AFA0CFA4FF0010BCF
:102610000BFA0CFBABF1010B0BEA030B4AEA0B04C0
:102620002146404602F0A4FDBDE8F09F00BF00F047
:102630000702064B19684FF6FF031940044B0B4382
:1026400043EA0221014B196000BF70470CED00E026
:102650000000FA052DE9F04385B006463BA30FCBF9
:1026600001AC0FC43DA0006800904FF000080025A9
:1026700000270024A146012E30D0022E55D0102E66
:102680005ED137484468006800F0807000B301A84C
:10269000C4F38341475C04F4803070B13048406833
:1026A000C0F340401DF8008004F4803040B12D4854
:1026B000B0FBF8F000FB07F502E02B4807FB00F544
:1026C0002748406800F48000B0F5800F01D1A9468A
:1026D00003E068000321B0FBF1F932E02048046A0E
:1026E00004F44070B0F5807F05D104F0020010B111
:1026F0004FF4004918E004F44070B0F5007F07D1B2
:102700001748406A00F0020010B149F640490BE05A
:1027100004F44070B0F5407F06D11148006800F421
:10272000003008B14FF224490BE000F093F90C4956
:102730004968C1F38131491C4900B0FBF1F900E05F
:1027400000BF00BF484605B0BDE8F08302030405A2
:10275000060708090A0B0C0D0E0F101001020000ED
:102760000010024000127A0000093D00F8B504464E
:1027700000260025207800F0010000286BD00027FB
:102780004348C06900F0805070B900BF4048C0693C
:1027900040F080503E49C8610846C06900F0805052
:1027A000009000BF00BF01273A48006800F4807025
:1027B000B0B93848006840F4807036490860FFF7C7
:1027C00071FE064606E0FFF76DFE801B642801D906
:1027D0000320F8BD2F48006800F480700028F2D074
:1027E0002B48006A00F440752DB3A08800F44070B7
:1027F000A84220D02648006A20F4407501202649CE
:102800000860002008602248056205F0010090B1D0
:10281000FFF748FE064608E0FFF744FE801B41F242
:102820008831884201D90320D3E71948006A00F0B3
:1028300002000028F0D01648006A20F44070616859
:10284000084313490862012F04D10846C06920F0EB
:102850008050C86100BF207800F00200022807D134
:102860000B48406820F44040A1680843084948608C
:10287000207800F01000102807D10548406820F4A7
:102880008000E1680843024948600020A1E7000099
:1028900000100240007000404004424270B50446FF
:1028A0000D460CB9012070BD5A48006800F00700C1
:1028B000A8420ED25748006820F007002843554927
:1028C00008600846006800F00700A84201D0012017
:1028D000E9E7207800F0020002281DD1207800F0FE
:1028E0000400042805D14C48406840F4E0604A499F
:1028F0004860207800F00800082805D14648406864
:1029000040F46050444948604348406820F0F0007B
:10291000A168084340494860207800F0010078B37E
:102920006068012806D13C48006800F4003090B986
:102930000120B8E76068022806D13748006800F037
:10294000007040B90120AEE73348006800F0020093
:1029500008B90120A7E73048406820F0030061680B
:1029600008432D494860FFF79DFD064609E0FFF743
:1029700099FD801B41F28831884202D9032092E7F9
:1029800007E02548406800F00C006168B0EB810F5B
:10299000EDD12048006800F00700A8420ED91D487C
:1029A000006820F0070028431A49086008460068BC
:1029B00000F00700A84201D0012074E7207800F061
:1029C0000400042807D11448406820F4E060E1685E
:1029D000084311494860207800F00800082808D111
:1029E0000D48406820F46050216940EAC1000A495E
:1029F000486000F03FF808494968C1F30311074AED
:102A0000515CC8400649086006480068FFF770FD41
:102A1000002048E7002002400010024076590008DC
:102A20003C0000203400002001480068704700008E
:102A30003C00002000B5FFF7F7FF04494968C1F3E7
:102A40000221034A515CC84000BD00000010024052
:102A50008659000800B5FFF7E7FF04494968C1F34C
:102A6000C221034A515CC84000BD00000010024072
:102A700086590008F0B585B00FF26C0C9CE8E010A8
:102A800001A8A0E8E0101CA52D68009500210022F7
:102A9000002300240020194D696801F00C05F5B1F0
:102AA000042D02D0082D19D101E0154819E001AD1F
:102AB000C1F38346AC5D01F4803555B10F4D6D68AF
:102AC000C5F340451DF805200D4D6543B5FBF2F3F8
:102AD00002E00C4D04FB05F3184602E000BF084875
:102AE00000BF00BF05B0F0BD0203040506070809DA
:102AF0000A0B0C0D0E0F1010010200000010024016
:102B000000127A0000093D00F8B504460CB9012016
:102B1000F8BD207800F00100002878D0F84840681F
:102B200000F00C0004280CD0F548406800F00C00C0
:102B3000082811D1F248406800F48030B0F5803F99
:102B40000AD1EF48006800F4003000285FD06068C8
:102B500000285CD10120DBE700BF6068B0F5803F52
:102B600006D1E748006840F48030E549086028E075
:102B7000606858B9E248006820F48030E049086095
:102B80000846006820F4802008601AE06068B0F50C
:102B9000A02F0BD1DA48006840F48020D8490860A3
:102BA0000846006840F4803008600AE0D4480068B5
:102BB00020F48030D24908600846006820F4802064
:102BC000086000BF606888B1FFF76CFC054606E04E
:102BD000FFF768FC401B642801D9032098E7C84828
:102BE000006800F400300028F2D010E0FFF75AFC33
:102BF000054606E0FFF756FC401B642801D9032078
:102C000086E7BF48006800F400300028F2D1207841
:102C100000F00200022857D1B948406800F00C00CB
:102C200050B1B748406800F00C00082818D1B448EB
:102C3000406800F4803098B9B148006800F00200A4
:102C400020B12069012801D0012061E7AC4800686B
:102C500020F0F800616940EAC100A949086033E04A
:102C60002069E8B10120A7490860FFF71BFC054671
:102C700006E0FFF717FC401B022801D9032047E7B5
:102C80009F48006800F002000028F2D09C480068CD
:102C900020F0F800616940EAC1009949086013E03A
:102CA000002098490860FFF7FDFB054606E0FFF7A6
:102CB000F9FB401B022801D9032029E7904800684E
:102CC00000F002000028F2D1207800F00800082867
:102CD0002DD1A069B8B101208B490860FFF7E2FB54
:102CE000054606E0FFF7DEFB401B022801D9032062
:102CF0000EE78348406A00F002000028F2D001206D
:102D000001F00AFE13E000207F490860FFF7CAFBCC
:102D1000054606E0FFF7C6FB401B022801D9032049
:102D2000F6E67748406A00F002000028F2D12078E9
:102D300000F00400042873D100277148C06900F036
:102D4000805070B900BF6E48C06940F080506C4937
:102D5000C8610846C06900F08050009000BF00BF05
:102D600001276A48006800F48070B0B967480068BD
:102D700040F4807065490860FFF794FB054606E063
:102D8000FFF790FB401B642801D90320C0E65F4891
:102D9000006800F480700028F2D000BFE0680128CD
:102DA00006D15748006A40F001005549086227E003
:102DB000E06858B95248006A20F0010050490862A2
:102DC0000846006A20F00400086219E0E06805285F
:102DD0000BD14B48006A40F004004949086208469C
:102DE000006A40F0010008620AE04548006A20F0ED
:102DF0000100434908620846006A20F004000862A6
:102E000000BFE068A0B1FFF74DFB054609E0FFF702
:102E100049FB401B41F28831884202D9032077E602
:102E200022E03748006A00F002000028EFD012E0EC
:102E3000FFF738FB054608E0FFF734FB401B41F283
:102E40008831884201D9032062E62D48006A00F0EB
:102E500002000028F0D1012F05D12948C06920F0D7
:102E600080502749C86100BFE069C8B32448406862
:102E700000F00C00082860D0E069022848D100204A
:102E800020490866FFF70EFB054606E0FFF70AFB40
:102E9000401B022801D903203AE61948006800F0D7
:102EA00000700028F2D1206AB0F5803F07D11448A5
:102EB000406820F40030A168084311494860D4E913
:102EC000080108430E49496821F4741108430C496C
:102ED000486001200B490866FFF7E4FA054607E061
:102EE0003DE0FFF7DFFA401B022801D903200FE67F
:102EF0000348006800F000700028F2D02FE00000C6
:102F00000010024000004242800442420070004033
:102F1000002014490866FFF7C5FA054606E0FFF7EA
:102F2000C1FA401B022801D90320F1E50E480068D0
:102F300000F000700028F2D111E0E069012800D112
:102F4000E6E50948466806F48031206A814204D1EA
:102F500006F47011606A814201D00120D8E500209A
:102F6000D6E50000000042420010024070B5044661
:102F70002546681EB0F1807F01D301200FE0681E56
:102F80004FF0E02148610F214FF0FF3002F0F0F8E0
:102F900000204FF0E021886107200861002070BD0B
:102FA00010B5024600BF92F83C00012801D1022072
:102FB00010BD012082F83C0000BF022082F83D00D5
:102FC000106843681068846823F07003086803433E
:102FD00024F08004486804431068436010688460EB
:102FE000012082F83D0000BF002082F83C0000BFB5
:102FF00000BFDDE710B504460CB9012010BD94F800
:103000003D0028B9002084F83C00204600F00CF870
:10301000022084F83D00211D206801F047FD0120B9
:1030200084F83D000020E9E708B50168B1F1804F60
:103030000DD100BF0F49C96941F001010D4AD161AD
:103040001146C96901F00101009100BF11E00A4A6F
:10305000016891420DD100BF0649C96941F00201E2
:10306000044AD1611146C96901F00201009100BF13
:1030700000BF08BD00100240000400402DE9F041EF
:1030800004460D4600BF94F83C00012802D10220FE
:10309000BDE8F081012084F83C0000BF022084F8E4
:1030A0003D002068866826F0770626F47F46206873
:1030B00086602868502833D00CDC202850D004DCEF
:1030C00000284BD0102851D149E0302849D0402861
:1030D0004CD139E060282DD0702807D0B0F5805F42
:1030E00003D0B0F5005F41D10DE040E0D5E9021317
:1030F0006A68206801F025FD2068866846F077063A
:103100002068866033E0D5E902136A68206801F020
:1031100018FD2068806840F480402168886026E0BF
:10312000EA686968206801F0DDFD5021206801F03F
:1031300013FD1CE0EA686968206801F0E6FD602183
:10314000206801F009FD12E0EA686968206801F072
:10315000C9FD4021206801F0FFFC08E000BF00BF6E
:1031600000BF2968206801F0F7FC00E000BF00BF45
:10317000012084F83D0000BF002084F83C0000BF1F
:1031800000BF85E710B586B004460020029003908A
:10319000049005902068B0F1804F22D100BF2048F4
:1031A000806940F008001E4988610846806900F087
:1031B0000800019000BF00BF081502900220039094
:1031C0000320059002A91748FEF7CEFF00BF16495D
:1031D000486820F4407040F0E06040F400704860BF
:1031E0001BE012492068884217D100BF0C48806953
:1031F00040F008000A4988610846806900F008002C
:10320000019000BF00BF0120029002200390032024
:10321000059002A90348FEF7A7FF06B010BD000005
:1032200000100240000C014000000140000400407A
:1032300070B504460D46164600BF94F83C000128C0
:1032400001D1022070BD012084F83C0000BF0220A3
:1032500084F83D0036B1042E1BD0082E31D00C2E40
:103260005ED145E02946206801F080FC2068806935
:1032700040F00800216888612068806920F004001F
:10328000216888612068806929690843216888610C
:1032900047E02946206801F099FC2068806940F4E5
:1032A0000060216888612068806920F4806021685E
:1032B000886120688069296940EA01202168886165
:1032C0002FE02946206801F0B5FC2068C06940F075
:1032D00008002168C8612068C06920F004002168E6
:1032E000C8612068C069296908432168C86118E07D
:1032F0002946206801F0D2FC2068C06940F40060D3
:103300002168C8612068C06920F480602168C861B4
:103310002068C069296940EA01202168C86100E08D
:1033200000BF00BF012084F83D0000BF002084F8EA
:103330003C0000BF00BF85E710B504460CB9012072
:1033400010BD94F83D0028B9002084F83C002046C8
:1033500000F00CF8022084F83D00211D206801F0E7
:10336000A5FB012084F83D000020E9E7704700003C
:1033700070B504460E4601223146206801F0D0FBAC
:103380000D492068884201D1012000E0002028B1C9
:103390002068406C40F400402168486420688068E0
:1033A00000F00705062D05D02068006840F00100F8
:1033B00021680860002070BD002C014030B5044633
:1033C0000D4600222946206801F0AAFB1949206811
:1033D000884201D1012000E0002090B100BF2068A8
:1033E000006A41F21111084050B92068006A891042
:1033F000084028B92068406C20F4004021684864E7
:1034000000BF00BF2068006A41F21111084050B9A6
:103410002068006A8910084028B92068006820F0F8
:1034200001002168086000BF012084F83D000020F1
:1034300030BD0000002C0140704700002DE9F0472E
:103440000446206805682068C668206847694FF010
:103450000008C14605F00F08B8F1000F0AD105F0C9
:10346000200038B106F0200020B1204601F08BFC8E
:10347000BDE8F087B8F1000F6DD007F0010018B972
:1034800006F49070002866D005F0010030B106F413
:10349000807018B1E06B40F00100E06305F00400BB
:1034A00030B107F0010018B1E06B40F00200E063BA
:1034B00005F0020030B107F0010018B1E06B40F0F8
:1034C0000400E06305F0080030B107F0010018B116
:1034D000E06B40F00800E063E06B68B305F02000AB
:1034E00028B106F0200010B1204601F04CFC206805
:1034F0004069C0F38019E06B00F0080010B9B9F121
:10350000000F22D0204601F01EFC2068406900F028
:103510004000B0B12068406920F040002168486157
:10352000606B50B11748616B4863606BFEF7B0FD8C
:1035300010B1606B416B88470CE02046FFF77CFFC1
:1035400008E02046FFF778FF04E02046FFF774FF0D
:103550000020E0638CE705F0800030B106F08000C9
:1035600018B1204601F032FD82E705F0400030B18D
:1035700006F0400018B1204601F0F5FB78E700BFE7
:1035800076E70000334D000810B504460CB9012061
:1035900010BDA06900B100E000BF94F8390028B95F
:1035A000002084F83800204600F028F8242084F811
:1035B00039002068C06820F400502168C8602046A7
:1035C00001F034FC2068006920F490402168086113
:1035D0002068406920F02A00216848612068C0689E
:1035E00040F400502168C8600020E063202084F887
:1035F000390084F83A000020CAE7000010B586B010
:103600000446002002900390049005903B492068F6
:10361000884236D100BF3A48806940F4804038493A
:1036200088610846806900F48040019000BF00BFB7
:1036300000BF0846806940F008008861084680693C
:1036400000F00800019000BF00BF4020029002205F
:1036500003900320059002A92A48FEF785FD8020EB
:10366000029000200390049002A92648FEF77CFDFA
:1036700000BF2549486840F0E06040F00400486021
:1036800039E022492068884235D100BF1C48C06912
:1036900040F400301A49C8610846C06900F400309F
:1036A000019000BF00BF00BF0846806940F00400E1
:1036B00088610846806900F00400019000BF00BFE7
:1036C00004200290022003900320059002A91048D4
:1036D000FEF74AFD0820029000200390049002A902
:1036E0000B48FEF741FD002211462620FEF760FF41
:1036F0002620FEF74DFF06B010BD00000038014047
:1037000000100240000C0140000001400044004055
:103710000008014010B5034693F83A0020282FD145
:1037200001B10AB9012010BD00BF93F8380001288B
:1037300001D10220F7E7012083F8380000BF996229
:103740009A85DA850020D863222083F83A0000BFEA
:10375000002083F8380000BF1868C06840F480700B
:103760001C68E0601868406940F001001C686061F6
:103770001868C06840F020001C68E0600020D2E7B4
:103780000220D0E710B50446084800780849094AE5
:103790001278885407480078401C064908700122B6
:1037A00002490548FFF7B6FF10BD000040000020A9
:1037B000E401002041000020A40100202DE9F8438D
:1037C00004460D4616461F464FF0000994F839008E
:1037D00020285CD105B116B90120BDE8F88300BFEF
:1037E00094F83800012801D10220F6E7012084F87E
:1037F000380000BF0020E063212084F83900FEF784
:1038000051FE8146A684E6842BE0E08C401EE084D5
:10381000A068B0F5805F16D14B460022802120467B
:10382000009701F007FC08B10320D6E7A846B8F8D6
:103830000000C0F3080021684860206908B9AD1C89
:103840000FE06D1C0DE04B460022802120460097C2
:1038500001F0F0FB08B10320BFE715F8010B216868
:103860004860E08C0028D0D14B4600224021204601
:10387000009701F0DFFB08B10320AEE7202084F8B9
:10388000390000BF002084F8380000BFA5E70220FF
:10389000A3E7704700BFFEE7032000BF011EA0F1B1
:1038A0000102D0B2FAD1704710B501F0C7FC6249ED
:1038B0000870624800780978884204D05E48007831
:1038C0005E49087002E000205B4908705A480078A1
:1038D000012806D0022818D0032831D0042813D19B
:1038E0007BE057480078401C55490870084600782E
:1038F000012801DD0020087000F05EFA50480078D1
:1039000010B900204F49087094E04D48007858B92C
:103910004D480078401C4C49087008460078012842
:103920000DDD002008700AE046480078401C45493B
:10393000087008460078022801DD0020087079E050
:103940003F48007878B940480078012844D13F4882
:103950000078401C3D4908700846007801283BDD8E
:103960000020087038E03748007820B1012812D0D4
:10397000022830D11FE036490868364901F00EFDB3
:10398000334908600868344901F04CFF02D2002036
:103990002F4908601FE02E4948682E4901F0FEFCBF
:1039A0002B49486048682C4901F03CFF02D20020B6
:1039B000274948600FE026498868264901F0EEFC57
:1039C000234988608868244901F02CFF02D2002036
:1039D0001F49886000BF00BF2CE019480078E0B99B
:1039E00019480078012824D11C480078401C1B4944
:1039F000087008460078012801DD0020087017488B
:103A00000078012804D10021154800F09BFF10E048
:103A10005A21134800F096FF0BE00A48007820B1C5
:103A2000012803D0022803D101E001E000E000BF3B
:103A300000BF00BF00BF10BD2A00002029000020E9
:103A4000280000202B000020270000201900002063
:103A50000C0000209A99993E000040401800002078
:103A6000240100200EB500200090019002901E4815
:103A70001E49086081151D488160002101730121E4
:103A8000017581614FF46021C161002017494860D0
:103A9000032116480161FEF7B1F808B1FDF775FF83
:103AA0000120009001900720029069460F48FDF721
:103AB000F1FF08B1FDF769FF062000900220019098
:103AC00069460A48FDF7E6FF08B1FDF75EFF0720EB
:103AD00000900320019069460448FDF7DBFF08B120
:103AE000FDF753FF0EBD000000240140B40000208C
:103AF00000B585B00020019002900390049000BFB3
:103B00003848806940F0200036498861084680695D
:103B100000F02000009000BF00BF00BF0846806991
:103B200040F0040088610846806900F004000090BD
:103B300000BF00BF00BF0846806940F008008861F0
:103B40000846806900F00800009000BF00BF002216
:103B500041F610712448FEF79FFC00224FF41041FB
:103B60002248FEF799FC4FF4716001900120029009
:103B7000002003900320049001A91B48FEF7F4FAEB
:103B80004FF4104001900120029000200390032088
:103B9000049001A91548FEF7E7FA4FF48050019010
:103BA00001200290022003900320049001A90E48F6
:103BB000FEF7DAFA4FF40040019000200290012055
:103BC000039001A90848FEF7CFFA382001900020A1
:103BD00002900120039001A90448FEF7C5FA05B040
:103BE00000BD00000010024000080140000C014030
:103BF00000B58DB0002009900A900B900C900790B2
:103C000008901C216846FCF7D2FB4FF08040214908
:103C100008604720486000211E48816044F61F610B
:103C2000C1600021016180218161FFF7E3F908B1E2
:103C3000FDF7ABFE4FF48050099009A91548FFF736
:103C40001DFA08B1FDF7A1FE1248FFF775FB08B198
:103C5000FDF79BFE00200790089007A90D48FFF78D
:103C60009FF908B1FDF791FE6020009040F2DC5012
:103C70000190002002900490082269460548FFF751
:103C8000D7FA08B1FDF781FE0248FFF77BFA0DB0C5
:103C900000BD0000E400002000B58DB000200990B8
:103CA0000A900B900C90079008901C216846FCF736
:103CB0007EFB2148214908604720486000211F48B9
:103CC000816044F61F61C160002101618021816132
:103CD000FFF790F908B1FDF758FE4FF480500990B6
:103CE00009A91648FFF7CAF908B1FDF74EFE1348B7
:103CF000FFF722FB08B1FDF748FE0020079008906F
:103D000007A90E48FFF74CF908B1FDF73EFE602009
:103D100000904FF4DC700190002002900490082283
:103D200069460648FFF784FA08B1FDF72EFE0348FE
:103D3000FFF728FA0DB000BD000400402401002068
:103D400010B50B480B4908604FF4E1304860002182
:103D500008488160C16001610C21416100218161DD
:103D6000C161FFF711FC08B1FDF70FFE10BD0000A7
:103D7000003801406401002010B50B480B49086071
:103D80004FF416504860002108488160C16001610D
:103D90000C21416100218161C161FFF7F5FB08B190
:103DA000FDF7F3FD10BD000000440040A401002019
:103DB00000BFFEE700BFFEE770B500240CE0002561
:103DC00006E00020074901EBC5010855681CC5B293
:103DD000802DF6DB601CC4B2082CF0DB00F08AFBFF
:103DE00070BD0000BC020020F0B514460B46CF1792
:103DF00001EB5777C7F3C702CF1701EB5777FF10D7
:103E0000A1EBC707FEB20123B340DDB24CB1134BA7
:103E100003EBC0039B5C2B43104F07EBC007BB5465
:103E20001AE00E4B03EBC0039B5CDB430B4F07EB2D
:103E3000C007BB54094B03EBC0039B5C2B43074FEC
:103E400007EBC007BB54054B03EBC0039B5CDB4394
:103E5000024F07EBC007BB54F0BD0000BC020020BE
:103E600010B50122D1030D48FEF716FB0122110304
:103E70000A48FEF711FBFFF70FFD00224FF4004147
:103E80000648FEF709FBFFF707FD00224FF48051BB
:103E90000248FEF701FBFFF7FFFC10BD000C0140DC
:103EA00010B500224FF400410748FEF7F5FA012251
:103EB00011030548FEF7F0FAFFF7EEFC0122D103EB
:103EC0000148FEF7E9FA10BD000C014010B50122CF
:103ED000D1030A48FEF7E0FAFFF7DEFC01221103E6
:103EE0000648FEF7D9FAFFF7D7FC00224FF48051BD
:103EF0000248FEF7D1FAFFF7CFFC10BD000C0140DD
:103F000010B5C820FEF71CF90021AE2000F0E7FC38
:103F10000021084600F0E3FC0021102000F0DFFC47
:103F20000021402000F0DBFC0021812000F0D7FCC4
:103F30000021CF2000F0D3FC0021A12000F0CFFC15
:103F40000021C82000F0CBFC0021A62000F0C7FC17
:103F50000021A82000F0C3FC00213F2000F0BFFC9E
:103F60000021D32000F0BBFC0021084600F0B7FC84
:103F70000021D52000F0B3FC0021802000F0AFFC30
:103F80000021D92000F0ABFC0021F12000F0A7FCBB
:103F90000021DA2000F0A3FC0021122000F09FFC99
:103FA0000021DB2000F09BFC0021302000F097FC7A
:103FB0000021202000F093FC0021022000F08FFC63
:103FC00000218D2000F08BFC0021142000F087FCE4
:103FD000FFF7F2FE0021AF2000F081FC10BD0000D1
:103FE0007CB5FE48007810B101287DD182E1012026
:103FF0001023072200210090184600F07BFB0120CF
:104000001023082200210090202000F073FB0120E3
:104010001023092200210090302000F06BFB0120CA
:1040200010230A2200210090402000F063FBEC489E
:10403000007880B901201023042200210090602024
:1040400000F058FB01201023052200210090702071
:1040500000F050FB0FE00120102306220021009009
:10406000602000F047FB0120102305220021009072
:10407000702000F03FFB01201021CDE90010D9484D
:1040800002230268002000F0B9FB01201021CDE9D5
:104090000010D54802230268202000F0AFFB012069
:1040A00010233A2219460090302000F083FA0120B4
:1040B0001021CDE90010CC4802234268362000F0E0
:1040C0009DFB012010233A2219460090462000F063
:1040D00071FA01201021CDE90010C3480223826843
:1040E0004E2000F08BFB00E0F2E101201021CDE931
:1040F0000010BC48022382686E2000F07FFBBB48A2
:10410000007800BB0120102309222021009000200C
:1041100000F0F0FA012010230A2220210090184616
:1041200000F0E8FA012010233A22202100900846EE
:1041300000F040FA012010231522202100902820B1
:1041400000F0D8FA22E0A948007801281ED11023F7
:10415000092220210090002000F0CCFA0120102339
:104160000A2220210090184600F0C4FA01201023F2
:104170003A2220210090084600F01CFA012010236A
:10418000142220210090282000F0B4FA98480078EA
:1041900000BB01201023092220210090482000F0BC
:1041A000A9FA01201023132220210090582000F0AA
:1041B000A1FA012010233A2220210090682000F06B
:1041C000F9F901201023142220210090702000F022
:1041D00091FA22E08648007801281ED11023092296
:1041E00020210090482000F085FA0120102313229E
:1041F00020210090582000F07DFA012010233A225F
:1042000020210090682000F0D5F90120102315220C
:1042100020210090702000F06DFA7648007880B977
:1042200001201023172230210090002000F062FAB4
:10423000012010231D2230210090184600F05AFA68
:104240000FE001201023162230210090002000F002
:1042500051FA012010231D2230210090184600F051
:1042600049FA6548007880B90120102317223021CF
:104270000090084600F03EFA012010231822302159
:104280000090402000F036FA0FE0012010231622A3
:1042900030210090084600F02DFA0120102318224A
:1042A00030210090402000F025FA5448007880B971
:1042B000012010230F2230210090602000F01AFA14
:1042C000012010231A4630210090702000F012FACD
:1042D0000FE001201023112230210090602000F017
:1042E00009FA01201023122230210090702000F0E2
:1042F00001FAEDE0012010231E2200210090084663
:1043000000F0F8F9012010231F2200210090184628
:1043100000F0F0F93AA13E48FBF766FF01201023B8
:104320003B4A00210090202000F0B2FA0120102327
:104330001D2219460090002000F0DCF90120102316
:10434000202219460090184600F0D4F901201023CD
:104350003A2219460090202000F02CF92D490868D7
:1043600000F0F0FF044622460B462BA12848FBF73D
:104370003BFF01201023264A19460090282000F018
:1043800087FA27A12248FBF72FFF01201023204A9C
:1043900019460090482000F07BFA012010232122CA
:1043A00020210090002000F0A5F9012010232222F6
:1043B00020210090184600F09DF9012010233A2298
:1043C00020210090084600F0F5F81249486800F0F6
:1043D000B9FF044622460B460FA127E02800002023
:1043E00027000020AC020020000000201800002060
:1043F00019000020260000202400002025000020B5
:10440000202020202020202020202020000000002C
:10441000440000200C000020252E32660000000021
:104420002020202020202020200000002948FBF709
:10443000DBFE01201023274A20210090282000F0D5
:1044400027FAAFF224012348FBF7CEFE0120102308
:10445000204A20210090482000F01AFA0120102361
:10446000232230210090002000F044F90120102385
:10447000242230210090184600F03CF9012010233E
:104480003A2230210090202000F094F812498868E8
:1044900000F058FF044622460B46AFF284010D4857
:1044A000FBF7A2FE012010230A4A302100902820A9
:1044B00000F0EEF9AFF298010648FBF795FE0120F7
:1044C0001023044A30210090482000F0E1F900BF99
:1044D00000BF7CBD440000200C00002010B5024647
:1044E000012000E050430B1EA1F10104E1B2F9D11B
:1044F00010BD000070B500242BE004F1B001C8B27B
:10450000002100F0ECF90021084600F0E8F9002154
:10451000102000F0E4F9FFF7A3FC782000F01EF86B
:10452000FFF7D4FC402000F019F8FFF7CFFC00257E
:1045300009E0094901EBC501085D00F00FF8FFF73C
:10454000C5FC681CC5B2802DF3DBFFF7A9FC601C1D
:10455000C4B2082CD1DB70BDBC02002070B504468B
:10456000002521E004F0800028B10122D103104889
:10457000FDF792FF05E000224FF400410C48FDF7E3
:104580008BFFFFF789F9012211030948FDF784FF2A
:10459000FFF782F900224FF480510548FDF77CFFB8
:1045A0006006040E681CC5B2082DDBDB70BD000080
:1045B000000C01402DE9FE4F0746884692461C46F6
:1045C0000197CDF80080082C02D14FF006091FE0BA
:1045D0002046E31704EB5373DB1021464FEAE47CDB
:1045E00004EB5C7C4FEAEC0CA4EBCC0CBCF1000FB0
:1045F00002D04FF0010C01E04FF0000C6344224662
:1046000004EBD27C4FEA6C0C03FB0CF303F0FF09C4
:10461000AAF12000C6B200255EE0082C07D106EB07
:104620004600304901EB400010F805B01DE00C2CAD
:1046300007D106EB46002C4901EB800010F805B0CD
:1046400013E0102C05D1294800EB061010F805B036
:104650000BE0182C07D106EBC600254901EB8000C2
:1046600010F805B001E0BDE8FE8F002002901CE0CC
:104670000BF0010028B1414638460C9AFFF7B4FB15
:1046800009E00C9808B9012000E0002002464146EC
:104690003846FFF7A9FB4FEA6B0B08F1010000F069
:1046A000FF080298401CC0B2029002980828DFDB85
:1046B000781CC7B2082C0BD004EBD4714A100199B6
:1046C000791A8A4204D1019F00980830C0B2009044
:1046D000DDF80080681CC5B24D459EDBFFF70AFF80
:1046E00000BFC0E78E590008B65B00082A600008CA
:1046F0001A6600082DE9FC5F0746884616461C46E8
:10470000BB46CDF804802046E21704EB5272D2106B
:104710002146E31704EB5373DB10A4EBC3030BB187
:10472000012300E000231A44624392B20092002564
:1047300055E0102C05D12D4800EB461010F805A0CF
:104740001BE0182C07D106EBC600294901EBC0007D
:1047500010F805A011E0202C05D1264800EBC6106A
:1047600010F805A009E0402C05D1234800EB4620B5
:1047700010F805A001E0BDE8FC9F4FF000091CE027
:104780000AF0010028B1414638460C9AFFF72CFB8D
:1047900009E00C9808B9012000E0002002464146DB
:1047A0003846FFF721FB4FEA6A0A08F1010000F0E2
:1047B000FF0809F1010000F0FF09B9F1080FDFDB84
:1047C000781CC7B2A7EB0B00A04204D15F4601984A
:1047D0000830C0B20190DDF80480681C85B20098F2
:1047E0008542A6DBFFF786FE00BFC4E776730008AC
:1047F000167800085E780008DE7800082DE9FF4F83
:1048000083B0064691461F46DDE9104A4FF0000B83
:10481000082C01D14FF0020B002532E0781B401E1E
:10482000C1B20A20FFF75AFEB9FBF0F00A21B0FB33
:10483000F1F201FB1208B8F1000F0FD104EBD471B3
:104840000BEB610101FB0561C8B223463022CDF8B4
:1048500000A002940499FFF7ADFE10E004EBD471C0
:104860000BEB610101FB0561C8B208F13001CAB26E
:104870002346CDF800A002940499FFF79BFE681C24
:10488000C5B2BD42CADBFFF735FE07B0BDE8F08F09
:104890002DE9F84306460F4614461D46DDF82080F4
:1048A00013E0CDF8008022782B4639463046FFF7DA
:1048B00081FE082D02D1B01DC6B205E0284605EBE9
:1048C000D07106EB6101CEB2641C2078202802DB97
:1048D00020787E28E5DDFFF70DFEBDE8F88370B592
:1048E00005460C46FFF7BCFA7820FFF737FEFFF7C6
:1048F000EDFA1CB14020FFF731FE02E00020FFF787
:104900002DFEFFF7E3FA2846FFF728FEFFF7DEFA51
:10491000FFF7C6FA70BD704708B508490968C908AD
:104920004FF47A72B1FBF2F14143009100BF00BF36
:1049300000994A1E00920029F9D108BD3C000020D0
:104940007047000010B5B42901DDB42300E00B4628
:1049500019464FF4FA634B43B42493FBF4F303F585
:10496000FA739AB2034C0368A34201D10368DA6375
:1049700010BD00000004004010B5FDF799FD24486B
:104980000088401C2249088022480068401C2149B8
:104990000860084600682049096888420DDD01204A
:1049A0001C4908601D480078401C1C4908700846D6
:1049B0000078012801DD0020087015480088B0F556
:1049C0007A7F23DD00201249088015488068401C4A
:1049D00013498860084680683C2817DD00208860FD
:1049E00008464068401C4860084640683C280DDD89
:1049F0000020486008460068401C086008460068BF
:104A0000182803DD002088604860086010BD0000A1
:104A10002C0000201C000020200000201900002095
:104A20000000002000B593B0282109A8FBF7BFFCC7
:104A3000142104A8FBF7BBFC002000900190029019
:104A400003900120099000040A9000200B9001209F
:104A50000D9002201090C10311914FF4E0111291BA
:104A600009A8FEF751F808B1FCF78FFF0F2004905A
:104A700002200590002006904FF4806007900020EF
:104A80000890022104A8FDF709FF08B1FCF77DFF9B
:104A900002200090800302906846FDF767FE08B18F
:104AA000FCF773FF13B000BD7047000010B502683B
:104AB000184B984208D0B0F1804F05D0164B984261
:104AC00002D0164B984203D122F070024B681A4371
:104AD000104B984208D0B0F1804F05D00E4B984251
:104AE00002D00E4B984203D122F44072CB681A4395
:104AF00022F080034C6943EA040202608B68C362BF
:104B00000B688362034B984201D10B690363012355
:104B1000436110BD002C014000040040000800402B
:104B200030B501F01F05012404FA05F3046A9C4323
:104B30000462046A01F01F0502FA05F52C430462C1
:104B400030BD30B50C46816821F47F4142EA03252F
:104B500025432943816030BD0A46816821F07001F8
:104B600042F00703194381607047000030B5056AC1
:104B700025F001050562026A4368846924F0700427
:104B800024F003040D682C4322F002028D682A43AE
:104B90000D4DA84206D100BF22F00802CD682A437D
:104BA00022F00402084DA84207D123F4807323F4B5
:104BB00000734D692B438D692B43436084614D68BD
:104BC0004563026230BD0000002C014030B5056A2B
:104BD00025F010050562026A4368846924F4E04404
:104BE00024F440740D6844EA052422F020028D6804
:104BF00042EA05120E4DA84207D100BF22F0800202
:104C0000CD6842EA051222F04002094DA84209D1BE
:104C100023F4806323F400634D6943EA85038D69BF
:104C200043EA8503436084614D688563026230BD59
:104C3000002C014030B5056A25F480750562026AD2
:104C40004368C46924F0700424F003040D682C4305
:104C500022F400728D6842EA05220F4DA84207D166
:104C600000BF22F40062CD6842EA052222F480628D
:104C7000094DA84209D123F4805323F400534D6910
:104C800043EA05138D6943EA05134360C4614D6827
:104C9000C563026230BD0000002C014030B5056ADA
:104CA00025F480550562036A4468C26922F4E04233
:104CB00022F440720D6842EA052223F400538D6805
:104CC00043EA0533064DA84204D124F480444D69DB
:104CD00044EA85144460C2614D680564036230BDD6
:104CE000002C014030B50B461446026A056A25F0D7
:104CF00001050562816921F0F00141EA041122F009
:104D00000A021A438161026230BD30B50B46144677
:104D1000056A25F0100505628169026A21F4704177
:104D200041EA043122F0A00242EA031281610262E8
:104D300030BD70B505466C6A0020E085E0842046F1
:104D4000FEF77AFB70BD0168C96821F490710268B2
:104D5000D1600168496921F0010102685161202197
:104D600080F83A10704710B504462068C06820F0FB
:104D700040002168C860202084F839002046FEF7F2
:104D800088FD002010BD70B5044694F83A00222832
:104D90004AD1A068B0F5805F13D1A56A206940B9F7
:104DA00020684068C0F308002880A06A801CA062C8
:104DB00019E020684068C0B22880A06A401CA06248
:104DC00011E0206938B920684068C1B2A26A501C5D
:104DD000A062117007E02068406800F07F01A26ABD
:104DE000501CA0621170E08D401E80B2E085C8B9F1
:104DF0002068C06820F020002168C8602068C06872
:104E000020F480702168C8602068406920F00100AB
:104E100021684861202084F83A002046FEF7B2FC61
:104E2000002070BD0020FCE70220FAE770B50446C0
:104E30002168096921F44051E26811432268116137
:104E40002269A1681143626941EA02052168C968C3
:104E500041F20C62914329432268D160216849697B
:104E600021F44071A269114322685161564A2168B8
:104E7000914254D1FDF7EEFD00EBC00101EB0011B2
:104E800062689200B1FBF2F100EBC00202EB00128B
:104E900063689B00B2FBF3F26423B2FBF3F202EB14
:104EA000C20303EB0212A1EB8201322202EB0111D9
:104EB0006422B1FBF2F101F0F00100EBC00202EB61
:104EC000001263689B00B2FBF3F26423B2FBF3F2BF
:104ED00001EB021200EBC00101EB001163689B00C3
:104EE000B1FBF3F100EBC00303EB00136668B600FF
:104EF000B3FBF6F36426B3FBF6F303EBC30606EB52
:104F00000313A1EB8301322303EB01116423B1FBF3
:104F1000F3F101F00F0111442268916053E0FDF7B5
:104F200089FD00EBC00101EB001162689200B1FB4A
:104F3000F2F100EBC00202EB001263689B00B2FBCF
:104F4000F3F26423B2FBF3F202EBC20303EB0212AF
:104F5000A1EB8201322202EB01116422B1FBF2F1DA
:104F600001F0F00100EBC00202EB001263689B004D
:104F7000B2FBF3F26423B2FBF3F201EB021200EB9B
:104F8000C00101EB001163689B00B1FBF3F100EB82
:104F9000C00303EB00136668B600B3FBF6F36426A8
:104FA000B3FBF6F303EBC30606EB0313A1EB83019C
:104FB000322303EB01116423B1FBF3F101F00F0184
:104FC00011442268916070BD00380140014691F89B
:104FD000390021282CD18868B0F5805F0FD10A6A8A
:104FE0001088C0F308000B685860086918B9086A8F
:104FF000801C086209E0086A401C086205E00B6A30
:10500000581C086218780B685860C88C401E80B223
:10501000C88458B90868C06820F080000B68D86060
:105020000868C06840F040000B68D86000207047F6
:105030000220FCE72DE9F04104460D46174698464C
:10504000069E21E0701CF8B12EB1FDF72BFAA0EB03
:105050000800B04218D92068C06820F4D0702168D8
:10506000C8602068406920F0010021684861202064
:1050700084F8390084F83A0000BF002084F8380032
:1050800000BF0320BDE8F081206800682840A842E6
:1050900001D1012000E00020B842D3D00020F1E788
:1050A00010B50248FEF7CAF910BD0000A4010020A7
:1050B00000BFFEE72DE9FC471D4903C9CDE900010A
:1050C0004FF0040864260024FDF7ECF907464FF082
:1050D00005091DE0FDF7E6F9C01B052818D30025DA
:1050E00006E03DF8151000221248FDF7D5F96D1CB9
:1050F000042DF6D33DF8141001220E48FDF7CCF92B
:10510000601C00F0030404B9761EFDF7CBF90746D6
:10511000002EDFD1002506E03DF8151000220548DD
:10512000FDF7BAF96D1C042DF6D3BDE8FC8700002D
:10513000E07A000800080140490050EAC12018BF89
:1051400004204A0D18BF40F0010040F2FF72B2EB9C
:10515000515F08BF40F00200012808BF05207047DA
:1051600002480068C0F30220704700000CED00E028
:1051700010B5002804DB0A07130E054A135406E095
:105180000A07140E034A00F00F031B1FD45410BD6E
:1051900000E400E018ED00E030380A2801D20120D8
:1051A00070470020704700002DE9F0411F48FCF7D0
:1051B000EFFB002432E01D48FCF7B2FE32211B4811
:1051C000FCF7F6FD0CB1022C12D11848FCF712FDC9
:1051D000074600F013FA0646154900F057FA05464F
:1051E0004FF08B4100F048F9124941F8240013E0D8
:1051F000012C11D10D48FCF7FDFC074600F0FEF92B
:1052000006460D4900F042FA05464FF08B4100F08A
:1052100033F9084941F82400601CC4B2032CCADBEE
:105220000248FCF715FFBDE8F0810000B400002043
:1052300033335340A80000200000A04010B50024E4
:1052400020211D48FDF720F940B91E20FCF778FF0A
:1052500020211948FDF718F900B90124102116483A
:10526000FDF712F940B91E20FCF76AFF1021124821
:10527000FDF70AF900B9022408210F48FDF704F9E7
:1052800040B91E20FCF75CFF08210B48FDF7FCF835
:1052900000B903244FF400410848FDF7F5F848B978
:1052A0001E20FCF74DFF4FF400410448FDF7ECF8D9
:1052B00000B90424204610BD000C01400008014044
:1052C000FDF702F9FFF7AEFBFEF712FCFEF7CAFB93
:1052D000FEF736FDFEF750FDFEF7DEFCFEF788FC1C
:1052E00008210948FEF744F8FCF72CFBFCF72AF9E3
:1052F000FEF706FEFEF760FD05E0FEF7D5FAFCF7C7
:1053000047F9FEF76DFEF8E72401002010B50029EB
:105310000AD00878002807D005487844FBF7E2FB5C
:10532000002801D0002010BD0248784410BD0000C4
:10533000822800007A2800000808A0F500114FEA32
:105340003101704743004FEAD30C4FEA3C0C434015
:105350001FBF40070CF1605113F0FE4F70471CF067
:10536000006F03D100200CF0004170470CF00043A7
:1053700043EA507010B540EACC0000F008FA00BFD4
:10538000000000924FEA0001FFF7D6BF4FF0004146
:105390004FF00000A1F500217047000090EA010FD6
:1053A00048BF81F0004100F17682421A3CBF801A6A
:1053B00089184FEAD0524FF07F4C1CEA410FA2EB04
:1053C000D15318BF9CEA026F00F03B804FF0004CB5
:1053D0004CEA00204CEA012121FA03FC10EB0C0CF2
:1053E0001ED202F1FF325FEA1C2040EBC25038BFF0
:1053F00070471CF07F0F4FEA400C18BFBCF17F4F85
:1054000038BF7047C3F12003994008BF20F0010066
:10541000BCF17F4F38BF7047A0F1C04000F0FDB92C
:105420004FEA3C00000A40EBC25028BF1CF0FF0FBF
:105430004FEA400CE6D018BFBCF17F4F38BF704731
:10544000EAE79CEA026F05D010EA5C0F08BF00F0A3
:105450000040704710B500F09AF900BF64FBBE3EF3
:10546000401058BFC0F14040491058BFC1F1404101
:105470008142EFF3008070474FF47F0C1CEAD0129A
:105480001EBF1CEAD11392EA0C0F93EA0C0F00F036
:10549000858090EA010F48BF42F4807240F4000C0E
:1054A00041F400002CF07F4120F07F4000B58142A4
:1054B000A2EB03020FF2081CACEB504EC0F100004F
:1054C0009EF800E04FEA4E0E00FB0EFC38BF49008C
:1054D0004FEA2C1C02F5FA020CFB0EF34FEACE1E2B
:1054E0004FEA112C4FEAC1210EEB635E42EB2242E0
:1054F0000EFB0CFC4FEA1C5300FB03114FEA112C6E
:105500004FEA01310EFB0CFC4FEADC4C00FB0C11A6
:10551000C14228BF09184CEB03335DF804EB10EBD4
:10552000410143EBC250B2F57C0F38BF704729D51B
:1055300012F0F00F1CBF00F1C04000F000407047B7
:10554000008182838485868788898B8C8D8E8F915C
:105550009293959697999A9C9D9FA0A2A3A5A7A880
:10556000AAACAEB0B2B3B5B7B9BCBEC0C2C5C7C9AC
:10557000CCCED1D4D7D9DCDFE2E6E9ECF0F3F7FA10
:10558000FE0000004FEA400C0CF1807CBCF17E4F25
:1055900028BF7047B0F1C04000F03FB990EA010F5A
:1055A0000CEAD11348BF42F48072624538BF6345AC
:1055B00007D213F47F0F16D080EA010000F00040FC
:1055C000704710B500F0E3F8097EFC3E00F005B826
:1055D00080EA010000F00040704780EA010000F01E
:1055E000004000F01AB912F47F0F04BF0248704760
:1055F00080EA010000F011B90000C07FB0FA80F32A
:1056000010FA03F2C3F19D030AD0D90501EB122071
:10561000530638BF704700F1010008BF20F00100B9
:105620007047000050EA010C00F113801CF5000FD8
:1056300058BFBCF5000F01D48842704707D710F55A
:10564000000F58BF11F5000F15D4884270478942EA
:1056500070471CF5000F04D5BCF5000FF7D581424B
:1056600070474FF0807C1CEB400F38BF1CEB410FA4
:1056700001D28142704710B500F089F892244900A8
:105680004FF000504FF08051FFF7EABE4FF47F0C0F
:105690001CEAD0121EBF1CEAD11392EA0C0F93EA47
:1056A0000C0F00F0478090EA010F48BF42F480726F
:1056B0004FF0004C4CEA00204CEA012102EB0302BF
:1056C000A0FB0113A2F50002002918BF43F001035B
:1056D0005B0028BF4FEA330342EB22425FEA132C00
:1056E0004CEBC2502EBFBCEB436FB2F57C0F704742
:1056F0004FEA036CBCF1004F08BF20F00100B2F587
:105700007C0F38BF70470BD582F0FF0212F5803F47
:10571000C8BF704700F1C040D8BF00F000407047DC
:1057200000F5000C5FEA4C0C48BF7047B0F1C04078
:1057300000F073B890EA010F0CEAD11348BF42F4AD
:105740008072624538BF634504D280EA010000F0F0
:105750000040704710B500F01AF800BF8900013E04
:1057600000F007B800F009B85FEA410C5FEA1C6C72
:1057700008D080EA010000F050B85FEA400C5FEA10
:105780001C6CF6D14FF00040A0F5800070470EF180
:10579000020E2EF0030E5EF8044B244204D44FEAAE
:1057A0004102B2F17F4F11D84FEA4003B3F17F4F6E
:1057B0000CD80ED14FEAD07CB2F17F4F0CEB4C0CE1
:1057C0000CF1020C08BF4CEBD17C04E04FF0080C4C
:1057D00001E04FEAD17C0CEB4C0324FA03F404F013
:1057E0000704B4F1040C06D20EEB840CBDE81040A3
:1057F0004CF0010C6047DFE80CF0070802024FF0A4
:105800000040A0F5800010BD0846420018BFD2F14C
:10581000807288BF00F0004010BDFF2141EAD050E7
:10582000C005704751EA000C00F113801CF5000F11
:1058300058BFBCF5000F01D48142704707D711F55E
:10584000000F58BF10F5000F15D4814270478942F0
:1058500070471CF5000F04D5BCF5000FF7D5884242
:1058600070474FF0807C1CEB410F38BF1CEB400FA2
:1058700001D28842704780EA010081EA000180EA93
:105880000100FFF7F8BE000090EA010F48BF81F069
:1058900000413FF58AAD421A04D882F00042A0EBE5
:1058A000020011444FEAD0524FF07F4C1CEA410FE6
:1058B000A2EBD15318BF9CEA026F4AD04FF0004CC4
:1058C0004CEA00204CEA012121FA03FCB0EB0C0C5D
:1058D0000FD412F0FE0F36D05FEA4C001DD5001237
:1058E00040EBC25038BF70471CF03F0F18BF7047E5
:1058F0000BE0A2F101025FEA1C2040EBC25038BF6E
:1059000070471CF07F0F18BF7047C3F12003994008
:1059100014BF401E20F00100704780084FEA122398
:1059200008BF7047B0FA80FCA2EB0C02CCF1280C47
:1059300060FA0CF093EA122F04BF00EBC2507047DC
:105940004FEAC3707047130A5FEADC1008BF704764
:10595000F6E79CEA026F04D010EA5C0F08BF002053
:10596000704710B5FFF713FF40DFF63E81F00040AF
:105970007047FAF71FBE000000000000000001029F
:1059800003040607080900000000010203040000E8
:10599000000000000000002F0000000007000700CA
:1059A00000147F147F1400242A7F2A1200626408E6
:1059B0001323003649552250000005030000000063
:1059C0001C224100000041221C000014083E081463
:1059D0000008083E0808000000A060000008080851
:1059E0000808000060600000002010080402003E6B
:1059F0005149453E0000427F400000426151494606
:105A0000002141454B31001814127F1000274545F5
:105A10004539003C4A494930000171090503003607
:105A20004949493600064949291E0000363600001A
:105A3000000056360000000814224100001414141F
:105A4000141400004122140800020151090600321A
:105A50004959513E007C1211127C007F4949493658
:105A6000003E41414122007F4141221C007F4949C3
:105A70004941007F09090901003E4149497A007FF7
:105A80000808087F0000417F4100002040413F019D
:105A9000007F08142241007F40404040007F020CFC
:105AA000027F007F0408107F003E4141413E007F9D
:105AB00009090906003E4151215E007F0919294666
:105AC0000046494949310001017F0101003F404042
:105AD000403F001F2040201F003F4038403F0063F0
