:020000040800F2
:10000000A00D0020A1010008EF29000869280008C0
:10001000ED2900083D170008472F000800000000E8
:10002000000000000000000000000000E52D0008B6
:100030007717000800000000E32D0008E72D0008F6
:10004000BB010008BB010008BB010008BB010008A0
:10005000BB010008BB010008BB010008BB01000890
:10006000BB010008BB010008BB01000841170008E4
:10007000BB010008BB010008BB010008BB01000870
:10008000BB010008BB010008BB010008BB01000860
:10009000BB010008BB010008BB010008BB01000850
:1000A000BB010008BB010008BB010008BB01000840
:1000B000BB010008BB010008BB010008BB01000830
:1000C000BB010008BB010008BB010008BB01000820
:1000D000BB010008BB010008BB010008BB01000810
:1000E000BB010008BB010008BB01000800F002F8DA
:1000F00000F047F80AA090E8000C82448344AAF17B
:100100000107DA4501D100F03CF8AFF2090EBAE878
:100110000F0013F0010F18BFFB1A43F0010318473B
:10012000E056000000570000103A24BF78C878C19C
:10013000FAD8520724BF30C830C144BF04680C60ED
:10014000704700000023002400250026103A28BF35
:1001500078C1FBD8520728BF30C148BF0B60704739
:10016000662903F0C781002070471FB500F006FD27
:1001700004000020002102F0D3FFE0601FBD10B595
:1001800010BD00F0FBFD1146FFF7EFFF02F042FF4C
:1001900000F019FE03B4FFF7F2FF03BC00F05CFEB1
:1001A0000948804709480047FEE7FEE7FEE7FEE70B
:1001B000FEE7FEE7FEE7FEE7FEE7FEE70448054947
:1001C000054A064B70470000632E0008ED0000084A
:1001D000A0070020A00D0020A0090020A0090020F9
:1001E00053EA020C00F069802DE9F04B4FF0000655
:1001F000002B1FBFB3FA83F503FA05F424FA05F6C2
:100200005E4012BF1643B2FA82F502FA05F4C5F158
:1002100020051EBF22FA05FC44EA0C04203556EAEC
:10022000044C4FEA144418BF641C4FF000084FF010
:100230000009904271EB030C39D3002919BFB1FAC0
:1002400081F701FA07F6B0FA80F700FA07F6C7F16E
:1002500020071EBF20FA07FC46EA0C062037B6FB33
:10026000F4FCA7EB0507103F07F01F0BCBF12006AE
:100270000CFA0BFB2CFA06F644BFB3460026202FDF
:10028000A4BF5E464FF0000B5BEA060C08BF4FF0C0
:10029000010B19EB0B09ABFB027C48EB0608C01BFA
:1002A00006FB02CC0BFB03CC71EB0C01C1E70B4648
:1002B000024641464846BDE8F08B13B54FF00000BA
:1002C0004FF00001AFF30080BDE81C407047000014
:1002D0000FB41CB5074B06AA7B44694600900598ED
:1002E00000F033FC0020694600F042FC1CBC5DF8C5
:1002F00014FB0000950800002DE9F0474FF0000ABC
:1003000089460446C0F820A02046E16888470028B6
:1003100076D0252806D0D4E901219047206A401CD8
:100320002062F1E7E168204600258847C4F81CA058
:1003300006460027C4F818A02A2E09D0304602F03D
:1003400027FE38B304EB8708303EC8F8186019E080
:1003500059F8041B204604EB87029161E168884745
:10036000012F064618D1E069002820DA25F0200583
:100370001DE0D8F8180000EB800006EB4000303894
:10038000C8F818002046E1688847064602F000FEDB
:100390000028EED1012F0AD02E2E08D12046E16888
:1003A00088477F1C0646022F45F02005C4DBA06964
:1003B000002803DA404245F00105A061E80701D0BA
:1003C00025F01005B6B1A6F14100192802D8203653
:1003D00045F400654A463146204625604D46FFF704
:1003E000BFFE58B1012806D0ED1D25F0070000F131
:1003F000080989E704E005F1040985E730468AE742
:10040000206ABDE8F0872DE9F04F9B4616464FF075
:100410000109C1B020910090A9F1010920A85DF85F
:10042000295050F82900C5E04FEA6A0070432C18A3
:100430005FEACA7100D1801B5A4621462718284618
:10044000904700280EDD304646EA0501890765D051
:1004500022782978401E05F8012B04F8011BF7D1FA
:10046000AD1BA41B5A46394620469047002823DD81
:100470005A4639462846904700280EDD304646EA5F
:100480000501890751D03A782978401E05F8012BDB
:1004900007F8011BF7D1AD1BBF1B304646EA04012C
:1004A000890749D03A782178401E04F8012B07F8D3
:1004B000011BF7D1A41BBF1B314646EA0402B81B3F
:1004C000920740D003782278491E04F8013B00F8D7
:1004D000012BF7D12C46871BB84634445A46414677
:1004E000204690470028F8DB5A464146BF1B384655
:1004F00090470028F8DC304646EA0401A7424FEA5C
:1005000081712ED931B33A782178401E04F8012B3D
:1005100007F8011BF7D1A41BBF1BDEE7226829687F
:10052000001F04C502C4F9D19AE73A682968001F80
:1005300004C502C7F9D1AEE73A682168001F04C4B8
:1005400002C7F9D1B6E703682268091F08C404C0CE
:10055000F9D1BFE73A682168001F04C402C7F9D186
:10056000D9E7E1B198F800202178401E04F8012B6A
:1005700008F8011BF6D1A21B501BB0FBF6F0401E81
:10058000AAEB0001491E884216DD0A2910DD20ABC6
:100590004DF8295043F8290009F1010918E0D8F86D
:1005A00000202168001F04C448F8041BF7D1E2E7CB
:1005B0000A2810DD824637E70A2807DD4DF8292092
:1005C00020AA42F8291009F10109F3E70A2902DDFE
:1005D00015468A4628E7B9F1000F7FF41DAF41B0F8
:1005E000BDE8F08F2DE9F04799460F460646140006
:1005F00039D0002F37D00A2F01D9FFF704FF7F1E13
:10060000354607FB04582CE02F46254400E03F1BED
:10061000B74205D34A462946384690470028F6DCBB
:1006200044EA05003B1980070CD0002117E0291887
:100630000A1B0F6802E011681151121B9A42FAD28C
:10064000001D1751A0420CD2F1E76818027801E0B2
:1006500007780755001B9842FAD2491C0255A1425F
:10066000F3D34545D0D3BDE8F08710B5203AC0F0AC
:100670000B80B1E81850203AA0E81850B1E81850A3
:10068000A0E81850BFF4F5AF5FEA027C24BFB1E8E0
:100690001850A0E8185044BF18C918C0BDE8104051
:1006A0005FEA827C24BF51F8043B40F8043B08BF5A
:1006B0007047D20728BF31F8023B48BF11F8012B21
:1006C00028BF20F8023B48BF00F8012B70474FF0CD
:1006D000000200B5134694469646203922BFA0E892
:1006E0000C50A0E80C50B1F12001BFF4F7AF09079E
:1006F00028BFA0E80C5048BF0CC05DF804EB89008F
:1007000028BF40F8042B08BF704748BF20F8022BD1
:1007100011F0804F18BF00F8012B704770477047E9
:10072000704770472DE9FF4F0C461E464FF0FF37CC
:100730008BB0D2E90001DDF860800A908A46C1F3EF
:100740000A5505B93D46002108464FF00000BAF1B0
:10075000000F00F4400005DA00EB80004FF4400188
:1007600001EA50004FEA9059B9F1010F00DDB94696
:100770000A9850EA4A000ED044F61050A5F2FF3510
:1007800045432F14B8F1000F1ED07542291E1EDDFF
:10079000C9F100021CE0B8F1010F4FF0000001D0D8
:1007A000302103E0F24305E02154401CB042FBDB62
:1007B00030460022002121540B99C1F80880C1E97C
:1007C00000200FB0BDE8F08FBD1B6D1CDEE74A4670
:1007D00000DA694206A800F05BFA06AB93E807006E
:1007E00003AB83E8070050460A9900F03CFB8DE814
:1007F0000700A0F500501F3800900398002D0ADD77
:1008000042F21F014A460844002303A903906846A8
:1008100000F0A5FD09E0A0F500504A461F3800236E
:1008200003A90390684600F0AFFD8DE807000004BF
:10083000000C03D04FF0FF30410800E01046B8F143
:10084000000F03D00022009215461EE0751E05D44D
:1008500000F098F9303262556D1EF9D5B346012289
:10086000084302D000227F1C04E02078302801D108
:1008700000227F1E002A099784D01DE0112D07DA7F
:1008800000F080F9303262556D1C50EA0102F5D15A
:10089000084302D00098C8B10EE00021681E05E0B0
:1008A000235C625C63542254401E491C8142F7DB86
:1008B000AB46A81B401E0990002004F80B000B98C3
:1008C000099AC0F80880C0E9002B7AE711264FF09A
:1008D000000857E72DE9F04F88460446D21D22F064
:1008E000070191B0D1E90001CDE90A0102F02CFB2A
:1008F00002460B98C00F01D02D2007E02068810729
:1009000001D52B2002E0202101EAC000032A099032
:1009100001D0072A05DB03464146204600F078F95E
:100920000BE12078800601D5E06900E00620B8F1EF
:10093000650F814606D0B8F1660F18D0B8F1670F81
:1009400070D131E00020B9F1110F009001DB1123CB
:1009500001E009F101030AAA01A90CA8FFF7E2FED0
:10096000DDE90C70002609F10105834647E001200E
:100970004B4600904FF000470AAA01A90CA8FFF7C8
:10098000D1FEDDE90DB00C995D46002610B909F1E4
:1009900001000D18B9EB050003D4C0F1FF3609F1D1
:1009A0000105A5EB09002BE0B9F1010F01DA4FF0C9
:1009B00001090020B9F1110F0090484601DD112313
:1009C00000E003460AAA01A90CA8FFF7ABFEDDE987
:1009D0000C704D4600268346207800070AD4AB45AC
:1009E00000DA5D4601A8012D04DD411911F8011C52
:1009F000302907D04F4502DA17F1040F04DA01203D
:100A000082460FE06D1EEEE7002F02DCED1B3E4438
:100A100003E0781CA84200DD7D1CB81B00F1010A30
:100A20004FF000472078000703D4AA4501DB4FF0C0
:100A3000FF3A0021B7F1004F0DF143088DF8431044
:100A400024D002202B23002F01DA7F422D230A21FC
:100A5000021EA0F1010000DC5FB197FBF1FC97FBE7
:100A6000F1F201FB1C7C17460CF1300C08F801CDAB
:100A7000EEE7A8F1010003702188090501D54521A1
:100A800000E06521A0F1010800F8011C09980FA9F8
:100A9000A1EB0807FF1D00B10120411901EBEA702D
:100AA000A1693844081A401EA0612078C00602D40B
:100AB0002046AFF30080099828B1D4E9012190477E
:100AC000206A401C20622078C00622D52046AFF361
:100AD00000801EE0002E04DBB34502DD01A8805D2E
:100AE00000E03020D4E901219047206A401C2062B8
:100AF000761CAAF101005FEA000A0AD100F03EF874
:100B0000C0680168405CD4E901219047206A401C1C
:100B10002062281EA5F10105DCDC07E0D4E90121F3
:100B200018F8010B9047206A401C2062381EA7F17C
:100B30000107F3DC2046AFF30080032011B041E64B
:100B400001694A1C02610878704700B58FB0CDE991
:100B500001310021059105497944CDE90310114681
:100B60006846FFF7C9FB0FB000BD0000E5FFFFFFBF
:100B70000A6802F8010B0A607047000000487047DD
:100B80006007002030B5B0F10A024FEA900E71F113
:100B900000034EEA817EB0EB0E0061EB91014FEA5B
:100BA000101E4EEA017E10EB0E0041EB11114FEAD0
:100BB000102E4EEA016E10EB0E0041EB11214FEAB0
:100BC000104E4EEA014E10EB0E0041EB1141401861
:100BD00041F100014FEAD00040EA41704FEAD101F3
:100BE00010EB80054FEA810444EA907444EB010461
:100BF0006D1944EB0404521BA3414FF0000348BF9E
:100C00000A3200D530BD401C41F1000130BD00006A
:100C10002DE9F0411F46044603260168072A01F426
:100C2000006004DB08B116A505E016A503E008B1D5
:100C300015A500E015A521F010002060A069C01ED8
:100C4000A0610FB1401EA0612046AFF300804FB1FC
:100C5000D4E9012138469047206A401C2062C01C1C
:100C6000206206E0206AFAE7D4E9012115F8010BB9
:100C70009047761EF8D22046AFF30080BDE8F081A1
:100C80004E414E006E616E00494E4600696E660030
:100C90002DE9F047814616468AB0354878440DC89C
:100CA0008DE80D0032487844801C03AC0DC884E800
:100CB0000D0041F69B300844372190FBF1F290FB88
:100CC000F1F5A5F1800501FB12041B3C02D564423D
:100CD000012000E00020DFF898A080460027FA44B9
:100CE000AAF1BE0A0EE0E0070AD03246684607EBDA
:100CF000470101230AEB810100F046FB8DE8070064
:100D000064107F1C002CEED1194F7F44AE3F19E0D8
:100D1000E80715D007EB04100DF1180A90E80E0053
:100D20008AE80E00C068F04201D198190890324656
:100D3000012306A903A800F027FB03AB83E8070003
:100D40006D10641C002DE3D14FF00103324669465B
:100D5000B8F1000F03A802D000F001FB01E000F0A1
:100D600013FBC9E90001C9F808200AB0BDE8F08703
:100D7000484B000000487047400700207546FFF7C9
:100D8000F9FFAE4605006946534620F00700854648
:100D900018B020B5FFF712FABDE820404FF000066A
:100DA0004FF000074FF000084FF0000B21F0070153
:100DB000AC46ACE8C009ACE8C009ACE8C009ACE896
:100DC000C0098D46704710B50446AFF30080204639
:100DD000BDE81040FFF7DEB94FF0013C50F8042B9E
:100DE00051F8043B9A4221D1A2EB0C03934313EA3E
:100DF000CC1317D150F8042B51F8043B9A4215D16B
:100E0000A2EB0C03934313EACC130BD150F8042B41
:100E100051F8043B9A4209D1A2EB0C03934313EA25
:100E2000CC13DBD04FF00000704700BFD01A01BADE
:100E3000B1FA81F101F0180122FA01F0CB40C1F1C1
:100E40002001DBB2C0B2C01A2CFA01F3D11A9143CF
:100E500011EAC311E6D1704701491820ABBEFEE785
:100E60002600020070475FEA400C08BF91F0000FB7
:100E70004FEA8C234FEAC12243EA51514FEA1C50FA
:100E800018BF00F5F0404FEA300018BF41F00041B4
:100E90005FEA6C5C00F02980BCF1FF3F08BF40F0C6
:100EA00080407047130C06BF12044FF0100C4FF037
:100EB000000C130E04BF12020CF1080C130F04BF38
:100EC00012010CF1040C930F04BF92000CF1020C00
:100ED000D30F04BF52000CF1010C11464FF0000279
:100EE000A0F11F00A0EB0C00704711F0004F08BFED
:100EF000704731F000413FF4D5AF0B0C06BF090439
:100F00004FF0100C4FF0000C0B0E04BF09020CF157
:100F1000080C0B0F04BF09010CF1040C8B0F04BF6C
:100F200089000CF1020CCB0F04BF49000CF1010C3D
:100F3000CCF12003A0EB0C0022FA03F302FA0CF22E
:100F400041EA030100F10100704720F07F4C80EA84
:100F5000030023F07F47ACEB070303F57C5300F05D
:100F6000004003F1FF032DE980494FEA154B09B416
:100F70004FEA144325EA0B4E24EA03480FF20426F5
:100F800006EB132749083E785FEA320203FB066747
:100F9000C7F5000707FB06F64FEA54374FEAD64677
:100FA00006F1020607FB066CCCF1005C4FEA1C4719
:100FB0002CEA074C07FB06F40CFB06F504EB154680
:100FC0004FEA961634BF00204FF000404FEAD13769
:100FD00006FB07FC4FEA1C4C0CFB0BF7D21B03FB78
:100FE0000CF761EB07010CFB0EF7B0EB074072EB5F
:100FF00017420CFB08F734BFA2EB0742B2EB0742E3
:1010000061EB17414FEA0C444FEA910706FB07FCDE
:101010004FEA1C4C0CFB0BF7B0EBC74072EB57329E
:1010200003FB0CF734BFA2EBC742B2EBC74261EB44
:1010300057310CFB0EF7B0EBC70072EB57720CFB8D
:1010400008F734BFA2EBC702B2EBC70261EB5771DE
:10105000039F4FEA816141EA921104EBCC044FEA0D
:10106000D1374FEA826206FB07FC42EA90124FEA50
:1010700080604FEA1C4C0CFB0BF7D21B03FB0CF7F8
:1010800061EB07010CFB0EF7B0EB074072EB174268
:101090000CFB08F734BFA2EB0742B2EB074261EB4F
:1010A00017414FEA8C554FEA910704EB9C2406FB4D
:1010B00007FC4FEA1C4C0CFB0BF7B0EBC74072EB84
:1010C000573203FB0CF734BFA2EBC742B2EBC74267
:1010D00061EB57310CFB0EF7B0EBC70072EB5772A8
:1010E0000CFB08F734BFA2EBC702B2EBC70261EBFF
:1010F000577115EB4C254FEA816141EA92114FEA95
:1011000082624FEAD13742EA901206FB07FC44F1B3
:1011100000044FEA80604FEA1C4C0CFB0BF7D21B1B
:1011200003FB0CF761EB07010CFB0EF7B0EB07407C
:1011300072EB17420CFB08F734BFA2EB0742B2EB8D
:10114000074261EB174115EB1C154FEA813141EA6B
:1011500092414FEA823242EA90424FEA80304FEAAF
:101160000C7644F1000448EA03434EEA0B484FF082
:10117000000EB2EB080C71EB030724BF6246394640
:101180004EEB0E0E4FF0000B0018524149414BEB55
:101190000B0BB2EB080C71EB03077BF1000B24BFC8
:1011A000624639464EEB0E0E4FF0000B00185241CE
:1011B00049414BEB0B0BB2EB080C71EB03077BF1D6
:1011C000000B24BF624639464EEB0E0E51EA020771
:1011D00018BF46F0010616EB0E7655F1000254F1E9
:1011E000000103D5BDE88901BDE80088BDE889019B
:1011F000BDE80048B619524141EB0101A3F10103DA
:10120000704780807F7E7D7C7B7A79787776767573
:101210007473727171706F6E6E6D6C6C6B6A6A69EB
:101220006868676666656464636362616160605F85
:101230005F5E5E5D5D5C5C5B5B5A5A5959585857FE
:101240005756565555555454535352525251515066
:1012500050504F4F4F4E4E4D4D4D4C4C4C4B4B4BB9
:101260004A4A4A49494948484847474747464646FF
:10127000454545444444444343434342424242413A
:101280004141002B9C4630D477002BD01CB54FEA4F
:10129000370703B44FF010004FF01001BAF1000F00
:1012A00006D0BCF1000FDCBF40F0080040F00801A0
:1012B0004FF000000FBCBDE810400BF1010BBBF17B
:1012C000010F08BF5FEA170722BF12F1010211F1F7
:1012D00001014FF0004143F1000300F0004043EAF8
:1012E00000007047F9D35708D0E746EA064613F1E5
:1012F000400F4FEA16461FDD13F1200FDFBF1643E4
:101300000A46002120335B42BED0C3F1200746EAE3
:10131000064602FA07F74FEA164646EA0706C3F101
:10132000200722FA03F201FA07F721FA03F14FF03E
:10133000000342EA0702A7E746EA020646EA064633
:101340004FEA164646EA0106BCBF46EA0646360C98
:101350004FF000034FF000024FF0000194E72DE939
:10136000804C9A46934670B491E8380007C831EA39
:10137000400C48BF34EA430C03D5FFF7E6FDFFF706
:1013800080FFF0BCBDE8008C2DE9804C9A46934666
:1013900070B491E8380007C810F0804F08BF13F010
:1013A000804F03D100F005F8FFF76BFFF0BCBDE8FC
:1013B000008C20F07F4780EA030023F07F4C07EB8E
:1013C0000C03A3F57C5300F00040A3F1FE0392F060
:1013D000000F00F0B38095F0000F00F077802DE94A
:1013E00001494FEA11404FEA144621EA004800FB48
:1013F00006FC24EA064708FB06F607FB08F800FB94
:1014000007F718EB06484CEB164C4FEA124B18EB5B
:1014100007484FEA15464CEB174022EA0B4E0BFBF0
:1014200006FC25EA06470EFB06F607FB0EFE0BFB45
:1014300007F71EEB064E4CEB164C4FF000061EEB6A
:10144000074E4CEB174B18EB0B0840F1000018EB64
:101450000E0B58EB000840F100008F1A4FF000010E
:101460003CBFC943661B14BFB5EB040C00213CBF55
:10147000C943F61B4FEA17444EEA8E0E27EA04458D
:101480004FEA1C4704FB07622CEA074C05FB07F7F1
:101490000CFB05F604FB0CFC16EB074642EB17426F
:1014A00016EB0C4642EB1C421BEB060658EB020205
:1014B000414146EA9E0601D5BDE80189B61952416F
:1014C00041EB0101A3F10103BDE801894FEA144595
:1014D0004FEA114724EA054621EA074C05FB07F4C9
:1014E00006FB07F70CFB06F105FB0CFC11EB0741B3
:1014F00044EB17444FEA124711EB0C4144EB1C44F8
:1015000022EA074C05FB07F206FB07F70CFB06F681
:1015100005FB0CFC16EB074642EB174216EB0C469C
:1015200042EB1C456A1854F1000148BF7047B619D8
:10153000524141EB0101A3F10103704795F0000F07
:1015400037D04FEA11424FEA144721EA024624EA13
:10155000074C02FB07F106FB07F70CFB06F402FB46
:101560000CFC14EB074441EB17414FEA154714EB11
:101570000C4441EB1C4125EA074C02FB07F506FB36
:1015800007F70CFB06F602FB0CFC16EB074645EBD7
:10159000174516EB0C4645EB1C42121951F10001A0
:1015A00048BF7047B619524141EB0101A3F1010355
:1015B00070474FEA14454FEA114724EA054621EAED
:1015C000074C05FB07F106FB07F70CFB06F24FF093
:1015D000000605FB0CFC12EB074241EB174112EB36
:1015E0000C4251EB1C4148BF7047921841EB01017E
:1015F000A3F101037047000070B5044600688168DC
:10160000C943C90717D1816821F00101816000F049
:10161000ABFC05460AE000BF00F0A6FC401B022818
:1016200004D920688068C043C00706D0206880685D
:10163000C043C007F0D0002070BDA06A40F0100089
:10164000A062E06A40F00100E062012070BD10B5C8
:101650000146406A826A12F0500F05D0006A026BA0
:10166000BDE8104008461047816A41F4007181626C
:1016700001688968C1F3424107290CD1017B51B946
:10168000816A21F480718162816AC90403D4816A0C
:1016900041F00101816200F0EFF810BD10B5406A21
:1016A000816A41F040018162C16A41F00401C16276
:1016B00000F0E4F810BD10B5406A00F0DEF810BD8F
:1016C000F8B500260446009600688168C943C9073A
:1016D0002DD0816841F001018160164816490068EB
:1016E000B0FBF1F000E0401E00900028FBD100F0BC
:1016F0003BFC054616E000BF00F036FC401B02280C
:1017000010D920688068C043C0070BD0A06A40F0A1
:101710001000A062E06A40F00100E06284F82460FA
:101720000120F8BD20688068C043C007E4D10020D4
:10173000F8BD00000C00002040420F00FEE7000052
:10174000014800F0F9B90000B406002030B590F867
:1017500040500124AC40C56B6C6004686360436812
:10176000102B036803D099600068C26030BD9A6096
:101770000068C16030BD704772B6FEE7F8B500245E
:10178000009490F824202546012A12D0012280F8E6
:1017900024204A681F23072A0DD20668776B521E41
:1017A00002EB820293409F430B6893401F43776391
:1017B00019E00220F8BD06680D2A0AD2376BD21F45
:1017C00002EB820293409F430B6893401F433763B1
:1017D00009E0F76A0D3A02EB820293409F430B68DF
:1017E00093401F43F7620A68072306680A2A0AD350
:1017F000F7680A3A02EB420293409F438B6893409A
:101800001F43F76008E0376902EB420293409F43B1
:101810008B6893401F4337610A68102A01D0112A50
:1018200020D1124B02689A4217D193681B0219D437
:10183000936843F4000393600968102912D10C499E
:101840000C4A0968B1FBF2F101EB8101490000E0AB
:10185000491E00910029FBD104E0816A41F020017A
:101860008162012480F824502046F8BD0024014004
:101870000C00002040420F00704770477047000086
:101880002DE9F0414FF0000704003D467ED0A06AEC
:10189000002628B9E66284F82460204600F07EF82D
:1018A0002046FFF7A9FEA16AC90600D420B1A06AAC
:1018B00040F01000A06269E0A16A21F4885141F073
:1018C0000201A1626268E169237B0A4347EA43019E
:1018D0000A43A1684FF48077B94209D0012907D0A3
:1018E0005FF0000194F814C0BCF1010F02D00AE0CF
:1018F0003946F7E7F3B1A36A43F02003A362E36A32
:1019000043F00103E3622368D3F804C02CF4694C6C
:101910004CEA010CC3F804C021688B68DFF870C082
:1019200003EA0C0313438B60A168B9420BD0012971
:1019300009D00CE0DFF85CC0A3690CEB43330B4328
:1019400043F40061DFE7218A0D05A5F580152168C4
:10195000CB6A23F470032B43CB62216889680E4B5A
:101960001940914208D1E662A16A21F0020141F0DA
:101970000101A162BDE8F081A06A20F0020040F000
:101980001000A062E06A40F00100E0620120F1E78F
:10199000FDF7E1FF00E0FFFFFE0E1FFF70B586B010
:1019A00000250646009501950295039500681A49A1
:1019B00088422ED11949886940F40070886188698D
:1019C00000F400700490886940F004008861886920
:1019D000694600F00400049001200090032001906B
:1019E0000F4800F0CBF9104C0E48C4E900058020E8
:1019F000C4E9025080002061800060612020C4E9B9
:101A00000605204600F042F908B1FFF7B5FE346242
:101A1000666206B070BD0000002401400010024064
:101A20000008014008000240B40600202DE9F047FC
:101A3000894604463B4900683B4F0E1D904688424C
:101A400001D0B84207D1306810F4702F03D00125BF
:101A50002846BDE8F08794F8240001280CD0012026
:101A600084F824002046FFF72BFE05004FF000000D
:101A700004D084F82400EBE70220EAE7A16A40F6EC
:101A80000162914341F48071A1622168B94218D189
:101A9000326812F4702F14D0A16A41F48011A1624F
:101AA0003168490505D5A16A21F4005141F48051FE
:101AB000A162A16AC9040AD5E16A21F00601E162C6
:101AC00006E0A26A22F48012A2624968E9E7E062B5
:101AD00084F82400216A15488862216A1448C86283
:101AE000216A1448086321686FF0020008602068CA
:101AF000816841F480718160216843464A464C31D7
:101B0000206A00F0F1F820688168C1F3424107299A
:101B1000816803D041F48011816099E741F4A0010C
:101B2000FAE7000000240140002801404F16000899
:101B3000B71600089D1600082DE9F05FC16B0C6810
:101B400001680B68D0F840C0042202FA0CF2494D3B
:101B5000DFF824A1494E4A4FDFF828B1DFF828E129
:101B600022422CD05A072AD50A68920603D40A6862
:101B700022F004020A600168A94201D1042219E09E
:101B8000514501D1402215E0B14202D14FF48062AB
:101B900010E0B94202D14FF480420BE0594502D126
:101BA0004FF4802206E0714502D14FF4800201E03B
:101BB0004FF080622F4908394A60C16A3BE04FF01C
:101BC000020808FA0CF818EA040F4FF000094FF069
:101BD000010235D05FEA837832D50B689B0605D4C5
:101BE0000B6823F00A030B6080F821200168A942EA
:101BF00001D1022219E0514501D1202215E0B14264
:101C000002D14FF4007210E0B94202D14FF40052F9
:101C10000BE0594502D14FF4003206E0714502D184
:101C20004FF4001201E04FF00072124908394A6087
:101C300080F82090816A00291AD0BDE8F05F08473B
:101C4000082505FA0CF5254212D01B0710D50B68A4
:101C500023F00E030B6090F84010C36B02FA01F101
:101C60005960826380F8212080F82090016BE2E7C0
:101C7000BDE8F09F080002401C0002403000024016
:101C800044000240580002406C00024030B528B3C6
:101C900008C8134914221944B1FBF2F18900C16349
:101CA00010498163022141771A6843F6F0718A4333
:101CB000D0E900142143D0E902452C4321430469B3
:101CC0002143446921438469214311431960002160
:101CD0004163012242770177084630BD012030BDC3
:101CE000F8FFFDBF0000024070B5044690F82000E8
:101CF000002501280CD0012084F8200094F82160F0
:101D00000020012E06D084F820000225284670BD50
:101D1000022070BD022684F82160A0632068066856
:101D200026F0010606602046FFF710FDE06A002855
:101D30002068016802D041F00E0106E021F00401A4
:101D400001602068016841F00A01016020680168B3
:101D500041F001010160D9E770B5044600F004F9D3
:101D60000546601C02D004480078044400F0FCF8EA
:101D7000401BA042FAD370BD000000202DE9F84FAF
:101D8000DFF8B8910024A9F1040B23460F2709F1CD
:101D9000040AABF1040EC9E00125A5402A40AA427D
:101DA0007DD1674ED1F804C0ACEB0608B44532D003
:101DB00014DCBCF1030F3AD009DCBCF1000F2AD0CF
:101DC000BCF1010F1CD0BCF1020F31D11DE0BCF100
:101DD000110F17D0BCF1120F2AD119E0B8F5881FE6
:101DE00019D006DCB8F5803F15D0B8F5801F1FD19B
:101DF00011E0B8F5001F0ED0B8F5041F18D10AE0A5
:101E0000CB6815E0CB681B1D12E0CB6808330FE0F0
:101E1000CB680C330CE08B682BB1012B4FF008031F
:101E200003D0456104E0042302E0056100E00023E3
:101E3000FF2A01D8064601E000F104064FEA8405B6
:101E400001D9A5F12005D6F8008007FA05FC28EA9B
:101E50000C0803FA05F548EA0508C6F800804D6845
:101E6000ED0062D5374DAE6946F00106AE61AD6951
:101E700024F0030605F001050095334D06EB050C33
:101E8000DCF80850A607360F07FA06F825EA080519
:101E9000DFF8B880404503D14FF0000817E044E078
:101EA000DFF8AC80404502D14FF001080FE0DFF8C9
:101EB000A480404502D14FF0020808E0DFF8988086
:101EC000404502D14FF0030801E04FF0040808FA42
:101ED00006F848EA0508CCF808804D68D9F8006093
:101EE000ED024D4601D5164300E096432E604D6845
:101EF000DAF80060AD02554601D5164300E096437E
:101F00002E604D68DBF80060AD035D4601D51643D9
:101F100000E096432E604D68DEF80060ED037546E4
:101F200001D5164300E096432E60641C0D682A46D6
:101F3000E5407FF431AFBDE8F88F000008040140B0
:101F40000000111000100240000001400008014094
:101F5000000C014000100140001401400AB1016171
:101F600070470904FBE700000148806870470000E3
:101F700000000020024881680278114481607047A7
:101F800000000020074810B5016841F01001016011
:101F9000032000F075F80F2000F006F800F024F898
:101FA000002010BD0020024070B50D4D04464FF4D6
:101FB0007A712878B1FBF0F00A490968B1FBF0F0BA
:101FC00000F032FB48B9102C07D200222146501EE7
:101FD00000F036F800206C6070BD012070BD00007C
:101FE000000000200C0000200C4808B5816941F079
:101FF00001018161816901F001010091C16941F034
:102000008051C161C06900F080500090044841686F
:1020100021F0E06141F00071416008BD0010024014
:1020200000000140002809DB00F01F02012191405F
:102030004009800000F1E020C0F800117047000066
:10204000F0B40E4B1B680C46C3F30223C3F1070523
:10205000042D00D90425191D072901D2002300E011
:10206000DB1E012606FA05F1491E214099409E40DB
:10207000761E16403143F0BC00F07ABF0CED00E054
:10208000064900F0070208684FF6FF03184040EACF
:102090000220034A10430860704700000CED00E086
:1020A0000000FA052DE9F84305460078354CC007D5
:1020B00054D0E0690026C00008D4E06940F08050A8
:1020C000E061E069012600F0805000902E48016830
:1020D000C90512D40168804641F480710160FFF7A0
:1020E00043FF074605E000BFFFF73EFFC01B642823
:1020F00023D8D8F80000C005F6D5206A10F4407047
:1021000021D0A98801F4407181421CD0206A1F4966
:10211000012220F440700A6000220A602062C00799
:1021200011D0FFF721FF074641F2883808E000BFD1
:10213000FFF71AFFC11B414502D90320BDE8F88310
:10214000206A8007F4D5206A696820F4407008434B
:1021500020621EB1E06920F08050E061287880079D
:1021600005D56068A96820F440400843606028787D
:10217000C00605D56068E96820F480000843606007
:102180000020DBE7001002400070004040044242A3
:102190002DE9F0470F46050061D0434E306800F04E
:1021A0000700B84209D2306820F007003843306099
:1021B000306800F00700B84251D128683B4C8107D5
:1021C00012D5400703D5606840F4E060606028786D
:1021D000000703D5606840F4605060606068A968DB
:1021E00020F0F000084360602878C00728D06868B5
:1021F000012810D02168022810D0890700292EDA82
:10220000616821F0030101436160FFF7ADFE804684
:1022100041F288390DE021688903EFE78901EDE794
:10222000FFF7A2FEA0EB0801494502D90320BDE853
:10223000F0876068696800F00C00B0EB810FEFD1A7
:10224000306800F00700B8420BD9306820F0070072
:1022500038433060306800F00700B84201D00120F8
:10226000E5E72878400705D56068E96820F4E06074
:10227000084360602878000706D56068296920F463
:10228000605040EAC100606000F018F86168084AD8
:10229000C1F30311515CC840064908600648006854
:1022A000FFF782FE0020C2E700200240001002403B
:1022B0005A5700080C000020040000200E4A516804
:1022C0000E4801F00C03042B11D0082B0FD10C4841
:1022D000C1F38343C903C05C0AD55168084AC1F3FE
:1022E0004041921E515C054A5043B0FBF1F07047EB
:1022F00004494843704700000010024000127A0071
:102300004A57000800093D002DE9F84F040070D03D
:102310002078C04DC00749D06868C0F3810001280B
:1023200007D06868C0F38100022809D16868C0033B
:1023300006D52868800339D560680028E7D035E0E5
:102340006068B0F5803F0BD010B1B0F5A02F11D070
:10235000286820F480302860286820F4802002E07B
:10236000286840F480302860606890B1FFF7FCFD79
:1023700006460AE0286840F480202860F0E700BFA5
:10238000FFF7F2FD801B642873D828688003F7D517
:102390000CE0FFF7E9FD064605E000BFFFF7E4FDAE
:1023A000801B6428F0D828688003F7D420789A4EE0
:1023B00080074FF001094FF0000839D5686810F028
:1023C0000C0F07D06868C0F38100022809D1686843
:1023D000C00306D42868800714D52069012808D1D5
:1023E00010E02069B0B1C6F80090FFF7BDFD0746C8
:1023F00005E00AE1FFF7B8FDC01B0228C4D8286831
:102400008007F7D52868616920F0F80040EAC1002C
:1024100028600DE0C6F80080FFF7A6FD074604E03F
:10242000FFF7A2FDC01B022823D828688007F7D435
:10243000207800072CD57948A169D9B1C0F800905F
:10244000FFF792FD074604E0FFF78EFDC01B022850
:102450000FD8686A8007F7D571484FF4FA510068C1
:10246000B0FBF1F0009000BF0098411E0091FAD23D
:102470000EE080E0C0F80080FFF776FD074604E03C
:10248000FFF772FDC01B022875D8686A8007F7D471
:102490002078400760D5E8690027C00008D4E869C3
:1024A00040F08050E861E869012700F0805000901A
:1024B0005C480168C90513D40168834641F4807102
:1024C0000160FFF751FD824606E000BFFFF74CFDBB
:1024D000A0EB0A0064284ED8DBF80000C005F5D553
:1024E000E06801280AD008B1052813D0286A20F036
:1024F00001002862286A20F0040002E0286A40F007
:1025000001002862E06841F2883B98B1FFF72CFD9A
:1025100082460BE0286A40F004002862EEE700BF24
:10252000FFF722FDA0EB0A0159455AD8286A800717
:10253000F6D50CE0FFF718FD824605E0FFF714FD25
:10254000A0EB0A0159454CD8286A8007F6D41FB180
:10255000E86920F08050E861E06988B36968C1F3F8
:102560008101022944D00228C6F8608004D0FFF718
:10257000FBFC044638E034E0FFF7F6FC074604E0D5
:10258000FFF7F2FCC01B02282BD828688001F7D483
:10259000206AB0F5803F05D16868A16820F400305A
:1025A00008436860D4E908010843696821F474119C
:1025B00008436860C6F86090FFF7D6FC044606E062
:1025C00025E000BFFFF7D0FC001B022809D82868CF
:1025D0008001F7D51BE000BFFFF7C6FC001B0228F7
:1025E00002D90320BDE8F88F28688001F4D40EE0FA
:1025F0000128F7D06868226A00F48031914204D142
:10260000616A00F47010884201D00120EAE70020DE
:10261000E8E700000010024000004242800442420D
:102620000C0000200070004010B5401EB0F1807F0B
:1026300001D3012010BD4FF0E02460610F2160172D
:1026400000F096FC0020A06107202061002010BD52
:1026500070B590F83C20012A26D0012480F83C4037
:10266000022280F83D2003685A689D6822F07006B7
:102670000A6832435A600D4B02689A4208D0B2F1A0
:10268000804F05D00A4B9A4202D00A4B9A4204D19D
:10269000496825F080031943916080F83D4000218E
:1026A00080F83C10084670BD022070BD002C01402F
:1026B000000400400008004010B5040003D094F866
:1026C0003D0010B107E0012010BD002084F83C005F
:1026D000204600F01FF8022084F83D00211D2068EC
:1026E00000F0C0FB012084F8460084F83E0084F826
:1026F0003F0084F8400084F8410084F8420084F8E8
:10270000430084F8440084F8450084F83D0000202C
:1027100010BD000008B500680649884208D1064887
:10272000C16941F00201C161C06900F0020000907E
:1027300008BD0000000400400010024090F83D1069
:10274000012901D001207047022180F83D10006866
:102750000B49884208D0B0F1804F05D00949884222
:1027600002D00949884204D1816801F00701062995
:1027700003D0016841F001010160002070470000B2
:10278000002C0140000400400008004070B50446E1
:1027900090F83C000025012817D0012684F83C6001
:1027A000022084F83D002068826822F0770222F43B
:1027B0007F4282600868502838D00DDC20284FD036
:1027C00005DC90B3102811D14AE0022070BD3028FA
:1027D00046D040280AD13BE060282FD070280DD089
:1027E000B0F5805F03D0B0F5005F12D0012584F80A
:1027F0003D60002084F83C00284670BDCB68D1E9DC
:102800000121206800F06AFB2068816841F07701AF
:1028100009E0CB68D1E90121206800F05FFB206866
:10282000816841F480418160E1E719E0CA68496844
:10283000206800F065FB5021206806E0CA684968FE
:10284000206800F06EFB6021206800F051FBCEE7AD
:10285000CA684968206800F053FB40212068F4E70B
:10286000226801461046F0E7FEE70320401EC0B292
:10287000FCD270473EB500241048009401940294A5
:102880000D49846001250160057304750561E90443
:102890004460C161FEF7F4FF08B1FEF76DFF072049
:1028A0000094CDE9015069460448FEF767FF00280F
:1028B00001D0FEF761FF3EBD0024014084060020E8
:1028C000094808B5416941F00101416140690022B0
:1028D00000F00100009011460B20FFF7B1FBBDE8AE
:1028E00008400B20FFF79EBB001002402DE9F0418D
:1028F00086B00025204800950195029503958169D1
:1029000041F020018161816901F020010491816918
:1029100041F004018161816901F004010491816940
:1029200041F0080181618069144F00F008000490B3
:10293000002280213846FFF711FBDFF84480002297
:1029400003214046FFF70AFB80200126CDE900065F
:1029500002200324CDE9020469463846FFF70EFA47
:10296000CDE90046CDE9025469464046FFF706FA34
:1029700006B0BDE8F08100000010024000080140F0
:10298000000C014010B586B0002417480094019453
:1029900002940394049413490594016041F61F4185
:1029A000C0E901146321C0E903148461FFF784FEC8
:1029B00008B1FEF7E1FE4FF48050009069460A48E6
:1029C000FFF7E4FE08B1FEF7D7FE2020CDE90404AE
:1029D00004A90548FFF73CFE002801D0FEF7CCFE15
:1029E00006B010BD00040040F8060020FEE7FEE738
:1029F00030B40021084B0A465FF0000003EBC0042E
:102A0000401CC0B262548028F8D3491CC9B20829BE
:102A1000F2D330BC00F0DCB81000002030B5CC0898
:102A200001F0070301259D40EBB2064D05EBC00503
:102A3000C808285C0AB1184302E063EA0000C043FA
:102A4000285530BD1000002010B50E4C0122022187
:102A50002046FFF783FA012211462046FFF77EFA4F
:102A6000FFF703FF002202212046FFF777FAFFF766
:102A7000FCFE002201212046FFF770FABDE810405D
:102A8000FFF7F3BE000C014010B50A4C00220221F2
:102A90002046FFF763FA012211462046FFF75EFA4F
:102AA000FFF7E3FE20460122BDE810400221FFF7B8
:102AB00055BA0000000C014010B50C4C0122022157
:102AC0002046FFF74BFAFFF7D0FE012211462046C1
:102AD000FFF744FAFFF7C9FE002201212046FFF765
:102AE0003DFABDE81040FFF7C0BE0000000C0140F9
:102AF00010B5C820FFF730F90021AE2000F056F9DC
:102B00000021084600F052F90021102000F04EF993
:102B10000021402000F04AF90021812000F046F910
:102B20000021CF2000F042F90021A12000F03EF961
:102B30000021C82000F03AF90021A62000F036F963
:102B40000021A82000F032F900213F2000F02EF9EA
:102B50000021D32000F02AF90021084600F026F9D0
:102B60000021D52000F022F90021802000F01EF97C
:102B70000021D92000F01AF90021F12000F016F907
:102B80000021DA2000F012F90021122000F00EF9E5
:102B90000021DB2000F00AF90021302000F006F9C6
:102BA0000021202000F002F90021022000F0FEF8B0
:102BB00000218D2000F0FAF80021142000F0F6F832
:102BC000FFF716FF0021BDE81040AF2000F0EEB87F
:102BD00070B5184E002400BF04F1B000C0B200214F
:102BE00000F0E4F80021084600F0E0F80021102091
:102BF00000F0DCF8FFF728FF782000F01DF8FFF761
:102C00005BFF402000F018F8FFF756FF5FF000056B
:102C100006EBC500005D00F00FF8FFF74DFF6D1CDF
:102C2000EDB2802DF4D3FFF72FFF641CE4B2082C23
:102C3000D2D370BD1000002070B5104E05460024A0
:102C4000280601D5012200E0002202213046FFF7CC
:102C500085F9FFF70AFE012211463046FFF77EF99B
:102C6000FFF703FE002201213046FFF777F96806DF
:102C7000641C050EE4B2082CE2D370BD000C0140C8
:102C80002DE9FC5F1C460E4682468B460190082BC0
:102C90000DD0600700D0012000EBD400610848434C
:102CA000C0B28146203AD0B2009000204BE006200E
:102CB000F7E7082C13D00C2C18D0102C1BD0182C94
:102CC0004AD10098254900EBC00000BF01EB80010C
:102CD000002711F80850E80712D00C9A13E000986A
:102CE0001F4900EB400001EB4001F1E700981D494E
:102CF00000EB4000EAE71C49009801EB0011E7E710
:102D00000C9838B3002231465046FFF787FE761CF8
:102D10007F1C6D08FFB2F6B2082FDCD30AF1010068
:102D200000F0FF0A082C0AD00199AAEB0100B0EBD1
:102D3000540F04D10BF108008A4600F0FF0B08F194
:102D400001005E46C0B280464845B2D3BDE8FC5F94
:102D5000FFF73EBF0122D6E7BDE8FC9F8441000893
:102D6000F834000820370008943B00082DE9F843A8
:102D70001E46154688460446089F0BE033464146EA
:102D800020460097FFF77CFF082E0CD004EB56007E
:102D9000C4B26D1C2A78A2F120005E28EED9BDE8ED
:102DA000F843FFF715BFA41DE4B2F2E770B50C4677
:102DB0000546FFF749FE7820FFF73EFFFFF77CFE50
:102DC0000CB1402000E00020FFF736FFFFF774FE53
:102DD0002846FFF731FFFFF76FFEBDE87040FFF7B1
:102DE00053BE70477047FFF7C5B830B593B0282180
:102DF0006846FDF76CFC14210AA8FDF768FC002565
:102E000001200F9510951195010412958DE823006E
:102E100004904FF4E010CDE90810022407946846AE
:102E2000FFF772FA08B172B6FEE70AA90F2081E82F
:102E300031004FF48060CDE90D0502210AA8FFF7AB
:102E4000A7F908B172B6FEE74FF4004011900F9455
:102E50000FA8FFF727F9002801D072B6FEE713B0DC
:102E600030BD7047F0B50268194B1A4C1A4D4FF03F
:102E70008047984205D0B84203D0A04201D0A84272
:102E800003D122F070064A683243984205D0B84216
:102E900003D0A04201D0A84203D122F44074CA68F2
:102EA00022434C6922F08002224302608A68C26297
:102EB0000A688262984201D1096901630121416176
:102EC0000169C90703D0016921F001010161F0BD69
:102ED000002C0140000400400008004010B5846848
:102EE00042EA032224F47F440A432243826010BD55
:102EF000826822F070020A4342F007018160704745
:102F000010B5036A046A24F001040462846924F0A1
:102F1000F00444EA021423F00A020A4384610262C4
:102F200010BD10B5036A046A24F0100404628469B9
:102F300023F0A00324F4704444EA023243EA01116E
:102F40008261016210BDFEE7490050EAC12018BF4E
:102F500004204A0D18BF40F0010040F2FF72B2EBAE
:102F6000515F08BF40F00200012808BF05207047EC
:102F70000907090E002804DB00F1E02080F80014A6
:102F8000704700F00F0000F1E02080F8141D70473A
:102F900030380A2801D201207047002070470268AB
:102FA0000868824202D24FF0FF30704702D94FF0DA
:102FB000010070474FF0000070470000F0B50C466C
:102FC0008A00E5B001466846FDF74FFB104B04222E
:102FD00021466846FDF706FB04EB8400800064216F
:102FE000B0FBF1F04308A4EB5005EA1A00200146BB
:102FF00004466F4605E000BF57F823603018614172
:103000005B1CAB42F8D30023FDF7EAF865B0F0BDD6
:103010009F2F000808B5FEF7B5FFFFF7E6FEFFF7A4
:1030200065FCFFF74DFCFFF725FCFFF7ABFCFFF756
:103030005FFDFFF7DDFC64222B492C48FEF7F6FC10
:103040002B48FFF77BFBDFF8AC80DFF8AC902B4D13
:10305000DFF8ACA0DFF8ACB0012664212248FFF70E
:10306000ADFF00F067F9414600F078F9494600F0FD
:103070009FF80746294600F09BF8514600F06EF98C
:103080000446A84201DB012200E0002280215846CC
:10309000FEF764FF384600F05FF8024612480B4620
:1030A00019A16438FDF714F90F4A00211023643A7E
:1030B00008460096FFF75AFE204600F04DF80246FB
:1030C00009480B4613A16438FDF702F9064A10239C
:1030D000643A194600200096FFF748FE4FF4FA7054
:1030E000FEF73AFEB9E70000F40400208406002051
:1030F000F80600203333534000F07F4500002041A4
:1031000000007A4400080140252E32665620202017
:1031100020200000252E33666D4120202020000055
:1031200010B500290AD00878002807D0054878444F
:10313000FDF752FE002801D0002010BD024878445F
:1031400010BD0000F2260000EA2600000808A0F5E5
:1031500000114FEA3101704743004FEAD30C4FEAA8
:103160003C0C43401FBF40070CF1605113F0FE4F71
:1031700070471CF0006F03D100200CF00041704735
:103180000CF0004343EA507010B540EACC0000F068
:1031900066F900BF000000924FEA0001FFF7D6BFBA
:1031A0004FF000414FF00000A1F5002170470000F2
:1031B0004FF47F0C1CEAD0121EBF1CEAD11392EA16
:1031C0000C0F93EA0C0F00F0858090EA010F48BFC6
:1031D00042F4807240F4000C41F400002CF07F4176
:1031E00020F07F4000B58142A2EB03020FF2081CE1
:1031F000ACEB504EC0F100009EF800E04FEA4E0EDE
:1032000000FB0EFC38BF49004FEA2C1C02F5FA0205
:103210000CFB0EF34FEACE1E4FEA112C4FEAC121F0
:103220000EEB635E42EB22420EFB0CFC4FEA1C539A
:1032300000FB03114FEA112C4FEA01310EFB0CFC8D
:103240004FEADC4C00FB0C11C14228BF09184CEBC3
:1032500003335DF804EB10EB410143EBC250B2F5D0
:103260007C0F38BF704729D512F0F00F1CBF00F15A
:10327000C04000F0004070470081828384858687CB
:1032800088898B8C8D8E8F919293959697999A9C25
:103290009D9FA0A2A3A5A7A8AAACAEB0B2B3B5B794
:1032A000B9BCBEC0C2C5C7C9CCCED1D4D7D9DCDF6A
:1032B000E2E6E9ECF0F3F7FAFE0000004FEA400C1A
:1032C0000CF1807CBCF17E4F28BF7047B0F1C0404C
:1032D00000F00BB990EA010F0CEAD11348BF42F499
:1032E0008072624538BF634507D213F47F0F16D052
:1032F00080EA010000F00040704710B500F0AFF820
:10330000097EFC3E00F005B880EA010000F00040B4
:10331000704780EA010000F0004000F0E6B812F4C7
:103320007F0F04BF0248704780EA010000F0DDB85B
:103330000000C07FB0FA80F310FA03F2C3F19D03DE
:103340000AD0D90501EB1220530638BF704700F1AF
:10335000010008BF20F00100704700004FF47F0C0F
:103360001CEAD0121EBF1CEAD11392EA0C0F93EA9A
:103370000C0F00F0478090EA010F48BF42F48072C2
:103380004FF0004C4CEA00204CEA012102EB030212
:10339000A0FB0113A2F50002002918BF43F00103AE
:1033A0005B0028BF4FEA330342EB22425FEA132C53
:1033B0004CEBC2502EBFBCEB436FB2F57C0F704795
:1033C0004FEA036CBCF1004F08BF20F00100B2F5DA
:1033D0007C0F38BF70470BD582F0FF0212F5803F9B
:1033E000C8BF704700F1C040D8BF00F00040704730
:1033F00000F5000C5FEA4C0C48BF7047B0F1C040CC
:1034000000F073B890EA010F0CEAD11348BF42F400
:103410008072624538BF634504D280EA010000F043
:103420000040704710B500F01AF800BF8900013E57
:1034300000F007B800F009B85FEA410C5FEA1C6CC5
:1034400008D080EA010000F050B85FEA400C5FEA63
:103450001C6CF6D14FF00040A0F5800070470EF1D3
:10346000020E2EF0030E5EF8044B244204D44FEA01
:103470004102B2F17F4F11D84FEA4003B3F17F4FC1
:103480000CD80ED14FEAD07CB2F17F4F0CEB4C0C34
:103490000CF1020C08BF4CEBD17C04E04FF0080C9F
:1034A00001E04FEAD17C0CEB4C0324FA03F404F066
:1034B0000704B4F1040C06D20EEB840CBDE81040F6
:1034C0004CF0010C6047DFE80CF0070802024FF0F7
:1034D0000040A0F5800010BD0846420018BFD2F1A0
:1034E000807288BF00F0004010BDFF2141EAD0503B
:1034F000C0057047FDF7EEB90000000000000000B5
:10350000002F000000000700070000147F147F1444
:1035100000242A7F2A1200626408132300364955CA
:10352000225000000503000000001C2241000000A2
:1035300041221C000014083E08140008083E080838
:10354000000000A060000008080808080000606093
:103550000000002010080402003E5149453E0000D2
:10356000427F4000004261514946002141454B31B4
:10357000001814127F10002745454539003C4A4980
:1035800049300001710905030036494949360006F2
:103590004949291E0000363600000000563600005A
:1035A00000081422410000141414141400004122D5
:1035B000140800020151090600324959513E007CAD
:1035C0001211127C007F49494936003E4141412297
:1035D000007F4141221C007F49494941007F090980
:1035E0000901003E4149497A007F0808087F000030
:1035F000417F4100002040413F01007F08142241EB
:10360000007F40404040007F020C027F007F0408A2
:10361000107F003E4141413E007F09090906003EFE
:103620004151215E007F0919294600464949493127
:103630000001017F0101003F4040403F001F20404A
:10364000201F003F4038403F006314081463000708
:103650000870080700615149454300007F4141005F
:1036600000552A552A55000041417F0000040201FF
:1036700002040040404040400000010204000020DD
:1036800054545478007F484444380038444444201B
:1036900000384444487F00385454541800087E09C8
:1036A00001020018A4A4A47C007F08040478000090
:1036B000447D4000004080847D00007F102844004D
:1036C0000000417F4000007C04180478007C08045E
:1036D000047800384444443800FC2424241800189A
:1036E000242418FC007C0804040800485454542086
:1036F00000043F444020003C4040207C001C20400F
:10370000201C003C4030403C004428102844001C51
:10371000A0A0A07C004464544C4414141414141449
:103720000000000000000000000000000000FC009D
:103730000000000002000000000C020C020000006B
:103740000000000090D0BCD0BC900003000300003B
:103750001824FE448C000302070201001824D8B08C
:103760004C80000300010201C038E438E00001028F
:103770000201020208060000000000000000000034
:10378000000000F80402000000010204000204F836
:1037900000000004020100009060F860900000004A
:1037A000010000002020FC2020000000010000009B
:1037B000000000000000080600000000202020207B
:1037C00020000000000000000000000000000002D7
:1037D000000000000080601C0200040300000000E4
:1037E000F8040404F8000102020201000008FC00D1
:1037F00000000002030200001884442418000302A1
:103800000202020008042424D8000102020201007E
:1038100040B088FC80000000000302003C24242407
:10382000C400010202020100F824242CC00001029D
:10383000020201000C04E41C04000000030000006C
:10384000D8242424D8000102020201003844444450
:10385000F800000302020100000010000000000058
:103860000200000000002000000000000600000030
:103870000020508804020000000001029090909007
:1038800090000000000000000002048850200002A8
:10389000010000001804C424180000000200000009
:1038A000F804E494F80001020202020000E09CF037
:1038B000800002030000030204FC2424D800020359
:1038C00002020100F80404040C00010202020100DB
:1038D00004FC0404F80002030202010004FC247446
:1038E0000C0002030202030004FC24740C00020317
:1038F00002000000F0080444CC4000010202010074
:1039000004FC2020FC040203000003020404FC0465
:103910000400020203020200000404FC0404060482
:103920000403000004FC24D00C0402030200030280
:1039300004FC04000000020302020203FC3CC03C41
:10394000FC0003000300030004FC30C4FC04020379
:1039500002000300F8040404F8000102020201005E
:1039600004FC24241800020302000000F8848404EC
:10397000F80001020207050004FC24649800020319
:1039800002000302182424448C00030202020100F6
:103990000C04FC040C0000020302000004FC000004
:1039A000FC04000102020100047C80E01C04000011
:1039B000030000001CE03CE01C00000300030000CA
:1039C000049C609C0400020300030200041CE01C31
:1039D00004000002030200000C84641C04000203C3
:1039E000020203000000FE020200000007040400BF
:1039F000000E30C00000000000010200000202FEC4
:103A0000000000040407000000040204000000009D
:103A10000000000000000000000008080808080876
:103A20000000020000000000000000000040A0A014
:103A3000C00000010202030204FC2020C0000003B9
:103A40000202010000C0202060000001020202000A
:103A500000C02024FC0000010202030200C0A0A05C
:103A6000C0000001020202000020F8242404000229
:103A7000030202000040A0A0602000070A0A0A0416
:103A800004FC2020C0000203020003020020E40026
:103A90000000000203020000000020E4000008080B
:103AA0000807000004FC80E020200203020003025B
:103AB0000404FC000000020203020200E020E020F7
:103AC000C00003000300030020E02020C000020328
:103AD0000200030200C02020C00000010202010019
:103AE00020E02020C000080F0A02010000C02020B2
:103AF000E0000001020A0F0820E04020200002033D
:103B0000020000000060A0A02000000202020300EA
:103B10000020F820000000000102020020E0002048
:103B2000E00000010202030220E02080602000008B
:103B3000030100006080E0806000000300030000DB
:103B400020608060200002030003020020E020804B
:103B500060200808070100000020A060200000028B
:103B600003020200000020DE020000000007040043
:103B7000000000FF00000000000F00000002DE2037
:103B8000000000040700000002010204040200001B
:103B90000000000000000000000000000000000025
:103BA00000000000000000F80000000000000033EA
:103BB0003000000000100C06100C06000000000091
:103BC0000000000040C07840C0784000043F04047A
:103BD0003F040400007088FC08300000001820FF3B
:103BE000211E0000F008F000E018000000211C0376
:103BF0001E211E0000F00888700000001E212324F2
:103C00001927211010160E0000000000000000000F
:103C100000000000000000E018040200000000079F
:103C20001820400000020418E000000000402018A6
:103C300007000000404080F0804040000202010F79
:103C400001020200000000F0000000000101011F5D
:103C500001010100000000000000000080B07000C1
:103C60000000000000000000000000000001010151
:103C700001010101000000000000000000303000E0
:103C800000000000000000008060180400601806BA
:103C90000100000000E010080810E000000F1020F4
:103CA00020100F00001010F8000000000020203F3E
:103CB00020200000007008080888700000302824C8
:103CC0002221300000300888884830000018202069
:103CD00020110E000000C02010F80000000704248E
:103CE000243F240000F808888808080000192120D3
:103CF00020110E0000E0108888180000000F11202D
:103D000020110E0000380808C83808000000003FE5
:103D1000000000000070880808887000001C222144
:103D200021221C0000E010080810E00000003122F1
:103D300022110F00000000C0C00000000000003091
:103D400030000000000000800000000000008060E3
:103D50000000000000008040201008000001020464
:103D6000081020004040404040404000040404044B
:103D70000404040000081020408000000020100807
:103D800004020100007048080808F000000000303C
:103D900036010000C030C828E810E00007182724CA
:103DA00023140B000000C038E0000000203C230278
:103DB0000227382008F8888888700000203F2020DB
:103DC00020110E00C030080808083800071820200D
:103DD0002010080008F808080810E000203F202004
:103DE00020100F0008F88888E8081000203F2020E5
:103DF0002320180008F88888E8081000203F2000D9
:103E000003000000C0300808083800000718202010
:103E1000221E020008F808000008F808203F2101CF
:103E200001213F20000808F8080800000020203F7A
:103E30002020000000000808F8080800C0808080EA
:103E40007F00000008F888C028180800203F2001E3
:103E50002638200008F8080000000000203F20203D
:103E60002020300008F8F800F8F80800203F003F54
:103E7000003F200008F830C00008F808203F20006C
:103E800007183F00E01008080810E0000F1020207D
:103E900020100F0008F808080808F000203F210152
:103EA00001010000E01008080810E0000F182424A9
:103EB00038504F0008F8888888887000203F20001C
:103EC000030C3020007088080808380000382021D2
:103ED00021221C00180808F8080818000000203FDC
:103EE0002000000008F808000008F808001F202043
:103EF00020201F000878880000C838080000073814
:103F00000E010000F80800F80008F800033C070064
:103F1000073C0300081868808068180820302C03CC
:103F2000032C30200838C800C83808000000203FA3
:103F30002000000010080808C83808002038262192
:103F400020201800000000FE020202000000007F96
:103F500040404000000C30C00000000000000001A4
:103F60000638C00000020202FE000000004040408F
:103F70007F000000000004020202040000000000B4
:103F80000000000000000000000000008080808031
:103F90008080808000020204000000000000000019
:103FA00000000000000080808080000000192422B2
:103FB00022223F2008F8008080000000003F1120EE
:103FC00020110E000000008080800000000E1120F3
:103FD00020201100000000808088F800000E1120D1
:103FE00020103F200000808080800000001F2222DF
:103FF00022221300008080F0888888180020203F4B
:10400000202000000000808080808000006B94945D
:104010009493600008F8008080800000203F210019
:1040200000203F2000809898000000000020203FE2
:1040300020200000000000809898000000C08080D0
:10404000807F000008F8000080808000203F24026C
:104050002D302000000808F8000000000020203F5C
:10406000202000008080808080808000203F200011
:104070003F20003F8080008080800000203F2100A2
:1040800000203F200000808080800000001F202052
:1040900020201F00808000808000000080FFA12081
:1040A00020110E000000008080808000000E112092
:1040B00020A0FF80808080008080800020203F2121
:1040C00020000100000080808080800000332424D4
:1040D00024241900008080E0808000000000001F80
:1040E000202000008080000000808000001F202031
:1040F00020103F20808080000080808000010E30F2
:104100000806010080800080008080800F300C0352
:104110000C300F0000808000808080000020312E55
:104120000E312000808080000080808080818E7031
:104130001806010000808080808080000021302CE3
:104140002221300000000000807C020200000000FC
:10415000003F404000000000FF00000000000000A1
:10416000FF0000000002027C800000000040403F91
:10417000000000000006010102020404000000002B
:10418000000000000000000000000000000000002F
:10419000000000000000000000000000000000001F
:1041A00000000000000000000000000000F0F0F03F
:1041B000000000000000000000017F01000000007E
:1041C00000000000001C1C1C0000000000008060BB
:1041D000301C8C60301C0C0000000000000000004F
:1041E00000000000000000000000000000000000CF
:1041F000000000E00000000000E000000086E69FF4
:1042000086868686E69F860000011F010101010166
:104210001F010100000080C06020F820E0C0000005
:10422000000003070C18FF70E18100000000070F79
:1042300010107F100F0700008060206080000000D9
:10424000E02000000F3020309F70DC371030C000BD
:104250000000100E03000718101807000000C0200F
:1042600020E0C0000000000080E01F38E88703C4A1
:104270003C040000070F1810100B070D1010080069
:1042800000808C4C3800000000000000000000009E
:10429000000000000000000000000000000000001E
:1042A0000000000000000000000080E03008040072
:1042B0000000000000FEFF01000000000000000000
:1042C0000000030F1820400000040830E0800000C8
:1042D000000000000000000001FFFE0000000000E0
:1042E000004020180F030000000000000000000044
:1042F0000000C00000000000004266663C18FF1885
:104300003C66664200000000000003000000000060
:1043100000000000000080000000000000101010ED
:104320001010FF101010101000000000000003001B
:10433000000000000000000000000000000000007D
:1043400000000000000000000000000000808C4C15
:104350003800000000000000000000000000000025
:1043600000000000001010101010101010101000AD
:10437000000000000000000000000000000000003D
:10438000000000000000000000000000000000002D
:104390000000000000001C1C1C00000000000000C9
:1043A0000000000000000000E0380C0000000000E9
:1043B00080701C03000000000060380E0100000047
:1043C00000000000000080C060202060C08000006D
:1043D00000FEFF010000000001FFFE000001070ECB
:1043E000181010180E0701000000808080C0E00047
:1043F000000000000000000000FFFF0000000000BF
:1044000000001010101F1F1010100000008040202E
:1044100020202060C080000000030300804020387E
:104420001F070000001C1A1918181818181F000080
:104430000080C020202060C0800000000003030036
:104440001010182FE780000000070F101010101830
:104450000F070000000000000000C0E0F0000000B6
:1044600000C0B088868180FFFF80800000000000CF
:104470000010101F1F1010000000E06060606060FE
:104480006060000000003F1008080818F0E000001D
:1044900000070B101010101C0F030000000080C05C
:1044A00040202020E0C0000000FCFF211008080888
:1044B00018F0E0000001070C18101010080F03009E
:1044C0000000C0E06060606060E060000000030029
:1044D0000000E0180700000000000000001F1F009F
:1044E000000000000080C0602020202060C080000C
:1044F0000087EF2C1818303068CF830000070F08B2
:1045000010101010180F07000000C0C0202020203D
:10451000C0800000001F3F604040402010FFFE00B0
:1045200000000C1C101010080F0300000000000019
:10453000000000000000000000000000000E0E0E51
:104540000000000000000000001C1C1C0000000017
:10455000000000000000000000000000000000005B
:10456000000C0C00000000000000000000583800A3
:10457000000000000000000000000080402010004B
:10458000000010284482010000000000000000002C
:1045900000000102040810000000000000000000FC
:1045A00000000000008484848484848484848400E3
:1045B00000000000000000000000000000001020CB
:1045C00040800000000000000000000000000182A8
:1045D0004428100000001008040201000000000040
:1045E00000C020201010101030E0C00000030300B5
:1045F00000F010080C070300000000001C1C1C0049
:1046000000000000000000C0406020202040C000EA
:1046100000FCFF01F00E03C1FE03807F0001070EC6
:1046200008111110110904020000000080E0E000F0
:10463000000000000000807C4340477FF8800000BD
:1046400010181F1000000000131F1C1020E0E020B5
:1046500020202060C080000000FFFF101010101804
:104660002FE78000101F1F1010101010180F0700E8
:10467000000080C0402020202060E00000FCFF01FE
:1046800000000000000001000001070E18101010CB
:104690000804030020E0E02020202040C08000002B
:1046A00000FFFF000000000001FFFE00101F1F10B0
:1046B000101018080E07010020E0E0202020202024
:1046C0002060800000FFFF101010107C0000000030
:1046D000101F1F10101010101018060020E0E0200E
:1046E000202020206060800000FFFF101010107C50
:1046F00000000100101F1F1000000000000000005B
:10470000000080C06020202040E0000000FCFF018D
:1047100000004040C0C140400001070E18101010BA
:104720000F0F000020E0E0200000000020E0E0206B
:1047300000FFFF101010101010FFFF00101F1F10BF
:1047400000000000101F1F100000202020E0E020CB
:10475000202000000000000000FFFF00000000001B
:1047600000001010101F1F101010000000000000AB
:10477000202020E0E020202000000000000000FFBA
:10478000FF0000000060E0808080C07F3F000000EC
:1047900020E0E020000020A06020200000FFFF308B
:1047A000187CE3C000000000101F1F100000011360
:1047B0001F1C181020E0E020000000000000000096
:1047C00000FFFF000000000000000000101F1F108D
:1047D000101010101018060020E0E0E000000000AB
:1047E000E0E0E02000FF013FFEC0E01E01FFFF000F
:1047F000101F1000031F0300101F1F1020E0E0C057
:10480000000000000020E02000FF0003071C78E00B
:104810008000FF00101F100000000000030F1F00A9
:10482000000080C060202060C080000000FEFF010A
:104830000000000000FFFE000001070E1810101815
:104840000C07010020E0E0202020202060C0800034
:1048500000FFFF2020202020301F0F00101F1F10FE
:104860000000000000000000000080C06020206008
:10487000C080000000FEFF010000000000FFFE00FD
:104880000001070E1111133C7C67210020E0E0209D
:104890002020202060C0800000FFFF101030F0D0EA
:1048A000080F0700101F1F10000000030F1C10103E
:1048B0000080C060202020204040E00000070F0C56
:1048C0001818303060E08100001F0C081010101024
:1048D000180F07008060202020E0E020202060806A
:1048E0000100000000FFFF000000000100000000C8
:1048F000101F1F100000000020E0E020000000005A
:104900000020E02000FFFF00000000000000FF008A
:1049100000070F1810101010100807002060E0E0CA
:104920002000000020E060200000077FF880008069
:104930007C03000000000000071F1C0700000000AF
:1049400020E0E02000E0E0200020E0200007FFF869
:10495000E01FFFFCE01F00000000031F0300011F19
:1049600003000000002060E0A0000020E0602000C4
:10497000000000038F7CF8C6010000000010181E24
:10498000130001171F1810002060E0E02000000055
:1049900020E06020000001073EF8E018070000005A
:1049A00000000010101F1F10100000000080602089
:1049B000202020A0E0E0200000000000C0F03E0F1A
:1049C0000300000000101C1F171010101018060024
:1049D0000000000000FC04040404040000000000C7
:1049E00000FF00000000000000000000007F4040C9
:1049F00040404000000010E0000000000000000007
:104A000000000000031C60800000000000000000A7
:104A1000000000030C70800000000404040404FC87
:104A20000000000000000000000000FF0000000087
:104A3000000040404040407F0000000000000010A7
:104A4000080C040C0810000000000000000000002A
:104A50000000000000000000000000000000000056
:104A60000000000000000000000000000000000046
:104A70000000000000000000808080808080808036
:104A8000808080800000000404080800000000000E
:104A90000000000000000000000000000000000016
:104AA0000000000000000000000000000000000006
:104AB00000000000000098D844642424FCF80000A2
:104AC000000F1F18101010081F1F10180020E0F012
:104AD00000000000000000000000FFFF18080404B0
:104AE0000CF8F00000001F0F18101010180F030032
:104AF00000000000000000000000000000E0F818C6
:104B00000404043C3800000000030F0C10101010C7
:104B1000080600000000000000000020E0F0000097
:104B200000E0F81C04040408FFFF000000030F1855
:104B3000101010081F0F0800000000000000000007
:104B4000000000000000E0F8484444444C78700045
:104B50000000030F0C1810101008040000000000E3
:104B600080C0602020E0C00000040404FFFF0404B3
:104B700004040000000010101F1F1010100000009F
:104B8000000000000000000000000000000070F8BD
:104B90008C04048CF874040C007076CF8D8D8D8994
:104BA000C87870000020E0F0000000000000000065
:104BB0000000FFFF08040404FCF8000000101F1FA1
:104BC000100000101F1F10000000000000606000B7
:104BD000000000000000040404FCFC0000000000D1
:104BE00000001010101F1F10101000000000000027
:104BF000000000606000000000000000040404FCED
:104C0000FC0000000000C0C08080C07F3F000000AA
:104C10000020E0F000000000000000000000FFFFA6
:104C200080C0F41C0404000000101F1F1100031FAB
:104C30001C1010000000202020E0F0000000000008
:104C40000000000000FFFF00000000000000101046
:104C5000101F1F10101000000000000000000000D6
:104C60000000000004FCFC0804FCFC0804FCFC0040
:104C7000101F1F10001F1F10001F1F10000000003A
:104C800000000000000000000004FCFC0808040410
:104C9000FCF8000000101F1F100000101F1F100064
:104CA00000000000000000000000000000E0F0181C
:104CB0000C04040C18F0E00000030F0C101010108E
:104CC0000C0F0300000000000000000000000000C6
:104CD0000004FCFC080404040CF8F0000080FFFF52
:104CE000889010101C0F030000000000000000005E
:104CF0000000000000E0F81C04040408F8FC0000B8
:104D000000030F1810109088FFFF800000000000C3
:104D10000000000000000000040404FCFC10080473
:104D2000040C0C001010101F1F10101000000000C9
:104D300000000000000000000000000000003078CB
:104D4000CCC48484840C1C0000001E1810101011A8
:104D5000190F06000000000000C000000000000065
:104D600000040404FFFF040404000000000000002D
:104D70000F1F1010100C00000000000000000000C9
:104D8000000000000004FCFE00000004FCFE000027
:104D900000000F1F181010081F0F0800000000006F
:104DA000000000000000000000040C3CFCC40000F7
:104DB000C43C0C0400000000010F1E0E01000000A6
:104DC000000000000000000000000000043CFCC4E3
:104DD00000E47CFC84807C040000071F07000007BF
:104DE0001F0700000000000000000000000000009D
:104DF0000004041C7CE4C0341C0404000010101CDB
:104E00001601131F1C181000000000000000000015
:104E10000000000000040C3CFCC400C43C0404007E
:104E20000000C080C1370E0100000000000000003B
:104E3000000000000000000000001C0404C4F47C1A
:104E40001C0400000000101C1F17111010180E0089
:104E500000000000000000F80C040000000000004A
:104E6000001028EF00000000000000000000003FDC
:104E700060400000000000000000FF000000000093
:104E8000000000000000FF00000000000000000023
:104E90000000FF00000000000000040CF80000000B
:104EA0000000000000000000EF28100000000000DB
:104EB000000040603F0000000000000000180602F3
:104EC000020408102020300800000000000000004C
:104ED00000000000000000000000000000000000D2
:104EE00000FC848484FC001010101010FF101000CF
:104EF000003F1010103F0000010640807F000000BE
:104F000000F8010600F0121212F2020202FE000086
:104F100000FF0000001F1111111F0040807F0000E2
:104F20001010D0FF9014E4AFA4A4A4AFE4040000D8
:104F3000040300FF00894B2A1A0E1A2A4B888000AE
:104F4000101090909090901010FF101011161000FB
:104F5000002060203F10101000030C102040F800CB
:104F6000000000F8888C8A89888888F80000000092
:104F7000000000FF44444444444444FF0000000057
:104F80004044C4444444401010FF101010F000008E
:104F9000103C131014B840300E014080403F000018
:104FA00000002424242424FC2222222322000000A6
:104FB000020202020242827F020202020202020096
:104FC000109453321E325210007E4242427E000044
:104FD000000000FF49494949494949FF00000000D4
:104FE00008CC4A49484ACC18007F88888482E0006F
:104FF00000FF121252927F00007E88888482E000B7
:10500000100CC4544C64D54644444C54C4140C0095
:105010000000FF404462554955434040FF000000F6
:10502000000000F80808090E08080808F800000049
:105030000080601F01010101010101010300000066
:10504000000022322AA6A26221110981010000007B
:10505000004222130B42827E02020A122346000003
:105060002030AC63300088C8A8998E88A8C8880012
:1050700022672212128040300F00003F4040710032
:10508000002010E82427A4A4A4A4B4AC202000008D
:105090008040300F00003F404044484740700000CF
:1050A00000FE225A864020504C434C502040400085
:1050B00000FF040807404458414E605847404000F4
:1050C000000202C2020202FE82828282820200008A
:1050D0004040407F4040407F404040404040400092
:1050E000201808EAACA8A8AFA8A8ACEA08281800BD
:1050F00000003E02020202FF020212221E00000015
:1051000012EAAFAAEA0FFA02888C5724548C840062
:105110000202EAAAAAABAAABAAAAAAAAEA020200B7
:1051200080A0908E888888FF888888888880800002
:10513000000000FC44444444444444FC000000009B
:10514000100C4424140405C60404142444140C0054
:1051500000003F01010101FF010111211F000000BA
:1051600000001011161010F01010141310000000A1
:105170008181414121110D030D11214141818100A6
:1051800080828282FE8282828282FE82828280008D
:10519000008040300F0000000000FF000000000011
:1051A00004040484E43C2724242424E404040400A8
:1051B00004020100FF0909090949897F0000000074
:1051C0000040424242C27E42C2424242404000004F
:1051D000804020100C0300003F4040404070000021
:1051E000000000000000C03FC00000000000000000
:1051F000804020100C03000000030C1020408000B1
:10520000008060F807101010FF10F0111610100049
:10521000010000FF0080601C03003F404040780018
:105220000000FC2424242526242424FC0000000063
:105230000000FF81412103050911294542808000BA
:1052400000FC8484FC00445454547F54545444005F
:10525000003F10103F0000FF15151555957F000009
:1052600000FC24252624FC0000FE222222FE000051
:10527000007F21111509B140300F0242827F0000EA
:1052800002E22222222222FE2222222222E2020004
:1052900000FF00000912007F00091240807F00001B
:1052A000002020A86C2A3928A82A6CA820200000F9
:1052B00002828190924A494524221008010202008C
:1052C00090523410FF10345280708F0808F8080094
:1052D000829A566322528E008040330C3340800005
:1052E000202020BEAAAAAAAAAAAAAABE20202000DC
:1052F000008080AFAAAAAAFFAAAAAAAF8080000055
:10530000100C4424140405060404142444140C0052
:10531000004040414141417F414141414040000006
:1053200020104C4754545454545454D40404000092
:1053300000000000000000000000000F3040F000FE
:10534000003E22E2223E00FE2222222222E202002F
:10535000203F201F1111007F444444444447400033
:10536000040404F484D4A5A6A4D484F4040404009E
:1053700000FE0202123A1613121A3242827E000016
:105380000000FE222222222222222222FE000000EF
:105390000000FF424242424242424242FF000000BD
:1053A00000F80C0B0808F840308F080808F80000D7
:1053B000007F212121217F0000004380403F000029
:1053C000202020FF202080F88040FF2010F00000E7
:1053D0001030100F0808003F40405F4244437800FF
:1053E00000FE0202021222428242221A020200003F
:1053F000007F4040484442414041424C40404000D0
:105400002020FF202008C84848C808FF0809CA0013
:1054100010301F0808206724149750273846F100E1
:1054200080808080808080808080808080808000FC
:10543000000000000000000000000000000000006C
:105440000000080808080808080808080800000004
:10545000101010101010101010101010101010005C
:105460000004848484848484848484848404000088
:10547000202020202020202020202020202020004C
:10548000000000C080808080808080FC84808080DC
:10549000808080C0C0000000000000FF7F404040CE
:1054A000404040FF40404040404040FF7F000000FF
:1054B00000000000000000000000007F70000000FD
:1054C00000000000000000000000000000000000DC
:1054D00000000000000000FCF800000000000000D8
:1054E000000000000000000000000000FFFE0202BB
:1054F00002020202020202FFFF0202020202020292
:105500000202FF0300000000000000001F1F04044F
:1055100004040404040404FFFF0404040404040455
:1055200004041F0000000000000000000000000054
:10553000000000000000007F3F00000000000000AD
:10554000000000000000000000000000000000005B
:10555000000000000000000000000000000000004B
:105560000000000000F8F8F0F070200000000000DB
:10557000000000000000000000000000000000002B
:10558000000000000000000000000000000000001B
:10559000800000000000000000000000000000008B
:1055A0000000000000FFFFFFFF00000000000000FF
:1055B00000000000000000000000000080800000EB
:1055C00000000000000000000000000000000000DB
:1055D00000FFFFFE06060606060606060606060687
:1055E0000606060606FFFFFFFF0606060606060677
:1055F0000606060606060606060606FFFFFFFF0766
:105600000200000000000000000000000000000098
:1056100000FFFFFF0000000000000000000000008D
:105620000000000000FFFFFFFF000000000000007E
:105630000000000000000000000000FFFFFFFF006E
:10564000000000000000000000000000000000005A
:1056500000FFFFFF1818181818181818181818182D
:105660001818181818FFFFFFFF181818181818181E
:105670001818181818181818181818FFFFFFFF0026
:10568000000000000000000000000000000000001A
:105690000201010000000000000000000000000006
:1056A0000000000000FFFFFFFF00000000000000FE
:1056B00000000000000000000000000101000000E8
:1056C00000000000000000000000000000000000DA
:1056D00000000000000000000000000000000000CA
:1056E0000000000000FFFFFFFF00000000000000BE
:1056F00000000000000000000000000000000000AA
:105700000000000000000000000000000000000099
:105710000000000000000000000000000000000089
:1057200000000000001F1F0F0F000000000000001D
:105730000000000000000000000000000000000069
:10574000000000000000000001020203040506073B
:1057500008090A0B0C0D0E0F1010000000000000CD
:1057600000000102030406070809000002400000CF
:10577000000000A00000000005400000000000C87C
:10578000000000000C4000000000409C00000000F1
:10579000194000000020BCBE0000000034400000A2
:1057A000BFC91B8E00000004B5400000504BCFD095
:1057B0006607E2CF010000006C4100003E8251AA62
:1057C000DFEEA73401000000D9420000DCB5A0E202
:1057D0003A301F97FFFFFFFFB4450000FD25A0C82A
:1057E000E9A3C14FFFFFFFFFFF3F00000000008063
:1057F00000000000FF3F00000000008000000000EB
:105800003C5800080000002010000000280100089B
:105810004C58000810000020900D000044010008C2
:105820001C00000043000000F8FFFFFF0C00000018
:105830000E0000000F0000002E000000010000001C
:0C584000100000000000000000127A00C0
:04000005080000ED02
:00000001FF
