:100FC10041004200202000430020202D20202D2020
:0B0FD100200020203A20203A202000C1
:100E7300062619090200000AC100014400023900D4
:100E830000033C00000003410000000C2D000000A3
:0C0E930000000000000000000001210031
:100704001209F4E518B53C0BE519B53D06E51A6583
:100714003E6047E5447043851841851942851A4374
:10072400754401F539F53AE53C75F00A84F52DE593
:100734003C75F00A8485F02EE53D75F00A84F52FAA
:10074400E53D75F00A8485F030E53E75F00A84F5E0
:1007540031E53E75F00A8485F032E544D3940040D7
:100764004DE52D75F00AA47C00252EFBEC35F0FA3E
:10077400750C027D027F01120F88E52F75F00AA423
:100784007C002530FBEC35F0FA750C027D057F0109
:10079400120F88E53175F00AA47C002532FBEC3594
:1007A400F0FA750C027D087F01120F88803CE51871
:1007B400FB3395E0FA750C027D027F01120F88E588
:1007C40019FB3395E0FA750C027D057F01120F8841
:1007D400E51AFB3395E0FA750C027D087F01120FD0
:1007E4008885183C85193D851A3EE51BFB3395E049
:1007F400FA750C027D027F02120F88E51CFB33950B
:10080400E0FA750C027D057F02120F88E51DFB33AB
:1008140095E0FA750C027D087F02120F88E540709E
:0F0824000D7BFF7A0F79C17D017F01120F072233
:100B9400E5446079C3E53A94F4E5399401406EE4A0
:100BA400F539F53AE54424FE24FB503B2406705DF8
:100BB400E54175F00A84F533E54175F00A8485F062
:100BC40034E54275F00A84F535E54275F00A84850A
:100BD400F036E54375F00A84F537E54375F00A8489
:100BE40085F03875440222E4FF742E2FF8E6FE7473
:100BF4002D2FF8A6060FBF0AF0E544B4060D854173
:0D0C04003C85423D85433EE4F54422054415
:010C110022C0
:10000E00E540B4010D7BFF7A0F79C37D017F0112AC
:10001E000F07E546B4020B053FE53F75F0068485F4
:10002E00F03FE546640360030200FA7418253FF8BA
:10003E0006D3E518648094E34003E4F518D3E5197C
:10004E006480948C4003751901E51964016023E501
:10005E00196403601DE51964056017E519640760EE
:10006E0011E5196408600BE519640A6005E519B419
:10007E000C0BD3E51A6480949F404D8048E51964BB
:10008E00046011E5196406600BE51964096005E565
:10009E0019B40B0BD3E51A6480949E402B8026E591
:1000AE0019B40224E51875F00412093EAFF0EF7092
:1000BE000BD3E51A6480949D400E8009D3E51A6433
:1000CE0080949C4003751A01D3E51B64809497407D
:1000DE0003E4F51BD3E51C648094BB4003E4F51CDC
:1000EE00D3E51D648094BB4003E4F51DE54664042E
:1000FE0060030201F57418253FF816C3E5186480F5
:10010E0094805003751863C3E5196480948150037D
:10011E0075190CE51964016023E5196403601DE58A
:10012E001964056017E51964076011E51964086024
:10013E000BE519640A6005E519B40C17C3E51A64DA
:10014E008094815003751A1FD3E51A6480949F40E2
:10015E0072806DE51964046011E5196406600BE5A3
:10016E001964096005E519B40B17C3E51A64809488
:10017E00815003751A1ED3E51A6480949E40448004
:10018E003FE5196402703CE51875F00412093EAFA4
:10019E00F0EF7017C3E51A648094815003751A1D31
:1001AE00D3E51A6480949D401A8015C3E51A6480C5
:1001BE0094815003751A1CD3E51A6480949C4003F5
:1001CE00751A01C3E51B648094805003751B17C319
:1001DE00E51C648094805003751C3BC3E51D648050
:1001EE0094805003751D3BE53F7014E545B4010F37
:1001FE007BFF7A0F79C57D027F01120F078011E513
:10020E0018FB3395E0FA750C027D027F01120F8800
:10021E00E53FB40114E545B4010F7BFF7A0F79C5B4
:10022E007D057F01120F078011E519FB3395E0FA6A
:10023E00750C027D057F01120F88E53FB40214E5AF
:10024E0045B4010F7BFF7A0F79C57D087F01120F30
:10025E00078011E51AFB3395E0FA750C027D087FD5
:10026E0001120F88E53FB40314E545B4010F7BFF7F
:10027E007A0F79C57D027F02120F078011E51BFBF5
:10028E003395E0FA750C027D027F02120F88E53F6E
:10029E00B40414E545B4010F7BFF7A0F79C57D05D3
:1002AE007F02120F078011E51CFB3395E0FA750CE7
:1002BE00027D057F02120F88E53FB40512E545B4B5
:1002CE00010D7BFF7A0F79C57D087F02020F07E5CE
:1002DE001DFB3395E0FA750C027D087F02120F8824
:0102EE0022ED
:1002EF00E540B4020D7BFF7A0F79C87D017F0112C3
:1002FF000F07E546B4020B052CE52C75F006848537
:10030F00F02CE546640360030203C27426252CF823
:10031F0006E526D394634003E4F526E527D3940C32
:10032F004003752701E52764016023E52764036017
:10033F001DE52764056017E52764076011E527644D
:10034F0008600BE527640A6005E527B40C09E5286A
:10035F00D3941F4040803BE52764046011E5276478
:10036F0006600BE52764096005E527B40B09E5284E
:10037F00D3941E4020801BE527B40219E5265403B1
:10038F007009E528D3941D400C8007E528D3941CF1
:10039F004003752801E529D394174003E4F529E5B7
:1003AF002AD3943B4003E4F52AE52BD3943B400337
:1003BF00E4F52BE5466404600302049C7426252CA7
:1003CF00F816E526C394005003752663E527C394FA
:1003DF0001500375270CE52764016023E5276403AB
:1003EF00601DE52764056017E52764076011E527A1
:1003FF006408600BE527640A6005E527B40C13E574
:10040F0028C39401500375281FE528D3941F405F1C
:10041F00805AE52764046011E5276406600BE52721
:10042F0064096005E527B40B13E528C39401500355
:10043F0075281EE528D3941E40358030E5276402C9
:10044F00702DE52654037013E528C39401500375EE
:10045F00281DE528D3941D40168011E528C394016B
:10046F00500375281CE528D3941C4003752801E51B
:10047F0029C394005003752917E52AC3940050032C
:10048F00752A3BE52BC394005003752B3BE52C706D
:10049F0014E53BB4010F7BFF7A0F79C57D027F0115
:1004AF00120F07800FE526FB7A00750C027D027F85
:1004BF0001120F88E52CB40114E53BB4010F7BFF4B
:1004CF007A0F79C57D057F01120F07800FE527FB96
:1004DF007A00750C027D057F01120F88E52CB4029E
:1004EF0014E53BB4010F7BFF7A0F79C57D087F01BF
:1004FF00120F07800FE528FB7A00750C027D087F2D
:10050F0001120F88E52CB40314E53BB4010F7BFFF8
:10051F007A0F79C57D027F02120F07800FE529FB45
:10052F007A00750C027D027F02120F88E52CB4044D
:10053F0014E53BB4010F7BFF7A0F79C57D057F0270
:10054F00120F07800FE52AFB7A00750C027D057FDD
:10055F0002120F88E52CB40512E53BB4010D7BFFA9
:10056F007A0F79C57D087F02020F07E52BFB7A0012
:0B057F00750C027D087F02120F88221D
:100EDC00200024E518B5261FE519B5271AE51AB523
:100EEC002815E51BB52910E51CB52A0BE51DB52BFE
:0A0EFC000665216002D200851D2169
:010F060022C8
:100D2A0075A0FE7F647E0012102075A0FD7F647E90
:100D3A000012102075A0FB7F647E0012102075A09F
:100D4A00F77F647E0012102075A0EF7F647E001288
:100D5A00102075A0DF7F647E0012102075A0BF7F6F
:100D6A00647E0012102075A07F7F647E000210202E
:10083300121035120B0D12106C120FDC12058A12F6
:1008430009F485183C85193D851A3E7FE87E03121D
:1008530010207BFF7A0F79CA7D027F01120F077B7D
:10086300FF7A0F79D37D027F02120F077B547D0C31
:100873007F011210627B487D0C7F021210627B3A6B
:100883007D0D7F011210627B3A7D0D7F0212106293
:100893007B437D107F011210627B257D107F021246
:1008A30010627F647E00121020120B0D750C02ABD8
:1008B30053AA527D0E7F01120F88750C02AB4FAA0B
:1008C3004E7D0E7F02120F887F647E00121020205F
:1008D3000054120C128F46E546640170270540E56B
:1008E30040D394024003E4F540E540B40105E4F548
:1008F3003F8011E540B40205E4F52C8007E5407024
:100903000312058AE54014600F146011240270106D
:10091300120704120B94800812000E80031202EFD8
:10092300120EDC0208A52000030208A57FD07E0773
:0B093300120F2A120D2AC2000208A5B4
:03000B00020CCF15
:090CCF00C0E0C0D075D000C007E0
:100CD800758A18758CFC0523E52370020522052505
:100CE800E52570020524C3E52394F4E52294014028
:100CF8001E752200752300E53B70047F0180027F8A
:100D0800008F3BE54570047F0180027F008F45E539
:0B0D1800446008053AE53A7002053916
:070D2300D007D0D0D0E03270
:06104900C2A58F80D2A7B2
:08104F007F027EEFDEFEDFFCF4
:011057002276
:0A105800C2A6121049C2A702104FF1
:100F4C00CFCDCFCECCCE12099F7C007D0A12099F4B
:040F5C00ED2430FF51
:0A0F6000D2A6121049C2A702104FDA
:10100A00AE07BE0104ED148006BE0209ED243F447A
:06101A0080FF12105822B5
:101035007F381210587F0C1210587F061210587FF7
:04104500010210583C
:0A106200AC0312100AAF04020F6085
:060F07008B088A09890A2B
:100F0D0012100AE4FDAB08AA09A90A8D82758300A7
:0C0F1D00120960FF6006120F600D80E9F1
:010F290022A5
:0C0EA9007F0AEA24FFFDE434FFFC7E0019
:080EB5008E0D8F0E8C0F8D10C5
:100EBD007F017E00E4FBEBC39510E50F6480F874B1
:0E0ECD008098500AAC0DAD0E12098D0B80E816
:010EDB0022F4
:040F88008A0A8B0B3B
:100F8C0012100AAA0CEAD39400400D120EA9AC0A56
:080F9C00AD0B120F4C1A80EDA1
:010FA400222A
:100DC80012100AC3EA64809480400B7F2B120F60D4
:100DD8008A168B17800E7F2D120F60C3E49BF517C0
:100DE800E49AF516AA15EAD39400400D120EA9ACA0
:090DF80016AD17120F4C1A80ED24
:010E010022CE
:040E02008A688B6906
:100E060012100AAA6AEAD3940040297F10120EAB88
:100E1600AC68AD69CFCDCFCECCCE12099FEF540FC3
:100E2600FEC3940AEE5004243080022437FF120FCA
:040E3600601A80D1ED
:010E3A002295
:040E3B008A6D8B6EC3
:100E3F0012100AAA6FEAD394004028EA24FFFDE4B7
:100E4F0034FFFC7F027E00120EB5AC6DAD6ECFCDC0
:100E5F00CFCECCCE12099FEF54012430FF120F607A
:030E6F001A80D214
:010E7200225D
:090E9F000718190901173B320183
:05106C00C2B5C2B6226E
:050C73002DFDEE3CFC2C
:060C78008C088D09AB079A
:100C7E00D2B5E4FD7E007401A805088005C333CE0D
:100C8E0033CED8F9FFEBF582EF558224FF92B4D222
:100C9E00B6C2B60DBD08DDE4FD7E007401A80508E0
:100CAE008005C333CE33CED8F9FFE5085EFEE509E5
:100CBE005F4E24FF92B4D2B6C2B60DBD08DBC2B5EC
:010CCE002203
:020D7A00AD07C3
:100D7C00E4F9430501D2B5FB7E007401A803088099
:100D8C0005C333CE33CED8F9FFEDF582EF5582246F
:100D9C00FF92B4C2B6D2B60BBB08DDE4FBD2B6C22E
:100DAC00B630B40DA8037401088002C333D8FC42DA
:0B0DBC00010BBB08E8C2B5C2B4AF01D8
:010DC7002209
:10058A00E4FDFC7F8E120C78E51875F00A12093E1C
:10059A00FF3395E0FEEFC4F8540FC868FFEEC45469
:1005AA00F048FEE51875F00A12093EADF0ED3395F4
:1005BA00E0FCEF7F8C120C73E51975F00A12093E04
:1005CA00FF3395E0FEEFC4F8540FC868FFEEC45439
:1005DA00F048FEE51975F00A12093EADF0ED3395C3
:1005EA00E0FCEF7F88120C73E51A75F00A12093ED7
:1005FA00FF3395E0FEEFC4F8540FC868FFEEC45409
:10060A00F048FEE51A75F00A12093EADF0ED339591
:10061A00E0FCEF2DFDEE3CFC7F86120C78E51B75A5
:10062A00F00A12093EFF3395E0FEEFC4F8540FC8F2
:10063A0068FFEEC454F048FEE51B75F00A12093E45
:10064A00ADF0ED3395E0FCEF2DFDEE3CFC7F84121E
:10065A000C78E51C75F00A12093EFF3395E0FEEFAF
:10066A00C4F8540FC868FFEEC454F048FEE51C7580
:10067A00F00A12093EADF0ED3395E0FCEF2DFDEEE8
:10068A003CFC7F82120C78E51D75F00A12093EFFC8
:10069A003395E0FEEFC4F8540FC868FFEEC454F077
:1006AA0048FEE51D75F00A12093EADF0ED3395E0FE
:1006BA00FCEF2DFDEE3CFC7F80120C78E51E75F0F8
:1006CA000A12093EFF3395E0FEEFC4F8540FC868DA
:1006DA00FFEEC454F048FEE51E75F00A12093EAD5D
:1006EA00F0ED3395E0FCEF2DFDEE3CFC7F8A120C19
:0A06FA00787D807C007F8E020C7872
:1009F4007F8C120D7AEFC4540F75F00AA4FEEF54E5
:100A04000F2EF5187F88120D7AEFC4540F75F00A73
:100A1400A4FEEF540F2EF5197F86120D7AEFC454FD
:100A24000F75F00AA4FEEF540F2EF51A7F84120DF1
:100A34007AEFC4540F75F00AA4FEEF540F2EF51B81
:100A44007F82120D7AEFC4540F75F00AA4FEEF549E
:100A54000F2EF51C7F80120D7AEFC4540F75F00A27
:100A6400A4FEEF540F2EF51D7F8A120D7AEFC454A5
:0C0A74000F75F00AA4FEEF540F2EF51EC3
:010A80002253
:10102000EF1FAC0670011E4C600A7D027CEFDCFEF7
:04103000DDFC80EC77
:011034002299
:100C1200E4F50820B1137F14FE12102030B1FD7FDD
:100C2200147E0012102075080120B0147F147E007B
:100C320012102030B0FD7F147E00121020750802C1
:100C420020B2147F147E0012102030B2FD7F147E79
:100C52000012102075080320B3147F147E001210B6
:100C62002030B3FD7F147E00121020750804AF08F7
:010C7200225F
:100FDC005389F0438901758A18758CFCC28DD28CAB
:070FEC00D2A9D2AFC2B92265
:05000300007FF7DFFEA5
:0100080022D5
:040F2A00AD07AC065D
:100F2E00E4FBFAED25E0FFEC33FEC3EB9FEA9E50A7
:0D0F3E000CB2A51200030BBB00010A80E6F7
:010F4B002283
:03107100DFFE227D
:100F6A00D3EF9400EE940040147D727C00ED1D7066
:0D0F7A00011CED4C70F7EF1F70E61E80E3C8
:010F87002247
:100FF300D2977F02121071C2977F147E00120F6A7C
:07100300D2977F0D0210716E
:100FA500E4FD3097FD7F09121071EE25E0FE3097C4
:0B0FB500010E2097FD0DBD08E9AF06FE
:010FC000220E
:100B0D00C2AF120FF3D29720977A3097FD7F28123C
:100B1D001071120FA57560008F61120FA57564001D
:100B2D008F65120FA57562008F63120FA5754700B3
:100B3D008F48120FA58F497F19121071E561256538
:100B4D00FFE5603564FEE5632FFFE5623EFEE54897
:100B5D002FFFE5473EFE7C00EFB54910ECB5060CC6
:100B6D0085614A85654C85634B85484D754E00857D
:100B7D004A4F755000854C51755200854B53755435
:070B8D0000854D55D2AF2297
:03000000020A8170
:0C0A8100787FE4F6D8FD75816F020AC88A
:10093E00C2D530F707B2D563F0FF05F030E70CB241
:10094E00D5F4048463F0FF05F080018430D502F401
:02095E00042271
:10096000BB010CE58229F582E5833AF583E022504C
:1009700006E92582F8E622BBFE06E92582F8E22296
:0D098000E58229F582E5833AF583E49322B0
:10098D00EF8DF0A4A8F0CF8CF0A428CE8DF0A42E7E
:02099D00FE2238
:10099F00BC000BBE0029EF8DF084FFADF022E4CC3C
:1009AF00F875F008EF2FFFEE33FEEC33FCEE9DEC05
:1009BF00984005FCEE9DFE0FD5F0E9E4CEFD22ED4B
:1009CF00F8F5F0EE8420D21CFEADF075F008EF2F95
:1009DF00FFED33FD4007985006D5F0F222C398FD86
:0509EF000FD5F0EA2223
:100A8D00020833E493A3F8E493A34003F68001F244
:100A9D0008DFF48029E493A3F85407240CC8C3336A
:100AAD00C4540F4420C8834004F456800146F6DF39
:100ABD00E4800B0102040810204080900E73E47E48
:100ACD00019360BCA3FF543F30E509541FFEE4932E
:100ADD00A360010ECF54C025E060A840B8E493A3F5
:100AED00FAE493A3F8E493A3C8C582C8CAC583CA20
:100AFD00F0A3C8C582C8CAC583CADFE9DEE780BED8
:010EA8000049
:00000001FF
