:020000040800F2
:10000000D80E002091010008472A0008EB260008BE
:10001000452A00081D060008A1370008000000005E
:10002000000000000000000000000000293200086D
:10003000B90900080000000027320008513200080A
:10004000AB010008AB010008AB010008AB010008E0
:10005000AB010008AB010008AB010008AB010008D0
:10006000AB010008AB010008AB010008AB010008C0
:10007000AB010008AB010008AB010008AB010008B0
:10008000AB010008AB010008AB010008AB010008A0
:10009000AB010008AB010008AB010008AB01000890
:1000A000AB010008AB010008AB010008AB01000880
:1000B000AB010008AB010008AB010008AB01000870
:1000C000AB010008AB010008AB010008AB01000860
:1000D000AB010008AB010008AB0100089537000830
:1000E000AB010008AB010008AB01000800F002F80A
:1000F00000F03FF80AA090E8000C82448344AAF183
:100100000107DA4501D100F034F8AFF2090EBAE880
:100110000F0013F0010F18BFFB1A43F0010318473B
:10012000A4570000C4570000103A24BF78C878C113
:10013000FAD8520724BF30C830C144BF04680C60ED
:10014000704700000023002400250026103A28BF35
:1001500078C1FBD8520728BF30C148BF0B60704739
:10016000642900F07D80002070471FB51FBD10B5C9
:1001700010BD00F0AEF91146FFF7F7FF03F066FB84
:1001800000F0CCF903B4FFF7F2FF03BC00F0D4F9A0
:100190000948804709480047FEE7FEE7FEE7FEE71B
:1001A000FEE7FEE7FEE7FEE7FEE7FEE70448054957
:1001B000054A064B70470000CD320008ED000008EC
:1001C000D8080020D80E0020D80A0020D80A002025
:1001D0000FB41CB5074B06AA7B44694600900598EE
:1001E00000F05FF90020694600F06EF91CBC5DF874
:1001F00014FB0000ED0200002DE9F0410E4604461C
:10020000002020622046E168884730B3252805D0C9
:10021000D4E901219047206A401CF2E7E1682046BA
:1002200000278847050018D0A5F14100192802D8F9
:1002300020354FF400673246294620462760FFF7F5
:100240008FFF40B1012804D0F61D26F007060836BE
:10025000D8E7361DD6E72846DAE7206ABDE8F08100
:100260002DE9F0410646002410687529314616A58F
:1002700010D0AFF30080002802DA404213A507E057
:1002800031688A0701D512A502E0490704D511A5F6
:10029000012401E0AFF3008000210A2206F12407C7
:1002A00009E0B0FBF2FCB0FBF2F302FB1C003030C3
:1002B00078541846491C0028F3D123462A46304674
:1002C000BDE8F04100F08FB8000000002D000000F4
:1002D0002B00000020000000401ECAB210F8011FD1
:1002E0008A4202D00029F9D10020704730B5054676
:1002F0000B462A4613F8014B12F8010B08B1A04235
:10030000F8D01CB1002802D06D1CF1E7284630BDA2
:1003100010B5431C02E010F8011B71B18107FAD13E
:100320004FF0013202C88C1A8C4314EAC211F9D082
:10033000C01A0A0603D0C01E10BDC01A10BD0A04A0
:1003400001D0801E10BD0902FCD0401E10BD4FF030
:1003500000020429C0F0128010F0030C00F01B8092
:10036000CCF1040CBCF1020F18BF00F8012BA8BFA0
:1003700020F8022BA1EB0C0100F00DB85FEAC17C64
:1003800024BF00F8012B00F8012B48BF00F8012B17
:1003900070474FF0000200B5134694469646203948
:1003A00022BFA0E80C50A0E80C50B1F12001BFF42E
:1003B000F7AF090728BFA0E80C5048BF0CC05DF894
:1003C00004EB890028BF40F8042B08BF704748BFE2
:1003D00020F8022B11F0804F18BF00F8012B704756
:1003E0007047704770472DE9F0470D469946924691
:1003F000044600F124080168880604D5E06921F06C
:100400001001216000E00120A84201DD471B00E04F
:100410000027A1697A1902EB0900081AA061207867
:10042000C00602D42046AFF30080002608E0D4E9DD
:1004300001211AF806009047206A401C761C2062B1
:100440004E45F4DB2078C0060AD52046AFF3008085
:1004500006E0D4E9012130209047206A401C206248
:10046000381EA7F10107F4DC07E0D4E9012118F8F0
:1004700005009047206A401C2062281EA5F1010556
:10048000F3DC2046AFF300802078000602D502207E
:10049000BDE8F0870120FBE701694A1C026108788A
:1004A000704700B58FB0CDE90131002105910549B4
:1004B0007944CDE9031011466846FFF79DFE0FB061
:1004C00000BD0000E5FFFFFF0A6802F8010B0A60AB
:1004D0007047754600F02CF8AE4605006946534655
:1004E00020F00700854618B020B5FFF75FFEBDE895
:1004F00020404FF000064FF000074FF000084FF08B
:10050000000B21F00701AC46ACE8C009ACE8C0091B
:10051000ACE8C009ACE8C0098D46704710B5044688
:10052000AFF300802046BDE81040FFF72BBE00006F
:10053000004870477808002001491820ABBEFEE74C
:10054000260002007047000070B50446006881680C
:10055000C943C90717D1816821F00101816001F009
:100560006DF805460AE000BF01F068F8401B02285C
:1005700004D920688068C043C00706D0206880681E
:10058000C043C007F0D0002070BDA06A40F010004A
:10059000A062E06A40F00100E062012070BD00004E
:1005A000F8B500260446009600688168C943C9076B
:1005B0002DD0816841F0010181601648164900681C
:1005C000B0FBF1F000E0401E00900028FBD101F0EC
:1005D00035F8054616E000BF01F030F8401B022850
:1005E00010D920688068C043C0070BD0A06A40F0D3
:1005F0001000A062E06A40F00100E06284F824602C
:100600000120F8BD20688068C043C007E4D1002005
:10061000F8BD00002000002040420F00FEE700006F
:100620002DE9F04100F022FB474C207808B1032867
:100630006FD100F007F903F0C5F8444F08213846A0
:1006400000F0F2FF0126002508B9A07930B1082199
:10065000384600F0E9FF01281AD029E0A67102F01F
:10066000F3F9032020700821394801F097FD00229A
:100670000221384600F0DDFF36A13948FFF7A8FD1A
:100680003748FFF745FE81B2354800F0B5FA0FE074
:10069000A07901280CD102F0D7F908212C4801F0EB
:1006A000CBFDA571257001220221384600F0C1FF63
:1006B0002C4F6179B868884215D9E2799AB9E26815
:1006C000821A0A2A0FD2E6715A2002F0AFFD26A143
:1006D0002348FFF77DFD2248FFF71AFE81B220482C
:1006E00000F08AFA08E0884206D2E079012803D1B6
:1006F000E571002002F09AFD1E48217900788842B9
:1007000001D9227A32B188421AD2207A012812D035
:1007100016E017E026720021174801F03FFD17A1EF
:100720000F48FFF755FD0E48FFF7F2FD81B20C4868
:1007300000F062FA04E0257200210F4801F07CFD10
:10074000B868E060BDE8F0810000002000080140CA
:10075000F40100205A48414F5F48554F0D0A0000F0
:10076000180100208402002047414F5F57454D0D7E
:100770000A00000010000020AC01002059414E5F2B
:1007800057550D0A0000000000B585B0002001900B
:10079000029003900848816941F0040181618069F9
:1007A000694600F0040004904FF400600090034894
:1007B00000F04AFE05B000BD0010024000080140F4
:1007C00000B585B0002002900A48816941F004011B
:1007D00081618069694600F0040004904FF4006074
:1007E00000900120019003200390034800F02CFEAC
:1007F00005B000BD001002400008014018B50346D6
:100800000C48007810B900F0B9F868B10A4841689E
:100810000A4A0B4C1268B2FBF4F25A4343685B1A63
:100820009342FBD318BD401C0090B0EBC30FFAD32A
:1008300018BD000024000020001000E0200000206F
:1008400040420F002DE9F84F00F074F80122234CCC
:10085000D5022946204600F0ECFE2946204600F04D
:10086000E3FE98BB2946204600F0DEFE0028F9D0C2
:100870004FF40061194800F0D7FE0128F8D000F0CD
:1008800031F8074600F02EF8064600F02BF8054632
:1008900000F028F8044600F025F8009000224FF4FC
:1008A00000610E4800F0C5FE3720FFF7A7FF0122C8
:1008B000D1020A4800F0BDFEB81928440119009879
:1008C000814203D1BB46B246A946A0460448C0E9CE
:1008D0000298C0E900BABDE8F88F000000080140A6
:1008E000840200202DE9F041114E00244FF40067EE
:1008F0003946304600F098FE0028F9D01E20FFF758
:100900007DFF6806050E3946304600F08DFE012851
:1009100001D145F001053946304600F085FE012839
:10092000F9D0641CE4B2082CE2D32846BDE8F0817B
:100930000008014070B5FFF743FF01220E4DD402BD
:100940002146284600F075FE1E20FFF757FF0022C3
:100950002146284600F06DFE142000F063FD0122C0
:100960002146284600F065FE1E20FFF747FFBDE840
:100970007040FFF709BF0000000801400B490878EC
:1009800008B1012070470A48026842F08072026094
:100990000848026842F0010202600022426040689A
:1009A00008B10020704701200870EAE72400002009
:1009B000FCED00E0001000E07047000010B5802161
:1009C0000348FFF7C4FC03490020488010BD000025
:1009D000780300202800002010B5044600F034F908
:1009E00058B90AA10B48FFF781FC30B13A21FFF753
:1009F00073FC002800D0401C10BD052000F012FD43
:100A0000641E2404240CE9D1002010BD4950442C5C
:100A1000000000007803002038B5012239493A4827
:100A200001F0ECFD394D4FF40064002221462846C8
:100A300000F0FFFDFA2000F0F5FC012221462846D7
:100A400000F0F7FD4FF47A7000F0ECFCFFF7B6FF12
:100A50002FA13348FFF7BCFB012500210C23304AAE
:100A60000846009502F0A4FB4FF4FA742DA12EA0C5
:100A700000F09CF80028F9D102E0204600F0D2FCFA
:100A800028A12BA000F092F80028F6D102E0204621
:100A900000F0C8FC23A12AA000F088F80028F6D1B5
:100AA0001EA131A000F082F80028F9D1204600F004
:100AB000B9FC1CA12FA000F079F80028F9D120463C
:100AC00000F0B0FC17A12FA000F070F80028F9D1B9
:100AD00001F0BAFF204600F0A5FC30A11048FFF756
:100AE00077FB00210C230E4A0846009502F060FBBC
:100AF000204600F097FC01F0A7FFBDE83840FFF763
:100B00005DBF0000280000203C02002000080140DA
:100B1000496E69742E2E2E2E202020200000000009
:100B2000F80200204F4B000041540D0A0000000065
:100B300041542B43574D4F44453D320D0A000000B0
:100B400041542B43575341503D2245535038323680
:100B500036222C22313233343536373839222C3490
:100B60002C340D0A0000000041542B5253540D0A3E
:100B70000000000041542B4349504D55583D310D64
:100B80000A00000041542B434950534552564552E8
:100B90003D312C353035300D0A000000496E697446
:100BA00020537563636565640000000070B50E46F0
:100BB0000546C824FFF7ACFB82B2322329460C4815
:100BC00001F042FD0FE000BF00F03EF840B93146B1
:100BD0000848FFF78BFB18B1FFF7F0FE002070BD4F
:100BE0000A2000F01FFC641EE4B2EDD2012070BDAB
:100BF0003C0200207803002030B589B00C46054641
:100C0000FFF7DCFE224609A16846FFF7E1FA0CA1D6
:100C10006846FFF7CBFF002805D13223224629463C
:100C2000084801F011FD09B030BD000041542B43CC
:100C3000495053454E443D302C25640D0A000000B8
:100C40004F4B00003C0200200648418831B18288A9
:100C5000914205D10021418008467047012070472C
:100C60008180FBE72800002072B6FEE72DE9FE43F5
:100C70000320FFF7B1FE334E0028B0605FD032A1F1
:100C8000FFF734FB324C334D68B133482B78227870
:100C900001688DE80E008268304831A10378404831
:100CA000FFF796FA41E03FA1B068FFF71FFB4FF056
:100CB000000850B120780A30C0B22070642802D9F0
:100CC000404684F80080C2B22BE038A1B068FFF73C
:100CD0000DFB642740B120780A3810F0FF00207027
:100CE00000D1277022781CE032A1B068FFF7FEFA2D
:100CF00048B128780A30C0B228706428E3D9404649
:100D000085F80080DFE72DA1B068FFF7EFFA002833
:100D100015D028780A3810F0FF00287000D12F7005
:100D20002A781DA11E48FFF753FA1D48FFF7F0FA75
:100D300003B081B2BDE8F0431948FFF75DBFBDE8DD
:100D4000FE8300002800002043686158756E000093
:100D50000500002004000020840200201000002074
:100D600057454E5F44553A2564202C59414E5F57F4
:100D7000553A2564202C5348495F44553A25642050
:100D80002C74656D705F6D61783A2564202C7961F3
:100D90006E77755F6D61783A2564200D0A0000005A
:100DA0009402002057445F555000000057445F44B0
:100DB0004F574E0059575F555000000059575F4438
:100DC0004F574E00F8B500250446009590F82400D2
:100DD00001280BD0012084F824002046FFF7B4FB43
:100DE0002046FFF7DDFB060002D050E00220F8BDF0
:100DF000A06A20F4885040F00200A062022000F0B7
:100E0000BBFC25490968B1FBF0F0400000E0401E42
:100E100000900028FBD12068816841F008018160C2
:100E200000F00CFC074608E000F008FCC01B0A2894
:100E300003D920688068000715D4206880680007FF
:100E4000F2D42068816841F00401816000F0F6FB73
:100E5000074612E000F0F2FBC01B0A280DD92068FB
:100E60008068400709D5A06A20F0020040F0100019
:100E7000A06284F824500120F8BD206880684007F3
:100E8000E8D4A06A20F0020040F00100A06284F8DB
:100E900024503046F8BD000020000020F8B50024A2
:100EA000009490F824202546012A12D0012280F8CF
:100EB00024204A681F23072A0DD20668776B521E2A
:100EC00002EB820293409F430B6893401F4377637A
:100ED00019E00220F8BD06680D2A0AD2376BD21F2E
:100EE00002EB820293409F430B6893401F4337639A
:100EF00009E0F76A0D3A02EB820293409F430B68C8
:100F000093401F43F7620A68072306680A2A0AD338
:100F1000F7680A3A02EB420293409F438B68934082
:100F20001F43F76008E0376902EB420293409F439A
:100F30008B6893401F4337610A68102A01D0112A39
:100F400020D1124B02689A4217D193681B0219D420
:100F5000936843F4000393600968102912D10C4987
:100F60000C4A0968B1FBF2F101EB8101490000E094
:100F7000491E00910029FBD104E0816A41F0200163
:100F80008162012480F824502046F8BD00240140ED
:100F90002000002040420F000068C06C7047000035
:100FA0002DE9F0414FF0000704003D467ED0A06AD5
:100FB000002628B9E66284F82460204600F07EF816
:100FC0002046FFF7C1FAA16AC90600D420B1A06A81
:100FD00040F01000A06269E0A16A21F4885141F05C
:100FE0000201A1626268E169237B0A4347EA430187
:100FF0000A43A1684FF48077B94209D0012907D08C
:101000005FF0000194F814C0BCF1010F02D00AE0B7
:101010003946F7E7F3B1A36A43F02003A362E36A1A
:1010200043F00103E3622368D3F804C02CF4694C55
:101030004CEA010CC3F804C021688B68DFF870C06B
:1010400003EA0C0313438B60A168B9420BD001295A
:1010500009D00CE0DFF85CC0A3690CEB43330B4311
:1010600043F40061DFE7218A0D05A5F580152168AD
:10107000CB6A23F470032B43CB62216889680E4B43
:101080001940914208D1E662A16A21F0020141F0C3
:101090000101A162BDE8F081A06A20F0020040F0E9
:1010A0001000A062E06A40F00100E0620120F1E778
:1010B000FDF7E1FF00E0FFFFFE0E1FFF00B585B06A
:1010C0000021009101910291039100680E4988422C
:1010D00018D10E48816941F400718161816901F480
:1010E00000710491816941F0040181618069694660
:1010F00000F00400049004200090032001900448B4
:1011000000F0A2F905B000BD00240140001002402B
:10111000000801402DE9F84300270D4604460097DA
:1011200000F08CFA804620688168C90508D5A06A5D
:1011300040F02000A06284F824700120BDE8F8830C
:101140004168C90503D4C06A10F4700F2AD0022088
:1011500000F012FB3B490968B1FBF0F62068036917
:1011600039490B424FEA61014FEAA1121FD1C3680E
:101170004FEA611C13EA0C0F19D103690B4225D108
:10118000C068104222D1142023E0681C0AD02DB17F
:1011900000F054FAA0EB0800A84203D920680068C8
:1011A000800725D5206800688007EED52DE003690B
:1011B0000B4202D1C168114206D0026923490A429A
:1011C00006D1C068084203D1542002E0292000E083
:1011D000FC204643009816E0681C11D02DB100F0A9
:1011E0002DFAA0EB0800A8420AD90098B04207D215
:1011F000A06A40F00400A06284F8247003209DE7F8
:101200000098401C0090B042E6D321686FF01200B5
:101210000860A06A40F40070A06220688068C0F393
:10122000424007280CD1207B50B9A06A20F480707E
:10123000A062A06AC00403D4A06A40F00100A062CA
:1012400000207BE7200000202449922449922400BA
:1012500070B5044690F8240001280DD0012084F8D0
:1012600024002046FFF79CF902004FF0000005D053
:1012700084F82400104670BD022070BDA16A40F2BF
:101280000123994341F48071A1621F4D23681F49D6
:10129000AB4218D10E6816F4702F14D0A66A46F42B
:1012A0008016A6620E68760505D5A66A26F4005655
:1012B00046F48056A662A66AF6040AD5E66A26F0C7
:1012C0000606E66206E0A66A26F48016A6625E6856
:1012D000E9E7E06284F824006FF0020018602068FB
:1012E0008368C3F34243072B05D1A84208D109689C
:1012F00011F4702F04D0816841F480118160B9E746
:10130000816841F4A001F9E700280140042401406C
:1013100010B5044690F82400012807D0012084F875
:1013200024002046FFF710F910B107E0022010BD9D
:10133000A16A21F4885141F00101A162002184F8E1
:10134000241010BD10B590F821100022022905D0FC
:101350000421816380F82020012010BD01680B6802
:1013600023F00E030B6001680B6823F001030B6090
:1013700090F84030C46B012101FA03F3636080F8F8
:10138000211080F82020104610BD000010B590F804
:1013900021100024022903D00421816301243DE0AF
:1013A00001680A6822F00E020A6001680A6822F0E9
:1013B00001020A601A4A0168914201D1012121E02B
:1013C000174A1432914201D110211BE0144A2832ED
:1013D000914201D1891515E0114A3C32914201D167
:1013E00089140FE00E4A5032914202D14FF48031FD
:1013F00008E00B4A6432914202D14FF4801101E0BF
:101400004FF08071064A083A5160012180F821109E
:10141000002180F82010416B01B18847204610BDA3
:101420000800024070B5044600F008F90546601C4B
:1014300002D004480078044400F000F9401BA042A8
:10144000FAD370BD140000202DE9F84FDFF8B891F1
:101450000024A9F1040B23460F2709F1040AABF17C
:10146000040EC9E00125A5402A40AA427DD1674E5D
:10147000D1F804C0ACEB0608B44532D014DCBCF1A2
:10148000030F3AD009DCBCF1000F2AD0BCF1010FE8
:101490001CD0BCF1020F31D11DE0BCF1110F17D0EF
:1014A000BCF1120F2AD119E0B8F5881F19D006DC5B
:1014B000B8F5803F15D0B8F5801F1FD111E0B8F501
:1014C000001F0ED0B8F5041F18D10AE0CB6815E054
:1014D000CB681B1D12E0CB6808330FE0CB680C33E0
:1014E0000CE08B682BB1012B4FF0080303D0456152
:1014F00004E0042302E0056100E00023FF2A01D894
:10150000064601E000F104064FEA840501D9A5F181
:101510002005D6F8008007FA05FC28EA0C0803FA33
:1015200005F548EA0508C6F800804D68ED0062D56B
:10153000374DAE6946F00106AE61AD6924F0030691
:1015400005F001050095334D06EB050CDCF808505D
:10155000A607360F07FA06F825EA0805DFF8B8806F
:10156000404503D14FF0000817E044E0DFF8AC80BD
:10157000404502D14FF001080FE0DFF8A48040455C
:1015800002D14FF0020808E0DFF89880404502D110
:101590004FF0030801E04FF0040808FA06F848EAA3
:1015A0000508CCF808804D68D9F80060ED024D467A
:1015B00001D5164300E096432E604D68DAF80060CE
:1015C000AD02554601D5164300E096432E604D68A6
:1015D000DBF80060AD035D4601D5164300E096439D
:1015E0002E604D68DEF80060ED03754601D51643A8
:1015F00000E096432E60641C0D682A46E5407FF4A7
:1016000031AFBDE8F88F0000080401400000111060
:10161000001002400000014000080140000C0140A1
:1016200000100140001401408068084000D00120F3
:1016300070470AB1016170470904FBE701488068FF
:1016400070470000140000200248816802781144AD
:101650008160704714000020074810B5016841F010
:1016600010010160032000F075F80F2000F006F86B
:1016700000F024F8002010BD0020024070B50D4D90
:1016800004464FF47A712878B1FBF0F00A490968F2
:10169000B1FBF0F000F0A4FB48B9102C07D20022F7
:1016A0002146501E00F036F800206C6070BD01200D
:1016B00070BD000014000020200000200C4808B578
:1016C000816941F001018161816901F001010091AD
:1016D000C16941F08051C161C06900F08050009043
:1016E0000448416821F0E06141F00071416008BDAB
:1016F0000010024000000140002809DB00F01F023A
:10170000012191404009800000F1E020C0F8001163
:1017100070470000F0B40E4B1B680C46C3F3022365
:10172000C3F10705042D00D90425191D072901D28D
:10173000002300E0DB1E012606FA05F1491E2140C8
:1017400099409E40761E16403143F0BC02F029B805
:101750000CED00E0064900F0070208684FF6FF03B1
:10176000184040EA0220034A104308607047000016
:101770000CED00E00000FA0510B501460020234CF6
:10178000012922D0022939D010291DD1616822688F
:10179000D20119D51E48C1F38342C903805C0AD522
:1017A00061681B4AC1F34041921E515C194AB2FB69
:1017B000F1F1484301E0184948436168490203D404
:1017C00040000321B0FBF1F010BD226AC2F30121F9
:1017D000012903D1920701D5C80310BD022905D103
:1017E000626A920702D549F6404010BD0329FCD138
:1017F00021688903F9D54FF2244010BD00F02AF981
:101800006168C1F38131491C4900DBE700100240E7
:10181000CC38000800127A0000093D002DE9F84399
:1018200005460078354CC00754D0E0690026C0005A
:1018300008D4E06940F08050E061E069012600F0E2
:10184000805000902E480168C90512D40168804676
:1018500041F480710160FFF7F1FE074605E000BF2B
:10186000FFF7ECFEC01B642823D8D8F80000C005A1
:10187000F6D5206A10F4407021D0A98801F4407197
:1018800081421CD0206A1F49012220F440700A6066
:1018900000220A602062C00711D0FFF7CFFE074682
:1018A00041F2883808E000BFFFF7C8FEC11B414580
:1018B00002D90320BDE8F883206A8007F4D5206AA6
:1018C000696820F44070084320621EB1E06920F08E
:1018D0008050E0612878800705D56068A96820F409
:1018E0004040084360602878C00605D56068E96814
:1018F00020F48000084360600020DBE70010024015
:1019000000700040400442422DE9F0470F460500B8
:1019100061D0434E306800F00700B84209D2306809
:1019200020F0070038433060306800F00700B8420C
:1019300051D128683B4C810712D5400703D5606818
:1019400040F4E06060602878000703D5606840F4E8
:10195000605060606068A96820F0F0000843606033
:101960002878C00728D06868012810D0216802288C
:1019700010D0890700292EDA616821F003010143A4
:101980006160FFF75BFE804641F288390DE0216817
:101990008903EFE78901EDE7FFF750FEA0EB0801AF
:1019A000494502D90320BDE8F0876068696800F006
:1019B0000C00B0EB810FEFD1306800F00700B842A7
:1019C0000BD9306820F0070038433060306800F0F1
:1019D0000700B84201D00120E5E72878400705D587
:1019E0006068E96820F4E0600843606028780007D8
:1019F00006D56068296920F4605040EAC100606043
:101A000000F038F86168084AC1F30311515CC8401E
:101A10000649086006480068FFF730FE0020C2E76C
:101A20000020024000100240DC38000820000020A6
:101A3000180000200448054900684968044AC1F3B9
:101A40000221515CC8407047200000200010024075
:101A5000EC3800080448054900684968044AC1F3A5
:101A6000C221515CC8407047200000200010024095
:101A7000EC3800080E4A51680E4801F00C03042BA4
:101A800011D0082B0FD10C48C1F38343C903C05CAC
:101A90000AD55168084AC1F34041921E515C054A7B
:101AA0005043B0FBF1F070470449484370470000D1
:101AB0000010024000127A00BA38000800093D0008
:101AC0002DE9F84F040070D02078C04DC00749D0F0
:101AD0006868C0F38100012807D06868C0F38100FE
:101AE000022809D16868C00306D52868800339D563
:101AF00060680028E7D035E06068B0F5803F0BD023
:101B000010B1B0F5A02F11D0286820F480302860E3
:101B1000286820F4802002E0286840F480302860A3
:101B2000606890B1FFF78AFD06460AE0286840F435
:101B300080202860F0E700BFFFF780FD801B64284D
:101B400073D828688003F7D50CE0FFF777FD0646C9
:101B500005E000BFFFF772FD801B6428F0D82868FD
:101B60008003F7D420789A4E80074FF001094FF098
:101B7000000839D5686810F00C0F07D06868C0F30A
:101B80008100022809D16868C00306D4286880074C
:101B900014D52069012808D110E02069B0B1C6F839
:101BA0000090FFF74BFD074605E00AE1FFF746FD11
:101BB000C01B0228C4D828688007F7D52868616947
:101BC00020F0F80040EAC10028600DE0C6F800806F
:101BD000FFF734FD074604E0FFF730FDC01B022885
:101BE00023D828688007F7D4207800072CD57948B7
:101BF000A169D9B1C0F80090FFF720FD074604E0C5
:101C0000FFF71CFDC01B02280FD8686A8007F7D5B4
:101C100071484FF4FA510068B0FBF1F0009000BF3A
:101C20000098411E0091FAD20EE080E0C0F80080DA
:101C3000FFF704FD074604E0FFF700FDC01B022884
:101C400075D8686A8007F7D42078400760D5E869BE
:101C50000027C00008D4E86940F08050E861E869D6
:101C6000012700F0805000905C480168C90513D43A
:101C70000168834641F480710160FFF7DFFC824612
:101C800006E000BFFFF7DAFCA0EB0A0064284ED89C
:101C9000DBF80000C005F5D5E06801280AD008B1DE
:101CA000052813D0286A20F001002862286A20F055
:101CB000040002E0286A40F001002862E06841F276
:101CC000883B98B1FFF7BAFC82460BE0286A40F0E7
:101CD00004002862EEE700BFFFF7B0FCA0EB0A01AA
:101CE00059455AD8286A8007F6D50CE0FFF7A6FCBC
:101CF000824605E0FFF7A2FCA0EB0A0159454CD84B
:101D0000286A8007F6D41FB1E86920F08050E861A6
:101D1000E06988B36968C1F38101022944D00228CF
:101D2000C6F8608004D0FFF789FC044638E034E050
:101D3000FFF784FC074604E0FFF780FCC01B022885
:101D40002BD828688001F7D4206AB0F5803F05D1F0
:101D50006868A16820F4003008436860D4E908018D
:101D60000843696821F4741108436860C6F86090FC
:101D7000FFF764FC044606E025E000BFFFF75EFCC9
:101D8000001B022809D828688001F7D51BE000BF96
:101D9000FFF754FC001B022802D90320BDE8F88F8E
:101DA00028688001F4D40EE00128F7D06868226A20
:101DB00000F48031914204D1616A00F470108842CD
:101DC00001D00120EAE70020E8E70000001002400F
:101DD0000000424280044242200000200070004087
:101DE00010B5401EB0F1807F01D3012010BD4FF02F
:101DF000E02460610F21601701F0D3FC0020A06196
:101E000007202061002010BD70B590F83C20012A09
:101E100026D0012480F83C40022280F83D2003684F
:101E20005A689D6822F070060A6832435A600D4B6A
:101E300002689A4208D0B2F1804F05D00A4B9A420C
:101E400002D00A4B9A4204D1496825F08003194315
:101E5000916080F83D40002180F83C10084670BD3C
:101E6000022070BD002C014000040040000800402A
:101E700010B5040003D094F83D0010B107E0012034
:101E800010BD002084F83C00204600F01FF802201E
:101E900084F83D00211D206801F01AFA012084F821
:101EA000460084F83E0084F83F0084F8400084F83F
:101EB000410084F8420084F8430084F8440084F828
:101EC000450084F83D00002010BD000008B5016801
:101ED0000B48B1F1804F0BD00A4A914207D1C1693A
:101EE00041F00201C161C06900F00200009008BD2C
:101EF000C16941F00101C161C06900F00100F5E76D
:101F0000001002400004004070B5044690F83C0008
:101F10000025012817D0012684F83C60022084F8AF
:101F20003D002068826822F0770222F47F428260BE
:101F30000868502838D00DDC20284FD005DC90B33D
:101F4000102811D14AE0022070BD302846D0402828
:101F50000AD13BE060282FD070280DD0B0F5805F0B
:101F600003D0B0F5005F12D0012584F83D60002059
:101F700084F83C00284670BDCB68D1E90121206877
:101F800001F0EFF92068816841F0770109E0CB6842
:101F9000D1E90121206801F0E4F92068816841F469
:101FA00080418160E1E719E0CA684968206801F072
:101FB0008DFA5021206806E0CA684968206801F05F
:101FC00096FA6021206801F0D6F9CEE7CA68496820
:101FD000206801F07BFA40212068F4E7226801467E
:101FE0001046F0E730B585B00021009101910291D3
:101FF000039102681B49012502241B48B2F1804F5E
:1020000022D01A4B9A421DD18A6942F004028A6199
:102010008A6902F0040204928A6942F008028A6125
:102020008969039401F0080104914021CDE900146D
:102030006946FFF709FACDE9005469460C48039454
:10204000FFF702FA05B030BD8A6942F004028A61E6
:102050008969CDE9005401F00401CDE903416946E5
:10206000EEE70000001002400008014000040040BC
:10207000000C014070B5044690F83C0000260D4667
:1020800001280FD0012084F83C006AB1042A1DD039
:10209000082A2FD00C2A3FD00126002084F83C00CB
:1020A000304670BD022070BD206801F06DF92068D7
:1020B000816941F0080181612068816921F0040192
:1020C0008161206881692A69114311E0206801F06B
:1020D00083F92068816941F4006181612068816928
:1020E00021F480618161206881692A6941EA0221C5
:1020F0008161D2E7206801F09BF92068C16941F055
:102100000801C1612068C16921F00401C161206832
:10211000C1692A69114311E0206801F0B5F920680E
:10212000C16941F40061C1612068C16921F4806125
:10213000C1612068C1692A6941EA0221C161ACE735
:1021400010B5040003D094F83D0010B107E0012061
:1021500010BD002084F83C00204600F01EF802204C
:1021600084F83D00211D206801F0B2F8012084F8B8
:10217000460084F83E0084F83F0084F8400084F86C
:10218000410084F8420084F8430084F8440084F855
:10219000450084F83D00002010BD704710B504468E
:1021A000022249B104290ED0082913D094F8410025
:1021B000012816D0012010BD94F83E000128F9D165
:1021C00084F83E200FE094F83F000128F2D184F813
:1021D0003F2008E094F840000128EBD184F840202B
:1021E00001E084F841200122206801F0ADF80F4998
:1021F0002068884203D1426C42F400424264206865
:10220000884208D0B0F1804F05D00949884202D0F9
:102210000849884204D1816801F00701062903D0EA
:10222000016841F001010160002010BD002C014057
:10223000000400400008004030B504460D46006828
:10224000002201F081F8174B41F2111120688A1029
:10225000984209D1036A0B4206D1036A134203D1A3
:10226000436C23F4004343642068036A0B4206D1A5
:10227000016A114203D1016821F0010101600120CE
:102280003DB1042D08D0082D09D084F8410000206C
:1022900030BD84F83E00FAE784F83F00F7E784F8A1
:1022A0004000F4E7002C014070477047F8B5016822
:1022B00004460868CA684B6910F00F0F4FF000051C
:1022C00059D003F0010602F49077374365D0C10777
:1022D00005D0D10503D5616C41F00101616441076E
:1022E00005D5D90703D0616C41F002016164810713
:1022F00005D5D90703D0616C41F004016164010781
:1023000007D502F02001314303D0616C41F0080190
:102310006164616C00293AD0800604D5900602D52C
:10232000204601F025F920684069616CC0F38010F7
:10233000090700D460B3204601F0F3F82068406933
:10234000400621D52068143050E8001F21F04001DC
:1023500040E80012002AF5D1E06BA8B16D49416355
:10236000E06BFFF713F8002811D0E06B416B01B070
:10237000BDE8F040084783060FD593060DD52046EB
:10238000BDE8F84001F0F4B82046FFF78EFFF8BD35
:102390002046FFF78AFF6564F8BD266B2023012ED7
:1023A0007CD1C6067AD5D60678D5086848680090EC
:1023B00048694FF00206400640D5E16B0868406866
:1023C0000004000CE8D0A28D8242E5D9E08588693E
:1023D00020282DD020680C3050E8001F21F4807197
:1023E00040E80012002AF5D12068143050E8001FA0
:1023F00021F0010140E80012002AF5D120681430D4
:1024000050E8001F21F0400140E80012002AF5D1F9
:1024100084F84230256320680C3050E8001F21F01A
:10242000100140E80012002AF5D1E06BFEF78AFFA8
:102430006663A08DE18D401A81B22AE0A08DE18D06
:10244000401A81B2E08D0028A6D00029A4D02268CD
:102450000C3252E8000F20F4907042E80007002F81
:10246000F5D12068143050E8002F22F0010240E836
:102470000027002FF5D184F84230256320680C3006
:1024800050E8002F22F0100240E80023002BF5D185
:1024900066632046FFF708FFF8BDFFE705062BD56A
:1024A000150629D594F841002128F5D1A068B0F58A
:1024B000805F01D12069B0B1206A411C216221688E
:1024C00000784860E08C401E0004000CE084E3D1FA
:1024D0002068C16821F08001C1602068C16841F0B6
:1024E0004001C160D8E7206A0088C0F30800486056
:1024F000206A801C2062E5E74006CDD55006CBD58A
:10250000CA68204622F04002CA6084F8413000F0D8
:10251000EBF8C1E71335000870B5040004D094F857
:102520004100002510B106E0012070BD84F8405044
:10253000204600F023F8242084F841002068C16878
:1025400021F40051C160204601F074F8206801694F
:1025500021F4904101612068416921F02A01416123
:102560002068C16841F40051C1606564202084F88E
:10257000410084F842006563002070BD30B585B02D
:10258000002400940194029403940068184988423E
:102590002CD11848C16941F48021C161C16901F49D
:1025A00080210491816941F0080181618069124DA7
:1025B00000F0080004904FF4806000900220019029
:1025C0000320039069462846FEF73EFFE814CDE954
:1025D0000004694628460294FEF736FF00221146A1
:1025E0002720FFF797F82720FFF786F805B030BDC2
:1025F0000048004000100240000C014090F84230BA
:10260000202B01D00220704721B11AB100230363AF
:1026100001F06CB80120704708484188802901D337
:1026200000214180064B89B202785A54491C4180EE
:10263000012202490348FFF7E1BF00002800002003
:10264000780300203C0200202DE9F843044690F86E
:102650004100984616460D46202802D00220BDE8CB
:10266000F88385B17EB100206064212084F84100A8
:10267000FEF7E4FFA6848146E684A0682027B0F533
:10268000805F02D003E00120E9E7206910B12E4607
:1026900000250EE000260CE08021204601F041F8E4
:1026A000A8B9C6B116F8010B21684860E08C401E3D
:1026B000E084E08C4B464FF00002CDF8008000280B
:1026C000EAD14FF04001204601F02BF840B184F8E8
:1026D00041700320C3E735F8020BC0F30800E3E7BD
:1026E00084F841700020BAE77047FEE70320401EDF
:1026F000C0B2FCD27047000070B501F07FF8184CF2
:102700000025A0706178012901D0022900D198B17B
:10271000E5706070E078012810D002280BD1207895
:10272000012815D0022806D120790A30C0B22071C4
:10273000642800D9257170BDE170EAE72078401C5B
:10274000207000F081F920780228F4D9257070BD3E
:1027500060790A30C0B260716428F8D9657170BDC3
:10276000000000203EB50021124800910191104A5E
:102770000291026081600173017501244FF46022AF
:102780000461C2614160FEF70BFC08B1FEF76CFA10
:102790000220CDE900040720029069460548FEF7B3
:1027A0007DFB08B1FEF760FA0248FEF70BFB3EBD69
:1027B000002401407C0100202DE9F04385B0002574
:1027C0003A480095019502950395816941F02001F1
:1027D0008161816901F020010491816941F0040166
:1027E0008161816901F004010491816941F008016E
:1027F00081618069DFF8B88000F008000490002251
:1028000040F622014046FEF714FF01229021404687
:10281000FEF70FFFDFF89C90012202214846FEF7E9
:1028200008FF0022C0214846FEF703FF40F60200E1
:10283000012402268DE8710069464046FEF704FE39
:1028400041F20800CDE90005694640460295FEF7D1
:10285000FBFD9020CDE900040327CDE9024769463E
:102860004046FEF7F1FD20208DE8D1006946404644
:10287000FEF7EAFDCDE90064CDE902466946484627
:10288000FEF7E2FDE00300900B48CDE90105694643
:102890004046FEF7D9FDC0208DE8710069464846E4
:1028A000FEF7D2FD05B0BDE8F08300000010024045
:1028B00000080140000C01400000111010B58EB05E
:1028C00000240794089409940A940B941C216846E8
:1028D0000C94FDF75EFD1F484FF0804101604721D9
:1028E000C0E9011440F2E731C0E90314802181619D
:1028F000FFF7BEFA08B1FEF7B7F94FF48050079022
:1029000007A91448FFF700FB08B1FEF7ADF911481D
:10291000FFF716FC08B1FEF7A7F90B940BA90D48B9
:102920000C94FFF771FA08B1FEF79EF96020009051
:1029300040F2F310CDE901040022694605480494F1
:10294000FFF798FB08B1FEF78FF90248FFF74AFB43
:102950000EB010BDAC01002010B58EB0002407945D
:10296000089409940A940B941C2168460C94FDF772
:1029700010FD2548234901604721C0E9011444F6B0
:102980001F61C0E9031480218161FFF771FA08B16A
:10299000FEF76AF94FF48050079007A91A48FFF72D
:1029A000B3FA08B1FEF760F91748FFF7C9FB08B1A1
:1029B000FEF75AF90B940BA913480C94FFF724FA6D
:1029C00008B1FEF751F9602000904FF4DC70CDE9BA
:1029D0000104002269460C480494FFF74BFB08B140
:1029E000FEF742F940F2DB500190082269460648A2
:1029F000FFF740FB08B1FEF737F90348FFF7F2FA9B
:102A00000EB010BD00040040F40100200C4810B5C9
:102A10000A4901604FF4E1314160002181600C22DC
:102A2000C160C0E904128161C161FFF775FD002832
:102A300003D0BDE81040FEF717B910BD00480040B4
:102A40003C020020FEE7FEE730B40021084B0A46B6
:102A50005FF0000003EBC004401CC0B26254802849
:102A6000F8D3491CC9B20829F2D330BC00F0D8B958
:102A7000F803002030B5CC0801F0070301259D4084
:102A8000EBB2064D05EBC005C808285C0AB1184337
:102A900002E063EA0000C043285530BDF80300207F
:102AA00010B50E4C012280212046FEF7C2FD012206
:102AB00040212046FEF7BDFDFFF718FE00228021D1
:102AC0002046FEF7B6FDFFF711FE0022402120460A
:102AD000FEF7AFFDBDE81040FFF708BE000C014057
:102AE00010B50A4C002280212046FEF7A2FD0122EB
:102AF00040212046FEF79DFDFFF7F8FD204601220C
:102B0000BDE810408021FEF794BD0000000C01409C
:102B100010B50C4C012280212046FEF78AFDFFF7FC
:102B2000E5FD012240212046FEF783FDFFF7DEFD93
:102B3000002240212046FEF77CFDBDE81040FFF753
:102B4000D5BD0000000C014010B5C820FEF76AFC9E
:102B50000021AE2000F04CFB0021084600F048FBAD
:102B60000021102000F044FB0021402000F040FB39
:102B70000021812000F03CFB0021CF2000F038FB39
:102B80000021A12000F034FB0021C82000F030FB20
:102B90000021A62000F02CFB0021A82000F028FB3B
:102BA00000213F2000F024FB0021D32000F020FB77
:102BB0000021084600F01CFB0021D52000F018FB86
:102BC0000021802000F014FB0021D92000F010FB30
:102BD0000021F12000F00CFB0021DA2000F008FBBE
:102BE0000021122000F004FB0021DB2000F000FB9C
:102BF0000021302000F0FCFA0021202000F0F8FA3B
:102C00000021022000F0F4FA00218D2000F0F0FAFB
:102C10000021142000F0ECFAFFF716FF0021BDE8B8
:102C20001040AF2000F0E4BA7CB5734E01241025AB
:102C3000307868B101287DD002287CD0032806D1E5
:102C40001023202218213020009400F05FFA7CBD70
:102C50000022102311462020009400F0AFF9102329
:102C6000012200213020009400F0A8F91023022254
:102C700000214020009400F0A1F91023032200213C
:102C80005020009400F09AF91023062219461846A5
:102C9000009400F093F91023072219462020009495
:102CA00000F08CF910233A2219463020009400F0ED
:102CB0000FF9524ECDE90054022310213820B2689A
:102CC00000F0EAF910232E2219464820009400F063
:102CD000FFF8CDE90054022310215020F26800F0E3
:102CE000DBF91023182220211846009400F066F921
:102CF0002021102307220846009400F05FF91023DA
:102D00003A2220213020009400F0E2F8CDE900546E
:102D1000022320213820326800F0BEF910232E2231
:102D200020214820009400F0D3F8CDE9005402237C
:102D3000202101E027E040E05020726800F0ACF96B
:102D40001023082230211846009400F037F9102390
:102D5000092230212020009400F030F93021102386
:102D60003A220846009400F0B3F8254825A10278DD
:102D70002648FDF72DFA1023244A302138200094EC
:102D800000F016FA7CBD102306221946184600945E
:102D900000F014F91023072219462020009400F0B7
:102DA0000DF910233A2219463020009400F090F8D3
:102DB000CDE900540223727918E010230822194645
:102DC0001846009400F0FAF8102309221946202032
:102DD000009400F0F3F810233A22194630200094B2
:102DE00000F076F8CDE90054327902231021382022
:102DF00000F052F97CBD0000000000208402002099
:102E0000100000202564202525000000B4000020CB
:102E10000246012000E05043491EC9B2FBD2704770
:102E200070B5184E002400BF04F1B000C0B20021FC
:102E300000F0DEF90021084600F0DAF90021102048
:102E400000F0D6F9FFF72CFE782000F01DF8FFF710
:102E50005FFE402000F018F8FFF75AFE5FF0000513
:102E600006EBC500005D00F00FF8FFF751FE6D1C8A
:102E7000EDB2802DF4D3FFF733FE641CE4B2082CCE
:102E8000D2D370BDF803002070B5104E0546002463
:102E9000280601D5012200E0002280213046FEF7FD
:102EA000C8FBFFF723FC012240213046FEF7C1FB9F
:102EB000FFF71CFC002240213046FEF7BAFB6806F3
:102EC000641C050EE4B2082CE2D370BD000C014076
:102ED0002DE9FC5F1C460E4682468B460190082B6E
:102EE0000DD0600700D0012000EBD40061084843FA
:102EF000C0B28146203AD0B2009000204BE00620BC
:102F0000F7E7082C13D00C2C18D0102C1BD0182C41
:102F10004AD10098254900EBC00000BF01EB8001B9
:102F2000002711F80850E80712D00C9A13E0009817
:102F30001F4900EB400001EB4001F1E700981D49FB
:102F400000EB4000EAE71C49009801EB0011E7E7BD
:102F50000C9838B3002231465046FFF78BFD761CA3
:102F60007F1C6D08FFB2F6B2082FDCD30AF1010016
:102F700000F0FF0A082C0AD00199AAEB0100B0EB7F
:102F8000540F04D10BF108008A4600F0FF0B08F142
:102F900001005E46C0B280464845B2D3BDE8FC5F42
:102FA000FFF73EBF0122D6E7BDE8FC9F8045000841
:102FB000F43800081C3B0008903F00082DE9FF4F43
:102FC00081B08146009098460E468B46580701D046
:102FD000012100E0002101EBD80000FB08FA0024E9
:102FE00049E000BFB8F1100F12D0B8F1180F14D09B
:102FF000B8F1200F19D0B8F1400F45D124490398FA
:1030000001EB40200027055DE80714D00E9A15E07B
:103010002049039801EB4010F4E703981C4900EBAA
:10302000C000C83901EBC000ECE7194903988039AA
:1030300001EBC010E6E70E9820B300223146484667
:10304000FFF718FD761C7F1C6D08FFB2F6B2082F43
:10305000DAD309F10100009900F0FF09A9EB0101A1
:10306000414505D10BF10800DDF8009000F0FF0BA1
:10307000641C5E46A4B25445B4D305B0BDE8F04F1D
:10308000FFF7CEBE0122D9E705B0BDE8F08F000002
:10309000C4560008DC5200082DE9F84F0025DDE990
:1030A0000A691F4692468B468046082E00D10225AB
:1030B00000241CE0381B401EC1B20A20FFF7A8FE06
:1030C000BAFBF0F00A21B0FBF1F201FB1200CDF8DF
:1030D000009090B13030C2B205EB560101FB048084
:1030E000C0B233465946FFF7F3FE641CE4B2BC425B
:1030F000E0D3BDE8F84FFFF793BE05EB560101FBA7
:103100000480C0B233463022ECE700002DE9FF4FC7
:1031100083B08046019092460C464FF000098B46E2
:10312000580700D0012000EBD3000690002032E0C9
:1031300000262BE01D4909F10100002511F8097056
:103140001FFA80F9F80701D0109A02E0109858B3DE
:10315000002221464046FFF78DFC641C6D1C7F0851
:10316000EDB2E4B2082DEDD308F10100019900F0B1
:10317000FF08A8EB0101514505D10BF10800DDF86E
:10318000048000F0FF0B761C5C46F6B25645D1D3A6
:103190000098401CC0B2069900908842C8D307B07E
:1031A000BDE8F04FFFF73CBE0122D2E7340000201B
:1031B0002DE9F8431E46154688460446089F0BE055
:1031C0003346414620460097FFF782FE082E0CD07A
:1031D00004EB5600C4B26D1C2A78A2F120005E28D0
:1031E000EED9BDE8F843FFF71BBEA41DE4B2F2E739
:1031F00070B50C460546FFF753FC7820FFF744FEF8
:10320000FFF786FC0CB1402000E00020FFF73CFEF9
:10321000FFF77EFC2846FFF737FEFFF779FCBDE895
:103220007040FFF75DBC704770470000B42800D9BC
:10323000B4204FF4FA614843B421B0FBF1F00349E4
:1032400000F5FA7080B2096848637047F401002005
:10325000FEF7FAB930B593B028216846FDF799F822
:1032600014210AA8FDF795F8002501200F95109567
:103270001195010412958DE8230004904FF4E0109D
:10328000CDE90810022407946846FEF719FC08B13E
:1032900072B6FEE70AA90F2081E831004FF4806082
:1032A000CDE90D0502210AA8FEF72EFB08B172B682
:1032B000FEE74FF4004011900F940FA8FEF7AEFA0E
:1032C000002801D072B6FEE713B030BD7047000091
:1032D000F0B50268194B1A4C1A4D4FF080479842CE
:1032E00005D0B84203D0A04201D0A84203D122F0B9
:1032F00070064A683243984205D0B84203D0A042D3
:1033000001D0A84203D122F44074CA6822434C6918
:1033100022F08002224302608A68C2620A688262E6
:10332000984201D109690163012141610169C9071D
:1033300003D0016921F001010161F0BD002C0140C1
:10334000000400400008004010B501F01F030121F7
:10335000046A99408C430462016A9A4011430162F5
:1033600010BD10B5846842EA032224F47F440A4366
:103370002243826010BD826822F070020A4342F04C
:10338000070181607047000030B5036A026A22F0CD
:10339000010202624268846924F073050C682C43C0
:1033A00023F002058B682B430A4DA8420BD123F072
:1033B0000805CB6822F440722B434D6923F00403C7
:1033C00015438A692A434260846149684163036204
:1033D00030BD0000002C014030B5026A036A23F0C2
:1033E00010030362436884690D6824F4E64444EAE8
:1033F00005248D6822F0200242EA05120B4DA842F6
:103400000ED1CD6822F0800242EA05124D6923F404
:10341000406343EA85038D6922F0400243EA850355
:103420004360846149688163026230BD002C0140C1
:1034300030B5036A026A22F4807202624268C4698B
:1034400023F4007324F073050C682C438D6843EA61
:1034500005230C4DA8420ED1CD6823F4006343EA46
:1034600005234D6922F4405242EA05128D6923F486
:10347000806342EA05124260C4614968C163036225
:1034800030BD0000002C014030B5046A026A22F40D
:10349000805202624268C3690D6823F4E64343EA3E
:1034A00005238D6824F4005444EA0534064DA842EF
:1034B00004D14D6922F4804242EA85124260C36120
:1034C00049680164046230BD002C014010B5036AF4
:1034D000046A24F001040462846924F0F00444EADC
:1034E000021423F00A020A438461026210BD10B57F
:1034F000036A046A24F010040462846923F0A003C0
:1035000024F4704444EA023243EA01118261016208
:1035100010BD10B5406A0021C185C184FEF7C5FE0B
:1035200010BD01680C3151E8002F22F4907241E87F
:103530000023002BF5D10168143151E8002F22F04F
:10354000010241E80023002BF5D1016B012909D1CB
:1035500001680C3151E8002F22F0100241E80023ED
:10356000002BF5D1202180F8421000210163704723
:1035700008B590F84210222901D0022008BD8268C7
:103580004FF480539A4201D1016921B1816A9A4274
:103590001BD04AB10AE00268816A5268C2F308028D
:1035A0000A80816A891C08E0026972B10268526867
:1035B00002F07F020A70816A491C8162C18D491E36
:1035C0000904090CC18503D01BE002685268F1E7C9
:1035D0000168CA6822F02002CA600168CA6822F441
:1035E0008072CA6001684A6922F001024A612021A2
:1035F00080F8421000214163026B012A03D0FFF7DB
:103600000BF8002008BD016301680C3151E8002F60
:1036100022F0100241E80023002BF5D101680A686E
:10362000D20602D50A6849680091818DFEF73CFEFA
:10363000E7E7000070B5044600680169E26821F41C
:103640004051114301612169A06808436169084341
:103650002168CA6841F20C639A430243CA60206839
:103660004169A26921F44071114341611E492068FA
:10367000884202D1FEF7EEF901E0FEF7DBF900EB3C
:10368000C00101EB0012606864218000B2FBF0F31E
:10369000B3FBF1F36FF018067343B2FBF0F5B2FB26
:1036A000F0F605EB8305322303EB0515B5FBF1F5C9
:1036B000B6FBF1F605F0F00505EB0615B2FBF0F6EA
:1036C000B2FBF0F0B0FBF1F06FF01802504306EBE4
:1036D000800003EB0010B0FBF1F0216800F00F0058
:1036E0002844886070BD00000038014081628285F6
:1036F000C28500214164222180F84210016921B174
:103700000168CA6842F48072CA6001684A6942F07E
:1037100001024A610068C16841F02001C1600020D7
:1037200070472DE9F843984617460D460446089E13
:1037300024E0701C22D0FDF781FFA0EB0800B0420E
:103740001AD8CEB12068C168490717D5802D15D089
:10375000402D13D00168C94309070FD40168002523
:10376000406800902046FFF7DCFE0820606484F883
:1037700040500120BDE8F8830320FBE72068006883
:1037800035EA000004D00020B842D2D00020F1E792
:103790000120F9E70148FEF789BD00003C02002046
:1037A000FEE70907090E002804DB00F1E02080F89D
:1037B0000014704700F00F0000F1E02080F8141DA5
:1037C0007047000010B50B48FDF742FD3221094853
:1037D000FDF7A0FC0748FDF7DFFB00EB40100649B2
:1037E00000EB4000000B0870BDE810400148FDF7F9
:1037F0008FBD00007C0100201000002070B5124D2C
:103800004FF48056002431462846FDF70DFF40B99D
:103810003220FDF707FE31462846FDF705FF00B9C7
:1038200001244FF4004631462846FDF7FDFE40B91D
:103830003220FDF7F7FD31462846FDF7F5FE00B9C9
:103840000224204670BD000000080140FDF704FF7F
:10385000FFF700FDFEF7B0FFFFF7D8F8FEF782FF95
:10386000FFF72CF8FFF778F800211048FEF7E4FC8A
:1038700000210F48FEF792FCFDF780F8FFF764F98E
:10388000FFF7E2F8FDF7C8F8FFF7DEF801220221A2
:103890000848FDF7CEFE0020FFF7C8FCFEF72CFF1E
:1038A000FCF7BEFEFFF7C0F9F8E70000AC0100200E
:1038B000F40100200008014001020203040506078C
:1038C00008090A0B0C0D0E0F10100102020304056B
:1038D000060708090A0B0C0D0E0F1010000000005F
:1038E00000000000010203040607080900000000B0
:1038F000010203040000000000000000002F00008F
:1039000000000700070000147F147F1400242A7FA2
:103910002A12006264081323003649552250000021
:103920000503000000001C224100000041221C0091
:103930000014083E08140008083E0808000000A013
:10394000600000080808080800006060000000200F
:1039500010080402003E5149453E0000427F4000ED
:10396000004261514946002141454B310018141273
:103970007F10002745454539003C4A494930000140
:103980007109050300364949493600064949291E8F
:1039900000003636000000005636000000081422F1
:1039A00041000014141414140000412214080002F1
:1039B0000151090600324959513E007C1211127C16
:1039C000007F49494936003E41414122007F414143
:1039D000221C007F49494941007F09090901003E35
:1039E0004149497A007F0808087F0000417F410073
:1039F000002040413F01007F08142241007F4040E9
:103A00004040007F020C027F007F0408107F003ED0
:103A10004141413E007F09090906003E4151215EB6
:103A2000007F091929460046494949310001017FB3
:103A30000101003F4040403F001F2040201F003F49
:103A40004038403F006314081463000708700807FB
:103A500000615149454300007F41410000552A550E
:103A60002A55000041417F00000402010204004089
:103A700040404040000001020400002054545478AB
:103A8000007F4844443800384444442000384444CB
:103A9000487F00385454541800087E090102001869
:103AA000A4A4A47C007F080404780000447D4000A6
:103AB000004080847D00007F102844000000417F8A
:103AC0004000007C04180478007C08040478003866
:103AD0004444443800FC242424180018242418FCEE
:103AE000007C0804040800485454542000043F4457
:103AF0004020003C4040207C001C2040201C003C1A
:103B00004030403C004428102844001CA0A0A07C69
:103B1000004464544C4414141414141400000000A1
:103B200000000000000000000000FC000000000099
:103B300002000000000C020C020000000000000067
:103B400090D0BCD0BC900003000300001824FE44B9
:103B50008C000302070201001824D8B04C80000337
:103B600000010201C038E438E00001020201020253
:103B7000080600000000000000000000000000F83F
:103B80000402000000010204000204F80000000426
:103B9000020100009060F860900000000100000049
:103BA0002020FC2020000000010000000000000098
:103BB0000000080600000000202020202000000057
:103BC00000000000000000000000000200000000F3
:103BD0000080601C0200040300000000F8040404DC
:103BE000F8000102020201000008FC0000000002CF
:103BF0000302000018844424180003020202020099
:103C000008042424D80001020202010040B088FC0C
:103C100080000000000302003C242424C4000102B0
:103C200002020100F824242CC0000102020201005B
:103C30000C04E41C0400000003000000D824242429
:103C4000D80001020202010038444444F800000395
:103C5000020201000000100000000000020000004D
:103C60000000200000000000060000000020508836
:103C7000040200000000010290909090900000006B
:103C80000000000000020488502000020100000033
:103C90001804C4241800000002000000F804E49492
:103CA000F80001020202020000E09CF08000020322
:103CB0000000030204FC2424D800020302020100D5
:103CC000F80404040C0001020202010004FC0404D4
:103CD000F80002030202010004FC24740C00020339
:103CE0000202030004FC24740C0002030200000022
:103CF000F0080444CC4000010202010004FC202032
:103D0000FC040203000003020404FC040400020299
:103D100003020200000404FC04040604040300007F
:103D200004FC24D00C0402030200030204FC04007F
:103D30000000020302020203FC3CC03CFC00030042
:103D40000300030004FC30C4FC040203020003006F
:103D5000F8040404F80001020202010004FC242417
:103D60001800020302000000F8848404F800010235
:103D70000207050004FC2464980002030200030209
:103D8000182424448C000302020201000C04FC04E9
:103D90000C0000020302000004FC0000FC0400010F
:103DA00002020100047C80E01C040000030000000B
:103DB0001CE03CE01C00000300030000049C609C2D
:103DC0000400020300030200041CE01C04000002C3
:103DD000030200000C84641C0400020302020300BE
:103DE0000000FE020200000007040400000E30C0C4
:103DF0000000000000010200000202FE00000004BA
:103E0000040700000004020400000000000000009D
:103E10000000000000000808080808080000020070
:103E200000000000000000000040A0A0C000000151
:103E30000202030204FC2020C00000030202010071
:103E400000C02020600000010202020000C0202407
:103E5000FC0000010202030200C0A0A0C00000019B
:103E6000020202000020F8242404000203020200DF
:103E70000040A0A0602000070A0A0A0404FC2020D9
:103E8000C0000203020003020020E4000000000260
:103E900003020000000020E40000080808070000FA
:103EA00004FC80E020200203020003020404FC0062
:103EB0000000020203020200E020E020C000030034
:103EC0000300030020E02020C000020302000302E0
:103ED00000C02020C00000010202010020E02020DC
:103EE000C000080F0A02010000C02020E00000010D
:103EF000020A0F0820E04020200002030200000018
:103F00000060A0A020000002020203000020F820B0
:103F1000000000000102020020E00020E00000019B
:103F20000202030220E02080602000000301000064
:103F30006080E0806000000300030000206080607B
:103F4000200002030003020020E020806020080817
:103F5000070100000020A060200000020302020010
:103F6000000020DE0200000000070400000000FF47
:103F700000000000000F00000002DE20000000042E
:103F8000070000000201020404020000000000001B
:103F90000000000000000000000000000000000021
:103FA000000000F8000000000000003330000000B6
:103FB00000100C06100C06000000000000000000BD
:103FC00040C07840C0784000043F04043F0404002F
:103FD000007088FC08300000001820FF211E00003F
:103FE000F008F000E018000000211C031E211E0054
:103FF00000F00888700000001E21232419272110DA
:1040000010160E000000000000000000000000007C
:10401000000000E018040200000000071820400023
:1040200000020418E0000000004020180700000013
:10403000404080F0804040000202010F0102020077
:10404000000000F0000000000101011F010101005B
:10405000000000000000000080B0700000000000C0
:104060000000000000000000000101010101010149
:1040700000000000000000000030300000000000E0
:1040800000000000806018040060180601000000B5
:1040900000E010080810E000000F102020100F00B2
:1040A000001010F8000000000020203F2020000039
:1040B0000070080808887000003028242221300091
:1040C00000300888884830000018202020110E0099
:1040D0000000C02010F8000000070424243F240042
:1040E00000F80888880808000019212020110E0017
:1040F00000E0108888180000000F112020110E0029
:1041000000380808C83808000000003F0000000020
:104110000070880808887000001C222121221C00E1
:1041200000E010080810E0000000312222110F000A
:10413000000000C0C000000000000030300000009F
:10414000000000800000000000008060000000000F
:104150000000804020100800000102040810200028
:104160004040404040404000040404040404040073
:104170000008102040800000002010080402010008
:10418000007048080808F000000000303601000008
:10419000C030C828E810E0000718272423140B00BB
:1041A0000000C038E0000000203C23020227382035
:1041B00008F8888888700000203F202020110E0019
:1041C000C030080808083800071820202010080010
:1041D00008F808080810E000203F202020100F00F9
:1041E00008F88888E8081000203F202023201800C5
:1041F00008F88888E8081000203F2000030000002D
:10420000C03008080838000007182020221E0200CD
:1042100008F808000008F808203F210101213F208C
:10422000000808F8080800000020203F20200000B7
:1042300000000808F8080800C08080807F000000A7
:1042400008F888C028180800203F200126382000E0
:1042500008F8080000000000203F20202020300047
:1042600008F8F800F8F80800203F003F003F200061
:1042700008F830C00008F808203F200007183F0069
:10428000E01008080810E0000F10202020100F0098
:1042900008F808080808F000203F2101010100008B
:1042A000E01008080810E0000F18242438504F00D0
:1042B00008F8888888887000203F2000030C302090
:1042C00000708808080838000038202121221C00CE
:1042D000180808F8080818000000203F2000000017
:1042E00008F808000008F808001F202020201F0000
:1042F0000878880000C83808000007380E01000060
:10430000F80800F80008F800033C0700073C030029
:10431000081868808068180820302C03032C30208F
:104320000838C800C83808000000203F20000000FE
:1043300010080808C8380800203826212020180056
:10434000000000FE020202000000007F404040002A
:10435000000C30C000000000000000010638C00062
:1043600000020202FE000000004040407F0000000A
:10437000000004020202040000000000000000002F
:10438000000000000000000080808080808080802D
:104390000002020400000000000000000000000015
:1043A00000008080808000000019242222223F200B
:1043B00008F8008080000000003F112020110E004E
:1043C0000000008080800000000E112020201100DD
:1043D000000000808088F800000E112020103F208F
:1043E0000000808080800000001F22222222130013
:1043F000008080F0888888180020203F202000005E
:104400000000808080808000006B94949493600012
:1044100008F8008080800000203F210000203F201D
:1044200000809898000000000020203F202000001D
:10443000000000809898000000C08080807F00000D
:1044400008F8000080808000203F24022D302000EA
:10445000000808F8000000000020203F2020000095
:104460008080808080808000203F20003F20003FAF
:104470008080008080800000203F210000203F20BD
:104480000000808080800000001F202020201F006E
:10449000808000808000000080FFA12020110E009D
:1044A0000000008080808000000E112020A0FF808E
:1044B000808080008080800020203F21200001003B
:1044C0000000808080808000003324242424190090
:1044D000008080E0808000000000001F202000009D
:1044E0008080000000808000001F202020103F20DE
:1044F000808080000080808000010E30080601006E
:1045000080800080008080800F300C030C300F0012
:1045100000808000808080000020312E0E3120003D
:10452000808080000080808080818E70180601006D
:1045300000808080808080000021302C222130008B
:1045400000000000807C020200000000003F4040AC
:1045500000000000FF00000000000000FF0000005D
:104560000002027C800000000040403F000000008C
:104570000006010102020404000000000000000027
:10458000000000000000000000000000000000002B
:10459000000000000000000000000000000000001B
:1045A000000000000000000000F0F0F0000000003B
:1045B0000000000000017F0100000000000000007A
:1045C000001C1C1C0000000000008060301C8C607F
:1045D000301C0C0000000000000000000000000083
:1045E000000000000000000000000000000000E0EB
:1045F0000000000000E000000086E69F86868686B8
:10460000E69F860000011F01010101011F01010059
:10461000000080C06020F820E0C000000000030718
:104620000C18FF70E18100000000070F10107F10D0
:104630000F0700008060206080000000E020000084
:104640000F3020309F70DC371030C0000000100E9B
:1046500003000718101807000000C02020E0C00069
:104660000000000080E01F38E88703C43C0400001D
:10467000070F1810100B070D1010080000808C4C4D
:1046800038000000000000000000000000000000F2
:10469000000000000000000000000000000000001A
:1046A00000000000000080E030080400000000006E
:1046B00000FEFF0100000000000000000000030FEA
:1046C0001820400000040830E080000000000000D6
:1046D0000000000001FFFE00000000000040201864
:1046E0000F03000000000000000000000000C000F8
:1046F00000000000004266663C18FF183C666642F7
:1047000000000000000003000000000000000000A6
:104710000000800000000000001010101010FF10BA
:104720001010101000000000000003000000000046
:104730000000000000000000000000000000000079
:10474000000000000000000000808C4C38000000D9
:104750000000000000000000000000000000000059
:1047600000101010101010101010100000000000A9
:104770000000000000000000000000000000000039
:104780000000000000000000000000000000000029
:1047900000001C1C1C0000000000000000000000C5
:1047A00000000000E0380C000000000080701C03D6
:1047B000000000000060380E010000000000000052
:1047C000000080C060202060C080000000FEFF016B
:1047D0000000000001FFFE000001070E1810101875
:1047E0000E0701000000808080C0E0000000000093
:1047F0000000000000FFFF0000000000000010109B
:10480000101F1F101010000000804020202020608A
:10481000C080000000030300804020381F07000014
:10482000001C1A1918181818181F00000080C02042
:10483000202060C080000000000303001010182F2B
:10484000E780000000070F10101010180F0700007D
:10485000000000000000C0E0F000000000C0B088D0
:10486000868180FFFF808000000000000010101F84
:104870001F1010000000E060606060606060000079
:1048800000003F1008080818F0E0000000070B10B7
:104890001010101C0F030000000080C040202020DA
:1048A000E0C0000000FCFF211008080818F0E0003C
:1048B0000001070C18101010080F03000000C0E0E2
:1048C0006060606060E06000000003000000E018CD
:1048D0000700000000000000001F1F000000000093
:1048E0000080C0602020202060C080000087EF2C66
:1048F0001818303068CF830000070F081010101010
:10490000180F07000000C0C020202020C080000039
:10491000001F3F604040402010FFFE0000000C1CC4
:10492000101010080F03000000000000000000003D
:104930000000000000000000000E0E0E000000004D
:1049400000000000001C1C1C000000000000000013
:10495000000000000000000000000000000C0C003F
:1049600000000000000000000058380000000000B7
:10497000000000000000008040201000000010280F
:10498000448201000000000000000000000001025D
:1049900004081000000000000000000000000000FB
:1049A00000848484848484848484840000000000DF
:1049B0000000000000000000000010204080000007
:1049C00000000000000000000000018244281000E8
:1049D00000001008040201000000000000C02020B8
:1049E0001010101030E0C0000003030000F01008A9
:1049F0000C070300000000001C1C1C00000000004D
:104A0000000000C0406020202040C00000FCFF01EA
:104A1000F00E03C1FE03807F0001070E0811111084
:104A2000110904020000000080E0E0000000000026
:104A30000000807C4340477FF880000010181F1062
:104A400000000000131F1C1020E0E0202020206048
:104A5000C080000000FFFF10101010182FE780002A
:104A6000101F1F1010101010180F0700000080C03A
:104A7000402020202060E00000FCFF01000000003A
:104A8000000001000001070E1810101008040300B8
:104A900020E0E02020202040C080000000FFFF0038
:104AA0000000000001FFFE00101F1F10101018086A
:104AB0000E07010020E0E020202020202060800060
:104AC00000FFFF101010107C00000000101F1F10CE
:104AD000101010101018060020E0E02020202020E8
:104AE0006060800000FFFF101010107C00000100CB
:104AF000101F1F100000000000000000000080C018
:104B00006020202040E0000000FCFF010000404049
:104B1000C0C140400001070E181010100F0F000018
:104B200020E0E0200000000020E0E02000FFFF1077
:104B30001010101010FFFF00101F1F1000000000C9
:104B4000101F1F100000202020E0E0202020000087
:104B50000000000000FFFF00000000000000101037
:104B6000101F1F101010000000000000202020E087
:104B7000E020202000000000000000FFFF000000F7
:104B80000060E0808080C07F3F00000020E0E020E7
:104B9000000020A06020200000FFFF30187CE3C050
:104BA00000000000101F1F10000001131F1C181030
:104BB00020E0E020000000000000000000FFFF00F7
:104BC0000000000000000000101F1F101010101047
:104BD0001018060020E0E0E000000000E0E0E02027
:104BE00000FF013FFEC0E01E01FFFF00101F10008C
:104BF000031F0300101F1F1020E0E0C00000000092
:104C00000020E02000FF0003071C78E08000FF0088
:104C1000101F100000000000030F1F00000080C0E4
:104C200060202060C080000000FEFF010000000046
:104C300000FFFE000001070E181010180C070100FD
:104C400020E0E0202020202060C0800000FFFF2026
:104C500020202020301F0F00101F1F100000000018
:104C600000000000000080C060202060C0800000C4
:104C700000FEFF010000000000FFFE000001070E23
:104C80001111133C7C67210020E0E020202020202F
:104C900060C0800000FFFF101030F0D0080F070048
:104CA000101F1F10000000030F1C10100080C060B8
:104CB000202020204040E00000070F0C1818303062
:104CC00060E08100001F0C0810101010180F070082
:104CD0008060202020E0E020202060800100000093
:104CE00000FFFF000000000100000000101F1F1067
:104CF0000000000020E0E020000000000020E02094
:104D000000FFFF00000000000000FF0000070F1878
:104D100010101010100807002060E0E020000000D4
:104D200020E060200000077FF88000807C03000006
:104D300000000000071F1C070000000020E0E0202A
:104D400000E0E0200020E0200007FFF8E01FFFFC6B
:104D5000E01F00000000031F0300011F030000000C
:104D6000002060E0A0000020E060200000000003C0
:104D70008F7CF8C6010000000010181E13000117F8
:104D80001F1810002060E0E02000000020E06020FC
:104D9000000001073EF8E0180700000000000010C6
:104DA000101F1F101000000000806020202020A095
:104DB000E0E0200000000000C0F03E0F0300000013
:104DC00000101C1F17101010101806000000000023
:104DD00000FC0404040404000000000000FF0000C4
:104DE0000000000000000000007F40404040400004
:104DF000000010E0000000000000000000000000C3
:104E0000031C6080000000000000000000000003A0
:104E10000C70800000000404040404FC0000000086
:104E200000000000000000FF000000000000404003
:104E30004040407F0000000000000010080C040CFF
:104E4000081000000000000000000000000000004A
:104E50000000000000000000000000000000000052
:104E60000000000000000000000000000000000042
:104E70000000000080808080808080808080808032
:104E8000000000040408080000000000000000000A
:104E90000000000000000000000000000000000012
:104EA0000000000000000000000000000000000002
:104EB000000098D844642424FCF80000000F1F1858
:104EC000101010081F1F10180020E0F00000000054
:104ED000000000000000FFFF180804040CF8F000B8
:104EE00000001F0F18101010180F03000000000022
:104EF000000000000000000000E0F8180404043C7A
:104F00003800000000030F0C1010101008060000FD
:104F10000000000000000020E0F0000000E0F81CAD
:104F200004040408FFFF000000030F18101010080D
:104F30001F0F08000000000000000000000000003B
:104F40000000E0F8484444444C7870000000030F2F
:104F50000C181010100804000000000080C0602031
:104F600020E0C00000040404FFFF04040404000067
:104F7000000010101F1F10101000000000000000A3
:104F80000000000000000000000070F88C04048C99
:104F9000F874040C007076CF8D8D8D89C878700000
:104FA0000020E0F000000000000000000000FFFF13
:104FB00008040404FCF8000000101F1F100000107B
:104FC0001F1F1000000000000060600000000000D3
:104FD0000000040404FCFC000000000000001010AD
:104FE000101F1F10101000000000000000000060E3
:104FF0006000000000000000040404FCFC0000004D
:105000000000C0C08080C07F3F0000000020E0F0B2
:1050100000000000000000000000FFFF80C0F41C42
:105020000404000000101F1F1100031F1C101000BB
:105030000000202020E0F000000000000000000040
:1050400000FFFF000000000000001010101F1F10E4
:105050001010000000000000000000000000000030
:1050600004FCFC0804FCFC0804FCFC00101F1F10DE
:10507000001F1F10001F1F10000000000000000094
:10508000000000000004FCFC08080404FCF8000018
:1050900000101F1F100000101F1F10000000000054
:1050A000000000000000000000E0F0180C04040CF8
:1050B00018F0E00000030F0C101010100C0F03008C
:1050C0000000000000000000000000000004FCFCE4
:1050D000080404040CF8F0000080FFFF8890101012
:1050E0001C0F030000000000000000000000000092
:1050F00000E0F81C04040408F8FC000000030F188A
:1051000010109088FFFF80000000000000000000E9
:1051100000000000040404FCFC100804040C0C0053
:105120001010101F1F1010100000000000000000E1
:10513000000000000000000000003078CCC484842F
:10514000840C1C0000001E1810101011190F06000E
:105150000000000000C00000000000000004040483
:10516000FFFF040404000000000000000F1F1010E7
:10517000100C000000000000000000000000000013
:105180000004FCFE00000004FCFE000000000F1FF5
:10519000181010081F0F0800000000000000000099
:1051A0000000000000040C3CFCC40000C43C0C04E3
:1051B00000000000010F1E0E0100000000000000B2
:1051C0000000000000000000043CFCC400E47CFC83
:1051D00084807C040000071F070000071F070000F1
:1051E0000000000000000000000000000004041C9B
:1051F0007CE4C0341C0404000010101C1601131FB2
:105200001C1810000000000000000000000000005A
:1052100000040C3CFCC400C43C0404000000C0803A
:10522000C1370E0100000000000000000000000077
:105230000000000000001C0404C4F47C1C040000F6
:105240000000101C1F17111010180E0000000000A5
:10525000000000F80C04000000000000001028EF1F
:1052600000000000000000000000003F604000005F
:10527000000000000000FF0000000000000000002F
:105280000000FF0000000000000000000000FF0020
:10529000000000000000040CF80000000000000006
:1052A00000000000EF281000000000000000406037
:1052B0003F00000000000000001806020204081071
:1052C0002020300800000000000000000000000066
:1052D0000000000000000000000000000000FEFED2
:1052E000EAEA2AEAEA4A4242FEFE424280E07F5F60
:1052F000CBDB723B2B2246C4FF7F00000000FCFC8E
:1053000024242567E6A42424243C3C0040703F8FDD
:10531000C1713F0F090949C9F979010080909C8C3E
:105320008484F5F786848484949C8C8000808084B7
:10533000C64F6938103C2F63C08000008080C06079
:1053400070584CC7C74C587060C0808000404044C3
:105350004444447F7F444444444040001010D0FF04
:10536000FFD070705C4F4F5C70604040040703FFDB
:10537000FF41455C594F6E785F4740401070628E28
:105380008CFEFEF2F2FEFEF8F8FFFF0004047E7FC2
:1053900081C7773F1F372747C7FF7F001060028C08
:1053A0000000FE9292929292FE00000004047E01A0
:1053B000407E42427E427E42427E40000000FC240B
:1053C0002424FC252624FC242424040040308F803F
:1053D000844C55252525554C80808000807000FF29
:1053E0001008FE424242FA424242FE008060180724
:1053F0000810FF50484641424C40FF00100C055534
:1054000055D5057F0555555505140C001010108A0B
:10541000A96B352525ABE90810101000404042CC9F
:105420000040A09E8282829EA02020000000003FBB
:10543000908840432C10284641808000001715D5E5
:105440005557557D555755D5151700004040407F9D
:10545000555555555555557F404040001060028CBC
:105460000000FE9292929292FE00000004047E01DF
:10547000407E42427E427E42427E40000000FC244A
:105480002424FC252624FC242424040040308F807E
:10549000844C55252525554C80808000404042CCC9
:1054A0000040A09E8282829EA02020000000003F3B
:1054B000908840432C10284641808000001715D565
:1054C0005557557D555755D5151700004040407F1D
:1054D000555555555555557F40404000807000FF4B
:1054E0001008FE424242FA424242FE008060180723
:1054F0000810FF50484641424C40FF00100C055533
:1055000055D5057F0555555505140C001010108A0A
:10551000A96B352525ABE90810101000404042CC9E
:105520000040A09E8282829EA02020000000003FBA
:10553000908840432C10284641808000001715D5E4
:105540005557557D555755D5151700004040407F9C
:10555000555555555555557F404040000000242471
:10556000242424FC22222223220000000202020220
:105570000242827F02020202020202001010D0FFE9
:10558000901000FE020202FE00000000040300FF73
:105590000083601F0000003F40407800808080BE94
:1055A000A2A2A2A2A2A2A2BE808080000000000649
:1055B000050404044484443C000000000484E45CCA
:1055C00044C40002F2828282FE80800002017F10C9
:1055D000103F00080808084888403F001060028C0F
:1055E00000FE929292929292FE00000004047E01CC
:1055F0004448507F40407F5048444000000000C075
:1056000080808080808080FC84808080808080C0DA
:10561000C0000000000000FF7F404040404040FFCD
:1056200040404040404040FF7F000000000000003C
:10563000000000000000007F70000000000000007B
:10564000000000000000000000000000000000005A
:10565000000000FCF8000000000000000000000056
:105660000000000000000000FFFE02020202020231
:10567000020202FFFF020202020202020202FF0312
:1056800000000000000000001F1F040404040404C4
:10569000040404FFFF0404040404040404041F00BD
:1056A00000000000000000000000000000000000FA
:1056B0000000007F3F00000000000000000000002C
:1056C00000000000000000000000000000000000DA
:1056D00000000000000000000000000000000000CA
:1056E00000F8F8F0F070200000000000000000005A
:1056F00000000000000000000000000000000000AA
:105700000000000000000000000000008000000019
:105710000000000000000000000000000000000089
:1057200000FFFFFFFF00000000000000000000007D
:105730000000000000000000808000000000000069
:1057400000000000000000000000000000FFFFFE5D
:1057500006060606060606060606060606060606E9
:1057600006FFFFFFFF0606060606060606060606F5
:1057700006060606060606FFFFFFFF0702000000FA
:1057800000000000000000000000000000FFFFFF1C
:105790000000000000000000000000000000000009
:1057A00000FFFFFFFF0000000000000000000000FD
:1057B00000000000000000FFFFFFFF0000000000ED
:1057C00000000000000000000000000000FFFFFFDC
:1057D0001818181818181818181818181818181849
:1057E00018FFFFFFFF18181818181818181818189D
:1057F00018181818181818FFFFFFFF000000000005
:105800000000000000000000000000000201010094
:105810000000000000000000000000000000000088
:1058200000FFFFFFFF00000000000000000000007C
:105830000000000000000001010000000000000066
:105840000000000000000000000000000000000058
:105850000000000000000000000000000000000048
:1058600000FFFFFFFF00000000000000000000003C
:105870000000000000000000000000000000000028
:105880000000000000000000000000000000000018
:105890000000000000000000000000000000000008
:1058A000001F1F0F0F00000000000000000000009C
:1058B00000000000000000000000000000000000E8
:1058C00000000000E458000800000020B4000000C0
:1058D0002801000898590008B4000020240E000098
:1058E0004401000800000000321E0000000000001B
:1058F0000000000000000000010000001000000097
:105900000000000000127A0000000000000000000B
:105910000000000000000000000000000000000087
:105920000000000000000002FCFCF8F8E0C00000ED
:10593000000000000000000000000000000000F077
:10594000C08000F0F8FEFEFFFF0F3FFFFFFFFFFEED
:10595000F8C00000000000000000000000007FFF11
:10596000FFFFFC3BFFFFFF1F1F0700E1FF3FFFFFA3
:10597000FF3F0000000000000000000000000000E9
:1059800003070F0E1011010000000301080C0703AC
:0859900000000000000000000F
:04000005080000ED02
:00000001FF
