:020000040800F2
:10000000E00D00209901000861210008691F000827
:100010005D210008A5060008A52D000800000000CD
:100020000000000000000000000000009D27000804
:10003000190B00080000000073270008A127000822
:10004000B3010008B3010008B3010008B3010008C0
:10005000B3010008B3010008B3010008B3010008B0
:10006000B3010008B3010008B3010008B3010008A0
:10007000B3010008B3010008B3010008B301000890
:10008000B3010008B3010008B3010008B301000880
:10009000B3010008B3010008B3010008B301000870
:1000A000B3010008B3010008B3010008B301000860
:1000B000B3010008B3010008B3010008B301000850
:1000C000B3010008B3010008B3010008B301000840
:1000D000B3010008952D0008B3010008B301000822
:1000E000B3010008B3010008B301000800F002F8F2
:1000F00000F042F80AA090E8000C82448344AAF180
:100100000107DA4501D100F037F8AFF2090EBAE87D
:100110000F0013F0010F18BFFB1A43F0010318473B
:10012000444B0000644B0000103A24BF78C878C1EB
:10013000FAD8520724BF30C830C144BF04680C60ED
:10014000704700000023002400250026103A28BF35
:1001500078C1FBD8520728BF30C148BF0B60704739
:10016000642900F07980732900F05D8200207047D7
:100170001FB51FBD10B510BD00F05FFA1146FFF7A7
:10018000F7FF02F0B7FE00F07DFA03B4FFF7F2FFCD
:1001900003BC00F081FA0000094880470948004785
:1001A000FEE7FEE7FEE7FEE7FEE7FEE7FEE7FEE727
:1001B000FEE7FEE704480549054A064B7047000084
:1001C000CD290008ED000008E0070020E00D002028
:1001D000E0090020E00900200FB41CB5084B06AA76
:1001E0007B4469460090059800F0F3F9044600202E
:1001F000694600F001FA20461CBC5DF814FB0000C3
:100200001504000070B50C460546012A05D0287873
:10021000800600D5EA69002302E0012305E05B1CAB
:10022000934202D2E05C0028F9D1A869E618C01A0E
:10023000A861286A184428622846AFF3008004E0C9
:10024000D5E9012114F8010B9047B442F8D32846B0
:10025000AFF3008070BD00002DE9F0410646002498
:1002600010687529314616A510D0AFF3008000281C
:1002700002DA404213A507E031688A0701D512A5CA
:1002800002E0490704D511A5012401E0AFF3008085
:1002900000210A2206F1240709E0B0FBF2FCB0FBC2
:1002A000F2F302FB1C00303078541846491C002839
:1002B000F3D123462A463046BDE8F04100F02BB981
:1002C000000000002D0000002B00000020000000B6
:1002D0002DE9F05F894604464FF0000ADFF824B1AB
:1002E000FB44C0F820A02046E168884700287DD064
:1002F000252806D0D4E901219047206A401C2062BD
:10030000F1E700255F462046E16888472028064639
:1003100007DB312E05D2B81910F8200C08B10543BF
:10032000F1E7A80701D525F00405C4F81CA00027B3
:10033000C4F818A02A2E09D0304602F051FD38B377
:1003400004EB8708303EC8F8186019E059F8041B20
:10035000204604EB87029161E1688847012F064639
:1003600018D1E069002820DA25F020051DE0D8F832
:10037000180000EB800006EB40003038C8F8180089
:100380002046E1688847064602F02AFD0028EED1A3
:10039000012F0AD02E2E08D12046E16888477F1C05
:1003A0000646022F45F02005C4DBA069002803DAC9
:1003B000404245F00105A061E80701D025F0100595
:1003C000A6B1A6F14100192802D8203645F40065EF
:1003D0004A463146204625604D46FFF7C1FE60B1D2
:1003E000012807D0ED1D25F0070000E007E000F12F
:1003F000080978E705F1040975E730467AE7206ACD
:10040000BDE8F09F6C490000401ECAB210F8011F01
:100410008A4202D00029F9D10020704730B5054644
:100420000B462A4613F8014B12F8010B08B1A04203
:10043000F8D01CB1002802D06D1CF1E7284630BD71
:1004400010B5431C02E010F8011B71B18107FAD10D
:100450004FF0013202C88C1A8C4314EAC211F9D051
:10046000C01A0A0603D0C01E10BDC01A10BD0A046F
:1004700001D0801E10BD0902FCD0401E10BD4FF0FF
:1004800000020429C0F0128010F0030C00F01B8061
:10049000CCF1040CBCF1020F18BF00F8012BA8BF6F
:1004A00020F8022BA1EB0C0100F00DB85FEAC17C33
:1004B00024BF00F8012B00F8012B48BF00F8012BE6
:1004C00070474FF0000200B5134694469646203917
:1004D00022BFA0E80C50A0E80C50B1F12001BFF4FD
:1004E000F7AF090728BFA0E80C5048BF0CC05DF863
:1004F00004EB890028BF40F8042B08BF704748BFB1
:1005000020F8022B11F0804F18BF00F8012B704724
:100510007047704770472DE9F0470D46994692465F
:10052000044600F124080168880604D5E06921F03A
:100530001001216000E00120A84201DD471B00E01E
:100540000027A1697A1902EB0900081AA061207836
:10055000C00602D42046AFF30080002608E0D4E9AC
:1005600001211AF806009047206A401C761C206280
:100570004E45F4DB2078C0060AD52046AFF3008054
:1005800006E0D4E9012130209047206A401C206217
:10059000381EA7F10107F4DC07E0D4E9012118F8BF
:1005A00005009047206A401C2062281EA5F1010525
:1005B000F3DC2046AFF300802078000602D502204D
:1005C000BDE8F0870120FBE701694A1C0261087859
:1005D000704700B58FB0CDE9013100210591054983
:1005E0007944CDE9031011466846FFF771FE0FB05C
:1005F00000BD0000E5FFFFFF0A6802F8010B0A607A
:10060000704710B5436913B1AFF3008001E0FFF705
:10061000F9FD012010BD127800F124010A700022BA
:100620004A700122EDE711684FF0FF32E9E7000060
:10063000004870477C07002070477546FFF7F8FFB9
:10064000AE4605006946534620F00700854618B0BF
:1006500020B5FFF7AFFDBDE820404FF000064FF09A
:1006600000074FF000084FF0000B21F00701AC46E7
:10067000ACE8C009ACE8C009ACE8C009ACE8C00906
:100680008D46704710B50446AFF300802046BDE8A4
:100690001040FFF77ABD000001491820ABBEFEE70D
:1006A0002600020000BFFEE71CB5032000F044FA5C
:1006B000AB4908600846006800282ED0A9A1A848C8
:1006C0000068FFF7ABFE002828D0A848C07808B122
:1006D000A7A000E0AAA0A549897809B1A4A100E0DB
:1006E000A7A1CDE90010A148407808B1A0A000E082
:1006F000A3A003469D48007808B19DA000E0A0A0FB
:100700000246A1A1A948FFF767FDA848FFF798FE98
:1007100084B22146A54800F08BFBAFE0A4A190482D
:100720000068FFF77BFE002825D090480078A8B924
:10073000A1A19E48FFF750FD9C48FFF781FE84B2BF
:1007400021469A4800F074FB0020A24948800880A6
:100750000120A1490870854908708FE09FA1934846
:10076000FFF73AFD9148FFF76BFE84B221468F48B0
:1007700000F05EFB82E0A0A179480068FFF74EFE22
:1007800028B37A484078A8B99DA18848FFF724FD8E
:100790008648FFF755FE84B22146844800F048FBA6
:1007A00000209E494880088001208B4948706F498D
:1007B000487063E09AA17D48FFF70EFD7B48FFF784
:1007C0003FFE84B22146794800F032FB56E09BA1FF
:1007D00063480068FFF722FE28B364488078A8B910
:1007E00098A17248FFF7F8FC7048FFF729FE84B221
:1007F00021466E4800F01CFB002099494880088083
:100800000120754988705949887037E095A167487B
:10081000FFF7E2FC6548FFF713FE84B22146634808
:1008200000F006FB2AE096A14D480068FFF7F6FDB0
:1008300020B34E48C078A8B993A15C48FFF7CCFC20
:100840005A48FFF7FDFD84B22146584800F0F0FAFF
:10085000002094494880088001205F49C8704349BE
:10086000C8700BE090A15148FFF7B6FC4F48FFF766
:10087000E7FD84B221464D4800F0DAFA914800784D
:10088000012810D190A14948FFF7A6FC4748FFF77F
:10089000D7FD84B22146454800F0CAFA00208949B4
:1008A00008703249087087484078012810D18BA120
:1008B0003E48FFF791FC3D48FFF7C2FD84B2214658
:1008C0003A4800F0B5FA00207E4908702749487080
:1008D0007C488078012810D185A13448FFF77CFC42
:1008E0003248FFF7ADFD84B22146304800F0A0FA4F
:1008F0000020744988701D4988707248C0780128AA
:1009000010D180A12948FFF767FC2848FFF798FD20
:1009100084B22146254800F08BFA00206949C8704E
:100920001249C8701148007818B90021012002F05E
:100930009DFA0E48407818B90021022002F096FA7C
:100940000A48807818B90021032002F08FFA07487E
:10095000C07818B90021042002F088FA1CBD0000FC
:100960000000002043686158756E000005000020FB
:1009700042755F4B655F59755F59756500000000F2
:1009800057755F52656E000053656174313A257387
:100990002C53656174323A25732C53656174333A74
:1009A00025732C53656174343A2573003C00002094
:1009B00059755975653100005A756F5F5765695FE4
:1009C000315F59755F5975655F4368656E5F476F45
:1009D0006E00000012000020090000205A756F5FB1
:1009E0005765695F315F59755F5975655F53686910
:1009F0005F42616900000000597559756532000059
:100A00005A756F5F5765695F325F59755F597565D4
:100A10005F4368656E5F476F6E0000001600002040
:100A20005A756F5F5765695F325F59755F597565B4
:100A30005F5368695F42616900000000597559752C
:100A4000653300005A756F5F5765695F335F59758D
:100A50005F5975655F4368656E5F476F6E000000A4
:100A60001A0000205A756F5F5765695F335F5975CB
:100A70005F5975655F5368695F42616900000000F6
:100A800059755975653400005A756F5F5765695F10
:100A9000345F59755F5975655F4368656E5F476F71
:100AA0006E0000001E0000205A756F5F5765695F79
:100AB000345F59755F5975655F5368695F42616955
:100AC000000000000D0000205A756F5F5765695FD8
:100AD000315F4368695F4461700000005A756F5F61
:100AE0005765695F325F4368695F44617000000069
:100AF0005A756F5F5765695F335F4368695F44612B
:100B0000700000005A756F5F5765695F345F436816
:100B1000695F4461700000007047000010B58021DB
:100B20000348FFF7ACFC00200249088010BD00001C
:100B3000FC0100203400002070B50546002400BFF1
:100B400000F09CF980B90DA10E48FFF767FC044640
:100B500054B13A212046FFF757FC044614B1641CF7
:100B6000204670BD0020FCE7052000F0FDF9681E5E
:100B700085B2002DE4DC0020F3E700004950442C4E
:100B800000000000FC01002008B501225D495E481C
:100B900001F024F900224FF400615C4800F090FB62
:100BA000FA2000F0E1F90122D102584800F088FB58
:100BB0004FF47A7000F0D8F9FFF7B0FF54A158480D
:100BC000FFF70AFB01200C23554A0021009008463C
:100BD00001F08CFD11E000224FF400614B4800F061
:100BE0006FFBFA2000F0C0F90122D102474800F063
:100BF00067FB4FF47A7000F0B7F94AA14AA000F001
:100C0000EBF80028E7D14AA14548FFF7E5FA0120B3
:100C10000C23434A00210090084601F067FD47A1DC
:100C20003F48FFF7D9FA01200C233D4A19460090AE
:100C3000002001F05BFD44A13948FFF7CDFA012007
:100C40000C23374A18210090002001F04FFD40A1ED
:100C50003348FFF7C1FA01200C23314A24210090C8
:100C6000002001F043FD03E04FF4FA7000F07CF93E
:100C70002CA13AA000F0B0F80028F5D103E04FF421
:100C8000FA7000F071F927A138A000F0A5F800284B
:100C9000F5D100BF21A13FA000F09EF80028F9D1B6
:100CA0004FF4FA7000F060F900BF1EA13CA000F004
:100CB00093F80028F9D14FF4FA7000F055F900BF0D
:100CC00018A13BA000F088F80028F9D101F04AFAF9
:100CD0004FF4FA7000F048F93BA11148FFF77CFA95
:100CE00001200C230E4A30210090002001F0FEFC70
:100CF0004FF4FA7000F038F901F034FAFFF70EFF04
:100D000008BD000038000020BC01002000080140A0
:100D1000496E69742E2E2E2E202020200000000007
:100D20007C0200204F4B000041540D0A00000000DF
:100D30004C696272617279202020200072657365AF
:100D400072766174696F6E0073797374656D0000FB
:100D5000496E69742E2E2E2E0000000041542B4344
:100D6000574D4F44453D320D0A00000041542B437E
:100D7000575341503D2245535038323636222C22AB
:100D8000313233343536373839222C342C340D0A8D
:100D90000000000041542B5253540D0A0000000083
:100DA00041542B4349504D55583D310D0A00000028
:100DB00041542B4349505345525645523D312C35F1
:100DC0003035300D0A000000496E69742053756398
:100DD00063656564000000002DE9F04104460D469E
:100DE000C8262046FFF72CFB87B232233A4621461D
:100DF0000D4801F04DF80FE000F040F848B92946E1
:100E00000A48FFF70BFB20B1FFF788FE0020BDE882
:100E1000F0810A2000F0A8F8301EA6F10101CEB240
:100E2000EAD10120F3E70000BC010020FC01002012
:100E300030B589B004460D46FFF770FE2A4608A17A
:100E400001A8FFF7C9F90BA101A8FFF7C5FF28B951
:100E500032232A462146084801F01AF809B030BD6D
:100E600041542B43495053454E443D302C25640D8D
:100E70000A0000004F4B0000BC0100200A48008817
:100E800008B9012070470848008808490988884245
:100E900003D1002004490880F4E70348008803498F
:100EA00008800120EEE7000034000020360000201A
:100EB00072B600BFFEE7000070B50446002594F846
:100EC0002100022803D00420A063012548E0206807
:100ED000006820F00E00216808602068006820F09B
:100EE0000100216808601F492068884201D1012063
:100EF00026E01C4914312068884201D110201FE0EF
:100F0000184928312068884201D1801518E0154918
:100F10003C312068884201D1801411E011495031E0
:100F20002068884202D14FF4803009E00D496431D5
:100F30002068884202D14FF4801001E04FF08070A9
:100F4000084908394860012084F8210000BF0020CA
:100F500084F8200000BF606B10B12046616B8847A9
:100F6000284670BD0800024070B5044600F0AEF996
:100F700006462546681C10B104480078054400BFA9
:100F800000F0A4F9801BA842FAD370BD2C00002009
:100F90002DE9F8470346002294466EE14FF0010820
:100FA00008FA02F4D1F8008008EA0400A0427DD1DA
:100FB000DFF8DCA2D1F80480A8EB0A09D0453AD0CA
:100FC00014DCB8F1030F50D009DCB8F1000F31D0B8
:100FD000B8F1010F1CD0B8F1020F49D120E0B8F1EF
:100FE000110F18D0B8F1120F42D11EE0B9F5881FC9
:100FF00025D006DCB9F5803F20D0B9F5801F37D168
:101000001AE0B9F5001F18D0B9F5041F30D117E068
:10101000D1F80CC02DE0D1F80C8008F1040C28E0C8
:10102000D1F80C8008F1080C23E0D1F80C8008F10D
:101030000C0C1EE000BF00BF00BF00BF00BF00BF20
:10104000D1F80880B8F1000F02D14FF0040C0BE08A
:10105000D1F80880B8F1010F03D14FF0080C1C61E2
:1010600002E04FF0080C5C6103E04FF0000C00E080
:1010700000BF00BFFF2801D8984601E003F1040833
:101080004646FF2802D84FEA820803E0A2F108088A
:101090004FEA88084746D6F800804FF00F0909FA52
:1010A00007F928EA09080CFA07F900E088E048EA9D
:1010B0000908C6F80080D1F8048008F08058B8F11B
:1010C000805F7DD100BFDFF8CC81D8F8188048F070
:1010D0000108DFF8C091C9F81880C846D8F8188010
:1010E00008F00108CDF8008000BF00BF4FEAB93812
:1010F0004FEA920958F829504FEA82784FEA187956
:101100004FF00F0808FA09F825EA0805DFF888818A
:10111000434502D14FF0000816E0DFF880814345D7
:1011200002D14FF001080FE0DFF87481434502D18E
:101130004FF0020808E0DFF86C81434502D14FF020
:10114000030801E04FF004084FEA82794FEA197969
:1011500008FA09F848EA0505DFF84C814FEA9209D8
:1011600048F82950D1F8048008F48038B8F5803F59
:101170000AD1DFF83881D8F8008048EA0008DFF8A3
:101180002C91C9F8008009E0DFF82081D8F80080B0
:1011900028EA0008DFF81491C9F80080D1F804802B
:1011A00008F40038B8F5003F10D1DFF8008108F1ED
:1011B0000408D8F8008048EA0008DFF8F09000E062
:1011C0005AE009F10409C9F800800DE0DFF8DC807D
:1011D00008F10408D8F8008028EA0008DFF8CC906D
:1011E00009F10409C9F80080D1F8048008F48018D6
:1011F000B8F5801F0ED1DFF8B48008F10808D8F8E0
:10120000008048EA0008DFF8A49009F10809C9F84D
:1012100000800DE0DFF8948008F10808D8F800801D
:1012200028EA0008DFF8849009F10809C9F800806D
:10123000D1F8048008F40018B8F5001F0ED1DFF8CB
:101240006C8008F10C08D8F8008048EA0008DFF844
:101250005C9009F10C09C9F800800DE0DFF84C80C2
:1012600008F10C08D8F8008028EA0008DFF83C9064
:1012700009F10C09C9F80080521CD1F8008028FA45
:1012800002F8B8F1000F7FF489AEBDE8F8870000DE
:10129000000011100010024000080140000C014045
:1012A000001001400014014008000140000401400A
:1012B000024693680B400BB1012000E0002070470C
:1012C0000AB1016101E00B04036170470148006845
:1012D0007047000024000020034800680349097893
:1012E0000844014908607047240000202C000020B9
:1012F00010B50848006840F0100006490860032057
:1013000000F0A8F80F2000F007F800F02BF80020FC
:1013100010BD00000020024070B504460E48007861
:101320004FF47A71B1FBF0F00C490968B1FBF0F5AC
:10133000284600F00BFC08B1012070BD102C07D22C
:1013400000222146501E00F047F80548046001E0E5
:101350000120F2E70020F0E72C0000203000002000
:101360002800002008B500BF1148806940F0010046
:101370000F4988610846806900F00100009000BFB5
:1013800000BF00BF0846C06940F08050C8610846F1
:10139000C06900F08050009000BF00BF00BF054949
:1013A000486820F0E06040F00070486000BF08BD71
:1013B000001002400000014001460846002809DBF9
:1013C00000F01F0301229A4043099B0003F1E02330
:1013D000C3F8002100BF70472DE9F05F80460D463D
:1013E0001646002701F0E0FC074639462A463346F8
:1013F00001F00700C0F1070ABAF1040F02D94FF05B
:10140000040A01E0C0F1070AD14600F1040ABAF16A
:10141000070F02D24FF0000A01E0A0F1030AD44600
:101420004FF0010A0AFA09FAAAF1010A0AEA020AC5
:101430000AFA0CFA4FF0010B0BFA0CFBABF1010BA3
:101440000BEA030B4AEA0B042146404601F0B4FCC8
:10145000BDE8F09F00BF00F00702064B19684FF689
:10146000FF031940044B0B4343EA0221014B19606F
:1014700000BF70470CED00E00000FA0570B50446AF
:101480000D460CB9012070BD5A48006800F00700F5
:10149000A8420ED25748006820F00700284355495B
:1014A00008600846006800F00700A84201D001204B
:1014B000E9E7207800F0020002281DD1207800F032
:1014C0000400042805D14C48406840F4E0604A49D3
:1014D0004860207800F00800082805D14648406898
:1014E00040F46050444948604348406820F0F000B0
:1014F000A168084340494860207800F0010078B3B3
:101500006068012806D13C48006800F4003090B9BA
:101510000120B8E76068022806D13748006800F06B
:10152000007040B90120AEE73348006800F00200C7
:1015300008B90120A7E73048406820F0030061683F
:1015400008432D494860FFF7C1FE064609E0FFF752
:10155000BDFE801B41F28831884202D9032092E708
:1015600007E02548406800F00C006168B0EB810F8F
:10157000EDD12048006800F00700A8420ED91D48B0
:10158000006820F0070028431A49086008460068F0
:1015900000F00700A84201D0012074E7207800F095
:1015A0000400042807D11448406820F4E060E16892
:1015B000084311494860207800F00800082808D145
:1015C0000D48406820F46050216940EAC1000A4992
:1015D000486000F03FF808494968C1F30311074A21
:1015E000515CC8400649086006480068FFF794FE51
:1015F000002048E70020024000100240282F000889
:1016000030000020280000200148006870470000DA
:101610003000002000B5FFF7F7FF04494968C1F327
:101620000221034A515CC84000BD00000010024086
:10163000382F000800B5FFF7E7FF04494968C1F3F8
:10164000C221034A515CC84000BD000000100240A6
:10165000382F0008F0B585B00FF26C0C9CE8E01054
:1016600001A8A0E8E0101CA52D680095002100222B
:10167000002300240020194D696801F00C05F5B124
:10168000042D02D0082D19D101E0154819E001AD53
:10169000C1F38346AC5D01F4803555B10F4D6D68E3
:1016A000C5F340451DF805200D4D6543B5FBF2F32C
:1016B00002E00C4D04FB05F3184602E000BF0848A9
:1016C00000BF00BF05B0F0BD02030405060708090E
:1016D0000A0B0C0D0E0F101001020000001002404A
:1016E00000127A0000093D00F8B504460CB901204B
:1016F000F8BD207800F00100002878D0F848406854
:1017000000F00C0004280CD0F548406800F00C00F4
:10171000082811D1F248406800F48030B0F5803FCD
:101720000AD1EF48006800F4003000285FD06068FC
:1017300000285CD10120DBE700BF6068B0F5803F86
:1017400006D1E748006840F48030E549086028E0A9
:10175000606858B9E248006820F48030E0490860C9
:101760000846006820F4802008601AE06068B0F540
:10177000A02F0BD1DA48006840F48020D8490860D7
:101780000846006840F4803008600AE0D4480068E9
:1017900020F48030D24908600846006820F4802098
:1017A000086000BF606888B1FFF790FD054606E05D
:1017B000FFF78CFD401B642801D9032098E7C84837
:1017C000006800F400300028F2D010E0FFF77EFD42
:1017D000054606E0FFF77AFD401B642801D9032087
:1017E00086E7BF48006800F400300028F2D1207876
:1017F00000F00200022857D1B948406800F00C0000
:1018000050B1B748406800F00C00082818D1B4481F
:10181000406800F4803098B9B148006800F00200D8
:1018200020B12069012801D0012061E7AC4800689F
:1018300020F0F800616940EAC100A949086033E07E
:101840002069E8B10120A7490860FFF73FFD054680
:1018500006E0FFF73BFD401B022801D9032047E7C4
:101860009F48006800F002000028F2D09C48006801
:1018700020F0F800616940EAC1009949086013E06E
:10188000002098490860FFF721FD054606E0FFF7B4
:101890001DFD401B022801D9032029E7904800685C
:1018A00000F002000028F2D1207800F0080008289B
:1018B0002DD1A069B8B101208B490860FFF706FD62
:1018C000054606E0FFF702FD401B022801D9032070
:1018D0000EE78348406A00F002000028F2D00120A1
:1018E00000F048FF13E000207F490860FFF7EEFC9E
:1018F000054606E0FFF7EAFC401B022801D9032059
:10190000F6E67748406A00F002000028F2D120781D
:1019100000F00400042873D100277148C06900F06A
:10192000805070B900BF6E48C06940F080506C496B
:10193000C8610846C06900F08050009000BF00BF39
:1019400001276A48006800F48070B0B967480068F1
:1019500040F4807065490860FFF7B8FC054606E072
:10196000FFF7B4FC401B642801D90320C0E65F48A0
:10197000006800F480700028F2D000BFE068012801
:1019800006D15748006A40F001005549086227E037
:10199000E06858B95248006A20F0010050490862D6
:1019A0000846006A20F00400086219E0E068052893
:1019B0000BD14B48006A40F00400494908620846D0
:1019C000006A40F0010008620AE04548006A20F021
:1019D0000100434908620846006A20F004000862DA
:1019E00000BFE068A0B1FFF771FC054609E0FFF712
:1019F0006DFC401B41F28831884202D9032077E612
:101A000022E03748006A00F002000028EFD012E020
:101A1000FFF75CFC054608E0FFF758FC401B41F26D
:101A20008831884201D9032062E62D48006A00F01F
:101A300002000028F0D1012F05D12948C06920F00B
:101A400080502749C86100BFE069C8B32448406896
:101A500000F00C00082860D0E069022848D100207E
:101A600020490866FFF732FC054606E0FFF72EFC2A
:101A7000401B022801D903203AE61948006800F00B
:101A800000700028F2D1206AB0F5803F07D11448D9
:101A9000406820F40030A168084311494860D4E947
:101AA000080108430E49496821F4741108430C49A0
:101AB000486001200B490866FFF708FC054607E06F
:101AC0003DE0FFF703FC401B022801D903200FE68D
:101AD0000348006800F000700028F2D02FE00000FA
:101AE0000010024000004242800442420070004068
:101AF000002014490866FFF7E9FB054606E0FFF7FA
:101B0000E5FB401B022801D90320F1E50E480068DF
:101B100000F000700028F2D111E0E069012800D146
:101B2000E6E50948466806F48031206A814204D11E
:101B300006F47011606A814201D00120D8E50020CE
:101B4000D6E50000000042420010024070B5044695
:101B50002546681EB0F1807F01D301200FE0681E8A
:101B60004FF0E02148610F214FF0FF3001F024F9E0
:101B700000204FF0E021886107200861002070BD3F
:101B8000704700002DE9F04704462068056820688A
:101B9000C668206847694FF00008C14605F00F0885
:101BA000B8F1000F0AD105F0200038B106F020008E
:101BB00020B1204600F060FFBDE8F087B8F1000FCB
:101BC0006DD007F0010018B906F49070002866D0B7
:101BD00005F0010030B106F4807018B1E06B40F000
:101BE0000100E06305F0040030B107F0010018B116
:101BF000E06B40F00200E06305F0020030B107F056
:101C0000010018B1E06B40F00400E06305F008004B
:101C100030B107F0010018B1E06B40F00800E0635C
:101C2000E06B68B305F0200028B106F0200010B189
:101C3000204600F021FF20684069C0F38019E06B66
:101C400000F0080010B9B9F1000F22D0204600F0D2
:101C5000F3FE2068406900F04000B0B120684069A0
:101C600020F0400021684861606B50B11748616BFB
:101C70004863606BFFF720F910B1606B416B8847D8
:101C80000CE02046FFF77CFF08E02046FFF778FFD6
:101C900004E02046FFF774FF0020E0638CE705F0C6
:101CA000800030B106F0800018B1204601F008F83D
:101CB00082E705F0400030B106F0400018B1204640
:101CC00000F0CAFE78E700BF76E70000252A00088A
:101CD00010B504460CB9012010BDA06900B100E0A8
:101CE00000BF94F8390028B9002084F83800204655
:101CF00000F028F8242084F839002068C06820F417
:101D000000502168C860204600F00AFF2068006982
:101D100020F49040216808612068406920F02A0082
:101D2000216848612068C06840F400502168C8609C
:101D30000020E063202084F8390084F83A00002075
:101D4000CAE7000010B586B0044600200290039058
:101D5000049005901E492068884236D100BF1D4876
:101D6000806940F480401B4988610846806900F41E
:101D70008040019000BF00BF00BF0846806940F06E
:101D8000040088610846806900F00400019000BFEB
:101D900000BF48150290022003900320059002A97D
:101DA0000D48FFF7F5F84FF4806002900020039093
:101DB000049002A90848FFF7EBF8002211462520FD
:101DC000FFF70AFB2520FFF7F7FA06B010BD000069
:101DD00000380140001002400008014010B50346E1
:101DE00093F83A0020282FD101B10AB9012010BD83
:101DF00000BF93F83800012801D10220F7E7012045
:101E000083F8380000BF99629A85DA850020D8638C
:101E1000222083F83A0000BF002083F8380000BF7A
:101E20001868C06840F480701C68E06018684069F9
:101E300040F001001C6860611868C06840F0200034
:101E40001C68E0600020D2E70220D0E710B504460D
:101E50000B480088802802D30020094908800948DF
:101E60000178074802880088401C054B1880064806
:101E70008154012203490548FFF7B0FF10BD00005F
:101E80003400002038000020FC010020BC010020AC
:101E90002DE9F84304460D4616461F464FF000094B
:101EA00094F8390020285CD105B116B90120BDE8AD
:101EB000F88300BF94F83800012801D10220F6E72A
:101EC000012084F8380000BF0020E063212084F85E
:101ED0003900FFF7FBF98146A684E6842BE0E08C0D
:101EE000401EE084A068B0F5805F16D14B4600220A
:101EF00080212046009700F017FF08B10320D6E7A5
:101F0000A846B8F80000C0F30800216848602069BE
:101F100008B9AD1C0FE06D1C0DE04B46002280217E
:101F20002046009700F000FF08B10320BFE715F836
:101F3000010B21684860E08C0028D0D14B4600227C
:101F400040212046009700F0EFFE08B10320AEE7E5
:101F5000202084F8390000BF002084F8380000BF3A
:101F6000A5E70220A3E7704700BFFEE7032000BFFC
:101F7000011EA0F10102D0B2FAD1704710B500F0F5
:101F800037FF04462C480078844202D02A48047067
:101F900000E00024012C06D0022C16D0032C25D002
:101FA000042C47D134E02548007801280CD10220C8
:101FB0002249087022490870002022494880088080
:101FC0000121084600F052FF34E01C484078012807
:101FD0000BD100201C494880088002201749487016
:101FE00017494870012100F041FF23E01348807831
:101FF00001280CD1002015494880088002200F4993
:1020000088700F4988700121032000F02FFF11E034
:102010000A48C07801280CD100200D49488008806A
:1020200002200649C8700649C8700121042000F04A
:102030001DFF00BF00BF10BD0400002009000020EC
:102040000500002012000020160000201A000020C9
:102050001E00002000B585B0002001900290039082
:10206000049000BF2C48806940F020002A49886114
:102070000846806900F02000009000BF00BF00BF4C
:102080000846806940F0040088610846806900F0D5
:102090000400009000BF00BF00BF0846806940F008
:1020A000080088610846806900F00800009000BFC1
:1020B00000BF0022F0211948FFF702F90122032195
:1020C0001748FFF7FDF80122D1021448FFF7F8F88E
:1020D0000F200190002002900120039001A90F48D9
:1020E000FEF756FF4FF40F6001900120029002208E
:1020F0000390049001A90948FEF74AFF03200190CC
:102100000120029003900320049001A90448FEF7E7
:102110003FFF05B000BD0000001002400008014074
:10212000000C014010B50B480B4908604FF4E1303A
:102130004860002108488160C16001610C21416153
:1021400000218161C161FFF7C3FD08B1FEF7B0FE58
:1021500010BD000000380140BC01002000BFFEE7B8
:1021600000BFFEE770B500240CE0002506E000206B
:10217000074901EBC5010855681CC5B2802DF6DB87
:10218000601CC4B2082CF0DB00F0B4F970BD000094
:10219000FC020020F0B514460B46CF1701EB577731
:1021A000C7F3C702CF1701EB5777FF10A1EBC707A3
:1021B000FEB20123B340DDB24CB1134B03EBC003BD
:1021C0009B5C2B43104F07EBC007BB541AE00E4B30
:1021D00003EBC0039B5CDB430B4F07EBC007BB5417
:1021E000094B03EBC0039B5C2B43074F07EBC00776
:1021F000BB54054B03EBC0039B5CDB43024F07EB77
:10220000C007BB54F0BD0000FC02002010B5012245
:1022100002210C48FFF754F8012211460948FFF744
:102220004FF8FFF7A3FE002202210648FFF748F807
:10223000FFF79CFE002201210248FFF741F8FFF75B
:1022400095FE10BD000C014010B500220221084887
:10225000FFF736F8012211460548FFF731F8FFF77E
:1022600085FE012202210248FFF72AF810BD000076
:10227000000C014010B5012202210A48FFF720F8A6
:10228000FFF774FE012211460648FFF719F8FFF721
:102290006DFE002201210348FFF712F8FFF766FEEA
:1022A00010BD0000000C014010B5C820FEF75CFE18
:1022B0000021AE2000F041FA0021084600F03DFA6E
:1022C0000021102000F039FA0021402000F035FAFA
:1022D0000021812000F031FA0021CF2000F02DFAFA
:1022E0000021A12000F029FA0021C82000F025FAE1
:1022F0000021A62000F021FA0021A82000F01DFAFC
:1023000000213F2000F019FA0021D32000F015FA37
:102310000021084600F011FA0021D52000F00DFA46
:102320000021802000F009FA0021D92000F005FAF0
:102330000021F12000F001FA0021DA2000F0FDF97F
:102340000021122000F0F9F90021DB2000F0F5F95E
:102350000021302000F0F1F90021202000F0EDF9FB
:102360000021022000F0E9F900218D2000F0E5F9BC
:102370000021142000F0E1F9FFF7F4FE0021AF2066
:1023800000F0DBF910BD000008B546A14948FDF793
:1023900023FF01200C23474A00210090084600F04B
:1023A000A5F94548007820B1012807D002280FD1AF
:1023B00009E042A13F48FDF70FFF09E043A13D4876
:1023C000FDF70AFF04E046A13A48FDF705FF00BF0C
:1023D00000BF01200C23374A19460090002000F06E
:1023E00085F93548407820B1012807D002280FD15F
:1023F00009E032A12F48FDF7EFFE09E033A12D4897
:10240000FDF7EAFE04E036A12A48FDF7E5FE00BF2D
:1024100000BF01200C23274A18210090002000F063
:1024200065F92548807820B1012807D002280FD10E
:1024300009E022A11F48FDF7CFFE09E023A11D48B6
:10244000FDF7CAFE04E026A11A48FDF7C5FE00BF4D
:1024500000BF01200C23174A24210090002000F027
:1024600045F91548C07820B1012807D002280FD1BE
:1024700009E012A10F48FDF7AFFE09E013A10D48D6
:10248000FDF7AAFE04E016A10A48FDF7A5FE00BF6D
:1024900000BF01200C23074A30210090002000F0EB
:1024A00025F908BD2020202054755F5368755F47CB
:1024B00075616E003C0100200500002053656174C9
:1024C0003A57755F52656E20202020005365617475
:1024D0003A59695F59755F597565202020200000C1
:1024E000536561743A596F755F52656E20202020E4
:1024F0000000000070B500242BE004F1B001C8B268
:10250000002100F01AF90021084600F016F9002118
:10251000102000F012F9FFF779FE782000F01EF885
:10252000FFF7A8FE402000F019F8FFF7A3FE0025F2
:1025300009E0094901EBC501085D00F00FF8FFF75C
:1025400099FE681CC5B2802DF3DBFFF77DFE601C91
:10255000C4B2082CD1DB70BDFC02002070B504466B
:1025600000251FE004F0800028B1012202210F485D
:10257000FEF7A6FE04E0002202210C48FEF7A0FEB2
:10258000FFF7F4FC012211460848FEF799FEFFF719
:10259000EDFC002201210548FEF792FE6006040EC4
:1025A000681CC5B2082DDDDB70BD0000000C0140C9
:1025B0002DE9FE4F0746884692461C460197CDF806
:1025C0000080082C02D14FF006091FE02046E317D7
:1025D00004EB5373DB1021464FEAE47C04EB5C7C94
:1025E0004FEAEC0CA4EBCC0CBCF1000F02D04FF086
:1025F000010C01E04FF0000C6344224604EBD27C56
:102600004FEA6C0C03FB0CF303F0FF09AAF1200066
:10261000C6B200255EE0082C07D106EB46002F4924
:1026200001EB400010F805B01DE00C2C07D106EBC3
:1026300046002B4901EB800010F805B013E0102C88
:1026400005D1284800EB061010F805B00BE0182C57
:1026500007D106EBC600244901EB800010F805B055
:1026600001E0BDE8FE8F002002901CE00BF00100AD
:1026700028B1414638460C9AFFF78CFD09E00C98CA
:1026800008B9012000E00020024641463846FFF725
:1026900081FD4FEA6B0B08F1010000F0FF08029882
:1026A000401CC0B2029002980828DFDB781CC7B239
:1026B000082C0BD004EBD4714A100199791A8A4284
:1026C00004D1019F00980830C0B20090DDF800806E
:1026D000681CC5B24D459EDB00BFC2E7402F000815
:1026E00068310008DC350008CC3B00082DE9F843D0
:1026F00006460F4614461D46DDF8208013E0CDF84F
:10270000008022782B4639463046FFF751FF082DCE
:1027100002D1B01DC6B205E0284605EBD07106EB2C
:102720006101CEB2641C2078202802DB20787E284C
:10273000E5DDFFF7DFFEBDE8F88370B505460C4622
:10274000FFF764FD7820FFF709FFFFF793FD1CB149
:102750004020FFF703FF02E00020FFF7FFFEFFF736
:1027600089FD2846FFF7FAFEFFF784FDFFF76CFDB1
:1027700070BD704708B508490968C9084FF47A72F6
:10278000B1FBF2F14143009100BF00BF00994A1E26
:1027900000920029F9D108BD3000002070470000E8
:1027A00010B5FEF799FD6848007800282FD06748DB
:1027B0000088401C6549088008460088B0F57A7F8B
:1027C00025DD0020088008464088401C488060487D
:1027D000007801280AD108464088052806DD002037
:1027E00048805949087001205A49087058480078B3
:1027F00002280CD1554840880A2808DD002053499A
:1028000048805149087052490870524908704E4832
:10281000407878B350480088401C4F4908800846EB
:102820000088B0F57A7F25DD0020088008464088C2
:10283000401C48804648407801280AD10846408814
:10284000052806DD002048803F49487001204149A5
:1028500048703F48407802280CD13F4840880A28F9
:1028600008DD00203C4948803749487038494870A5
:10287000384948703448807801282FD1374800887B
:10288000401C3649088008460088B0F57A7F25DD6F
:102890000020088008464088401C48802C488078EA
:1028A00001280AD108464088052806DD0020488016
:1028B000254988700120274988702548807802289A
:1028C0000CD1264840880A2808DD0020234948808A
:1028D0001D4988701E4988701E4988701A48C07842
:1028E00001282FD11E480088401C1D490880084639
:1028F0000088B0F57A7F25DD0020088008464088F2
:10290000401C48801248C07801280AD108464088F7
:10291000052806DD002048800B49C87001200D49BC
:10292000C8700B48C07802280CD10D4840880A288E
:1029300008DD00200A4948800349C8700449C8706E
:102940000449C87010BD00000900002012000020DA
:10295000050000200D000020160000201A000020B5
:102960001E00002000B58FB0282105A8FDF7A9FDA5
:1029700014216846FDF7A5FD01200590000406908E
:10298000002007900120099002200C90C1030D91B6
:102990004FF4E0110E9105A8FEF7A6FE08B1FEF770
:1029A00087FA0F20009002200190002002904FF43F
:1029B000806003900020049002216846FEF75EFDCF
:1029C00008B1FEF775FA0FB000BD000011480068AD
:1029D00040F001000F490860084640680E49084071
:1029E0000C494860084600680C49084009490860DD
:1029F0000846006820F4802008600846406820F4FB
:102A0000FE0048604FF41F008860C8030449086056
:102A100070470000001002400000FFF8FFFFF6FEC4
:102A200008ED00E070B505466C6A0020E085E084A2
:102A30002046FFF7A5F870BD0168C96821F49071C0
:102A40000268D1600168496921F0010102685161A1
:102A5000202180F83A10704710B504462068C068FD
:102A600020F040002168C860202084F8390020460A
:102A7000FFF779FA002010BD70B5044694F83A00CB
:102A800022284AD1A068B0F5805F13D1A56A2069D9
:102A900040B920684068C0F308002880A06A801C04
:102AA000A06219E020684068C0B22880A06A401C7B
:102AB000A06211E0206938B920684068C1B2A26AFA
:102AC000501CA062117007E02068406800F07F0190
:102AD000A26A501CA0621170E08D401E80B2E08599
:102AE000C8B92068C06820F020002168C86020684C
:102AF000C06820F480702168C8602068406920F0B8
:102B0000010021684861202084F83A002046FFF740
:102B10009DF9002070BD0020FCE70220FAE70000CC
:102B200070B504462168096921F44051E2681143F7
:102B3000226811612269A1681143626941EA0205B4
:102B40002168C96841F20C62914329432268D1602F
:102B50002168496921F44071A269114322685161D9
:102B6000564A2168914254D1FEF764FD00EBC00142
:102B700001EB001162689200B1FBF2F100EBC002C0
:102B800002EB001263689B00B2FBF3F26423B2FB1A
:102B9000F3F202EBC20303EB0212A1EB8201322239
:102BA00002EB01116422B1FBF2F101F0F00100EB44
:102BB000C00202EB001263689B00B2FBF3F26423D5
:102BC000B2FBF3F201EB021200EBC00101EB0011CA
:102BD00063689B00B1FBF3F100EBC00303EB001350
:102BE0006668B600B3FBF6F36426B3FBF6F303EBBB
:102BF000C30606EB0313A1EB8301322303EB0111A0
:102C00006423B1FBF3F101F00F01114422689160DC
:102C100053E0FEF7FFFC00EBC00101EB001162681E
:102C20009200B1FBF2F100EBC00202EB001263680C
:102C30009B00B2FBF3F26423B2FBF3F202EBC2039C
:102C400003EB0212A1EB8201322202EB011164229A
:102C5000B1FBF2F101F0F00100EBC00202EB001257
:102C600063689B00B2FBF3F26423B2FBF3F201EB67
:102C7000021200EBC00101EB001163689B00B1FB85
:102C8000F3F100EBC00303EB00136668B600B3FB7F
:102C9000F6F36426B3FBF6F303EBC30606EB03136C
:102CA000A1EB8301322303EB01116423B1FBF3F1A8
:102CB00001F00F0111442268916070BD003801409D
:102CC000014691F8390021282CD18868B0F5805F41
:102CD0000FD10A6A1088C0F308000B6858600869B1
:102CE00018B9086A801C086209E0086A401C08627A
:102CF00005E00B6A581C086218780B685860C88C8D
:102D0000401E80B2C88458B90868C06820F08000AE
:102D10000B68D8600868C06840F040000B68D86055
:102D2000002070470220FCE72DE9F04104460D46E3
:102D300017469846069E21E0701CF8B12EB1FEF7AA
:102D4000C5FAA0EB0800B04218D92068C06820F48A
:102D5000D0702168C8602068406920F001002168B7
:102D60004861202084F8390084F83A0000BF002030
:102D700084F8380000BF0320BDE8F08120680068B7
:102D80002840A84201D1012000E00020B842D3D061
:102D90000020F1E710B50248FEF7F4FE10BD000078
:102DA000BC01002000BFFEE702480068C0F302201B
:102DB000704700000CED00E010B5002804DB0A07A6
:102DC000130E054A135406E00A07140E034A00F0D6
:102DD0000F031B1FD45410BD00E400E018ED00E009
:102DE00030380A2801D201207047002070470000C7
:102DF00010B5002401211C48FEF75AFA40B90A20F8
:102E0000FEF7B2F801211848FEF752FA00B9012482
:102E100002211548FEF74CFA40B90A20FEF7A4F843
:102E200002211148FEF744FA00B9022404210E4899
:102E3000FEF73EFA40B90A20FEF796F804210A4848
:102E4000FEF736FA00B9032408210748FEF730FAE6
:102E500040B90A20FEF788F808210348FEF728FA4F
:102E600000B90424204610BD0008014070B5054695
:102E70000C46012D06D0022D11D0032D1CD0042D9F
:102E800034D126E02CB1012210211948FEF718FA9E
:102E900004E0002210211648FEF712FA26E02CB1B9
:102EA000012220211248FEF70BFA04E00022202123
:102EB0000F48FEF705FA19E02CB1012240210C4819
:102EC000FEF7FEF904E0002240210948FEF7F8F978
:102ED0000CE02CB1012280210548FEF7F1F904E055
:102EE000002280210248FEF7EBF900BF00BF70BD51
:102EF00000080140FEF7FCF9FFF734FDFFF7AAF8E0
:102F0000FFF710F9FFF7D0F9FDF73EFE4FF4FA7026
:102F1000FEF72AF8FFF726F905E0FDF7C5FBFFF7F6
:102F20002DF8FFF731FAF8E700000000000000007C
:102F3000010203040607080900000000010203045F
:102F40000000000000000000002F0000000007004B
:102F5000070000147F147F1400242A7F2A120062C5
:102F60006408132300364955225000000503000071
:102F700000001C224100000041221C000014083EF9
:102F800008140008083E0808000000A060000008BF
:102F90000808080800006060000000201008040213
:102FA000003E5149453E0000427F400000426151D1
:102FB0004946002141454B31001814127F1000276B
:102FC00045454539003C4A4949300001710905032E
:102FD00000364949493600064949291E000036365F
:102FE00000000000563600000008142241000014C2
:102FF000141414140000412214080002015109069F
:1030000000324959513E007C1211127C007F49491F
:103010004936003E41414122007F4141221C007F50
:1030200049494941007F09090901003E4149497A5E
:10303000007F0808087F0000417F410000204041D8
:103040003F01007F08142241007F40404040007F44
:10305000020C027F007F0408107F003E4141413E88
:10306000007F09090906003E4151215E007F0919D0
:1030700029460046494949310001017F0101003FCD
:103080004040403F001F2040201F003F4038403F4D
:1030900000631408146300070870080700615149B1
:1030A000454300007F41410000552A552A55000044
:1030B00041417F00000402010204004040404040C2
:1030C000000001020400002054545478007F48445A
:1030D000443800384444442000384444487F003891
:1030E0005454541800087E0901020018A4A4A47CBA
:1030F000007F080404780000447D40000040808484
:103100007D00007F102844000000417F4000007CCB
:1031100004180478007C08040478003844444438D7
:1031200000FC242424180018242418FC007C080423
:10313000040800485454542000043F444020003CFC
:103140004040207C001C2040201C003C4030403C83
:10315000004428102844001CA0A0A07C0044645413
:103160004C44141414141414000000000000000057
:10317000000000000000FC00000000000200000051
:10318000000C020C020000000000000090D0BCD037
:10319000BC900003000300001824FE448C000302CE
:1031A000070201001824D8B04C800003000102017E
:1031B000C038E438E0000102020102020806000003
:1031C0000000000000000000000000F80402000001
:1031D00000010204000204F80000000402010000E3
:1031E0009060F86090000000010000002020FC20AA
:1031F00020000000010000000000000000000806A0
:10320000000000002020202020000000000000001E
:103210000000000000000002000000000080601CB0
:103220000200040300000000F8040404F800010296
:10323000020201000008FC0000000002030200007E
:103240001884442418000302020202000804242403
:10325000D80001020202010040B088FC800000009A
:10326000000302003C242424C400010202020100E5
:10327000F824242CC0000102020201000C04E41C0A
:103280000400000003000000D8242424D800010218
:103290000202010038444444F80000030202010025
:1032A00000001000000000000200000000002000EC
:1032B000000000000600000000205088040200000A
:1032C000000001029090909090000000000000002B
:1032D0000002048850200002010000001804C424E9
:1032E0001800000002000000F804E494F800010255
:1032F0000202020000E09CF08000020300000302D2
:1033000004FC2424D800020302020100F80404048F
:103310000C0001020202010004FC0404F800020394
:103320000202010004FC24740C00020302020300E8
:1033300004FC24740C00020302000000F0080444A2
:10334000CC4000010202010004FC2020FC04020326
:10335000000003020404FC04040002020302020051
:10336000000404FC040406040403000004FC24D04C
:103370000C0402030200030204FC04000000020328
:1033800002020203FC3CC03CFC00030003000300FB
:1033900004FC30C4FC04020302000300F80404042B
:1033A000F80001020202010004FC242418000203B8
:1033B00002000000F8848404F800010202070500FE
:1033C00004FC24649800020302000302182424442D
:1033D0008C000302020201000C04FC040C00000239
:1033E0000302000004FC0000FC04000102020100D2
:1033F000047C80E01C040000030000001CE03CE0B2
:103400001C00000300030000049C609C04000203F5
:1034100000030200041CE01C040000020302000080
:103420000C84641C04000203020203000000FE027C
:103430000200000007040400000E30C0000000007D
:1034400000010200000202FE000000040407000068
:103450000004020400000000000000000000000062
:10346000000008080808080800000200000000002A
:10347000000000000040A0A0C00000010202030202
:1034800004FC2020C00000030202010000C0202034
:10349000600000010202020000C02024FC000001C4
:1034A0000202030200C0A0A0C0000001020202004C
:1034B0000020F82424040002030202000040A0A01F
:1034C000602000070A0A0A0404FC2020C00002034E
:1034D000020003020020E4000000000203020000DA
:1034E000000020E4000008080807000004FC80E059
:1034F00020200203020003020404FC000000020278
:1035000003020200E020E020C000030003000300EB
:1035100020E02020C00002030200030200C020209F
:10352000C00000010202010020E02020C000080FBE
:103530000A02010000C02020E0000001020A0F087A
:1035400020E0402020000203020000000060A0A054
:1035500020000002020203000020F820000000000A
:103560000102020020E00020E0000001020203024C
:1035700020E0208060200000030100006080E080E7
:103580006000000300030000206080602000020350
:103590000003020020E020806020080807010000EE
:1035A0000020A0602000000203020200000020DED4
:1035B0000200000000070400000000FF00000000FF
:1035C000000F00000002DE200000000407000000E1
:1035D00002010204040200000000000000000000DC
:1035E000000000000000000000000000000000F8E3
:1035F00000000000000000333000000000100C0646
:10360000100C0600000000000000000040C07840E0
:10361000C0784000043F04043F040400007088FCAC
:1036200008300000001820FF211E0000F008F00004
:10363000E018000000211C031E211E0000F0088875
:10364000700000001E2123241927211010160E00DF
:10365000000000000000000000000000000000E08A
:10366000180402000000000718204000000204189F
:10367000E00000000040201807000000404080F0FB
:10368000804040000202010F01020200000000F031
:10369000000000000101011F010101000000000005
:1036A0000000000080B0700000000000000000007A
:1036B0000000000000010101010101010000000003
:1036C000000000000030300000000000000000009A
:1036D00080601804006018060100000000E0100877
:1036E0000810E000000F102020100F00001010F84C
:1036F000000000000020203F20200000007008088B
:10370000088870000030282422213000003008880A
:10371000884830000018202020110E000000C02032
:1037200010F8000000070424243F240000F8088853
:10373000880808000019212020110E0000E01088E0
:1037400088180000000F112020110E000038080812
:10375000C83808000000003F000000000070880822
:1037600008887000001C222121221C0000E01008A3
:103770000810E0000000312222110F00000000C0FC
:10378000C000000000000030300000000000008099
:103790000000000000008060000000000000804089
:1037A00020100800000102040810200040404040A2
:1037B00040404000040404040404040000081020F5
:1037C000408000000020100804020100007048083A
:1037D0000808F0000000003036010000C030C828A2
:1037E000E810E0000718272423140B000000C0385D
:1037F000E0000000203C23020227382008F88888D7
:1038000088700000203F202020110E00C0300808E2
:1038100008083800071820202010080008F80808B9
:103820000810E000203F202020100F0008F88888B2
:10383000E8081000203F20202320180008F888887E
:10384000E8081000203F200003000000C0300808F6
:103850000838000007182020221E020008F808007F
:103860000008F808203F210101213F20000808F846
:10387000080800000020203F202000000000080869
:10388000F8080800C08080807F00000008F888C029
:1038900028180800203F20012638200008F80800DA
:1038A00000000000203F20202020300008F8F80011
:1038B000F8F80800203F003F003F200008F830C023
:1038C0000008F808203F200007183F00E010080813
:1038D0000810E0000F10202020100F0008F8080842
:1038E0000808F000203F210101010000E010080855
:1038F0000810E0000F18242438504F0008F888887A
:1039000088887000203F2000030C30200070880859
:10391000080838000038202121221C00180808F867
:10392000080818000000203F2000000008F80800E8
:103930000008F808001F202020201F0008788800B9
:1039400000C83808000007380E010000F80800F829
:103950000008F800033C0700073C030008186880D3
:103960008068180820302C03032C30200838C80049
:10397000C83808000000203F200000001008080898
:10398000C83808002038262120201800000000FE3A
:10399000020202000000007F40404000000C30C0E6
:1039A00000000000000000010638C0000002020212
:1039B000FE000000004040407F00000000000402C4
:1039C00002020400000000000000000000000000EF
:1039D00000000000808080808080808000020204DF
:1039E00000000000000000000000000000008080D7
:1039F000808000000019242222223F2008F8008045
:103A000080000000003F112020110E000000008007
:103A100080800000000E1120202011000000008096
:103A20008088F800000E112020103F2000008080C8
:103A300080800000001F222222221300008080F0DC
:103A4000888888180020203F202000000000808007
:103A500080808000006B94949493600008F800804C
:103A600080800000203F210000203F2000809898A7
:103A7000000000000020203F202000000000008007
:103A80009898000000C08080807F000008F8000047
:103A900080808000203F24022D302000000808F89C
:103AA000000000000020203F202000008080808057
:103AB00080808000203F20003F20003F80800080E9
:103AC00080800000203F210000203F2000008080F7
:103AD00080800000001F202020201F0080800080A8
:103AE0008000000080FFA12020110E000000008057
:103AF00080808000000E112020A0FF808080800048
:103B00008080800020203F21200001000000808074
:103B1000808080000033242424241900008080E069
:103B2000808000000000001F202000008080000036
:103B300000808000001F202020103F208080800017
:103B40000080808000010E30080601008080008027
:103B5000008080800F300C030C300F00008080004C
:103B6000808080000020312E0E3120008080800077
:103B70000080808080818E70180601000080808027
:103B8000808080000021302C2221300000000000C5
:103B9000807C020200000000003F40400000000066
:103BA000FF00000000000000FF0000000002027C97
:103BB000800000000040403F0000000000060101BE
:103BC00002020404000000000000000000000000E9
:103BD00000000000000000000000000000000000E5
:103BE00000000000000000000000000000000000D5
:103BF0000000000000F0F0F00000000000000000F5
:103C000000017F010000000000000000001C1C1CDF
:103C10000000000000008060301C8C60301C0C0034
:103C20000000000000000000000000000000000094
:103C30000000000000000000000000E000000000A4
:103C400000E000000086E69F86868686E69F860066
:103C500000011F01010101011F010100000080C0DE
:103C60006020F820E0C00000000003070C18FF707F
:103C7000E18100000000070F10107F100F07000007
:103C80008060206080000000E02000000F302030C5
:103C90009F70DC371030C0000000100E03000718C2
:103CA000101807000000C02020E0C0000000000045
:103CB00080E01F38E88703C43C040000070F181099
:103CC000100B070D1010080000808C4C380000000D
:103CD00000000000000000000000000000000000E4
:103CE00000000000000000000000000000000000D4
:103CF000000080E0300804000000000000FEFF012A
:103D000000000000000000000000030F1820400029
:103D100000040830E0800000000000000000000007
:103D200001FFFE0000000000004020180F0300000B
:103D300000000000000000000000C00000000000C3
:103D4000004266663C18FF183C66664200000000B0
:103D500000000300000000000000000000008000E0
:103D600000000000001010101010FF1010101010B4
:103D70000000000000000300000000000000000040
:103D80000000000000000000000000000000000033
:103D90000000000000808C4C380000000000000093
:103DA00000000000000000000000000000101010E3
:103DB0001010101010101000000000000000000093
:103DC00000000000000000000000000000000000F3
:103DD00000000000000000000000000000001C1CAB
:103DE0001C000000000000000000000000000000B7
:103DF000E0380C000000000080701C030000000090
:103E00000060380E0100000000000000000080C0CB
:103E100060202060C080000000FEFF010000000064
:103E200001FFFE000001070E181010180E07010018
:103E30000000808080C0E000000000000000000062
:103E400000FFFF000000000000001010101F1F10F6
:103E5000101000000080402020202060C080000062
:103E600000030300804020381F070000001C1A19BF
:103E700018181818181F00000080C020202060C0EB
:103E800080000000000303001010182FE7800000DE
:103E900000070F10101010180F070000000000009E
:103EA0000000C0E0F000000000C0B088868180FF04
:103EB000FF808000000000000010101F1F10100085
:103EC0000000E060606060606060000000003F1023
:103ED00008080818F0E0000000070B101010101C74
:103EE0000F030000000080C040202020E0C0000040
:103EF00000FCFF211008080818F0E0000001070C82
:103F000018101010080F03000000C0E0606060602F
:103F100060E06000000003000000E01807000000FF
:103F200000000000001F1F00000000000080C060B3
:103F30002020202060C080000087EF2C181830302F
:103F400068CF830000070F0810101010180F07002B
:103F50000000C0C020202020C0800000001F3F6063
:103F60004040402010FFFE0000000C1C1010100804
:103F70000F0300000000000000000000000000002F
:103F800000000000000E0E0E000000000000000007
:103F9000001C1C1C000000000000000000000000CD
:103FA0000000000000000000000C0C0000000000F9
:103FB0000000000000583800000000000000000071
:103FC0000000008040201000000010284482010002
:103FD00000000000000000000000010204081000C2
:103FE0000000000000000000000000000084848445
:103FF0008484848484848400000000000000000025
:1040000000000000000010204080000000000000C0
:104010000000000000000182442810000000100889
:10402000040201000000000000C020201010101049
:1040300030E0C0000003030000F010080C0703008C
:10404000000000001C1C1C0000000000000000C05C
:10405000406020202040C00000FCFF01F00E03C1A2
:10406000FE03807F0001070E0811111011090402E0
:104070000000000080E0E000000000000000807C04
:104080004340477FF880000010181F100000000018
:10409000131F1C1020E0E02020202060C0800000C2
:1040A00000FFFF10101010182FE78000101F1F10C6
:1040B00010101010180F0700000080C040202020B2
:1040C0002060E00000FCFF01000000000000010093
:1040D0000001070E181010100804030020E0E02073
:1040E00020202040C080000000FFFF0000000000F2
:1040F00001FFFE00101F1F10101018080E0701000E
:1041000020E0E020202020202060800000FFFF1021
:104110001010107C00000000101F1F101010101055
:104120001018060020E0E0202020202060608000A1
:1041300000FFFF101010107C00000100101F1F1066
:104140000000000000000000000080C0602020206F
:1041500040E0000000FCFF0100004040C0C14040C2
:104160000001070E181010100F0F000020E0E020D3
:104170000000000020E0E02000FFFF1010101010F1
:1041800010FFFF00101F1F1000000000101F1F1065
:104190000000202020E0E02020200000000000009F
:1041A00000FFFF000000000000001010101F1F1093
:1041B0001010000000000000202020E0E02020205F
:1041C00000000000000000FFFF0000000060E08031
:1041D0008080C07F3F00000020E0E020000020A0A1
:1041E0006020200000FFFF30187CE3C000000000CA
:1041F000101F1F10000001131F1C181020E0E020EA
:10420000000000000000000000FFFF0000000000B0
:1042100000000000101F1F101010101010180600D2
:1042200020E0E0E000000000E0E0E02000FF013FCF
:10423000FEC0E01E01FFFF00101F1000031F03005F
:10424000101F1F1020E0E0C0000000000020E02050
:1042500000FF0003071C78E08000FF00101F100023
:1042600000000000030F1F00000080C060202060DD
:10427000C080000000FEFF010000000000FFFE0003
:104280000001070E181010180C07010020E0E020B4
:104290002020202060C0800000FFFF202020202060
:1042A000301F0F00101F1F10000000000000000052
:1042B000000080C060202060C080000000FEFF0180
:1042C0000000000000FFFE000001070E1111133C6A
:1042D0007C67210020E0E0202020202060C08000BA
:1042E00000FFFF101030F0D0080F0700101F1F1044
:1042F000000000030F1C10100080C0602020202050
:104300004040E00000070F0C1818303060E08100DA
:10431000001F0C0810101010180F070080602020DC
:1043200020E0E020202060800100000000FFFF006E
:104330000000000100000000101F1F10000000001E
:1043400020E0E020000000000020E02000FFFF004F
:10435000000000000000FF0000070F1810101010F0
:10436000100807002060E0E02000000020E060204E
:104370000000077FF88000807C0300000000000040
:10438000071F1C070000000020E0E02000E0E02004
:104390000020E0200007FFF8E01FFFFCE01F000006
:1043A0000000031F0300011F03000000002060E065
:1043B000A0000020E0602000000000038F7CF8C611
:1043C000010000000010181E130001171F18100034
:1043D0002060E0E02000000020E0602000000107F5
:1043E0003EF8E0180700000000000010101F1F102A
:1043F0001000000000806020202020A0E0E02000CD
:1044000000000000C0F03E0F0300000000101C1F61
:1044100017101010101806000000000000FC040423
:10442000040404000000000000FF00000000000081
:1044300000000000007F404040404000000010E0CD
:10444000000000000000000000000000031C60806D
:104450000000000000000000000000030C7080005D
:1044600000000404040404FC00000000000000003C
:10447000000000FF00000000000040404040407F7E
:104480000000000000000010080C040C08100000E0
:10449000000000000000000000000000000000001C
:1044A000000000000000000000000000000000000C
:1044B00000000000000000000000000000000000FC
:1044C00080808080808080808080808000000004E8
:1044D00004080800000000000000000000000000C8
:1044E00000000000000000000000000000000000CC
:1044F000000000000000000000000000000098D84C
:1045000044642424FCF80000000F1F181010100849
:104510001F1F10180020E0F0000000000000000045
:104520000000FFFF180804040CF8F00000001F0F43
:1045300018101010180F0300000000000000000009
:104540000000000000E0F8180404043C38000000FB
:1045500000030F0C101010100806000000000000EF
:1045600000000020E0F0000000E0F81C0404040853
:10457000FFFF000000030F18101010081F0F0800A5
:104580000000000000000000000000000000E0F853
:10459000484444444C7870000000030F0C1810107D
:1045A000100804000000000080C0602020E0C0006F
:1045B00000040404FFFF04040404000000001010C1
:1045C0001F1F10101000000000000000000000007D
:1045D00000000000000070F88C04048CF874040CD7
:1045E000007076CF8D8D8D89C87870000020E0F046
:1045F00000000000000000000000FFFF08040404A9
:10460000FCF8000000101F1F100000101F1F1000FA
:1046100000000000006060000000000000000404D2
:1046200004FCFC000000000000001010101F1F1010
:10463000101000000000000000000060600000009A
:1046400000000000040404FCFC0000000000C0C0E6
:104650008080C07F3F0000000020E0F000000000EC
:10466000000000000000FFFF80C0F41C04040000F4
:1046700000101F1F1100031F1C101000000020203D
:1046800020E0F000000000000000000000FFFF003C
:104690000000000000001010101F1F10101000007C
:1046A00000000000000000000000000004FCFC0806
:1046B00004FCFC0804FCFC00101F1F10001F1F104E
:1046C000001F1F100000000000000000000000009C
:1046D0000004FCFC08080404FCF8000000101F1F84
:1046E000100000101F1F100000000000000000005C
:1046F0000000000000E0F0180C04040C18F0E000CA
:1047000000030F0C101010100C0F0300000000002D
:1047100000000000000000000004FCFC0804040489
:104720000CF8F0000080FFFF889010101C0F0300B1
:1047300000000000000000000000000000E0F81C85
:1047400004040408F8FC000000030F1810109088FF
:10475000FFFF8000000000000000000000000000DB
:10476000040404FCFC100804040C0C001010101FBE
:104770001F101010000000000000000000000000EA
:104780000000000000003078CCC48484840C1C003D
:1047900000001E1810101011190F06000000000074
:1047A00000C000000000000000040404FFFF040437
:1047B00004000000000000000F1F1010100C00008B
:1047C0000000000000000000000000000004FCFEEB
:1047D00000000004FCFE000000000F1F181010086D
:1047E0001F0F080000000000000000000000000093
:1047F00000040C3CFCC40000C43C0C04000000009D
:10480000010F1E0E0100000000000000000000006B
:1048100000000000043CFCC400E47CFC84807C04B8
:104820000000071F070000071F070000000000002E
:1048300000000000000000000004041C7CE4C03400
:104840001C0404000010101C1601131F1C1810007B
:1048500000000000000000000000000000040C3C0C
:10486000FCC400C43C0404000000C080C1370E0139
:104870000000000000000000000000000000000038
:1048800000001C0404C4F47C1C0400000000101C84
:104890001F17111010180E0000000000000000F893
:1048A0000C04000000000000001028EF00000000D1
:1048B000000000000000003F604000000000000019
:1048C0000000FF0000000000000000000000FF00EA
:1048D00000000000000000000000FF0000000000D9
:1048E0000000040CF80000000000000000000000C0
:1048F000EF28100000000000000040603F000000B2
:1049000000000000001806020204081020203008F1
:104910000000000000000000000000000000000097
:1049200000000000000000000000F80808F80C0B70
:1049300008F80808F800000040407F40407F4040F1
:10494000407F40407F4040000000FE028282828221
:10495000FA8282828282020080601F404040404092
:104960007F40404458404000008060F80704E4A4C1
:10497000A4BFA4A4E4040000010000FF40407F4A5B
:104980004A4A4A4A7F404000000000C08080808040
:10499000808080FC84808080808080C0C000000097
:1049A000000000FF7F404040404040FF404040400A
:1049B000404040FF7F0000000000000000000000B9
:1049C0000000007F700000000000000000000000F8
:1049D000000000000000000000000000000000FCDB
:1049E000F8000000000000000000000000000000CF
:1049F00000000000FFFE020202020202020202FFA9
:104A0000FF020202020202020202FF030000000093
:104A1000000000001F1F040404040404040404FF35
:104A2000FF0404040404040404041F000000000044
:104A30000000000000000000000000000000007FF7
:104A40003F00000000000000000000000000000027
:104A50000000000000000000000000000000000056
:104A600000000000000000000000000000F8F8F066
:104A7000F0702000000000000000000000000000B6
:104A80000000000000000000000000000000000026
:104A90000000000000000000800000000000000096
:104AA00000000000000000000000000000FFFFFF09
:104AB000FF000000000000000000000000000000F7
:104AC00000000000808000000000000000000000E6
:104AD000000000000000000000FFFFFE06060606C2
:104AE00006060606060606060606060606FFFFFF7B
:104AF000FF0606060606060606060606060606065D
:104B0000060606FFFFFFFF0702000000000000008E
:104B1000000000000000000000FFFFFF0000000098
:104B200000000000000000000000000000FFFFFF88
:104B3000FF00000000000000000000000000000076
:104B4000000000FFFFFFFF00000000000000000069
:104B5000000000000000000000FFFFFF18181818F8
:104B600018181818181818181818181818FFFFFF10
:104B7000FF181818181818181818181818181818CE
:104B8000181818FFFFFFFF000000000000000000E1
:104B90000000000000000000020101000000000011
:104BA00000000000000000000000000000FFFFFF08
:104BB000FF000000000000000000000000000000F6
:104BC00000000001010000000000000000000000E3
:104BD00000000000000000000000000000000000D5
:104BE00000000000000000000000000000FFFFFFC8
:104BF000FF000000000000000000000000000000B6
:104C000000000000000000000000000000000000A4
:104C10000000000000000000000000000000000094
:104C2000000000000000000000000000001F1F0F37
:104C30000F00000000000000000000000000000065
:104C40000000000000000000000000000000000064
:104C50000400000800000000000000020001000045
:104C600010000000844C0008000000203C00000000
:104C700028010008C04C00083C000020A40D0000E2
:104C800044010008000000000000000000000000D7
:104C90000000000000000000000000000000000014
:104CA00000000000000000000000000010000000F4
:104CB000010000000024F4000000000000000000DB
:04000005080000ED02
:00000001FF
